:020000040800F2
:10000000000002200D3800082537000827370008B7
:10001000293700082B3700082D37000800000000A2
:100020000000000000000000000000002F37000862
:10003000313700080000000033370008353700086A
:100040005D3800085D3800085D3800085D3800083C
:100050005D3800085D3800085D3800085D3800082C
:100060005D3800085D3800085D3800085D3800081C
:100070005D3800085D3800085D3800085D3800080C
:100080005D3800085D3800085D3800085D380008FC
:100090005D3800085D3800085D3800085D380008EC
:1000A00041370008513700086137000871370008F0
:1000B000813700085D380008913700085D38000876
:1000C0005D3800085D3800085D3800085D380008BC
:1000D0005D3800085D380008A13700085D38000869
:1000E0005D3800085D3800085D3800085D3800089C
:1000F0005D3800085D3800085D3800085D3800088C
:100100005D3800085D3800085D3800085D3800087B
:10011000B13700085D3800085D3800085D38000818
:100120005D3800085D3800085D3800085D3800085B
:100130005D38000800000000000000005D38000885
:100140005D3800085D3800085D3800085D3800083B
:100150005D3800085D3800085D3800085D3800082B
:100160005D3800085D3800085D3800085D3800081B
:100170005D3800085D3800085D38000800000000A8
:10018000000000005D3800080000000000000000D2
:100190005D38000800000000000000005D38000825
:1001A0000000000000000000000000005D380008B2
:1001B0005D3800085D3800085D3800085D380008CB
:0401C0005D3800089E
:1001D00010B5054C237833B9044B13B10448AFF381
:1001E00000800123237010BDDC010020000000000E
:1001F0007844000808B5034B1BB103490348AFF32B
:10020000008008BD00000000E001002078440008E4
:1002100053B94AB9002908BF00281CBF4FF0FF316D
:100220004FF0FF3000F072B9ADF1080C6DE904CE6B
:1002300000F006F8DDF804E0DDE9022304B07047C1
:100240002DE9F047089E04468846002B4BD18A4290
:10025000154667D9B2FA82F24AB1C2F1200701FA13
:1002600002F320FA07F7954047EA030894404FEA63
:10027000154E230CB8FBFEF71FFA85FC0EFB178802
:1002800043EA084307FB0CF1994209D9EB1807F13F
:10029000FF3080F01B81994240F21881023F2B44CD
:1002A0005B1AA4B2B3FBFEF00EFB103344EA034426
:1002B00000FB0CFCA44509D92C1900F1FF3380F098
:1002C0000781A44540F2048102382C4440EA0740EB
:1002D000A4EB0C0400271EB1D4400023C6E9004360
:1002E0003946BDE8F0878B4209D9002E00F0EB803B
:1002F0000027C6E9000138463946BDE8F087B3FA61
:1003000083F7002F47D18B4202D3824200F2FA805A
:10031000841A61EB030301209846002EE0D0C6E961
:100320000048DDE702B9FFDEB2FA82F2002A40F0AF
:100330008F80491B4FEA154E1FFA85F80127B1FB44
:10034000FEFC230C0EFB1C1143EA014308FB0CF1DD
:10035000994207D9EB180CF1FF3002D2994200F212
:10036000CD808446591AA3B2B1FBFEF00EFB1014E7
:1003700043EA044408FB00F8A04507D92C1900F112
:10038000FF3302D2A04500F2B6801846A4EB080461
:1003900040EA0C409FE7C7F1200CBB4022FA0CFE5C
:1003A0004EEA030E01FA07F420FA0CF521FA0CF3D9
:1003B0004FEA1E482543B3FBF8F92C0C08FB193310
:1003C0001FFA8EFA44EA034309FB0AF49C4202FA3C
:1003D00007F200FA07F10BD91EEB030309F1FF3016
:1003E00080F087809C4240F28480A9F10209734426
:1003F0001B1BADB2B3FBF8F008FB103345EA034416
:1004000000FB0AFAA24508D91EEB040400F1FF33F1
:100410006BD2A24569D90238744440EA0940A0FB76
:100420000289A4EB0A044C45C2464B4654D351D032
:10043000002E69D0B1EB0A0564EB030404FA0CFC4E
:10044000FD40FC404CEA0505C6E90054002747E79B
:10045000C2F1200320FA03F7954001FA02F021FAD5
:1004600003F34FEA154E3843010CB3FBFEF71FFAB6
:1004700085F80EFB173341EA034107FB08F38B4273
:1004800004FA02F407D9691807F1FF3C2FD28B4216
:100490002DD9023F2944CB1A81B2B3FBFEF00EFBEB
:1004A000103341EA034100FB08F38B4207D9691876
:1004B00000F1FF3C17D28B4215D902382944C91AE2
:1004C00040EA07473BE73746304609E70746E7E695
:1004D0001846FBE64145ABD2B8EB020A69EB0E02C7
:1004E00001381346A4E76046E9E7184695E76746F2
:1004F000D1E781467CE702382C4447E7ACF1020C97
:100500002B442FE7384608E73746E9E6704700BF37
:10051000034613F8012B002AFBD1181A0138704743
:1005200001F0FF01102A2BDB10F0070F08D010F8A4
:10053000013B013A8B422DD010F0070F42B3F6D1A8
:10054000F0B441EA012141EA014122F007047FF0C1
:1005500000070023F0E80256083C85EA010586EA18
:10056000010685FA47F5A3FA87F586FA47F6A5FA54
:1005700087F68EB9EED1F0BC01F0FF0102F0070260
:1005800032B110F8013B013A83EA010313B1F8D10B
:100590000020704701387047002D06BF35460338EC
:1005A000073815F0010F07D1013015F4807F02BF25
:1005B000013015F4C03F0130F0BC0138704700BF76
:1005C00010B504460E4B18784FF47A73B3FBF0F372
:1005D0000C4A1068B0FBF3F000F034FA68B90F2C45
:1005E00001D901200AE0002221464FF0FF3000F03F
:1005F000E9F9034B5C60002000E0012010BD00BF62
:10060000000000200800002008B50B4B1A6842F4D7
:1006100000721A601A6842F480621A601A6842F422
:1006200080721A60032000F0BBF90020FFF7C8FFBA
:1006300002F024FE002008BD003C0240034A11687D
:10064000034B1B780B441360704700BF4802002027
:1006500000000020014B1868704700BF48020020CE
:1006600038B50446FFF7F6FF0546B4F1FF3F02D068
:10067000044B1B781C44FFF7EDFF401BA042FAD34C
:1006800038BD00BF00000020494B5A6822F44032B8
:100690005A605A6841680A435A600268536823F4F2
:1006A0008073536002685368016943EA0123536011
:1006B0000268536823F0407353600268536881688E
:1006C0000B4353600268936823F4006393600268ED
:1006D0009368C1680B439360826A364B9A4249D053
:1006E0000268936823F07063936002689368816A7C
:1006F0000B4393600268936823F040539360026851
:100700009368C16A0B4393600268936823F0020305
:10071000936002689368816943EA41039360036AC6
:10072000002B32D10268536823F4006353600268DF
:10073000D36A23F47003D3620168CB6AC269013AB9
:1007400043EA0253CB620268936823F40073936018
:1007500002689368016B43EA4123936002689368DF
:1007600023F48063936002689368416943EA8123BC
:10077000936070470268936823F070639360026827
:10078000936823F040539360BEE70268536843F4D4
:10079000006353600268536823F460435360016848
:1007A0004B68426A013A43EA42334B60BFE700BFFD
:1007B000002301400100000F30B310B50446036C64
:1007C00043B1236C13F0100F0AD00120002384F8EA
:1007D0003C3010BD436480F83C3002F099FDF0E7F6
:1007E000236C23F4885323F0020343F002032364B1
:1007F0002046FFF749FF00206064236C23F00303C9
:1008000043F001032364E1E70120704730B482B074
:100810000023019390F83C30012B00F0B5800123B8
:1008200080F83C300B68092B3ED90568EA689BB21A
:1008300003EB43031E3B072404FA03F322EA0303FA
:10084000EB600568EA688C680B8803EB43031E3B8A
:1008500004FA03F31343EB604B68062B3AD80568A0
:100860006A6B03EB8303053B1F2404FA03F322EABC
:1008700003036B6305686A6B4B6803EB8303053BFB
:100880000C8804FA03F313436B6302683F4B9A42EC
:1008900050D002683D4B9A4255D0002380F83C303E
:1008A000184602B030BC704705682A699BB203EB5A
:1008B0004303072404FA03F322EA03032B610568C8
:1008C0002A698C680B8803EB430304FA03F3134390
:1008D0002B61C1E70C2B16D805682A6B03EB830349
:1008E000233B1F2404FA03F322EA03032B63056866
:1008F0002A6B4B6803EB8303233B0C8804FA03F356
:1009000013432B63C1E70568EA6A03EB8303413BAA
:100910001F2404FA03F322EA0303EB620568EA6A80
:100920004B6803EB8303413B0C8804FA03F3134346
:10093000EB62AAE70B68122BABD1154A536843F45C
:1009400080035360A5E70B68124A934201D0112B34
:10095000A3D10F4A536843F4000353600A680D4B58
:100960009A429AD10C4B1B680C4AA2FB03239B0CA6
:1009700003EB83035A00019202E0019B013B0193C8
:10098000019B002BF9D188E702208AE70020014073
:1009900000230140120000100800002083DE1B43EA
:1009A000074AD36823F4E0631B041B0C000200F425
:1009B000E060184340F0BF6040F40030D060704702
:1009C00000ED00E030B4174BDB68C3F30223C3F142
:1009D0000704042C28BF04241D1D062D18D9033B31
:1009E0004FF0FF3505FA04F421EA0401994005FAB5
:1009F00003F322EA0303194300280BDB0901C9B200
:100A000000F1604000F5614080F8001330BC704791
:100A10000023E5E700F00F000901C9B2024B1954A9
:100A2000F4E700BF00ED00E014ED00E000F01F026D
:100A3000400901239340024A42F82030704700BF2A
:100A400000E100E00138B0F1807F0AD2064B586027
:100A5000064AF02182F823100020986007221A60CD
:100A600070470120704700BF10E000E000ED00E09B
:100A7000042805D0054A136823F004031360704767
:100A8000024A136843F004031360704710E000E06B
:100A9000704708B5FFF7FCFF08BD90F83530DBB2B2
:100AA000022B03D08023436501207047052380F883
:100AB00035300268136823F001031360002070478B
:100AC00000230F2B00F2D180F0B482B039E006226F
:100AD00000E00022B2403A430234644E46F824203B
:100AE000634A1468EA4302EA04064F6817F4803F39
:100AF00001D045EA04065E4C2660646802EA0406FA
:100B00004F6817F4003F01D045EA0406584C666070
:100B1000A46802EA04064F6817F4801F01D045EA72
:100B20000406534CA660E46822404E6816F4001F89
:100B300001D045EA04024E4CE26001330F2B00F273
:100B4000918001229A400C6804EA0205AA42F4D17D
:100B50004C68022C01D0122C10D1DE08083650F857
:100B600026C003F00704A7000F24BC402CEA040CA5
:100B70000C69BC4044EA0C0440F8264004685F005D
:100B80000326BE40F64306EA040C4C6804F0030456
:100B9000BC4044EA0C0404604C6804F1FF3CBCF126
:100BA000010F03D9112C01D0122C10D1846806EA50
:100BB000040CCC68BC4044EA0C048460446824EA19
:100BC00002024C68C4F300149C4014434460C268A1
:100BD00016408A68BA403243C2604A6812F0805FA9
:100BE000ABD000220192234A546C44F480445464F4
:100BF000526C02F480420192019A9C08A61C1B4A86
:100C000052F8267003F0030296000F22B24027EA42
:100C10000207194A90423FF45CAF02F580629042AD
:100C200016D002F58062904214D002F580629042A4
:100C300012D002F58062904210D002F5806290429C
:100C40000ED002F5806290423FF441AF072241E7A7
:100C500001223FE702223DE703223BE7042239E776
:100C6000052237E702B0F0BC7047704700380140FA
:100C7000003C0140003802400000024012B9090463
:100C80008161704781617047002800F0828010B553
:100C9000044690F83D30002B41D0242384F83D30A9
:100CA0002268136823F00103136000F02DF93A4B1A
:100CB000A3FB00239B0C226853606168374A914272
:100CC00032D80133226813626368344A934235D8BC
:100CD0005B00B0FBF3F0C0F30B03032B00D8042040
:100CE0002368D861E369216A22680B431360236992
:100CF000E16822680B4393606369A16922680B4332
:100D0000D3602268136843F001031360002020645D
:100D1000202384F83D30206384F83E0010BD80F825
:100D20003C3002F023FBB8E74FF4967202FB03F36A
:100D30001B4AA2FB03239B090133C3E7A16889B9BE
:100D400003EB4302B0FBF2F2C2F30B02B2FA82F2FF
:100D50005209E2B991B903EB4303B0FBF3F040F45D
:100D60000040BDE703EB830202EB8202B0FBF2F22C
:100D7000C2F30B02B2FA82F25209EAE703EB8303F1
:100D800003EB8303B0FBF3F040F44040A8E70120FD
:100D9000A6E70120704700BF83DE1B43A086010049
:100DA000D34D6210002800F09D8070B504464F4B73
:100DB0001B6803F00F038B4209D2CBB24B4A13706E
:100DC000136803F00F038B4201D0012070BD23682C
:100DD00013F0020F17D013F0040F04D0444A9368A5
:100DE00043F4E0539360236813F0080F04D0404AA3
:100DF000936843F4604393603D4A936823F0F003A3
:100E0000A068034393600D46236813F0010F32D0AE
:100E10006368012B21D09A1E012A25D9344A126811
:100E200012F0020F60D032498A6822F003021343A5
:100E30008B60FFF70FFC06462D4B9B6803F00C03FD
:100E40006268B3EB820F16D0FFF704FC801B41F2FF
:100E500088339842F0D90320B8E7254A126812F483
:100E6000003FE0D10120B1E7214A126812F0007F73
:100E7000D9D10120AAE71D4B1B6803F00F03AB4239
:100E800009D9EAB2194B1A701B6803F00F03AB4281
:100E900001D001209AE7236813F0040F06D0144A0A
:100EA000936823F4E053E1680B439360236813F0E5
:100EB000080F07D00E4A936823F46043216943EA80
:100EC000C103936000F040F8094B9B68C3F3031320
:100ED000084AD35CD840084B18600020FFF770FB2D
:100EE000002073E70120704701206FE7003C0240BB
:100EF000003802409844000808000020014B1868A0
:100F0000704700BF0800002008B5FFF7F7FF044B4B
:100F10009B68C3F38223034AD35CD84008BD00BF5B
:100F200000380240A844000808B5FFF7E7FF044B6B
:100F30009B68C3F34233034AD35CD84008BD00BF6B
:100F400000380240A84400082DE9F04B5C4B9B6838
:100F500003F00C03082B07D00C2B5BD0042B00F004
:100F6000AD805848BDE8F08B554B5A6802F03F02FF
:100F70005B6813F4800F2AD0514B5B68C3F388136E
:100F80001E4600275C010025E41A65EB0705A90150
:100F900041EA9461A001001B61EB0501CB0043EA2B
:100FA0005073C400A01943EB07014B0243EAD0532E
:100FB0004402204619460023FFF72AF9404B5B689C
:100FC000C3F3014301335B00B0FBF3F0CAE73C4BD2
:100FD0005B68C3F388131E4600275C010025E41AF2
:100FE00065EB0705A90141EA9461A001001B61EBD3
:100FF0000501CB0043EA5073C400A01943EB07017D
:101000008B0243EA90538402204619460023FFF7DF
:10101000FFF8D3E72A4B5A6802F03F025B6813F4EB
:10102000800F28D0264B5B68C3F388131E46002729
:101030005C010025E41A65EB0705A90141EA94610A
:10104000A001001B61EB0501CB0043EA5073C40013
:10105000A01943EB07014B0243EAD0534402204658
:1010600019460023FFF7D4F8154B5B68C3F30273EE
:10107000B0FBF3F076E7124B5B68C3F388131E46B0
:1010800000275C010025E41A65EB0705A90141EA88
:101090009461A001001B61EB0501CB0043EA507392
:1010A000C400A01943EB07018B0243EA905384026A
:1010B000204619460023FFF7ABF8D5E7024851E771
:1010C000003802400024F40000127A0070B582B0AB
:1010D0000446036813F0010F41D0A64B9B6803F050
:1010E0000C03042B32D0A34B9B6803F00C03082B9A
:1010F00027D0A04B9B6803F00C030C2B59D06368DE
:10110000B3F5803F5BD0B3F5A02F5ED0994B1A6842
:1011100022F480321A601A6822F480221A6063680E
:10112000002B5CD0FFF796FA0546924B1B6813F430
:10113000003F14D1FFF78EFA401B6428F5D9032035
:101140009DE18C4B5B6813F4800FD2D0894B1B68F8
:1011500013F4003F03D06368002B00F08D812368F7
:1011600013F0020F67D0834B9B6813F00C0F4AD02B
:10117000804B9B6803F00C03082B3FD07D4B9B6892
:1011800003F00C030C2B48D0E368002B74D07A4B8F
:1011900001221A60FFF75EFA0546764B1B6813F0D2
:1011A000020F60D1FFF756FA401B0228F5D9032041
:1011B00065E1704B5B6813F4800FA0D0C6E76D4A01
:1011C000136843F480331360A9E76A4B1A6842F44A
:1011D00080221A601A6842F480321A609FE7FFF793
:1011E00039FA0546634B1B6813F4003FB7D0FFF78D
:1011F00031FA401B6428F5D9032040E15D4B5B6860
:1012000013F4800FBAD15B4B1B6813F0020F0AD0A6
:10121000E368012B07D0012031E1564B5B6813F4E2
:10122000800FB1D1EFE7534A136823F0F803216927
:1012300043EAC1031360236813F0080F40D06369C9
:1012400063B34E4B01221A60FFF704FA0546494B7F
:101250005B6F13F0020F33D1FFF7FCF9401B02283C
:10126000F5D903200BE1434A136823F0F803216901
:1012700043EAC1031360DEE73F4B00221A60FFF729
:10128000E9F905463B4B1B6813F0020FD3D0FFF77B
:10129000E1F9401B0228F5D90320F0E0374B00228A
:1012A0001A60FFF7D7F90546324B5B6F13F0020F58
:1012B00006D0FFF7CFF9401B0228F5D90320DEE066
:1012C000236813F0040F79D02A4B1B6C13F0805F56
:1012D00033D100230193274B1A6C42F080521A64D9
:1012E0001B6C03F080530193019B0125244B1B6869
:1012F00013F4807F23D0A368012B34D0052B41D079
:101300001C4B1A6F22F001021A671A6F22F00402B6
:101310001A67A368002B3FD0FFF79CF90646154BD0
:101320001B6F13F0020F48D1FFF794F9801B41F2B5
:1013300088339842F3D90320A1E00025D6E7104A6C
:10134000136843F480731360FFF784F906460C4B6F
:101350001B6813F4807FCED1FFF77CF9801B022835
:10136000F5D903208BE0034A136F43F001031367A1
:10137000CFE700BF0038024000004742800E4742DE
:1013800000700040404B1A6F42F004021A671A6F57
:1013900042F001021A67BCE7FFF75CF906463A4BD8
:1013A0001B6F13F0020F08D0FFF754F9801B41F2B6
:1013B00088339842F3D9032061E0E5B9A369002B93
:1013C0005CD0314A926802F00C02082A59D0022BF4
:1013D00017D02E4B00221A60FFF73CF904462A4B27
:1013E0001B6813F0007F45D0FFF734F9001B02287B
:1013F000F5D9032043E0244A136C23F0805313648F
:10140000DCE7224B00221A60FFF724F905461E4B49
:101410001B6813F0007F06D0FFF71CF9401B022861
:10142000F5D903202BE0E369226A1343626A43EA99
:101430008213A26A5208013A43EA0243E26A43EA8B
:101440000263226B43EA02730F4A53600F4B01227F
:101450001A60FFF7FFF804460B4B1B6813F0007F80
:1014600006D1FFF7F7F8001B0228F5D9032006E0A4
:10147000002004E0002002E0012000E0002002B093
:1014800070BD0120FBE700BF00380240600047420A
:1014900000283BD010B504460023836290F85130F9
:1014A000002B2ED0022384F851302268136823F0D9
:1014B000400313606368A2681343E2681343226920
:1014C000134362691343A26902F400721343E26991
:1014D0001343226A1343A16A22680B431360638B90
:1014E00003F00403616A22680B4353602268D369E6
:1014F00023F40063D36100206065012384F8513038
:1015000010BD80F8503001F05DFFCBE7012070473F
:1015100070B4036A23F001030362036A42688469BA
:1015200024F073040D6845EA040623F002048B6876
:1015300023430C4DA84202D00B4CA0420BD123F008
:101540000803CD682B4323F0040322F440724D6955
:1015500015438A692A43426086614A68426303628E
:1015600070BC7047000001400004014030B4036AC1
:1015700023F480730362036A4268C46924F073042D
:101580000D682C4323F400738D6843EA05230E4D48
:10159000A84203D005F58065A8420ED123F400636C
:1015A000CD6843EA052323F4806322F440524D6959
:1015B00042EA05128D6942EA05124260C4614A6836
:1015C000C263036230BC70470000014030B4036A5C
:1015D00023F480530362036A4468C26922F4E6423A
:1015E0000D6842EA052223F400538D6843EA05336F
:1015F000094DA84203D005F58065A84204D124F422
:1016000080444D6944EA85144460C2614A680264BA
:10161000036230BC704700BF0000014010B4036A91
:10162000046A24F001040462846924F0F00444EAAA
:10163000021223F00A030B43826103625DF8044B3C
:10164000704730B4046A24F0100404628469056AA7
:1016500024F4407444EA022222F470421B039BB239
:101660001A4325F0A005090101F0A0012943826178
:10167000016230BC704710B4036A23F010030362A8
:101680008469036A24F4704444EA023223F0A0031C
:1016900043EA0113826103625DF8044B704730B482
:1016A000046A24F480740462C469056A24F00304A3
:1016B000224322F0F0021B01DBB21A4325F420651D
:1016C000090201F420612943C261016230BC704704
:1016D00030B4046A24F480540462C469056A24F4B2
:1016E000407444EA022222F470421B039BB21A4364
:1016F00025F42045090301F420412943C261016218
:1017000030BC7047836823F0700341F00701194330
:101710008160704710B4846824F47F4442EA032354
:101720000B43234383605DF8044B704710B5046896
:10173000A26822F070024B68134323F007030A6883
:101740001343A3604B68502B1ED00AD9602B21D0C5
:10175000702B05D10B698A68C9680068FFF7DAFF4A
:1017600010BD402BFCD103681C6A1A6A22F00102EA
:101770001A620268936923F0F003096943EA0113CE
:10178000936103681C62EBE70A6989680068FFF7E8
:1017900045FFE5E70A6989680068FFF76CFFDFE746
:1017A0000268D36843F00103D3600268136843F012
:1017B00001031360002070477047704790F838307D
:1017C000012B7DD010B50446012380F83830022368
:1017D00080F839300268936823F47F4323F077035D
:1017E00093600B68402B57D010D9702B3ED01FD878
:1017F000502B47D0602B32D1CA6849680068FFF788
:101800003AFF60212068FFF77DFF28E0102B4DD0C4
:1018100008D9202B4FD0302B21D130210068FFF781
:1018200071FF1CE0DBB900210068FFF76BFF16E0D9
:10183000B3F5805F0ED0B3F5005F10D1CB684A6876
:1018400089680068FFF766FF2268936843F4804365
:10185000936004E00268936823F007039360012318
:1018600084F83930002084F8380010BDCB684A680D
:1018700089680068FFF74EFF2268936843F077039A
:101880009360ECE7CA6849680068FFF7C7FE50211B
:101890002068FFF737FFE2E7CA6849680068FFF78A
:1018A000BDFE40212068FFF72DFFD8E7102100681A
:1018B000FFF728FFD3E720210068FFF723FFCEE7DB
:1018C0000220704738B590F83830012B18D0044604
:1018D000012580F83850022380F83930FFF726FFC1
:1018E0002268D36823F04003D3602268D36823F4CE
:1018F0008043D36084F83950002084F8380038BD24
:101900000220FCE7034690F83820012A1ED001226D
:1019100080F838200C2917D8DFE801F007161616D2
:101920000D1616161016161613000268506B0022BC
:1019300083F8382070470268906BF8E70268D06B34
:10194000F5E70268106CF2E70020F0E7022070472C
:1019500070477047704710B5044603681A6912F063
:10196000020F11D0DA6812F0020F0DD06FF00202F0
:101970001A610123037603689B6913F0030F70D08B
:1019800001F088F80023237623681A6912F0040F07
:1019900012D0DA6812F0040F0ED06FF004021A6150
:1019A0000223237623689B6913F4407F5FD020468F
:1019B00001F070F80023237623681A6912F0080FEB
:1019C00012D0DA6812F0080F0ED06FF008021A6118
:1019D000042323762368DB6913F0030F4ED02046DF
:1019E00001F058F80023237623681A6912F0100FCB
:1019F00012D0DA6812F0100F0ED06FF010021A61D8
:101A0000082323762368DB6913F4407F3DD020460A
:101A100001F040F80023237623681A6912F0010FC1
:101A200003D0DA6812F0010F36D123681A6912F078
:101A3000800F03D0DA6812F0800F34D123681A695E
:101A400012F0400F03D0DA6812F0400F32D1236851
:101A50001A6912F0200F03D0DA6812F0200F30D18B
:101A600010BDFFF775FF2046FFF773FF8AE720469A
:101A7000FFF76EFF2046FFF76CFF9BE72046FFF75E
:101A800067FF2046FFF765FFACE72046FFF760FFE2
:101A90002046FFF75EFFBDE76FF001021A612046A6
:101AA00001F01EF8C1E76FF080021A61204600F0D5
:101AB000ECFAC3E76FF040021A612046FFF74AFFD5
:101AC000C5E76FF020021A61204600F0DDFAC7E793
:101AD00003682E4A904212D0B0F1804F0FD0A2F589
:101AE0007C4290420BD002F58062904207D002F512
:101AF0008062904203D002F57842904203D123F0F5
:101B000070034A681343214A90422AD0B0F1804FB3
:101B100027D0A2F57C42904223D002F58062904209
:101B20001FD002F5806290421BD002F578429042AD
:101B300017D002F57052904213D002F580629042A5
:101B40000FD002F5806290420BD0A2F598329042FD
:101B500007D002F58062904203D002F58062904285
:101B600003D123F44073CA68134303608B68C362D4
:101B70000B688362054B984203D003F5806398425B
:101B800001D10B69036301234361704700000140E9
:101B9000A8B110B5044690F839305BB1022384F83F
:101BA0003930211D2068FFF793FF012384F8393075
:101BB000002010BD80F8383001F048FCEEE701202D
:101BC0007047A8B110B5044690F839305BB10223D4
:101BD00084F83930211D2068FFF77AFF012384F84B
:101BE0003930002010BD80F83830FFF7E5FDEEE712
:101BF00001207047A8B110B5044690F839305BB1A8
:101C0000022384F83930211D2068FFF761FF01238A
:101C100084F83930002010BD80F83830FFF7CDFD52
:101C2000EEE701207047002847D0F8B505460C467E
:101C300090F83930002B3BD0022385F83930294603
:101C400051F8042B936823F0070393602868FFF78B
:101C50003FFF29688A688E690F6A2068104326F45E
:101C6000407626F00306A268A36942EA03233343C1
:101C700023F47C4323F0FC03E668E26946EA02268B
:101C80001E43226A1303226943EA0213334327F0F7
:101C9000AA076268646942EA04123A4388602968C4
:101CA0008B612B681A62012385F839300020F8BD5A
:101CB00080F8383001F050FCBEE70120704700008A
:101CC00070B4046A24F0010404628469056A1A4E3F
:101CD000B0421FD0B0F1804F1CD0A6F57C46B04278
:101CE00018D006F58066B04214D006F58066B04282
:101CF00010D006F57846B0420CD006F57056B042CA
:101D000008D0A6F59436B04204D024F0030242F085
:101D1000010202E024F00304224322F0F0021B013E
:101D2000DBB2134325F00A0201F00A01114383617B
:101D3000016270BC704700BF0000014038B590F8E8
:101D40003830012B58D00D460446012380F8383036
:101D5000022380F83930DAB1042A2AD0082A3AD08E
:101D6000CB684A6809680068FFF7B2FC2268D3694B
:101D700023F44063D3612268D369A96843EA01234D
:101D8000D361012384F83930002084F8380038BD4D
:101D9000CB684A6809680068FFF792FF2268936978
:101DA00023F00C03936122689369A9680B43936144
:101DB000E7E7CB684A6809680068FFF742FC2268D9
:101DC000936923F44063936122689369A96843EAA5
:101DD00001239361D5E7CB684A6809680068FFF77B
:101DE0005EFC2268D36923F00C03D3612268D369B7
:101DF000A9680B43D361C4E70220C8E730B4036A83
:101E000023F010030362036A4468826922F4E64205
:101E10000D6842EA052223F020038D6843EA05138A
:101E20000E4DA84203D005F58065A8420ED123F0DF
:101E30008003CD6843EA051323F0400324F4406493
:101E40004D6944EA85048D6944EA850444608261F1
:101E50004A688263036230BC704700BF00000140E3
:101E600038B590F83830012B66D00D460446012372
:101E700080F83830022380F839300C2A1AD8DFE88D
:101E800002F00719191920191919341919194700DD
:101E90000068FFF73DFB2268936943F008039361F4
:101EA0002268936923F00403936122689369296986
:101EB0000B439361012384F83930002084F8380003
:101EC00038BD0068FFF79AFF2268936943F4006306
:101ED00093612268936923F4806393612268936914
:101EE000296943EA01239361E4E70068FFF73EFBB9
:101EF0002268D36943F00803D3612268D36923F0D1
:101F00000403D3612268D36929690B43D361D1E704
:101F10000068FFF75BFB2268D36943F40063D36179
:101F20002268D36923F48063D3612268D369296965
:101F300043EA0123D361BDE70220C1E710B40123C6
:101F400003FA01F4036A23EA04030362036A8A4082
:101F5000134303625DF8044B7047000010B504465C
:101F600001220068FFF7EAFF2368094A934203D081
:101F700002F58062934203D15A6C42F400425A64E3
:101F80002268136843F001031360002010BD00BFF6
:101F90000000014010B504460C290DD8DFE801F01F
:101FA000070C0C0C170C0C0C1D0C0C0C23000268FD
:101FB000D36843F00203D36001222068FFF7BEFF1D
:101FC0002268136843F001031360002010BD02680B
:101FD000D36843F00403D360EEE70268D36843F0AC
:101FE0000803D360E8E70268D36843F01003D360C6
:101FF000E2E710B5044661B1042916D001220021A0
:102000000068FFF79BFF012204212068FFF796FF7D
:1020100004E0012200210068FFF790FF22681368A6
:1020200043F001031360002010BD01220421006869
:10203000FFF784FFF2E790F83830012B22D030B45C
:10204000012280F83820022380F839300468636860
:1020500023F070036360046863680D682B4363605A
:102060000468A36823F08003A3600468A368496838
:102070000B43A36080F83920002380F838301846DD
:1020800030BC704702207047704770470268D368C1
:1020900023F49073D3600268536923F00103536102
:1020A000202380F83A30704790F83930DBB2212B8A
:1020B0002AD18368B3F5805F16D0036A5A1C026286
:1020C0001A7803685A60C38C013B9BB2C384EBB996
:1020D0000268D36823F08003D3600268D36843F0BA
:1020E0004003D36000207047036A1B880268C3F373
:1020F0000803536003691BB9036A02330362E2E712
:10210000036A01330362DEE7022070470020704754
:102110002DE9F843044601680A6922F44052C36875
:1021200013430B610168CA6822F4164222F00C02C4
:1021300083680069034360690343E0690343134311
:10214000CB6021684A6922F44072A36913434B6152
:10215000E369B3F5004F60D02368B84A934200F0BA
:10216000148102F58062934200F00F81FEF7CCFEED
:1021700000EB800000EB80006568AD00B0FBF5F57A
:10218000AF4FA7FB05356D092E01FEF7BDFE00EB35
:10219000800000EB80006568AD00B0FBF5F9FEF74C
:1021A000B3FE00EB800000EB80006568AD00B0FB83
:1021B000F5F5A7FB05356D094FF0640808FB15958B
:1021C0002D013235A7FB05356D0905F0F0053544C5
:1021D000FEF79AFE00EB800000EB80006668B60018
:1021E000B0FBF6F6FEF790FE00EB800000EB8000FF
:1021F00063689B00B0FBF3F0A7FB0030400908FBCD
:1022000010684FEA081808F13208A7FB0837C7F32F
:10221000431723682F449F600DE12368874A934248
:102220005BD002F58062934257D0FEF76DFE00EB63
:10223000800000EB800065686D00B0FBF5F5804F15
:10224000A7FB05356D092E01FEF75EFE00EB800051
:1022500000EB800065686D00B0FBF5F9FEF754FEF9
:1022600000EB800000EB800065686D00B0FBF5F5C9
:10227000A7FB05356D094FF0640808FB1595ED00C7
:102280003235A7FB05356D096D0005F4F875354449
:10229000FEF73AFE00EB800000EB800066687600F7
:1022A000B0FBF6F6FEF730FE00EB800000EB80009E
:1022B00063685B00B0FBF3F3A7FB03235B0908FB38
:1022C00013684FEAC80808F13208A7FB0837C7F3BC
:1022D000421723682F449F60ADE0FEF725FE00EB18
:1022E000800000EB800065686D00B0FBF5F5544F91
:1022F000A7FB05356D092E01FEF716FE00EB8000E9
:1023000000EB800065686D00B0FBF5F9FEF70CFE90
:1023100000EB800000EB800065686D00B0FBF5F518
:10232000A7FB05356D094FF0640808FB1595ED0016
:102330003235A7FB05356D096D0005F4F875354498
:10234000FEF7F2FD00EB800000EB8000666876008F
:10235000B0FBF6F6FEF7E8FD00EB800000EB800036
:1023600063685B00B0FBF3F3A7FB03235B0908FB87
:1023700013684FEAC80808F13208A7FB0837C7F30B
:10238000421723682F449F6055E0FEF7CDFD00EB18
:10239000800000EB80006568AD00B0FBF5F5284FCC
:1023A000A7FB05356D092E01FEF7BEFD00EB800091
:1023B00000EB80006568AD00B0FBF5F9FEF7B4FDF9
:1023C00000EB800000EB80006568AD00B0FBF5F528
:1023D000A7FB05356D094FF0640808FB15952D0125
:1023E0003235A7FB05356D0905F0F0053544FEF7DC
:1023F0009BFD00EB800000EB80006668B600B0FB40
:10240000F6F6FEF791FD00EB800000EB80006368BC
:102410009B00B0FBF3F0A7FB0030400908FB1068FD
:102420004FEA081808F13208A7FB0837C7F343172B
:1024300023682F449F60BDE8F88300BF001001406F
:102440001F85EB512DE9F04105460F46164698468B
:10245000069C2B681B6837EA03030CBF012300238B
:10246000B3421DD1B4F1FF3FF3D02CB1FEF7F2F827
:10247000A0EB0800A042ECD92A68D36823F4D073FB
:10248000D3602A68536923F001035361202385F840
:10249000393085F83A30002385F83830032000E0E1
:1024A0000020BDE8F08158B310B5044690F83930EB
:1024B0000BB3242384F839302268D36823F4005303
:1024C000D3602046FFF724FE2268136923F490436B
:1024D00013612268536923F02A0353612268D36889
:1024E00043F40053D3600020E063202384F83930A4
:1024F00084F83A3010BD80F8383001F097F8D8E70A
:10250000012070472DE9F04182B01E4690F8393025
:10251000DBB2202B55D104460D469046002955D0FC
:10252000002A55D090F83830012B53D0012380F881
:1025300038300023C363212380F83930FEF78AF84E
:102540000746A4F82480A4F8268010E000963B46B5
:10255000002280212046FFF775FF00283CD12B8800
:102560002268C3F3080353602369C3B90235E38CBF
:102570009BB2B3B1E38C013B9BB2E384A368B3F598
:10258000805FE3D000963B46002280212046FFF783
:1025900059FF18BB2A7823685A600135E7E70135EF
:1025A000E5E700963B46002240212046FFF74AFF20
:1025B0000346A8B9202284F83920002284F8382064
:1025C00000E00223184602B0BDE8F0810123F9E7DC
:1025D0000123F7E70223F5E70323F3E70323F1E7FA
:1025E0000323EFE790F83A30DBB2202B1BD1E1B1A7
:1025F000EAB190F83830012B1BD081628285C28508
:102600000023C363222280F83A2080F83830016822
:102610004A6942F001024A610168CA6842F4907254
:10262000CA60184670470220704701207047012099
:10263000704702207047704708B50168CB6823F0E7
:102640004003CB60202380F83930FFF7F4FF0020EF
:1026500008BD08B590F83A30DBB2222B40D1836830
:10266000B3F5805F0ED0036903BB03685A68836AC1
:10267000591C81621A70C38D013B9BB2C385F3B1B3
:1026800000202EE0826A036943B903685B68C3F3E4
:1026900008031380836A02338362ECE703685B6894
:1026A000DBB21380836A01338362E4E703685B680B
:1026B000826A511C816203F07F031370DBE70268BA
:1026C000D36823F49073D3600268536923F0010345
:1026D0005361202380F83A3000F024F9002000E014
:1026E000022008BD7047000010B504460268136858
:1026F000D168526913F00F0005D113F0200F02D0FA
:1027000011F0200F53D1002867D012F0010202D13E
:1027100011F4907F61D013F0010F06D011F4807F87
:1027200003D0E06B40F00100E06313F0040F04D02D
:102730001AB1E06B40F00200E06313F0020F04D026
:102740001AB1E06B40F00400E06313F0080F04D00E
:102750001AB1E26B42F00802E263E26B002A48D051
:1027600013F0200F02D011F0200F24D123685B69F1
:1027700003F04003E26B12F0080F00D13BB3204698
:10278000FFF784FC23685A6912F0400F1BD05A6986
:1027900022F040025A61636B8BB11A4A1A65606B72
:1027A000FEF77BF928B3606B036D984721E0204664
:1027B000FFF74FFF1DE02046FFF74BFFD6E720460F
:1027C000FFF790FF15E02046FFF78CFF11E0204651
:1027D000FFF788FF0023E3630BE013F0800F02D0C4
:1027E00011F0800F06D113F0400F02D011F0400F0E
:1027F00004D110BD2046FFF757FCFAE72046FFF74B
:102800001BFFF6E70928000808B5806B0023C38585
:10281000C384FFF767FF08BD2DE9F0418AB00024AB
:1028200001943B4B1A6B42F004021A631A6B02F0DC
:1028300004020192019A02941A6B42F080021A6318
:102840001A6B02F080020292029A03941A6B42F011
:1028500001021A631A6B02F001020392039A0494B4
:102860001A6B42F002021A631B6B03F0020304931B
:10287000049BDFF8AC8022464FF481514046FEF7BE
:10288000FDF9244F22464FF450413846FEF7F6F941
:10289000214D22464FF480712846FEF7EFF94FF4A0
:1028A000005305931D4B0693079405A92846FEF790
:1028B00007F94FF48153059301260696079408946F
:1028C00005A94046FEF7FCF84FF4504305930696E1
:1028D0000794089405A93846FEF7F2F8802305937B
:1028E000022306930794032308930823099305A959
:1028F0002846FEF7E5F84FF4807305930696079493
:10290000089405A92846FEF7DBF80AB0BDE8F08177
:10291000003802400004024000080240000021107C
:102920000000024008B50C4B1B780C4A12780C4989
:10293000CA540AB9084A53703F2B08D00133064ADB
:102940001370012205490748FFF74CFE08BD024BF2
:1029500000221A70F5E700BFF801002011050020E1
:102960009004002014050020B0F5C84F01D343F2B5
:10297000FF10A0F547503F387047000006EE900A60
:1029800007EE901A9DF8001092B1012A4BD0F8EE94
:10299000E77A27EE877AF8EEE66A77EEE67A67EE70
:1029A000867A77EE277AFDEEE77A17EE900A70477F
:1029B000012911D001291CD019B9204B1B78012BFA
:1029C00026D01F4B93ED007A1E4B93ED006A1E4BF1
:1029D00040F259621A80DAE73C2BEBD81B4B93ED9F
:1029E000007A1B4B93ED006A174B40F21A421A8093
:1029F000CDE7124B1B78012BDED1114B93ED007A02
:102A0000104B93ED006A104B40F259621A80BEE7FA
:102A10000B4B93ED007A0B4B93ED006A0A4B40F29F
:102A200059621A80B3E7094B93ED007A084B93ED96
:102A3000006A054B40F2AE621A80A8E7100500203C
:102A4000D0040020D0050020A80200207C03002034
:102A5000D80500204FF44B7303FB00F00C4B83FBB5
:102A600000230344C017C0EBA33000F2DC5000B2D7
:102A700040F24B43984204DD40F26C73984203DC11
:102A8000704740F24C40704740F26C70F8E700BF6E
:102A900031C351A1037E012B00D0704710B504460D
:102AA0000021FEF72FFF074B58605B681BB9054BF1
:102AB00096229A6010BD04212046FEF723FF014BA9
:102AC0009860F7E7F80100200B780133DBB20B7058
:102AD000834200D070470123137000230B70F9E785
:102AE00002681F4B9A4200D0704710B582B01D4C4F
:102AF00004F10D0204F10E010A20FFF7E5FF1A4B65
:102B00001868FFF731FF0146206163690133636193
:102B1000227B207F0090A069FFF730FF20622369AD
:102B2000A361FFF797FF114B1880114B40F2DC5265
:102B30001A80A368A02B03D90E4B1A880C4B1A805D
:102B4000094B1A680C4B1A600C4B1B6858630C4BF2
:102B50001B68074AB2F90020DA6302B010BD00BF5B
:102B600000080040F8010020A4020020800300209B
:102B70008C040020A8020020D4050020500400206E
:102B8000CC030020FEE7000000B585B01648174BC7
:102B900003604FF4803343600023836003618361EB
:102BA0000362C362124A8262C3600122C26103638C
:102BB0004261FDF701FE68B90423009301230193EC
:102BC0000023029369460848FDF720FE38B905B096
:102BD0005DF804FB4FF4BD710648FFF7D3FF4FF4D7
:102BE000C2710448FFF7CEFF080400200020014016
:102BF0000100000FBC44000808B50C480C4B0360F2
:102C00000C4B436000238360C3604FF48042026139
:102C100043618361C3610362FEF736F800B908BD02
:102C20004FF4CC710448FFF7ADFF00BF280300202C
:102C300000540040A0860100BC44000808B50E48BE
:102C40000E4B03604FF48273436000238360C360C4
:102C5000036143614FF400728261C36103624362A6
:102C600083620A23C362FEF713FC00B908BD4FF468
:102C7000D8710348FFF786FF4C020020003800405F
:102C8000BC44000800B58DB03848394B036040F2B1
:102C900047334360002383604FF6FF72C2600361D5
:102CA0004361FEF775FF00283CD13048FEF7A2FFD4
:102CB00000283CD104230793502308930023099351
:102CC0000B9307A92948FEF7FDFD002834D1002306
:102CD0000593069305A92548FFF7ADF9002830D1E3
:102CE00000220192012302930392049201A91F483A
:102CF000FFF724F850BB02230193029304220DEB4B
:102D000002011A48FFF71AF828BB00230193012398
:102D10000293082201A91548FFF710F800BB0DB077
:102D20005DF804FB40F2C5111248FFF72BFF4FF48A
:102D3000E5711048FFF726FF40F2D3110D48FFF769
:102D400021FF4FF4ED710B48FFF71CFF40F2E31138
:102D50000848FFF717FF4FF4F5710648FFF712FF19
:102D600040F2F1110348FFF70DFF00BFD40400202B
:102D700000000140BC44000800B58DB017484FF07A
:102D8000804303600023436083604FF0FF32C260E2
:102D90000361032203920493012205920693079391
:102DA000089309920A930B9303A9FEF73CFF50B9CD
:102DB00000230193029301A90848FFF73CF938B9B1
:102DC0000DB05DF804FB40F20D210548FFF7DAFE77
:102DD0004FF405710248FFF7D5FE00BF54050020EF
:102DE000BC44000800B58FB02748284B036053232C
:102DF00043600023836044F24F62C2600361FEF7C8
:102E0000C7FE40BB0EA94FF4805341F8103D1E4849
:102E1000FEF7D4FC20BB1C48FEF7D3FE28BB0023E2
:102E20000893099308A91848FFF705F910BB602318
:102E3000019340F2DC53029300230393059308228D
:102E400001A91148FFF70CF8C8B90F4800F0BEFB04
:102E50000FB05DF804FB4FF40A710D48FFF792FEC6
:102E600040F22E210A48FFF78DFE40F23321084838
:102E7000FFF788FE40F23A210548FFF783FE40F253
:102E800043210348FFF77EFECC03002000040040EE
:102E9000BC44000808B50B480B4B03604FF4E1330A
:102EA000436000238360C360036104224261836145
:102EB000C361FFF7F8FA00B908BD40F29A21034850
:102EC000FFF760FE14050020004C0040BC440008E1
:102ED00008B50B480B4B03604FF4E133436000230C
:102EE0008360C3600361082242618361C361FFF7AD
:102EF000DAFA00B908BD40F2AD210348FFF742FEFF
:102F00009005002000440040BC44000808B50B4870
:102F10000B4B03604FF41653436000238360C36080
:102F20000361082242618361C361FFF7BCFA00B903
:102F300008BD4FF430710348FFF724FEE80200207B
:102F400000480040BC44000800B589B019481A4B3D
:102F50000360532343600023836040F69F72C26086
:102F60000361FEF715FEB0B91248FEF72AFEB8B9A4
:102F70006023019340F2DC530293002203920592F6
:102F800001A90C48FEF76CFF78B90A4800F01EFB57
:102F900009B05DF804FB40F277210848FFF7F2FD25
:102FA0004FF41F710548FFF7EDFD40F285210348FE
:102FB000FFF7E8FD50040020001C0040BC4400085E
:102FC00000B587B01848194B0360532343600023B2
:102FD00083604FF47A72C2600361FEF7D9FD98B93D
:102FE00006A94FF4805341F8103D0F48FEF7E6FB69
:102FF00078B900230093019369460B48FFF71BF84B
:1030000060B907B05DF804FB4FF416710848FFF78C
:10301000B9FD40F25E210648FFF7B4FD40F265219C
:103020000348FFF7AFFD00BFAC02002000080040DE
:10303000BC44000800B595B0002200922B4B196CDF
:1030400041F0805119641B6C03F080530093009B86
:10305000019227490B6823F4404343F480430B60FB
:103060000B6803F440430193019B02230793012162
:103070000A9110210B910D930E920F914FF4A872AB
:103080001092042211921293139307A8FEF71EF8D0
:1030900008BB0F23029302210391002304934FF4F2
:1030A00080520592069302A8FDF77CFEC0B9FDF799
:1030B00025FF104BA3FB00308009FDF7C3FC042063
:1030C000FDF7D6FC002211464FF0FF30FDF77AFCE9
:1030D00015B05DF804FB40F247110748FFF752FDB9
:1030E00040F255110448FFF74DFD00BF0038024083
:1030F00000700040D34D6210BC44000810B584B08D
:10310000FDF782FAFFF796FFFFF786FBFFF73CFD1E
:10311000FFF772FDFFF792FDFFF7B4FDFFF72CFEFE
:10312000FFF760FEFFF7B6FEFFF7D2FEFFF7EEFEF9
:10313000FFF70AFFFFF744FF08213A48FEF70EFFAA
:1031400000213948FEF70AFF18213848FEF751FFE1
:10315000012237493748FFF745FA374C002120460E
:10316000FEF718FF04212046FEF714FF3348FEF750
:1031700017FB3BE0324B596A99624FF08042526A2A
:103180005A62521ADA6200225A7333E02C4B002240
:1031900083F830204B1C2A4A92F830202948805C62
:1031A000294A5054D9B2264A92F830305278934284
:1031B00006D03F2BEAD00133214A82F83030E9E7CC
:1031C0001F4B83F83020214B214A22491E4800F032
:1031D0006BFB214B214A1A60214B224A1A60224B79
:1031E0004FF07A521A60214B214A1A60144B5B7BD4
:1031F000012BBFD01F4A6B4607CA03C323F8022B1B
:10320000120C1A706846FDF783F9421C4FF0FF3329
:1032100092B269461848FFF775F96420FDF720FA65
:103220000021C0E7CC0300205004002054050020FA
:103230001105002014050020D4040020AC02002059
:10324000F8010020900400208C030020A40200203C
:103250001005002090440008D00400200000204009
:10326000D0050020000020417C030020D80500206C
:103270000000A040CC4400089005002010B582B0AA
:1032800000240094214B5A6C42F480425A645A6CD8
:1032900002F480420092009A01941A6C42F080522B
:1032A0001A641B6C03F080530193019B0720FDF708
:1032B00077FB224621466FF00B00FDF783FB224689
:1032C00021466FF00A00FDF77DFB224621466FF094
:1032D0000900FDF777FB224621466FF00400FDF759
:1032E00071FB224621466FF00300FDF76BFB22467F
:1032F00021466FF00100FDF765FB224621464FF0A5
:10330000FF30FDF75FFB02B010BD00BF0038024088
:103310000268134B9A4200D0704730B587B0002442
:10332000009403F58C335A6C42F480725A645B6CDF
:1033300003F480730093009B1023019303250295EF
:10334000039401A90748FDF7BBFB302301930295C5
:10335000039401A90448FDF7B3FB07B030BD00BFDB
:103360000020014000000240000802400268124BA9
:103370009A4200D0704700B587B0C0230193122352
:1033800002930123039303230493042305930DEB7A
:1033900003010A48FDF794FB00230093084B1A6CC5
:1033A00042F400121A641B6C03F400130093009B98
:1033B00007B05DF804FB00BF005400400004024069
:1033C0000038024002681E4B9A4200D070472DE937
:1033D000F04186B00024009403F500331A6C42F4E7
:1033E00080421A641B6C03F480430093009B022507
:1033F0000195029503940326049607230593DFF8AD
:10340000488001A94046FDF75BFB04230193029528
:1034100003940496052705970DEB03014046FDF73D
:103420004FFB4FF4005301930295039404960597C4
:1034300001A90448FDF744FB06B0BDE8F08100BFD8
:1034400000380040000402400008024010B58AB075
:1034500003683B4A93420AD03A4A934241D03A4ADF
:1034600093424BD0394A93425CD00AB010BD00243D
:103470000194374B5A6C42F001025A645B6C03F0C2
:1034800001030193019B4FF4A0630593022306936C
:10349000079408940123099305A92E48FDF710FB12
:1034A000224621461820FDF78DFA1820FDF7BEFAB6
:1034B000224621461920FDF785FA1920FDF7B6FAB4
:1034C000224621461A20FDF77DFA1A20FDF7AEFAB2
:1034D000224621461B20FDF775FA1B20FDF7A6FAB0
:1034E000C3E7002302931A4B1A6C42F002021A64DB
:1034F0001B6C03F002030293029BB6E700210391C9
:10350000134B1A6C42F004021A641B6C03F00403A0
:103510000393039B0A461E20FDF754FA1E20FDF775
:1035200085FAA2E700230493094B1A6C42F080024B
:103530001A641B6C03F080030493049B95E700BF9F
:10354000000001400004004000080040001C004052
:1035500000380240000002400368B3F1804F00D001
:10356000704770B586B00024009403F50E331A6CD2
:1035700042F001021A641B6C03F001030093009BEC
:103580004FF400430193022602960394049401250C
:10359000059501A90B48FDF793FA4FF400730193C9
:1035A000029603940494059501A90748FDF788FA4B
:1035B000224621461C20FDF705FA1C20FDF736FAAD
:1035C00006B070BD000002400004024000B587B0A4
:1035D0000368124A934205D0114A93420FD007B0B4
:1035E0005DF804FB0123019302230293002203925E
:1035F0000492059301A90B48FDF762FAEFE7402317
:103600000193022302930023039304930923059358
:1036100001A90548FDF754FAE1E700BF00040040A6
:10362000001C0040000402400000024010B588B0B9
:103630000368364A934207D0354A934226D0354A2A
:10364000934246D008B010BD00240094324B1A6C4F
:1036500042F400221A641B6C03F400230093009BC5
:103660000323039302220492012205920693082366
:10367000079303A92948FDF723FA2246214634205F
:10368000FDF7A0F93420FDF7D1F9DBE70024019420
:10369000214B1A6C42F400321A641B6C03F40033A1
:1036A0000193019B0C2303930223049301230593AD
:1036B000032306930723079303A91848FDF700FA8D
:1036C000224621462620FDF77DF92620FDF7AEF99A
:1036D000B8E700230293104B1A6C42F480221A645C
:1036E0001B6C03F480230293029B4FF4406303930B
:1036F00002230493012305930323069307230793CF
:1037000003A90748FDF7DCF99CE700BF004C004027
:1037100000440040004800400038024000000240E1
:10372000000802407047FEE7FEE7FEE7FEE770474D
:103730007047704708B5FCF781FFFDF7AAF908BD8F
:1037400008B50248FEF707F908BD00BFD404002001
:1037500008B50248FEF7FFF808BD00BFD4040020FA
:1037600008B50248FEF7F7F808BD00BFD4040020F2
:1037700008B50248FEF7EFF808BD00BFD4040020EA
:1037800008B50248FEF7E7F808BD00BF5405002061
:1037900008B50248FEF7DFF808BD00BFAC02002004
:1037A00008B50248FEF7A0FF08BD00BF9005002045
:1037B00008B50248FEF798FF08BD00BF14050020B9
:1037C0000F49D1F8883043F47003C1F888300D4BAD
:1037D0001A6842F001021A60002098601A6822F00C
:1037E000847222F480321A60074A5A601A6822F4FE
:1037F00080221A60D8604FF000638B60704700BF72
:1038000000ED00E00038024010300024DFF834D032
:10381000002103E00C4B5B58435004310B480C4B28
:1038200042189A42F6D30B4A02E0002342F8043BC6
:10383000094B9A42F9D3FFF7C3FF00F011F8FFF7E5
:103840005DFC704700000220744600080000002064
:10385000DC010020DC010020E0050020FEE7000084
:1038600070B50D4E0D4CA41BA4100025A54209D126
:103870000B4E0C4C00F000FEA41BA4100025A5422A
:1038800005D170BD56F8253098470135EEE756F85A
:10389000253098470135F2E76C4600086C46000871
:1038A0006C460008704600080EB430B59CB01FACE2
:1038B0004FF4017254F8045BADF8142002900690A6
:1038C000FCF726FE0B4B039007900B930A480194DC
:1038D00000230F9314934FF6FF73ADF816302A466A
:1038E000234602A9006800F065F81CB0BDE830402E
:1038F00003B07047FD3800080C000020002070471E
:1039000038B54B1C144603D14FF0FF35284638BD5F
:10391000938923F020039381636B5268CDB28BB1FE
:10392000A36B934208DD23685A1E226003F8015CF2
:10393000636801336360E9E7214600F02FFC00284B
:10394000F1D0E1E72169236851B1994208D213F817
:10395000011CA94204D1013B013223606260D5E71A
:10396000C4E90F3204F1440363630323A3632346D2
:1039700003F8465F23600123DCE710B50C46496B72
:1039800069B104F14403994201D000F071FC236C49
:1039900063600020606313B1E36B236010BD236993
:1039A000236000236360A38943F02003A3814FF0C9
:1039B000FF30F3E72DE9F04FADF5257D0DF10C0853
:1039C00001930023469347939E4BA293DFF87C928A
:1039D0009D4BCDF8208106460C469246A3930A27BC
:1039E0009AF80030002B00F02A81554600F014FCB4
:1039F00015F801BB5844437813F008031CD06368E2
:103A0000002B12DD00F008FC23681A78104442787D
:103A1000120701D4AA46E3E7479A01324792626847
:103A20000133013A62602360E9E7A39B21463046F7
:103A300098470028E6D0EDE7BBF1250F40F08280E3
:103A4000459343939AF801302A2B03D110234393D3
:103A50000AF10205AA4615F8011BA1F13002092A54
:103A600022D903227948FCF75BFD38B1A0EB0903AA
:103A700001209840439B18434390AA469AF800308F
:103A8000672B0AF101052BD8652B80F09F80472B0F
:103A900010D8452B80F09A80002B6CD0252B51D06C
:103AA00003234993449727E0459B07FB0313303BCF
:103AB0004593CFE75B2B6AD00CD8582BF0D1439AB3
:103AC00042F400724392102244926E2B8CBF042366
:103AD000032310E0632B65D0642BE1D14497F4E716
:103AE000702B4BD026D86E2B62D04CD8692BD7D1F7
:103AF00000234493032349936368002B68DD439BB1
:103B0000590607D400F088FB23681A7810444278DD
:103B1000120764D4499B022B73DC01AB224643A9F4
:103B2000304600F097F8012800F0898002287FF4E1
:103B300071AF1DE0752BD1D0782BC0D0732BAFD1D6
:103B40000223D8E76368002B0CDD23681A785A45F6
:103B500075D1013362682360479B013A013362608B
:103B6000479357E7A39B2146304698470028ECD05F
:103B70004698002859D14FF0FF305CE0439A42F05C
:103B8000200243929BE7082344930423B3E729468A
:103B9000404600F0B7F9439B43F04003439305468A
:103BA0000123A8E7439B43F0400343930023A2E78C
:103BB0004398C3063FF52EAF019B479A191D01910B
:103BC0001B68C0074CBF1A801A6023E7052392E7E1
:103BD000A39B214630469847002890D0C8E7479AD3
:103BE000013247926268013A002A626002DD0133C5
:103BF000236087E7A39B214630469847002881D061
:103C0000B6E7042B06DC01AB224643A9304600F0A0
:103C100085F888E70E4B002B3FF4FCAE01AB224643
:103C200043A93046AFF300807DE7A38913F0400F2E
:103C300018BF4FF0FF300DF5257DBDE8F08F469899
:103C4000F9E700BF013900087B390008D8440008B3
:103C5000000000002DE9F04115468A6880460C46B8
:103C600032B98A69002A14BF4FF0FF3201228A60FC
:103C70002268D1065FBF1A68111D196017680026F7
:103C8000A369DBB1012B07D12B6862691B78D35C78
:103C9000A3B9002E32D106E0022B07D0002E2DD181
:103CA000A369012B2AD10120BDE8F08100F0B4FA0C
:103CB0002B681B78184443781B07EFD42368DA0677
:103CC0005EBF2B681B783B702A686B6802F10102AB
:103CD0002A60A26803F1FF3302F1FF326B6006F144
:103CE000010658BF0137A26042B1002BC8DCD4F8EE
:103CF00080312946404698470028C1D0236813F0F8
:103D0000100305D1E2680132E260A26902B13B70A2
:103D100023691E4426610020C6E700002DE9F04F0C
:103D20009A46744B0C468346164693E8070087B0C4
:103D300003ABA76883E807006F4BA1696F4A0329AB
:103D400008BF1A467B1EB3F5AE7F84BF40F25D13F9
:103D5000A3602368009243F4506388BF6FF4AE758C
:103D600004F11C0923608CBF7F1900274B464FF0DC
:103D700000080193316803AB022253F82800097848
:103D8000FCF7CEFB019B30B3B8F1010F5AD162684A
:103D90002AB92268082142F4007261602260226818
:103DA00022F4A0622260A268511EA1609AB132681A
:103DB000511C316012781A705D1C7368013B002B36
:103DC000736007DCD4F880313146584698470028A4
:103DD00040F086802B4608F10108B8F1030FC8D1E6
:103DE00062680AB90A2262606268454960690193A3
:103DF000891A00F087F8019B4FF000081D46A36860
:103E00002268002B3AD03168606991F800C010F840
:103E10000C00002832D0BCF1300F21D110051FD585
:103E200008F1010817B10133013FA3607368013B3A
:103E3000002B73601BDD336801333360A368013BE3
:103E4000A360DCE7B8F1020FADD1226802F4C061D3
:103E5000B1F5007FBFD11021616042F48072A1E70B
:103E600022F4106222600B782B700135DEE7D4F863
:103E700080313146584698470028DFD02368D9055D
:103E80000CD54D4508D915F8011CD4F87C313246C3
:103E9000584698476F1E3D464D4529D0226812F07E
:103EA000100213D12A706368009E49465846B047F5
:103EB000DAF8003021681A1DCAF8002011F0200F2E
:103EC0001B6810D01860E3680133E360A5EB0905B7
:103ED000A844256945442561002007B0BDE8F08F5E
:103EE0004FF00008CAE7CA074CBF18801860EAE71D
:103EF0000120F2E7B0440008614000087941000861
:103F0000EC44000870B50B785E2B13BF4A1C8A1C6A
:103F10004B78002108BF0121441E00F1FF0504F881
:103F2000011FAC42FBD113B9013A104670BD81F0BC
:103F30000104C454511C11F8015C2D2D01F1FF3610
:103F40000A4606D05D2DF0D00DB93246EDE72B467E
:103F5000EFE70E785D2EFAD0B342F8DC01339E42D3
:103F6000C454FBDC0231E6E72DE9F0478046894680
:103F700092461E460F463D46089815F8014B00F044
:103F800047F92044437813F0080332D12D2C32D165
:103F90007C78BD1C0122002E5DD0102E09D1302C62
:103FA00007D12B7803F0DF03582B4FD16C78102604
:103FB0000235002A14BF4FF000416FF00041002786
:103FC000B1FBF6FC384606FB1C1EA4F13003092B9E
:103FD00017D81C46A64223DD7B1C07D084451CD382
:103FE00001D1A64519DB00FB0640012715F8014B5E
:103FF000EBE72F46BFE72B2C04BFBD1C7C781A468D
:10400000C9E7A4F14103192B01D8373CE2E7A4F139
:104010006103192B04D8573CDCE74FF0FF37E5E785
:104020007B1C08D12223C8F800300846BAF1000FE3
:1040300007D1BDE8F08702B14042BAF1000FF8D0D5
:104040000FB105F1FF39CAF80090F2E73024002ED5
:10405000AFD10826ADE7302CA3D00A26A9E700008F
:1040600037B5064C064D2468246A002C08BF2C4640
:104070000094FFF779FF03B030BD00BF0C000020B3
:10408000700000202DE9F0478046894692461E4682
:104090000F463D46089815F8014B00F0B9F820444A
:1040A000437813F0080330D12D2C30D17C78BD1C1F
:1040B0000121002E5CD0102E09D1302C07D12B7895
:1040C00003F0DF03582B4ED16C78102602354FF0E9
:1040D000FF320023B2FBF6F206FB02FC6FEA0C0C87
:1040E0001846A4F13007092F17D83C46A64223DD15
:1040F000002B1EDB82421CD301D1A44519DB00FB3F
:104100000640012315F8014BEBE72F46C1E72B2CA6
:1041100004BFBD1C7C781946CBE7A4F14107192FD9
:1041200001D8373CE2E7A4F16107192F04D8573CC6
:10413000DCE74FF0FF33E5E7002B09DA2223C8F86C
:1041400000304FF0FF30BAF1000F07D1BDE8F08723
:1041500001B14042BAF1000FF8D00BB105F1FF39BF
:10416000CAF80090F2E73024002EB0D10826AEE75E
:10417000302CA4D00A26AAE737B5064C064D246891
:10418000246A002C08BF2C460094FFF77BFF03B085
:1041900030BD00BF0C000020700000202DE9F04170
:1041A0000C46496B04F1440399421DD14FF48061E0
:1041B00000F0ACF818B94FF0FF30BDE8F0814FF4D3
:1041C0008063A36394F84630606380F8FF3394F80B
:1041D000453080F8FE3394F8443080F8FD3300F227
:1041E000FD3020600020E8E7A66B77003A4600F03B
:1041F000E7F805460028DED000EB06080146324607
:10420000404600F029F8C4F80080C4E90D57E9E7FA
:10421000D0F8EC0070470000044B054A1B681B6A8D
:10422000002B08BF1346D3F8EC0070470C000020A9
:104230007000002082B001B901A942B14BB11378DE
:104240000B601278101C18BF012002B07047104696
:10425000FBE76FF00100F8E710B5431E0A449142F6
:1042600000D110BD11F8014B03F8014FF7E7000032
:1042700038B50546002945D051F8043C0C1F002BE9
:10428000B8BFE41800F0DFF81F4A1368104633B9CE
:10429000636014602846BDE8384000F0D5B8A342FA
:1042A0000CD921686218934204BF1A685B68636086
:1042B00004BF521822600460ECE713465A680AB142
:1042C000A242FAD919685818A0420BD120680144BB
:1042D000581882421960DDD1106852685A60014452
:1042E0001960D7E702D90C232B60D3E72068211887
:1042F0008A4204BF11685268626004BF09182160D5
:104300005C60C7E738BD00BF3C02002070B5CD1C23
:1043100025F0030508350C2D38BF0C25002D064669
:1043200001DBA94203D90C233360002070BD00F0EB
:104330008AF8214A1468214691B9204C23681BB998
:10434000304600F063F820602946304600F05EF801
:10435000431C24D10C233360304600F075F8E4E7A9
:104360000B685B1B18D40B2B0FD90B60CD50CC18EE
:10437000304600F069F804F10B00231D20F007001F
:10438000C31AD3D05A42E250D0E78C424B6816BFD2
:10439000636013600C46EBE70C464968CCE7C41C2D
:1043A00024F00304A04205D0211A304600F02EF874
:1043B0000130CFD02560DBE73C0200204002002026
:1043C000F8B5074614460E4621B91146BDE8F84037
:1043D000FFF79CBF22B9FFF74BFF25462846F8BDE3
:1043E00000F033F8A0420FD221463846FFF78EFF87
:1043F00005460028F2D031462246FFF72DFF314610
:104400003846FFF735FFE9E73546E7E738B5064CAC
:10441000002305460846236000F020F8431C02D123
:10442000236803B12B6038BDDC05002049B1FF2AA9
:1044300085BF8A2303600A704FF0FF3098BF0120C8
:104440007047084670477047704751F8043C181F82
:10445000002BBCBF0B58C01870470000044A054928
:104460001368002B08BF0B461844106018467047AD
:1044700044020020E0050020F8B500BFF8BC08BCED
:104480009E467047F8B500BFF8BC08BC9E46704712
:1044900025642C25640000000000000000000000DE
:1044A00001020304060708090000000001020304DA
:1044B000EE440008F1440008F44400082E2E2F5367
:1044C00072632F6D61696E2E63000000626C75650A
:1044D000746F6F74680A0000686C4C00412D46616F
:1044E0002D66383930313233343536375D002B2D77
:1044F000003030007858000000000000000000008C
:1045000000000000000000000000000000000000AB
:10451000000000000000000000000000000000009B
:10452000000000000000000000000000000000008B
:10453000000000000000000000000000000000007B
:10454000000000000000000000000000000000006B
:1045500000000000000000004300504F5349580085
:104560002E0000202020202020202020282828285D
:104570002820202020202020202020202020202033
:104580002020208810101010101010101010101083
:104590001010100404040404040404040410101093
:1045A000101010104141414141410101010101013F
:1045B00001010101010101010101010101011010CD
:1045C0001010101042424242424202020202020213
:1045D000020202020202020202020202020210109F
:1045E000101020000000000000000000000000008B
:1045F00000000000000000000000000000000000BB
:1046000000000000000000000000000000000000AA
:10461000000000000000000000000000000000009A
:10462000000000000000000000000000000000008A
:10463000000000000000000000000000000000007A
:10464000000000000000000000000000000000006A
:10465000000000000000000000000000000000005A
:044660000000000056
:08466400DCBBFF7F0100000038
:04466C00F50100084C
:04467000D10100086C
:1046740001000000100000000024F40010000020DD
:10468400000000001845000838450008F8440008F8
:104694000000000000000000000000000000000016
:1046A4000000000000000000000000000000000006
:1046B40000000000000000000000000000000000F6
:1046C40000000000000000000000000000000000E6
:1046D40000000000000000000000000000000000D6
:1046E4004300000000000000000000000000000083
:1046F40000000000000000000000000000000000B6
:104704004300000000000000000000000000000062
:104714000000000000000000000000000000000095
:104724004300000000000000000000000000000042
:104734000000000000000000000000000000000075
:104744004300000000000000000000000000000022
:104754000000000000000000000000000000000055
:104764004300000000000000000000000000000002
:104774000000000000000000000000000000000035
:1047840043000000000000000000000000000000E2
:104794000000000000000000000000000000000015
:1047A40043000000000000000000000000000000C2
:1047B40000000000000000000000000000000000F5
:1047C4002D4400083542000800000000624500083E
:1047D40060450008F0440008F0440008F044000874
:1047E400F0440008F0440008F0440008F0440008D5
:1047F400F0440008F0440008FFFFFFFFFFFFFFFF45
:10480400FFFFFFFFFFFF0000010041534349490040
:104814000000000000000000000000000000000094
:10482400000000000000000000004153434949001B
:104834000000000000000000000000000000000074
:0C48440000000000000000000000000068
:040000050800380DAA
:00000001FF
