:020000040800F2
:100000000000022069480008794700087B47000883
:100010007D4700087F470008814700080000000076
:1000200000000000000000000000000083470008FE
:10003000854700080000000087470008894700083E
:10004000B9480008B9480008B9480008B94800088C
:10005000B9480008B9480008B9480008B94800087C
:10006000B9480008B9480008B9480008B94800086C
:10007000B9480008B9480008B9480008B94800085C
:10008000B9480008B9480008B9480008B94800084C
:10009000B9480008B9480008B9480008B94800083C
:1000A000B9480008B9480008B9480008B94800082C
:1000B00095470008A5470008B5470008B94800085B
:1000C000B9480008B9480008B9480008B94800080C
:1000D000B9480008B9480008C5470008B9480008F1
:1000E000B9480008B9480008B9480008B9480008EC
:1000F000B9480008B9480008B9480008B9480008DC
:10010000B9480008B9480008D5470008B9480008B0
:10011000E9470008B9480008B9480008B94800088C
:10012000B9480008B9480008B9480008B9480008AB
:10013000B94800080000000000000000B9480008AD
:10014000B9480008B9480008B9480008B94800088B
:10015000B9480008B9480008B9480008B94800087B
:10016000B9480008B9480008B9480008B94800086B
:10017000B9480008B9480008B94800080000000064
:1001800000000000B9480008000000000000000066
:10019000B94800080000000000000000B94800084D
:1001A000000000000000000000000000B948000846
:1001B000B9480008B9480008B9480008B94800081B
:0401C000B948000832
:1001D00010B5054C237833B9044B13B10448AFF381
:1001E00000800123237010BD0802002000000000E1
:1001F0002C6D000808B5034B1BB103490348AFF34E
:10020000008008BD000000000C0200202C6D0008DA
:1002100081F0004102E000BF83F0004330B54FEAB7
:1002200041044FEA430594EA050F08BF90EA020F24
:100230001FBF54EA000C55EA020C7FEA645C7FEAB7
:10024000655C00F0E2804FEA5454D4EB5555B8BFDA
:100250006D420CDD2C4480EA020281EA030382EA4B
:10026000000083EA010180EA020281EA0303362DDD
:1002700088BF30BD11F0004F4FEA01314FF4801CB0
:100280004CEA113102D0404261EB410113F0004FC2
:100290004FEA03334CEA133302D0524263EB430379
:1002A00094EA050F00F0A780A4F10104D5F1200E17
:1002B0000DDB02FA0EFC22FA05F2801841F1000172
:1002C00003FA0EF2801843FA05F359410EE0A5F146
:1002D00020050EF1200E012A03FA0EFC28BF4CF077
:1002E000020C43FA05F3C01851EBE37101F000452D
:1002F00007D54FF0000EDCF1000C7EEB00006EEB3A
:100300000101B1F5801F1BD3B1F5001F0CD34908C3
:100310005FEA30004FEA3C0C04F101044FEA44521A
:1003200012F5800F80F09A80BCF1004F08BF5FEAA1
:10033000500C50F1000041EB045141EA050130BD81
:100340005FEA4C0C404141EB010111F4801FA4F124
:100350000104E9D191F0000F04BF01460020B1FA79
:1003600081F308BF2033A3F10B03B3F120020CDAB1
:100370000C3208DD02F1140CC2F10C0201FA0CF08F
:1003800021FA02F10CE002F11402D8BFC2F1200CF4
:1003900001FA02F120FA0CFCDCBF41EA0C019040AA
:1003A000E41AA2BF01EB0451294330BD6FEA0404F3
:1003B0001F3C1CDA0C340EDC04F11404C4F12002DE
:1003C00020FA04F001FA02F340EA030021FA04F3F0
:1003D00045EA030130BDC4F10C04C4F1200220FA47
:1003E00002F001FA04F340EA0300294630BD21FA85
:1003F00004F0294630BD94F0000F83F4801306BF4B
:1004000081F480110134013D4EE77FEA645C18BF3E
:100410007FEA655C29D094EA050F08BF90EA020FD5
:1004200005D054EA000C04BF1946104630BD91EACD
:10043000030F1EBF0021002030BD5FEA545C05D1D0
:100440004000494128BF41F0004130BD14F580040F
:100450003CBF01F5801130BD01F0004545F0FE4183
:1004600041F470014FF0000030BD7FEA645C1ABFB8
:10047000194610467FEA655C1CBF0B46024650EAEF
:10048000013406BF52EA033591EA030F41F400211B
:1004900030BD00BF90F0000F04BF0021704730B5A1
:1004A0004FF4806404F132044FF000054FF0000176
:1004B00050E700BF90F0000F04BF0021704730B537
:1004C0004FF4806404F1320410F0004548BF40420C
:1004D0004FF000013EE700BF42004FEAE2014FEA61
:1004E00031014FEA02701FBF12F07F4393F07F4F3C
:1004F00081F06051704732F07F4208BF704793F03F
:100500007F4F04BF41F40021704730B54FF4607451
:1005100001F0004521F000411CE700BF50EA010254
:1005200008BF704730B54FF000050AE050EA0102FD
:1005300008BF704730B511F0004502D5404261EB6D
:1005400041014FF4806404F132045FEA915C3FF4AE
:10055000D8AE4FF003025FEADC0C18BF03325FEA4B
:10056000DC0C18BF033202EBDC02C2F1200300FAFC
:1005700003FC20FA02F001FA03FE40EA0E0021FA21
:1005800002F11444BDE600BF70B54FF0FF0C4CF40F
:10059000E06C1CEA11541DBF1CEA135594EA0C0FC1
:1005A00095EA0C0F00F0DEF82C4481EA030621EAFC
:1005B0004C5123EA4C5350EA013518BF52EA033537
:1005C00041F4801143F4801338D0A0FB02CE4FF0E9
:1005D0000005E1FB02E506F00042E0FB03E54FF019
:1005E0000006E1FB03569CF0000F18BF4EF0010E11
:1005F000A4F1FF04B6F5007F64F5407404D25FEA0D
:100600004E0E6D4146EB060642EAC62141EA5551BF
:100610004FEAC52040EA5E504FEACE2EB4F1FD0C01
:1006200088BFBCF5E06F1ED8BEF1004F08BF5FEA7F
:10063000500E50F1000041EB045170BD06F0004631
:1006400046EA010140EA020081EA0301B4EB5C04DE
:10065000C2BFD4EB0C0541EA045170BD41F48011D6
:100660004FF0000E013C00F3AB8014F1360FDEBFFB
:10067000002001F0004170BDC4F10004203C35DAD7
:100680000C341BDC04F11404C4F1200500FA05F35A
:1006900020FA04F001FA05F240EA020001F00042FB
:1006A00021F0004110EBD37021FA04F642EB060171
:1006B0005EEA430E08BF20EAD37070BDC4F10C049B
:1006C000C4F1200500FA04F320FA05F001FA04F25F
:1006D00040EA020001F0004110EBD37041F100014B
:1006E0005EEA430E08BF20EAD37070BDC4F1200556
:1006F00000FA05F24EEA020E20FA04F301FA05F2BE
:1007000043EA020321FA04F001F0004121FA04F265
:1007100020EA020000EBD3705EEA430E08BF20EA35
:10072000D37070BD94F0000F0FD101F0004640006F
:1007300041EB010111F4801F08BF013CF7D041EAF1
:10074000060195F0000F18BF704703F000465200F5
:1007500043EB030313F4801F08BF013DF7D043EAC6
:100760000603704794EA0C0F0CEA135518BF95EA7C
:100770000C0F0CD050EA410618BF52EA4306D1D103
:1007800081EA030101F000414FF0000070BD50EA22
:10079000410606BF1046194652EA430619D094EAAC
:1007A0000C0F02D150EA013613D195EA0C0F05D196
:1007B00052EA03361CBF104619460AD181EA0301EA
:1007C00001F0004141F0FE4141F470014FF00000A2
:1007D00070BD41F0FE4141F4780170BD70B54FF03D
:1007E000FF0C4CF4E06C1CEA11541DBF1CEA1355BD
:1007F00094EA0C0F95EA0C0F00F0A7F8A4EB05049F
:1008000081EA030E52EA03354FEA013100F0888095
:100810004FEA03334FF0805545EA131343EA12635E
:100820004FEA022245EA111545EA10654FEA002613
:100830000EF000419D4208BF964244F1FD0404F5CC
:10084000407402D25B084FEA3202B61A65EB030528
:100850005B084FEA32024FF480104FF4002CB6EBE5
:10086000020E75EB030E22BFB61A754640EA0C0065
:100870005B084FEA3202B6EB020E75EB030E22BFA5
:10088000B61A754640EA5C005B084FEA3202B6EBE6
:10089000020E75EB030E22BFB61A754640EA9C00A5
:1008A0005B084FEA3202B6EB020E75EB030E22BF75
:1008B000B61A754640EADC0055EA060E18D04FEA33
:1008C000051545EA16754FEA06164FEAC30343EAD3
:1008D00052734FEAC2025FEA1C1CC0D111F4801FA0
:1008E0000BD141EA00014FF000004FF0004CB6E799
:1008F00011F4801F04BF01430020B4F1FD0C88BF38
:10090000BCF5E06F3FF6AFAEB5EB030C04BFB6EB42
:10091000020C5FEA500C50F1000041EB045170BD35
:100920000EF0004E4EEA113114EB5C04C2BFD4EB62
:100930000C0541EA045170BD41F480114FF0000EE6
:10094000013C90E645EA060E8DE60CEA135594EA62
:100950000C0F08BF95EA0C0F3FF43BAF94EA0C0F65
:100960000AD150EA01347FF434AF95EA0C0F7FF4DA
:1009700025AF104619462CE795EA0C0F06D152EA2E
:1009800003353FF4FDAE1046194622E750EA410612
:1009900018BF52EA43067FF4C5AE50EA41047FF423
:1009A0000DAF52EA43057FF4EBAE12E74FF0FF3C88
:1009B00006E000BF4FF0010C02E000BF4FF0010C59
:1009C0004DF804CD4FEA410C7FEA6C5C4FEA430CD2
:1009D00018BF7FEA6C5C1BD001B050EA410C0CBF21
:1009E00052EA430C91EA030F02BF90EA020F002083
:1009F000704710F1000F91EA030F58BF994208BFEA
:100A000090422CBFD8176FEAE37040F001007047A6
:100A10004FEA410C7FEA6C5C02D150EA013C07D1FD
:100A20004FEA430C7FEA6C5CD6D152EA033CD3D048
:100A30005DF8040B704700BF8446104662468C4642
:100A40001946634600E000BF01B5FFF7B7FF002875
:100A500048BF10F1000F01BD4DF808EDFFF7F4FF9E
:100A60000CBF012000205DF808FB00BF4DF808ED29
:100A7000FFF7EAFF34BF012000205DF808FB00BF4C
:100A80004DF808EDFFF7E0FF94BF012000205DF86E
:100A900008FB00BF4DF808EDFFF7CEFF94BF012023
:100AA00000205DF808FB00BF4DF808EDFFF7C4FF1C
:100AB00034BF012000205DF808FB00BF4FEA410C65
:100AC0007FEA6C5C02D150EA013C0AD14FEA430C48
:100AD0007FEA6C5C02D152EA033C02D14FF0000085
:100AE00070474FF0010070474FEA410212F50012C3
:100AF00015D211D56FF47873B3EB625212D94FEA65
:100B0000C12343F0004343EA505311F0004F23FA4E
:100B100002F018BF404270474FF00000704750EAA3
:100B2000013005D111F0004008BF6FF00040704760
:100B30004FF00000704700BF4FEA4102B2F1E043BE
:100B400024BFB3F5001CDCF1FE5C0DD901F0004CB4
:100B50004FEAC0024CEA5070B2F1004F40EB830004
:100B600008BF20F00100704711F0804F21D113F130
:100B70003872BCBF01F00040704741F480114FEA69
:100B80005252C2F11802C2F1200C10FA0CF320FAF2
:100B900002F018BF40F001004FEAC1234FEAD3230F
:100BA00003FA0CFC40EA0C0023FA02F34FEA430379
:100BB000CCE77FEA625307D150EA01331EBF4FF002
:100BC000FE4040F44000704701F0004040F0FE401D
:100BD00040F40000704700BF53B94AB9002908BF6C
:100BE00000281CBF4FF0FF314FF0FF3000F072B90A
:100BF000ADF1080C6DE904CE00F006F8DDF804E074
:100C0000DDE9022304B070472DE9F047089E044651
:100C10008846002B4BD18A42154667D9B2FA82F238
:100C20004AB1C2F1200701FA02F320FA07F7954012
:100C300047EA030894404FEA154E230CB8FBFEF731
:100C40001FFA85FC0EFB178843EA084307FB0CF1EB
:100C5000994209D9EB1807F1FF3080F01B819942C6
:100C600040F21881023F2B445B1AA4B2B3FBFEF0A2
:100C70000EFB103344EA034400FB0CFCA44509D9E5
:100C80002C1900F1FF3380F00781A44540F2048164
:100C900002382C4440EA0740A4EB0C0400271EB1A4
:100CA000D4400023C6E900433946BDE8F0878B42B3
:100CB00009D9002E00F0EB800027C6E90001384674
:100CC0003946BDE8F087B3FA83F7002F47D18B424E
:100CD00002D3824200F2FA80841A61EB03030120FE
:100CE0009846002EE0D0C6E90048DDE702B9FFDEF5
:100CF000B2FA82F2002A40F08F80491B4FEA154E6B
:100D00001FFA85F80127B1FBFEFC230C0EFB1C111A
:100D100043EA014308FB0CF1994207D9EB180CF1A7
:100D2000FF3002D2994200F2CD808446591AA3B214
:100D3000B1FBFEF00EFB101443EA044408FB00F87C
:100D4000A04507D92C1900F1FF3302D2A04500F2CB
:100D5000B6801846A4EB080440EA0C409FE7C7F1B0
:100D6000200CBB4022FA0CFE4EEA030E01FA07F4F7
:100D700020FA0CF521FA0CF34FEA1E482543B3FB89
:100D8000F8F92C0C08FB19331FFA8EFA44EA0343D6
:100D900009FB0AF49C4202FA07F200FA07F10BD9A8
:100DA0001EEB030309F1FF3080F087809C4240F284
:100DB0008480A9F1020973441B1BADB2B3FBF8F0A8
:100DC00008FB103345EA034400FB0AFAA24508D9A0
:100DD0001EEB040400F1FF336BD2A24569D902383F
:100DE000744440EA0940A0FB0289A4EB0A044C4584
:100DF000C2464B4654D351D0002E69D0B1EB0A0500
:100E000064EB030404FA0CFCFD40FC404CEA0505CD
:100E1000C6E90054002747E7C2F1200320FA03F790
:100E2000954001FA02F021FA03F34FEA154E3843D8
:100E3000010CB3FBFEF71FFA85F80EFB173341EAEE
:100E4000034107FB08F38B4204FA02F407D969183F
:100E500007F1FF3C2FD28B422DD9023F2944CB1AF8
:100E600081B2B3FBFEF00EFB103341EA034100FBFD
:100E700008F38B4207D9691800F1FF3C17D28B4267
:100E800015D902382944C91A40EA07473BE73746D3
:100E9000304609E70746E7E61846FBE64145ABD290
:100EA000B8EB020A69EB0E0201381346A4E760466C
:100EB000E9E7184695E76746D1E781467CE70238BF
:100EC0002C4447E7ACF1020C2B442FE7384608E7E7
:100ED0003746E9E6704700BF034613F8012B002AA6
:100EE000FBD1181A01387047000000000000000014
:100EF00001F0FF01102A2BDB10F0070F08D010F8CB
:100F0000013B013A8B422DD010F0070F42B3F6D1CE
:100F1000F0B441EA012141EA014122F007047FF0E7
:100F200000070023F0E80256083C85EA010586EA3E
:100F3000010685FA47F5A3FA87F586FA47F6A5FA7A
:100F400087F68EB9EED1F0BC01F0FF0102F0070286
:100F500032B110F8013B013A83EA010313B1F8D131
:100F60000020704701387047002D06BF3546033812
:100F7000073815F0010F07D1013015F4807F02BF4B
:100F8000013015F4C03F0130F0BC0138704700BF9C
:100F900010B504460E4B18784FF47A73B3FBF0F398
:100FA0000C4A1068B0FBF3F000F020FA68B90F2C7F
:100FB00001D901200AE0002221464FF0FF3000F065
:100FC000D5F9034B5C60002000E0012010BD00BF9C
:100FD000000000203000002008B50B4B1A6842F4D6
:100FE00000721A601A6842F480621A601A6842F449
:100FF00080721A60032000F0A7F90020FFF7C8FFF5
:1010000003F010F9002008BD003C0240034A1168BB
:10101000034B1B780B441360704700BF98020020FD
:1010200000000020014B1868704700BF98020020A4
:10103000494B5A6822F440325A605A6841680A4360
:101040005A600268536823F48073536002685368DF
:10105000016943EA012353600268536823F0407337
:1010600053600268536881680B4353600268936859
:1010700023F40063936002689368C1680B43936034
:10108000826A364B9A4249D00268936823F07063B3
:10109000936002689368816A0B4393600268936867
:1010A00023F04053936002689368C16A0B439360D6
:1010B0000268936823F00203936002689368816971
:1010C00043EA41039360036A002B32D102685368FC
:1010D00023F4006353600268D36A23F47003D3627D
:1010E0000168CB6AC269013A43EA0253CB620268E3
:1010F000936823F40073936002689368016B43EA7A
:10110000412393600268936823F4806393600268CC
:101110009368416943EA812393607047026893684A
:1011200023F0706393600268936823F040539360E8
:10113000BEE70268536843F4006353600268536873
:1011400023F46043536001684B68426A013A43EA02
:1011500042334B60BFE700BF002301400100000F96
:1011600030B310B50446036C43B1236C13F0100F79
:101170000AD00120002384F83C3010BD436480F87D
:101180003C3003F099F8F0E7236C23F4885323F004
:10119000020343F0020323642046FFF749FF0020C7
:1011A0006064236C23F0030343F001032364E1E74D
:1011B0000120704730B482B00023019390F83C3096
:1011C000012B00F0B580012380F83C300B68092B1F
:1011D0003ED90568EA689BB203EB43031E3B072434
:1011E00004FA03F322EA0303EB600568EA688C68FB
:1011F0000B8803EB43031E3B04FA03F31343EB603A
:101200004B68062B3AD805686A6B03EB8303053BF2
:101210001F2404FA03F322EA03036B6305686A6B75
:101220004B6803EB8303053B0C8804FA03F3134379
:101230006B6302683F4B9A4250D002683D4B9A4222
:1012400055D0002380F83C30184602B030BC7047BF
:1012500005682A699BB203EB4303072404FA03F3EE
:1012600022EA03032B6105682A698C680B8803EB6B
:10127000430304FA03F313432B61C1E70C2B16D885
:1012800005682A6B03EB8303233B1F2404FA03F353
:1012900022EA03032B6305682A6B4B6803EB830385
:1012A000233B0C8804FA03F313432B63C1E705685F
:1012B000EA6A03EB8303413B1F2404FA03F322EAA7
:1012C0000303EB620568EA6A4B6803EB8303413B67
:1012D0000C8804FA03F31343EB62AAE70B68122BA2
:1012E000ABD1154A536843F480035360A5E70B68FC
:1012F000124A934201D0112BA3D10F4A536843F4F1
:10130000000353600A680D4B9A429AD10C4B1B683C
:101310000C4AA2FB03239B0C03EB83035A000192AC
:1013200002E0019B013B0193019B002BF9D188E76F
:1013300002208AE700200140002301401200001033
:101340003000002083DE1B43074AD36823F4E063A8
:101350001B041B0C000200F4E060184340F0BF6067
:1013600040F40030D060704700ED00E030B4174B1F
:10137000DB68C3F30223C3F10704042C28BF042451
:101380001D1D062D18D9033B4FF0FF3505FA04F457
:1013900021EA0401994005FA03F322EA0303194301
:1013A00000280BDB0901C9B200F1604000F5614083
:1013B00080F8001330BC70470023E5E700F00F0011
:1013C0000901C9B2024B1954F4E700BF00ED00E077
:1013D00014ED00E000F01F02400901239340024A8F
:1013E00042F82030704700BF00E100E00138B0F162
:1013F000807F0AD2064B5860064AF02182F82310FB
:101400000020986007221A6070470120704700BFD3
:1014100010E000E000ED00E0042805D0054A136864
:1014200023F0040313607047024A136843F0040377
:101430001360704710E000E0704708B5FFF7FCFF4D
:1014400008BD90F83530DBB2022B03D08023436512
:1014500001207047052380F835300268136823F0B7
:10146000010313600020704700230F2B00F2D1808E
:10147000F0B482B039E0062200E00022B2403A43E4
:101480000234644E46F82420634A1468EA4302EAB0
:1014900004064F6817F4803F01D045EA04065E4C0D
:1014A0002660646802EA04064F6817F4003F01D022
:1014B00045EA0406584C6660A46802EA04064F68D0
:1014C00017F4801F01D045EA0406534CA660E46877
:1014D00022404E6816F4001F01D045EA04024E4C2B
:1014E000E26001330F2B00F2918001229A400C68D8
:1014F00004EA0205AA42F4D14C68022C01D0122C55
:1015000010D1DE08083650F826C003F00704A70003
:101510000F24BC402CEA040C0C69BC4044EA0C04C7
:1015200040F8264004685F000326BE40F64306EA02
:10153000040C4C6804F00304BC4044EA0C0404604E
:101540004C6804F1FF3CBCF1010F03D9112C01D010
:10155000122C10D1846806EA040CCC68BC4044EA22
:101560000C048460446824EA02024C68C4F300144A
:101570009C4014434460C26816408A68BA403243B3
:10158000C2604A6812F0805FABD000220192234A09
:10159000546C44F480445464526C02F480420192CE
:1015A000019A9C08A61C1B4A52F8267003F00302FD
:1015B00096000F22B24027EA0207194A90423FF4F0
:1015C0005CAF02F58062904216D002F580629042D4
:1015D00014D002F58062904212D002F580629042EF
:1015E00010D002F5806290420ED002F580629042E7
:1015F0003FF441AF072241E701223FE702223DE7E6
:1016000003223BE7042239E7052237E702B0F0BCAA
:101610007047704700380140003C014000380240EC
:101620000000024012B9090481617047816170476E
:10163000002800F0828010B5044690F83D30002B61
:1016400041D0242384F83D302268136823F001033D
:10165000136000F02DF93A4BA3FB00239B0C22688A
:1016600053606168374A914232D80133226813626D
:101670006368344A934235D85B00B0FBF3F0C0F3A3
:101680000B03032B00D804202368D861E369216A87
:1016900022680B4313602369E16822680B4393605F
:1016A0006369A16922680B43D3602268136843F021
:1016B0000103136000202064202384F83D30206360
:1016C00084F83E0010BD80F83C3002F023FEB8E7FD
:1016D0004FF4967202FB03F31B4AA2FB03239B0900
:1016E0000133C3E7A16889B903EB4302B0FBF2F20F
:1016F000C2F30B02B2FA82F25209E2B991B903EBDA
:101700004303B0FBF3F040F40040BDE703EB83027A
:1017100002EB8202B0FBF2F2C2F30B02B2FA82F2E7
:101720005209EAE703EB830303EB8303B0FBF3F017
:1017300040F44040A8E70120A6E70120704700BF21
:1017400083DE1B43A0860100D34D6210002800F009
:101750009D8070B504464F4B1B6803F00F038B420E
:1017600009D2CBB24B4A1370136803F00F038B42BC
:1017700001D0012070BD236813F0020F17D013F0C1
:10178000040F04D0444A936843F4E0539360236801
:1017900013F0080F04D0404A936843F46043936009
:1017A0003D4A936823F0F003A068034393600D461D
:1017B000236813F0010F32D06368012B21D09A1EE9
:1017C000012A25D9344A126812F0020F60D032493A
:1017D0008A6822F0030213438B60FFF723FC06465E
:1017E0002D4B9B6803F00C036268B3EB820F16D09D
:1017F000FFF718FC801B41F288339842F0D9032090
:10180000B8E7254A126812F4003FE0D10120B1E7A1
:10181000214A126812F0007FD9D10120AAE71D4B9E
:101820001B6803F00F03AB4209D9EAB2194B1A70D7
:101830001B6803F00F03AB4201D001209AE7236835
:1018400013F0040F06D0144A936823F4E053E168C0
:101850000B439360236813F0080F07D00E4A936878
:1018600023F46043216943EAC103936000F040F828
:10187000094B9B68C3F30313084AD35CD840084B59
:1018800018600020FFF784FB002073E701207047F9
:1018900001206FE7003C024000380240646D000800
:1018A00030000020014B1868704700BF3000002056
:1018B00008B5FFF7F7FF044B9B68C3F38223034A85
:1018C000D35CD84008BD00BF00380240746D0008EA
:1018D00008B5FFF7E7FF044B9B68C3F34233034AA5
:1018E000D35CD84008BD00BF00380240746D0008CA
:1018F0002DE9F04B5C4B9B6803F00C03082B07D0E1
:101900000C2B5BD0042B00F0AD805848BDE8F08B69
:10191000554B5A6802F03F025B6813F4800F2AD0DF
:10192000514B5B68C3F388131E4600275C010025FA
:10193000E41A65EB0705A90141EA9461A001001BC7
:1019400061EB0501CB0043EA5073C400A01943EBDF
:1019500007014B0243EAD0534402204619460023B4
:10196000FFF73AF9404B5B68C3F3014301335B0077
:10197000B0FBF3F0CAE73C4B5B68C3F388131E4629
:1019800000275C010025E41A65EB0705A90141EA7F
:101990009461A001001B61EB0501CB0043EA507389
:1019A000C400A01943EB07018B0243EA9053840261
:1019B000204619460023FFF70FF9D3E72A4B5A6850
:1019C00002F03F025B6813F4800F28D0264B5B685F
:1019D000C3F388131E4600275C010025E41A65EB5B
:1019E0000705A90141EA9461A001001B61EB050113
:1019F000CB0043EA5073C400A01943EB07014B022C
:101A000043EAD0534402204619460023FFF7E4F886
:101A1000154B5B68C3F30273B0FBF3F076E7124B30
:101A20005B68C3F388131E4600275C010025E41A97
:101A300065EB0705A90141EA9461A001001B61EB78
:101A40000501CB0043EA5073C400A01943EB070122
:101A50008B0243EA90538402204619460023FFF785
:101A6000BBF8D5E7024851E7003802400024F400F3
:101A700000127A0070B582B00446036813F0010FBB
:101A800041D0A64B9B6803F00C03042B32D0A34B30
:101A90009B6803F00C03082B27D0A04B9B6803F036
:101AA0000C030C2B59D06368B3F5803F5BD0B3F5C2
:101AB000A02F5ED0994B1A6822F480321A601A68FF
:101AC00022F480221A606368002B5CD0FFF7AAFA28
:101AD0000546924B1B6813F4003F14D1FFF7A2FA9E
:101AE000401B6428F5D903209DE18C4B5B6813F4FF
:101AF000800FD2D0894B1B6813F4003F03D063687A
:101B0000002B00F08D81236813F0020F67D0834B08
:101B10009B6813F00C0F4AD0804B9B6803F00C03BA
:101B2000082B3FD07D4B9B6803F00C030C2B48D057
:101B3000E368002B74D07A4B01221A60FFF772FA27
:101B40000546764B1B6813F0020F60D1FFF76AFA67
:101B5000401B0228F5D9032065E1704B5B6813F444
:101B6000800FA0D0C6E76D4A136843F4803313603A
:101B7000A9E76A4B1A6842F480221A601A6842F494
:101B800080321A609FE7FFF74DFA0546634B1B68EA
:101B900013F4003FB7D0FFF745FA401B6428F5D98E
:101BA000032040E15D4B5B6813F4800FBAD15B4BBF
:101BB0001B6813F0020F0AD0E368012B07D0012045
:101BC00031E1564B5B6813F4800FB1D1EFE7534A14
:101BD000136823F0F803216943EAC1031360236803
:101BE00013F0080F40D0636963B34E4B01221A60B3
:101BF000FFF718FA0546494B5B6F13F0020F33D11C
:101C0000FFF710FA401B0228F5D903200BE1434AE5
:101C1000136823F0F803216943EAC1031360DEE788
:101C20003F4B00221A60FFF7FDF905463B4B1B684E
:101C300013F0020FD3D0FFF7F5F9401B0228F5D9B6
:101C40000320F0E0374B00221A60FFF7EBF905465E
:101C5000324B5B6F13F0020F06D0FFF7E3F9401B26
:101C60000228F5D90320DEE0236813F0040F79D0B1
:101C70002A4B1B6C13F0805F33D100230193274B59
:101C80001A6C42F080521A641B6C03F0805301936B
:101C9000019B0125244B1B6813F4807F23D0A3688C
:101CA000012B34D0052B41D01C4B1A6F22F00102BE
:101CB0001A671A6F22F004021A67A368002B3FD03C
:101CC000FFF7B0F90646154B1B6F13F0020F48D112
:101CD000FFF7A8F9801B41F288339842F3D903201B
:101CE000A1E00025D6E7104A136843F4807313601F
:101CF000FFF798F906460C4B1B6813F4807FCED192
:101D0000FFF790F9801B0228F5D903208BE0034AE6
:101D1000136F43F001031367CFE700BF00380240A1
:101D200000004742800E474200700040404B1A6F4F
:101D300042F004021A671A6F42F001021A67BCE708
:101D4000FFF770F906463A4B1B6F13F0020F08D0ED
:101D5000FFF768F9801B41F288339842F3D90320DA
:101D600061E0E5B9A369002B5CD0314A926802F0CA
:101D70000C02082A59D0022B17D02E4B00221A60D1
:101D8000FFF750F904462A4B1B6813F0007F45D03B
:101D9000FFF748F9001B0228F5D9032043E0244A45
:101DA000136C23F080531364DCE7224B00221A608B
:101DB000FFF738F905461E4B1B6813F0007F06D06D
:101DC000FFF730F9401B0228F5D903202BE0E36927
:101DD000226A1343626A43EA8213A26A5208013AF2
:101DE00043EA0243E26A43EA0263226B43EA027374
:101DF0000F4A53600F4B01221A60FFF713F9044694
:101E00000B4B1B6813F0007F06D1FFF70BF9001B8B
:101E10000228F5D9032006E0002004E0002002E0BB
:101E2000012000E0002002B070BD0120FBE700BFF0
:101E3000003802406000474200283BD010B50446FD
:101E40000023836290F85130002B2ED0022384F8B7
:101E500051302268136823F0400313606368A2685E
:101E60001343E26813432269134362691343A2696F
:101E700002F400721343E2691343226A1343A16A16
:101E800022680B431360638B03F00403616A2268CA
:101E90000B4353602268D36923F40063D3610020AD
:101EA0006065012384F8513010BD80F8503002F095
:101EB0005DFACBE70120704770B4036A23F0010399
:101EC0000362036A4268846924F073040D6845EA7A
:101ED000040623F002048B6823430C4DA84202D071
:101EE0000B4CA0420BD123F00803CD682B4323F009
:101EF000040322F440724D6915438A692A43426003
:101F000086614A684263036270BC7047000001400A
:101F10000004014030B4036A23F480730362036A4F
:101F20004268C46924F073040D682C4323F40073E1
:101F30008D6843EA05230E4DA84203D005F5806560
:101F4000A8420ED123F40063CD6843EA052323F4AD
:101F5000806322F440524D6942EA05128D6942EADB
:101F600005124260C4614A68C263036230BC7047B4
:101F70000000014030B4036A23F480530362036A13
:101F80004468C26922F4E6420D6842EA052223F45D
:101F900000538D6843EA0533094DA84203D005F587
:101FA0008065A84204D124F480444D6944EA851434
:101FB0004460C2614A680264036230BC704700BF7B
:101FC0000000014010B4036A046A24F001040462B2
:101FD000846924F0F00444EA021223F00A030B435C
:101FE000826103625DF8044B704730B4046A24F0E8
:101FF000100404628469056A24F4407444EA0222ED
:1020000022F470421B039BB21A4325F0A00509017C
:1020100001F0A00129438261016230BC704710B415
:10202000036A23F0100303628469036A24F4704492
:1020300044EA023223F0A00343EA011382610362FF
:102040005DF8044B704730B4046A24F48074046271
:10205000C469056A24F00304224322F0F0021B0144
:10206000DBB21A4325F42065090201F420612943FB
:10207000C261016230BC704730B4046A24F48054F9
:102080000462C469056A24F4407444EA022222F41A
:1020900070421B039BB21A4325F42045090301F447
:1020A00020412943C261016230BC7047836823F03C
:1020B000700341F0070119438160704710B48468D0
:1020C00024F47F4442EA03230B43234383605DF8F7
:1020D000044B704710B50468A26822F070024B6888
:1020E000134323F007030A681343A3604B68502B84
:1020F0001ED00AD9602B21D0702B05D10B698A68BC
:10210000C9680068FFF7DAFF10BD402BFCD10368F7
:102110001C6A1A6A22F001021A620268936923F0AB
:10212000F003096943EA0113936103681C62EBE75A
:102130000A6989680068FFF745FFE5E70A69896869
:102140000068FFF76CFFDFE70268D36843F0010324
:10215000D3600268136843F00103136000207047E6
:102160007047704790F83830012B7DD010B5044689
:10217000012380F83830022380F8393002689368F0
:1021800023F47F4323F0770393600B68402B57D0F1
:1021900010D9702B3ED01FD8502B47D0602B32D196
:1021A000CA6849680068FFF73AFF60212068FFF7B6
:1021B0007DFF28E0102B4DD008D9202B4FD0302B9D
:1021C00021D130210068FFF771FF1CE0DBB900214D
:1021D0000068FFF76BFF16E0B3F5805F0ED0B3F534
:1021E000005F10D1CB684A6889680068FFF766FF16
:1021F0002268936843F48043936004E00268936824
:1022000023F007039360012384F83930002084F819
:10221000380010BDCB684A6889680068FFF74EFF38
:102220002268936843F077039360ECE7CA684968D3
:102230000068FFF7C7FE50212068FFF737FFE2E78D
:10224000CA6849680068FFF7BDFE40212068FFF7B3
:102250002DFFD8E710210068FFF728FFD3E72021E2
:102260000068FFF723FFCEE70220704738B590F8EB
:102270003830012B18D00446012580F8385002234D
:1022800080F83930FFF726FF2268D36823F0400337
:10229000D3602268D36823F48043D36084F8395034
:1022A000002084F8380038BD0220FCE7034690F88F
:1022B0003820012A1ED0012280F838200C2917D896
:1022C000DFE801F0071616160D161616101616166C
:1022D00013000268506B002283F8382070470268B0
:1022E000906BF8E70268D06BF5E70268106CF2E7D4
:1022F0000020F0E70220704770477047704710B524
:10230000044603681A6912F0020F11D0DA6812F05D
:10231000020F0DD06FF002021A61012303760368E9
:102320009B6913F0030F70D001F03EF90023237670
:1023300023681A6912F0040F12D0DA6812F0040F41
:102340000ED06FF004021A610223237623689B6982
:1023500013F4407F5FD0204601F026F90023237656
:1023600023681A6912F0080F12D0DA6812F0080F09
:102370000ED06FF008021A61042323762368DB690C
:1023800013F0030F4ED0204601F00EF90023237600
:1023900023681A6912F0100F12D0DA6812F0100FC9
:1023A0000ED06FF010021A61082323762368DB69D0
:1023B00013F4407F3DD0204601F0F6F80023237649
:1023C00023681A6912F0010F03D0DA6812F0010FC6
:1023D00036D123681A6912F0800F03D0DA6812F040
:1023E000800F34D123681A6912F0400F03D0DA68E5
:1023F00012F0400F32D123681A6912F0200F03D077
:10240000DA6812F0200F30D110BDFFF775FF2046BB
:10241000FFF773FF8AE72046FFF76EFF2046FFF7BE
:102420006CFF9BE72046FFF767FF2046FFF765FF3D
:10243000ACE72046FFF760FF2046FFF75EFFBDE7F1
:102440006FF001021A61204601F00CFAC1E76FF04B
:1024500080021A61204600F018FBC3E76FF04002CB
:102460001A612046FFF74AFFC5E76FF020021A61A4
:10247000204600F009FBC7E703682E4A904212D0BD
:10248000B0F1804F0FD0A2F57C4290420BD002F504
:102490008062904207D002F58062904203D002F53C
:1024A0007842904203D123F070034A681343214AD3
:1024B00090422AD0B0F1804F27D0A2F57C429042C2
:1024C00023D002F5806290421FD002F580629042D4
:1024D0001BD002F57842904217D002F5705290421C
:1024E00013D002F5806290420FD002F580629042D4
:1024F0000BD0A2F59832904207D002F5806290424C
:1025000003D002F58062904203D123F44073CA687D
:10251000134303608B68C3620B688362054B984268
:1025200003D003F58063984201D10B690363012353
:102530004361704700000140A8B110B5044690F80F
:1025400039305BB1022384F83930211D2068FFF750
:1025500093FF012384F83930002010BD80F8383013
:1025600001F048FFEEE701207047A8B110B504461E
:1025700090F839305BB1022384F83930211D20688E
:10258000FFF77AFF012384F83930002010BD80F86E
:102590003830FFF7E5FDEEE701207047A8B110B530
:1025A000044690F839305BB1022384F83930211D9C
:1025B0002068FFF761FF012384F83930002010BD47
:1025C00080F83830FFF7CDFDEEE701207047002896
:1025D00047D0F8B505460C4690F83930002B3BD073
:1025E000022385F83930294651F8042B936823F0EB
:1025F000070393602868FFF73FFF29688A688E69A0
:102600000F6A2068104326F4407626F00306A2687D
:10261000A36942EA0323334323F47C4323F0FC03FE
:10262000E668E26946EA02261E43226A130322692B
:1026300043EA0213334327F0AA076268646942EA57
:1026400004123A43886029688B612B681A6201235F
:1026500085F839300020F8BD80F8383001F07EFF71
:10266000BEE701207047000070B4046A24F0010442
:1026700004628469056A1A4EB0421FD0B0F1804FDF
:102680001CD0A6F57C46B04218D006F58066B04254
:1026900014D006F58066B04210D006F57846B042F8
:1026A0000CD006F57056B04208D0A6F59436B0426C
:1026B00004D024F0030242F0010202E024F00304FB
:1026C000224322F0F0021B01DBB2134325F00A0281
:1026D00001F00A0111438361016270BC704700BFC1
:1026E0000000014038B590F83830012B58D00D4625
:1026F0000446012380F83830022380F83930DAB1FB
:10270000042A2AD0082A3AD0CB684A6809680068A7
:10271000FFF7B2FC2268D36923F44063D3612268D7
:10272000D369A96843EA0123D361012384F83930CE
:10273000002084F8380038BDCB684A680968006812
:10274000FFF792FF2268936923F00C0393612268DC
:102750009369A9680B439361E7E7CB684A68096806
:102760000068FFF742FC2268936923F44063936199
:1027700022689369A96843EA01239361D5E7CB688E
:102780004A6809680068FFF75EFC2268D36923F095
:102790000C03D3612268D369A9680B43D361C4E7F2
:1027A0000220C8E730B4036A23F010030362036A0F
:1027B0004468826922F4E6420D6842EA052223F069
:1027C00020038D6843EA05130E4DA84203D005F59A
:1027D0008065A8420ED123F08003CD6843EA05133B
:1027E00023F0400324F440644D6944EA85048D6974
:1027F00044EA8504446082614A688263036230BCB3
:10280000704700BF0000014038B590F83830012B08
:1028100066D00D460446012380F83830022380F844
:1028200039300C2A1AD8DFE802F0071919192019D3
:1028300019193419191947000068FFF73DFB226880
:10284000936943F0080393612268936923F00403BA
:1028500093612268936929690B439361012384F88A
:102860003930002084F8380038BD0068FFF79AFF3F
:102870002268936943F4006393612268936923F4A7
:102880008063936122689369296943EA0123936114
:10289000E4E70068FFF73EFB2268D36943F00803D2
:1028A000D3612268D36923F00403D3612268D3691A
:1028B00029690B43D361D1E70068FFF75BFB22680E
:1028C000D36943F40063D3612268D36923F480633E
:1028D000D3612268D369296943EA0123D361BDE743
:1028E0000220C1E710B4012303FA01F4036A23EACA
:1028F00004030362036A8A40134303625DF8044BD6
:102900007047000010B5044601220068FFF7EAFF97
:102910002368094A934203D002F58062934203D1AF
:102920005A6C42F400425A642268136843F001036F
:102930001360002010BD00BF0000014010B5044628
:102940000C290DD8DFE801F0070C0C0C170C0C0C4F
:102950001D0C0C0C23000268D36843F00203D36003
:1029600001222068FFF7BEFF2268136843F00103CD
:102970001360002010BD0268D36843F00403D360E5
:10298000EEE70268D36843F00803D360E8E7026823
:10299000D36843F01003D360E2E710B5044661B199
:1029A000042916D0012200210068FFF79BFF0122B5
:1029B00004212068FFF796FF04E00122002100684F
:1029C000FFF790FF2268136843F0010313600020B3
:1029D00010BD012204210068FFF784FFF2E790F8A0
:1029E0003830012B22D030B4012280F83820022365
:1029F00080F839300468636823F07003636004680A
:102A000063680D682B4363600468A36823F0800348
:102A1000A3600468A36849680B43A36080F8392069
:102A2000002380F83830184630BC704702207047C9
:102A300090F83830012B25D0012380F83830CB684E
:102A400023F440738A68134323F480634A68134372
:102A500023F400630A68134323F480530A69134381
:102A600023F400534A69134323F480438A691343D0
:102A700023F40043134302685364002380F8383082
:102A80001846704702207047704770470268D36845
:102A900023F49073D3600268536923F001035361F8
:102AA000202380F83A30704790F83930DBB2212B80
:102AB0002AD18368B3F5805F16D0036A5A1C02627C
:102AC0001A7803685A60C38C013B9BB2C384EBB98C
:102AD0000268D36823F08003D3600268D36843F0B0
:102AE0004003D36000207047036A1B880268C3F369
:102AF0000803536003691BB9036A02330362E2E708
:102B0000036A01330362DEE702207047002070474A
:102B10002DE9F843044601680A6922F44052C3686B
:102B200013430B610168CA6822F4164222F00C02BA
:102B300083680069034360690343E0690343134307
:102B4000CB6021684A6922F44072A36913434B6148
:102B5000E369B3F5004F60D02368B84A934200F0B0
:102B6000148102F58062934200F00F81FEF7A0FE0F
:102B700000EB800000EB80006568AD00B0FBF5F570
:102B8000AF4FA7FB05356D092E01FEF791FE00EB57
:102B9000800000EB80006568AD00B0FBF5F9FEF742
:102BA00087FE00EB800000EB80006568AD00B0FBA5
:102BB000F5F5A7FB05356D094FF0640808FB159581
:102BC0002D013235A7FB05356D0905F0F0053544BB
:102BD000FEF76EFE00EB800000EB80006668B6003A
:102BE000B0FBF6F6FEF764FE00EB800000EB800021
:102BF00063689B00B0FBF3F0A7FB0030400908FBC3
:102C000010684FEA081808F13208A7FB0837C7F325
:102C1000431723682F449F600DE12368874A93423E
:102C20005BD002F58062934257D0FEF741FE00EB85
:102C3000800000EB800065686D00B0FBF5F5804F0B
:102C4000A7FB05356D092E01FEF732FE00EB800073
:102C500000EB800065686D00B0FBF5F9FEF728FE1B
:102C600000EB800000EB800065686D00B0FBF5F5BF
:102C7000A7FB05356D094FF0640808FB1595ED00BD
:102C80003235A7FB05356D096D0005F4F87535443F
:102C9000FEF70EFE00EB800000EB80006668760019
:102CA000B0FBF6F6FEF704FE00EB800000EB8000C0
:102CB00063685B00B0FBF3F3A7FB03235B0908FB2E
:102CC00013684FEAC80808F13208A7FB0837C7F3B2
:102CD000421723682F449F60ADE0FEF7F9FD00EB3B
:102CE000800000EB800065686D00B0FBF5F5544F87
:102CF000A7FB05356D092E01FEF7EAFD00EB80000C
:102D000000EB800065686D00B0FBF5F9FEF7E0FDB3
:102D100000EB800000EB800065686D00B0FBF5F50E
:102D2000A7FB05356D094FF0640808FB1595ED000C
:102D30003235A7FB05356D096D0005F4F87535448E
:102D4000FEF7C6FD00EB800000EB800066687600B1
:102D5000B0FBF6F6FEF7BCFD00EB800000EB800058
:102D600063685B00B0FBF3F3A7FB03235B0908FB7D
:102D700013684FEAC80808F13208A7FB0837C7F301
:102D8000421723682F449F6055E0FEF7A1FD00EB3A
:102D9000800000EB80006568AD00B0FBF5F5284FC2
:102DA000A7FB05356D092E01FEF792FD00EB8000B3
:102DB00000EB80006568AD00B0FBF5F9FEF788FD1B
:102DC00000EB800000EB80006568AD00B0FBF5F51E
:102DD000A7FB05356D094FF0640808FB15952D011B
:102DE0003235A7FB05356D0905F0F0053544FEF7D2
:102DF0006FFD00EB800000EB80006668B600B0FB62
:102E0000F6F6FEF765FD00EB800000EB80006368DE
:102E10009B00B0FBF3F0A7FB0030400908FB1068F3
:102E20004FEA081808F13208A7FB0837C7F3431721
:102E300023682F449F60BDE8F88300BF0010014065
:102E40001F85EB512DE9F04105460F461646984681
:102E5000069C2B681B6837EA03030CBF0123002381
:102E6000B3421DD1B4F1FF3FF3D02CB1FEF7DAF835
:102E7000A0EB0800A042ECD92A68D36823F4D073F1
:102E8000D3602A68536923F001035361202385F836
:102E9000393085F83A30002385F83830032000E0D7
:102EA0000020BDE8F08158B310B5044690F83930E1
:102EB0000BB3242384F839302268D36823F40053F9
:102EC000D3602046FFF724FE2268136923F4904361
:102ED00013612268536923F02A0353612268D3687F
:102EE00043F40053D3600020E063202384F839309A
:102EF00084F83A3010BD80F8383001F0C1FBD8E7D3
:102F0000012070472DE9F04182B01E4690F839301B
:102F1000DBB2202B55D104460D469046002955D0F2
:102F2000002A55D090F83830012B53D0012380F877
:102F300038300023C363212380F83930FEF772F85C
:102F40000746A4F82480A4F8268010E000963B46AB
:102F5000002280212046FFF775FF00283CD12B88F6
:102F60002268C3F3080353602369C3B90235E38CB5
:102F70009BB2B3B1E38C013B9BB2E384A368B3F58E
:102F8000805FE3D000963B46002280212046FFF779
:102F900059FF18BB2A7823685A600135E7E70135E5
:102FA000E5E700963B46002240212046FFF74AFF16
:102FB0000346A8B9202284F83920002284F838205A
:102FC00000E00223184602B0BDE8F0810123F9E7D2
:102FD0000123F7E70223F5E70323F3E70323F1E7F0
:102FE0000323EFE790F83A30DBB2202B1BD1E1B19D
:102FF000EAB190F83830012B1BD081628285C285FE
:103000000023C363222280F83A2080F83830016818
:103010004A6942F001024A610168CA6842F490724A
:10302000CA6018467047022070470120704701208F
:10303000704702207047704708B50168CB6823F0DD
:103040004003CB60202380F83930FFF7F4FF0020E5
:1030500008BD08B590F83A30DBB2222B40D1836826
:10306000B3F5805F0ED0036903BB03685A68836AB7
:10307000591C81621A70C38D013B9BB2C385F3B1A9
:1030800000202EE0826A036943B903685B68C3F3DA
:1030900008031380836A02338362ECE703685B688A
:1030A000DBB21380836A01338362E4E703685B6801
:1030B000826A511C816203F07F031370DBE70268B0
:1030C000D36823F49073D3600268536923F001033B
:1030D0005361202380F83A3000F046F9002000E0E8
:1030E000022008BD7047000010B50446026813684E
:1030F000D168526913F00F0005D113F0200F02D0F0
:1031000011F0200F53D1002867D012F0010202D134
:1031100011F4907F61D013F0010F06D011F4807F7D
:1031200003D0E06B40F00100E06313F0040F04D023
:103130001AB1E06B40F00200E06313F0020F04D01C
:103140001AB1E06B40F00400E06313F0080F04D004
:103150001AB1E26B42F00802E263E26B002A48D047
:1031600013F0200F02D011F0200F24D123685B69E7
:1031700003F04003E26B12F0080F00D13BB320468E
:10318000FFF784FC23685A6912F0400F1BD05A697C
:1031900022F040025A61636B8BB11A4A1A65606B68
:1031A000FEF74FF928B3606B036D984721E0204686
:1031B000FFF74FFF1DE02046FFF74BFFD6E7204605
:1031C000FFF790FF15E02046FFF78CFF11E0204647
:1031D000FFF788FF0023E3630BE013F0800F02D0BA
:1031E00011F0800F06D113F0400F02D011F0400F04
:1031F00004D110BD2046FFF757FCFAE72046FFF741
:103200001BFFF6E70932000808B5806B0023C38571
:10321000C384FFF767FF08BD2DE9F0418AB00024A1
:1032200001943B4B1A6B42F004021A631A6B02F0D2
:1032300004020192019A02941A6B42F080021A630E
:103240001A6B02F080020292029A03941A6B42F007
:1032500001021A631A6B02F001020392039A0494AA
:103260001A6B42F002021A631B6B03F00203049311
:10327000049B284D224640F209112846FEF7D2F958
:10328000DFF89C8022464FF481514046FEF7CAF990
:10329000214F22464FF450413846FEF7C3F94FF410
:1032A000005305931D4B0693079405A92846FEF786
:1032B000DBF840F20913059301260696079408945B
:1032C00005A92846FEF7D0F84FF4815305930696DA
:1032D0000794089405A94046FEF7C6F84FF45043FA
:1032E000059306960794089405A93846FEF7BCF89E
:1032F000802305930223069307940323089308234E
:10330000099305A92846FEF7AFF80AB0BDE8F08199
:103310000038024000080240000402400000211072
:103320000000024008B50C4B1B780C4A12780C497F
:10333000CA540AB9084A53703F2B08D00133064AD1
:103340001370012205490748FFF74CFE08BD024BE8
:1033500000221A70F5E700BF240200209206002028
:10336000140600209406002008B5FFF7DBFF08BD17
:10337000DFED047A20EE270AFCEEC07A17EE900A01
:10338000704700BF00E0AF44024A5368C01A108182
:10339000704700BF240200202DE9F8432DED028B79
:1033A00081460F46164698460A9C0B9DB0EE418A10
:1033B000B1EE400AC0EE207A17EE900AFDF78CF8C5
:1033C00041EC110B9FED2A0B01F07AFA53EC102B14
:1033D00000202D49FCF720FFFDF7AEFBB5F90030CA
:1033E00001EE103AB8EEC11A61EE087AB7EE001A93
:1033F00031EE487AB6F9003001EE103AB8EEC11A53
:1034000021EE071A37EE811ABDEEC11A11EE103AFD
:103410002380B9F9003007EE903AF8EEE77A07EE2C
:10342000100A67EE877AFDEEE77A17EE903A1BB244
:10343000A8F80030B4F900001844FDF73BF80EA3DB
:10344000D3E90023FDF7A0F80DA3D3E90023FCF78F
:10345000E5FEFDF749FB00B238803080B4F900305A
:103460002B80BDEC028BBDE8F88300BFAFF300807A
:10347000C9E53FA4DFBE05407B14AE47E17AA43F17
:103480009A999999991961400000F03FB0F5C84F99
:1034900001D343F2FF10A0F547503F3870470000BA
:1034A00007EE901AF8EEE77A0A4B93ED007A27EED2
:1034B000877A06EE900AF8EEE66A77EEE67AD3EDC2
:1034C000016A67EEA67A77EE277AFDEEE77A17EEC5
:1034D000900A70470800002082B001902B4A40F209
:1034E000136111802A4A1278012A09D0294A1278D8
:1034F000012A28D0284A138040F2136002B0704796
:1035000007EE900AF8EEE77A244B93ED027A67EE25
:10351000877A9FED237A67EE877A9FED227A77EE9E
:10352000877AFDEEE77A17EE903A1BB240F2F63258
:10353000934205DDB3F5E36FD8DB40F21773D5E7AF
:1035400040F2F733D2E7DDED017AF8EEE77A134B7C
:1035500093ED037A67EE877A9FED117A27EE877AEB
:10356000DFED107A77EEC77AFDEEE77A17EE903A44
:103570001BB240F2F632934205DDB3F5E36FB9DBDF
:1035800040F21773B6E740F2F733B3E708040020C0
:1035900091060020D40600200A0400200800002024
:1035A0000000000000E0B044037E012B00D0704713
:1035B00010B504460021FEF779FE074BD860DB68A2
:1035C0001BB9054B96221A6110BD04212046FEF757
:1035D0006DFE014B1861F7E724020020A02801D8F6
:1035E00000207047012070470B8801339BB20B808D
:1035F000834200D070470123137000230B80F9E74A
:103600000C4B1B7D012B00D070470B4B1B78012B03
:1036100005D0032B08D0074B00221A75F4E70549A3
:103620008A6901328A61F4E7024AD3690133D361BE
:10363000F1E700BF2402002090060020184B93F809
:103640002030012B04D0164B002283F82020704735
:1036500000B589B0134BD3ED007A9FED137A67EE76
:10366000877A0F4B5A6A01925B680093FDEEE77A06
:1036700017EE903A0D4A142103A802F04BFA03A862
:10368000FDF72AFC4FF0FF3382B203A90848FFF789
:1036900039FC034B002283F8202009B05DF804FBBD
:1036A000240200209407002000007A449C6D00084A
:1036B00014070020174B93F82830012B1AD07047BD
:1036C000144B002283F829204B1C124A92F829201F
:1036D0001148805C114A5054D9B20E4A92F82930F0
:1036E0005278934209D03F2BEAD00133094A82F83D
:1036F0002930E9E710B50021EFE7064C84F82920CE
:10370000074B084A0849054802F038FA002384F8B4
:10371000283010BD24020020140600204C04002094
:10372000F802002090060020486D0008044BDA697A
:103730001A601A6A5A60034B1A6BDA62704700BF4C
:103740000800002024020020074B01221A70074BBA
:1037500000221A70064BDA691A601A6A5A605A6AAD
:10376000044BDA62704700BF91060020D4060020A7
:10377000080000202402002008B5394B93F83430AB
:10378000012B04D0364B002283F8342008BD344B83
:1037900093F83530062B5ED8DFE803F004121E2CB8
:1037A00039445300FFF7D0FF2D4BDB69032BE9D1E0
:1037B0002B4B00229A61DA61012283F83520E1E780
:1037C000274B9B69032BDDD1254B00229A61DA61DF
:1037D000022283F83520D5E7214BDB69032BD1D1B9
:1037E0001F4B00229A61DA61032283F83520FFF72C
:1037F000ABFFC7E71A4A936B01339363142BC1D90C
:10380000134600229A63042283F83520BAE7144B4A
:10381000DB690A2BB6D1FFF789FF114B052283F82C
:103820003520AFE70E4A936B01339363322BA9D94E
:103830001346062283F8352000229A63FFF784FF9F
:10384000A0E7074B9B690A2B9CD1054B0022DA614C
:1038500083F8352096E7024B002283F8352091E764
:10386000240200200268184B9A4200D0704710B51D
:10387000164C04F13C0204F13E010A20FFF7B4FEAD
:1038800004F1200204F140010A20FFF7ADFE04F12B
:10389000140204F142010A20FFF7A6FE04F13402EB
:1038A00004F144010A20FFF79FFE04F1460204F1EF
:1038B00048010A20FFF798FE04F1280204F14A01AA
:1038C0000A20FFF791FE10BD0008004024020020EE
:1038D000B0F5037F04DC10F5037F03DC084801E04A
:1038E0004FF4037080B200F20D239BB2C0F5037059
:1038F000013080B2034A12685363D063704700BF3F
:10390000F5FDFFFF5406002010B5104B1B68104A50
:10391000B2F900205A630F4B1B6840F213625A63DE
:103920000D4B1B6840F287525A630C4BB3F94C00A5
:10393000FFF7CEFF0A4C012211462046FDF772FE2A
:10394000012208212046FDF76DFE10BDCC030020AA
:103950000804002010050020540700202402002045
:1039600000080240254B93F84630012B00D07047E9
:1039700030B583B0224B1868FFF788FD05461F4C11
:1039800020650146606DFFF78BFDA0656565FFF75B
:10399000A3FD1C4B00221A7094ED0B0AFFF7E8FC04
:1039A000FFF7F2FC04F16003019304F1620300935A
:1039B000BFEE041A04F15C0304F15E0204F14C0151
:1039C00004F10800DFED100A9FED100AFFF7E4FC98
:1039D0002069FFF703FE40B940F2DC530C4A138024
:1039E0000C4A13800022A4F84C20FFF78DFF034BF4
:1039F000002283F8462003B030BD00BF240200201F
:103A0000F802002090060020CDCCCC3ECDCC4C3F1F
:103A1000080400200A040020FEE7000000B585B07D
:103A20001548164B03600023436083600361836184
:103A30000362C362124A8262C3600122C2610363ED
:103A40004261FDF78DFB68B90423009301230193C4
:103A50000023029369460848FDF7ACFB38B905B06E
:103A60005DF804FB40F2A5110648FFF7D5FF40F2D0
:103A7000AF110448FFF7D0FFC80400200020014028
:103A80000100000FAC6D000808B50C480C4B03603A
:103A90000C4B436000238360C3604FF4804202619B
:103AA00043618361C3610362FDF7C2FD00B908BDD4
:103AB00040F2C3110448FFF7AFFF00BF78030020B6
:103AC00000540040A0860100AC6D000800B595B020
:103AD0003B483C4B0360012343602023836040F25A
:103AE0001943C360002303614361FEF725FD0028ED
:103AF00042D114A94FF4805341F8103D3048FEF7ED
:103B000031FB00283DD12E48FEF72FFD00283DD186
:103B100000230E930F930EA92948FEF760FF00289B
:103B200039D16023079340F20D23089300220992B4
:103B30000A920B920C920D9207A92148FEF764FE9F
:103B400070BB082207A91E48FEF75EFE68BB002373
:103B5000009301930293039304934FF40052059250
:103B6000069369461648FEF763FF18BB144800F039
:103B70002FFD15B05DF804FB40F2F1111248FFF77C
:103B80004BFF40F2F7111048FFF746FF4FF4FE716C
:103B90000D48FFF741FF40F203210B48FFF73CFFC0
:103BA00040F20F210848FFF737FF4FF40571064830
:103BB000FFF732FF4FF408710348FFF72DFF00BFF6
:103BC0005406002000000140AC6D000800B58DB027
:103BD00017484FF0804303600023436083604FF039
:103BE000FF32C26003610322039204930122059213
:103BF00006930793089309920A930B9303A9FEF780
:103C0000E6FC50B900230193029301A90848FEF78E
:103C1000E6FE38B90DB05DF804FB40F23E210548E0
:103C2000FFF7FAFE40F245210248FFF7F5FE00BF1C
:103C3000D8060020AC6D000800B58DB03748384B71
:103C4000036040F247334360002383604FF6FF7206
:103C5000C2600361FEF770FC00283CD12F48FEF7DC
:103C60009DFC00283CD10423079350230893002394
:103C700009930B9307A92948FEF7F8FA002834D1D5
:103C800000230593069305A92448FEF7A8FE002803
:103C900030D100220192012302930392049201A9E0
:103CA0001E48FEF71FFD50BB02230193029304221E
:103CB0000DEB02011948FEF715FD28BB0023019307
:103CC00001230293082201A91448FEF70BFD00BB53
:103CD0000DB05DF804FB40F259211248FFF79CFE3D
:103CE00040F25E210F48FFF797FE40F267210D4832
:103CF000FFF792FE40F26E210A48FFF78DFE40F278
:103D000077210848FFF788FE40F27E210548FFF73B
:103D100083FE40F285210348FFF77EFE8C040020DD
:103D200000040040AC6D000808B50B480B4B036065
:103D30004FF4E133436000238360C36003610422D6
:103D400042618361C361FFF7AEF800B908BD40F27C
:103D50003E310348FFF760FE94060020004C00400F
:103D6000AC6D000808B50B480B4B03604FF4E13312
:103D7000436000238360C360036108224261836162
:103D8000C361FFF790F800B908BD40F25131034814
:103D9000FFF742FE1407002000440040AC6D00080D
:103DA00008B50B480B4B03604FF4165343600023D8
:103DB0008360C3600361082242618361C361FFF7CE
:103DC00072F800B908BD4FF459710348FFF724FE9B
:103DD0003803002000480040AC6D000800B589B0F1
:103DE00019481A4B0360532343600023836040F655
:103DF0009F72C2600361FEF79FFBB0B91248FEF7E5
:103E0000B4FBB8B96023019340F2DC530293002263
:103E10000392059201A90C48FEF7F6FC78B90A480E
:103E200000F0D6FB09B05DF804FB40F2F921084828
:103E3000FFF7F2FD40F2FE210548FFF7EDFD40F2ED
:103E400007310348FFF7E8FD10050020001C004083
:103E5000AC6D000800B587B01848194B03605323B8
:103E600043600023836040F2E732C2600361FEF7E3
:103E700063FB98B906A94FF4805341F8103D0F48F1
:103E8000FEF770F978B900230093019369460B4857
:103E9000FEF7A5FD60B907B05DF804FB4FF426718D
:103EA0000848FFF7B9FD40F29E210648FFF7B4FD30
:103EB00040F2A5210348FFF7AFFD00BFFC02002040
:103EC00000080040AC6D000800B589B019481A4BD5
:103ED0000360532343600023836043F67F62C26024
:103EE0000361FEF729FBB0B91248FEF73EFBB8B9F3
:103EF0006023019340F2DC53029300220392059267
:103F000001A90C48FEF780FC78B90A4800F060FB74
:103F100009B05DF804FB40F21B310848FFF77CFD57
:103F20004FF448710548FFF777FD40F22931034807
:103F3000FFF772FD5407002000200040AC6D000820
:103F400008B50F480F4B03604FF4827343600023A2
:103F50008360C360036143614FF400728261382261
:103F6000C2610362436283620A23C362FDF764FF96
:103F700000B908BD40F2DB110348FFF74DFD00BF5B
:103F8000A002002000380040AC6D000800B587B0EA
:103F90001848194B0360532343600023836042F2A7
:103FA0000F72C2600361FEF7C7FA98B906A94FF411
:103FB000805341F8103D0F48FEF7D4F878B900233C
:103FC0000093019369460B48FEF709FD60B907B0FD
:103FD0005DF804FB4FF42E710848FFF71DFD40F219
:103FE000BE210648FFF718FD40F2C5210348FFF740
:103FF00013FD00BF10040020000C0040AC6D000851
:1040000000B589B019481A4B03605323436000235D
:10401000836040F69F72C2600361FEF78DFAB0B90B
:104020001248FEF7A2FAB8B96023019340F2DC53BC
:10403000029300220392059201A90C48FEF7E4FBCB
:1040400078B90A4800F0C4FA09B05DF804FB40F200
:10405000D7210848FFF7E0FC4FF437710548FFF718
:10406000DBFC40F2E5210348FFF7D6FCCC0300203F
:1040700000440140AC6D000800B595B000220092EC
:104080002A4B196C41F0805119641B6C03F080536A
:104090000093009B0192264B196841F4404119603E
:1040A0001B6803F440430193019B02230793012102
:1040B0000A9110210B910D930E9208220F92A822C3
:1040C000109211931293139307A8FDF7D3FC10BB22
:1040D0000F23029302230393002304934FF4A0536E
:1040E00005930693052102A8FDF730FBC0B9FDF743
:1040F000D9FB104BA3FB00308009FDF777F90420B2
:10410000FDF78AF9002211464FF0FF30FDF72EF936
:1041100015B05DF804FB4FF4B9710748FFF77CFC5C
:104120004FF4C0710448FFF777FC00BF003802402D
:1041300000700040D34D6210AC6D000808B5FCF76C
:104140004BFFFFF799FFFFF767F8FFF767FCFFF7F3
:104150009BFCFFF7BBFCFFF739FDFFF76DFDFFF799
:10416000E3FDFFF7FFFDFFF71BFEFFF737FEFFF74D
:1041700071FEFFF7A9FEFFF7E3FEFFF707FFFFF76A
:104180003FFF1D4C00212046FEF7BCFB08212046C6
:10419000FEF7B8FB00211948FEF7B4FB00211848D0
:1041A000FEF7B0FB00211748FEF7ACFB18211648BC
:1041B000FEF7F3FB154C00212046FEF7BFFB042160
:1041C0002046FEF7BBFB1248FDF7BEFF1148FDF786
:1041D000BBFF012210491148FEF704FFFFF710FA58
:1041E000FFF768FA0E4B01221A70FFF7C5FAFFF7C6
:1041F000B9FBFFF723FAF1E754060020CC030020B7
:104200001005002054070020D80600208C04002050
:10421000FC020020100400209206002094060020DA
:104220009006002010B582B000240094214B5A6CF7
:1042300042F480425A645A6C02F480420092009A1E
:1042400001941A6C42F080521A641B6C03F0805384
:104250000193019B0320FDF777F8224621466FF07A
:104260000B00FDF783F8224621466FF00A00FDF7A8
:104270007DF8224621466FF00900FDF777F82246C7
:1042800021466FF00400FDF771F8224621466FF0D9
:104290000300FDF76BF8224621466FF00100FDF7A1
:1042A00065F8224621464FF0FF30FDF75FF802B077
:1042B00010BD00BF003802400268134B9A4200D084
:1042C000704730B587B00024009403F58C335A6CE6
:1042D00042F480725A645B6C03F480730093009B19
:1042E0001023019303250295039401A90748FDF7C4
:1042F000BBF8302301930295039401A90448FDF70C
:10430000B3F807B030BD00BF0020014000000240FC
:10431000000802400268124B9A4200D0704700B574
:1043200087B0C02301931223029301230393032335
:104330000493042305930DEB03010A48FDF794F859
:1043400000230093084B1A6C42F400121A641B6C91
:1043500003F400130093009B07B05DF804FB00BF5B
:1043600000540040000402400038024002681E4B26
:104370009A4200D070472DE9F04186B000240094A5
:1043800003F500331A6C42F480421A641B6C03F488
:1043900080430093009B0225019502950394032618
:1043A000049607230593DFF8488001A94046FDF7EE
:1043B0005BF804230193029503940496052705975F
:1043C0000DEB03014046FDF74FF84FF40053019306
:1043D000029503940496059701A90448FDF744F853
:1043E00006B0BDE8F08100BF003800400004024084
:1043F0000008024070B58CB003684E4A93421ED04C
:104400004D4A934229D04D4A934250D04C4A934250
:1044100061D04C4A934272D04B4A93427CD04B4A73
:10442000934218D100230693494B1A6C42F48072D0
:104430001A641B6C03F480730693069B0BE0002345
:104440000093434B5A6C42F001025A645B6C03F0D8
:1044500001030093009B0CB070BD002401943C4B01
:104460001A6C42F002021A641B6C03F002030193FF
:10447000019B012607960225089509940A940B953D
:1044800007A93448FCF7F0FF4023079308950994E7
:104490000A940B9507A93048FCF7E6FF22463146FF
:1044A0001D20FCF763FF1D20FCF794FFD3E70022DB
:1044B0000292274B196C41F0040119641B6C03F044
:1044C00004030293029B01211E20FCF74FFF1E20D4
:1044D000FCF780FFBFE7002103911D4B1A6C42F0EF
:1044E00008021A641B6C03F008030393039B0A463B
:1044F0003220FCF73BFF3220FCF76CFFABE70023D8
:104500000493134B5A6C42F400325A645B6C03F40C
:1045100000330493049B9EE7002305930C4B1A6C15
:1045200042F080021A641B6C03F080030593059B24
:1045300091E700BF00000140000400400008004077
:10454000000C004000440140001C004000200040DE
:104550000038024000040240000802400368B3F142
:10456000804F00D0704770B586B00024009403F5EA
:104570000E331A6C42F001021A641B6C03F0010343
:104580000093009B4FF4004301930226029603948C
:1045900004940125059501A90B48FCF765FF4FF42C
:1045A00000730193029603940494059501A90748AA
:1045B000FCF75AFF224629461C20FCF7D7FE1C2098
:1045C000FCF708FF06B070BD000002400004024086
:1045D00000B587B00368244A93420BD0234A934224
:1045E00017D0234A934223D0224A93422ED007B0B9
:1045F0005DF804FB4FF4A0630193022302930023B0
:10460000039304930123059301A91B48FCF72CFF96
:10461000EDE74FF480730193022302930023039389
:1046200004930323059301A91448FCF71DFFDEE75B
:10463000402301930223029300230393049309234D
:10464000059301A90C48FCF70FFFD0E780230193E5
:10465000022302930023039304930923059301A9E2
:104660000548FCF701FFC2E700000140004401409B
:10467000001C0040002000400000024000040240F6
:1046800030B589B00368364A934207D0354A934221
:1046900026D0354A934246D009B030BD002500955A
:1046A000324B1A6C42F400221A641B6C03F4002390
:1046B0000093009B03230393022204920124059498
:1046C00006930823079303A92948FCF7CDFE2A4641
:1046D00021463420FCF74AFE3420FCF77BFEDBE762
:1046E00000250195214B1A6C42F400321A641B6CB0
:1046F00003F400330193019B0C23039302230493DF
:1047000001240594032306930723079303A918485C
:10471000FCF7AAFE2A4621462620FCF727FE262083
:10472000FCF758FEB8E700230293104B1A6C42F4D2
:1047300080221A641B6C03F480230293029B4FF4C3
:1047400040630393022304930123059303230693F9
:104750000723079303A90748FCF786FE9CE700BFE1
:10476000004C004000440040004800400038024037
:1047700000000240000802407047FEE7FEE7FEE747
:10478000FEE770477047704708B5FCF73FFCFCF741
:1047900054FE08BD08B50248FDF7B1FD08BD00BFD5
:1047A000D806002008B50248FDF7A9FD08BD00BFE6
:1047B0008C04002008B50248FDF7A1FD08BD00BF2C
:1047C000FC02002008B50248FEF78EFC08BD00BFC1
:1047D0001407002008B500F035F80248FDF78FFDFA
:1047E00008BD00BF1004002008B50248FEF77CFC9D
:1047F00008BD00BF940600200F49D1F8883043F46B
:104800007003C1F888300D4B1A6842F001021A603B
:10481000002098601A6822F0847222F480321A60B4
:10482000074A5A601A6822F480221A60D8604FF052
:1048300000638B60704700BF00ED00E0003802406D
:104840001030002405490A68054B1A604FF0804378
:104850005B6A0B609B1A034A136070474802002092
:104860008802002028020020DFF834D0002103E075
:104870000C4B5B58435004310B480C4B42189A4286
:10488000F6D30B4A02E0002342F8043B094B9A425C
:10489000F9D3FFF7B1FF01F019F9FFF74FFC7047AB
:1048A000000002209C6F0008000000200802002089
:1048B000080200209C070020FEE700000000000026
:1048C0002DE9F04F2DED028BDFF824A38BB057ECD0
:1048D000106B55EC114B00F08FF99AF90080B0EE97
:1048E000408AF0EE608AB8F1FF3F33D022462B4673
:1048F00020462946FCF7E2F8834658BB32463B4641
:1049000030463946FCF7DAF88146002866D1304651
:10491000394600220023FCF79FF820B30022002331
:1049200020462946FCF798F8834600287DD09FED65
:10493000A67B0122AA4BCDF820900092CDE9026718
:10494000CDE904458DED067B0193B8F1000F5ED0F3
:104950009FED9F8BB0EE480AF0EE680A0BB0BDECFD
:10496000028BBDE8F08FB0EE480AF0EE680A00F066
:1049700073FF8046002800F082804FF000084FF05F
:10498000000951EC180B42464B46FCF765F800282D
:10499000E0D047EC106B00F05FFF0028DAD045EC68
:1049A000104B00F059FF0028D4D09AF900308C4AFF
:1049B000019204210022022BCDE90267CDE90445D2
:1049C000CDE906890091089203D0684600F04CFFBB
:1049D00010BB01F075F8222303601DE000220023C4
:1049E00020462946FCF738F80028B3D09FED788B95
:1049F00001227B4BCDF820B0B8F1020F0092CDE937
:104A00000267CDE904458DED068B0193A2D068467F
:104A100000F02AFF002878D0089B1BB101F050F865
:104A2000089B03609DED068B94E745EC104B00F06E
:104A300013FF00288ED00022002320462946FCF7D1
:104A400015F8002886D0664A9AF90030CDF820B0D3
:104A50000121CDE90267CDE90445CDE90012002B23
:104A600058D060490020022BCDE9060156D101F053
:104A700027F821230360089B002BD3D0CEE747EC17
:104A8000106B00F0E9FE00283FF477AF45EC104BC7
:104A900000F0E2FE00283FF470AF53EC182B18EE44
:104AA000100A1946FCF70AF89AF9009000286FD10D
:104AB0000323DFF82CC108902946204600930022EA
:104AC000494BCDF804C0CDE90445CDE90267FBF7B9
:104AD0005BFD04460D46B9F1000F25D1DFF81491B6
:104AE0004FF060480022002330463946CDE9068960
:104AF000FBF7BCFF38BB684600F0B6FE0028BAD111
:104B000000F0DEFF22230360B5E700F0D9FF212388
:104B1000036081E79FED2C7B8DED067B684600F0FE
:104B2000A3FE0028A7D1A2E79FED2B7B0022002344
:104B3000304639468DED067BFBF798FFB0B9B9F1E9
:104B4000020FDDD0D7E745EC104B00F099FE22466E
:104B50002B4651EC100BFBF77FFFB0B9234B9AF9B2
:104B600000904FF06042CDE90623E8E745EC104B9A
:104B700000F086FE22462B4651EC100BFBF76CFF33
:104B800018B9184B0022CDE906239AF90090D6E710
:104B90000122134BCDF820800092CDE90267CDE9C8
:104BA00004450193B9F1000FB4D000220023104650
:104BB0001946FBF713FEB9F1020FCDE906013FF4E8
:104BC00056AFABE7AFF3008000000000000000002C
:104BD000000000000000F03F000000000000F07F37
:104BE000BC6D00080000F0FF0000E03FFFFFEFC7D2
:104BF00034000020FFFFEF472DE9F04F51EC110B7F
:104C000021F0004555EA000393B010D059EC108B09
:104C10006D4B29F000449C424E4610EE10AA0DDD6B
:104C200004F1404404F5801454EA0A0356D167495C
:104C3000002041EC100B13B0BDE8F08F0F4611EED1
:104C400010CA48D09D42EBDC5F4B9D425FD0002EE6
:104C5000CDE900015FDB4FF0000BBCF1000F0ED17E
:104C6000594B9D4243D0594B9D4200F08C80B7F187
:104C7000804F00F09E80564B9F4200F0B88349EC75
:104C8000108B00F0DFFD51EC100BBAF1000F06D1D4
:104C9000002C5AD04D4B26F040429A4255D0F60F88
:104CA00006F1FF3A5BEA0A0373D04A4B9D4240F398
:104CB000998003F104739D4240F33884464B9C4233
:104CC00072DD002F72DD3EA3D3E9002310461946A2
:104CD000FBF75AFCADE7B8F1000F05D03F4813B021
:104CE000BDE8F04F00F0C4BDA542F7DCACE704F12D
:104CF000404303F5801353EA0A0398D0364B9C4295
:104D000040F37F83002F51DBDDE9000191E7BCF127
:104D1000000F9CD084E7324B9D4231DCA3F15473E9
:104D20009D4298DD2B15A3F2FF33142B40F3A18392
:104D3000C3F134032CFA03F202FA03F363458AD178
:104D400002F00102C2F1020B87E7002F05DA0246EA
:104D50000B4600201D49FBF741FD002EBFF669AF51
:104D600004F1404404F5801454EA0B0300F03A8443
:104D7000BBF1010F7FF45DAF01F10043194658E725
:104D80004FF0020B69E7002FC0F2448340464946CA
:104D90004FE742464B4610461946FBF73DFA02469E
:104DA0000B46FBF71BFD44E7002F8CDB00200021A6
:104DB0003FE742464B4640464946FBF7E5FB38E7AE
:104DC0009C7500883CE4377E0000F07F0000F03FD7
:104DD0000000E03F0000E041FFFFEF3FA86D00084A
:104DE000FFFF3F43B4F5801F80F260830022D04B69
:104DF000FBF7CAFB6FF034060C462315CD4AC4F30B
:104E00001304A3F2FF3344F07F559E1994420D968C
:104E100045F4401540F33D83C74B9C4240F3018469
:104E20009FEDAD7B8DED087B8DED107B9FEDAC7B19
:104E30008DED067B01360D96A5F580154FF0000827
:104E4000DDE9062329460646FBF7E6F9DDE90623F8
:104E5000CDE90A0130462946FBF7E0F902460B4648
:104E60000020B649FBF7BAFC03460C46CDE90E34E8
:104E700002460B46DDE90A01FBF786FB6B1043F0A7
:104E8000005303F500230A462F46014603EB0805AD
:104E90000023CDE902120293DDE902890024CDE965
:104EA00004122B46224640464946FBF76DFB02465C
:104EB0000B46DDE90A01FBF7AFF9DDE90623CDE991
:104EC0000A0120462946FBF7A7F902460B46304661
:104ED0003946FBF7A1F942464B46FBF755FB024624
:104EE0000B46DDE90A01FBF797F9DDE90E23FBF735
:104EF0004BFBDDE90445CDE9060122462B46204661
:104F00002946FBF741FB78A3D3E9002304460D466D
:104F1000FBF73AFB76A3D3E90023FBF77FF92246A0
:104F20002B46FBF731FB74A3D3E90023FBF776F99B
:104F300022462B46FBF728FB71A3D3E90023FBF79E
:104F40006DF922462B46FBF71FFB6FA3D3E9002325
:104F5000FBF764F922462B46FBF716FB6CA3D3E95B
:104F60000023FBF75BF9224606460F462B462046F8
:104F70002946FBF709FB02460B4630463946FBF74C
:104F800003FB424604460D464B46DDE90401FBF7B0
:104F900045F9DDE90623FBF7F7FA22462B46FBF736
:104FA0003DF9424606460F464B4640464946FBF70A
:104FB000EBFA0022624BCDE90A01FBF72FF93246EA
:104FC0003B46FBF72BF902980D46044622462B463A
:104FD00040464946FBF7D8FA002280468946584B9E
:104FE00020462946FBF718F9DDE90A23FBF714F9F7
:104FF00002460B4630463946FBF70EF9DDE904233D
:10500000FBF7C2FA224606460F462B46DDE90601AB
:10501000FBF7BAFA02460B4630463946FBF7FEF874
:1050200006460F4602460B4640464946FBF7F6F851
:10503000029839A3D3E9002304460D46FBF7A4FAEE
:105040004246CDE904014B4620462946FBF7E4F8E9
:1050500002460B4630463946FBF7DEF830A3D3E96B
:105060000023FBF791FA30A3D3E9002306460F464D
:1050700020462946FBF788FA02460B463046394659
:10508000FBF7CCF8DDE91023FBF7C8F806460D98CE
:105090000F46FBF70FFA3246804689463B46DDE96C
:1050A0000401FBF7BBF8DDE90823FBF7B7F842463C
:1050B0004B46FBF7B3F8029842464B4604460D4672
:1050C000FBF7AAF8DDE90823FBF7A6F8DDE90423DE
:1050D00038E000BFAFF300800000000000000000D7
:1050E000000000000000F03FEF4E454A287ECA3F16
:1050F00065DBC9934A86CD3F01411DA96074D13F4C
:105100004D268F515555D53FFFAB6FDBB66DDB3F5D
:10511000033333333333E33F000000E009C7EE3F8E
:10512000FD033ADC09C7EE3FF5015B14E02F3EBEFC
:10513000000040438E98030079B60B000000F03F5A
:1051400000000840FBF768F80B4602463946304637
:10515000FBF762F80BF1FF3353EA0A03CDE90401D0
:1051600000F05F819FEDD27B8DED027BDDE900AB2E
:10517000002356465F46CDE900670093DDE90067EE
:10518000504632463B465946FBF746F822462B46E8
:10519000FBF7FAF95246804689465B46DDE9040191
:1051A000FBF7F2F902460B4640464946FBF736F854
:1051B0003246804689463B4620462946CDE9048949
:1051C000FBF7E2F90B46024606460F4640464946C3
:1051D000FBF724F8D04B994204460D468A4640F32B
:1051E000258101F13F4303F5E003034340F0FE81D5
:1051F000B1A3D3E90023DDE90401FBF70FF8324640
:10520000804689463B4620462946FBF705F802467C
:105210000B4640464946FBF747FC002840F0E68134
:10522000A8464FEA2853A3F2FE324FF480131341ED
:105230005344C3F30A52B94DA2F2FF321541C3F3EE
:10524000130423EA05010020C2F1140B44F4801476
:10525000BAF1000F02460B4644FA0BFB30463946C2
:10526000B8BFCBF1000BFAF7D7FF06460F46324620
:10527000DDE904013B46FAF7D1FF4FEA0B5A0D4630
:1052800000248FA3D3E9002320462946FBF77CF9AD
:105290003246804689463B4620462946FAF7BCFFFF
:1052A00002460B46DDE90401FAF7B6FF86A3D3E90F
:1052B0000023FBF769F986A3D3E9002306460F46CE
:1052C00020462946FBF760F902460B463046394630
:1052D000FAF7A4FF06460F4602460B4640464946EB
:1052E000FAF79CFF42464B4604460D46FAF794FFF8
:1052F00002460B4630463946FAF78EFF2246804674
:1053000089462B4620462946FBF73EF972A3D3E98E
:10531000002306460F46FBF737F971A3D3E90023B4
:10532000FAF77AFF32463B46FBF72EF96EA3D3E934
:105330000023FAF773FF32463B46FBF725F96CA3CF
:10534000D3E90023FAF768FF32463B46FBF71CF926
:1053500069A3D3E90023FAF761FF32463B46FBF726
:1053600013F902460B4620462946FAF755FF064632
:105370000F4602460B4620462946FBF705F9002258
:10538000CDE900014FF0804330463946FAF744FF3B
:1053900002460B46DDE90001FBF720FA42460646CD
:1053A0000F464B4620462946FBF7EEF842464B4651
:1053B000FAF734FF02460B4630463946FAF72CFF1F
:1053C00022462B46FAF728FF02460B460020544996
:1053D000FAF722FF8A44BAF5801F02460B46C0F254
:1053E00030815146DDE90223FBF7CEF821E4002E9F
:1053F000FFF645AC49EC108B13B0BDE8F04F00F060
:1054000057B9002FBFF6D2ACDDE90034184604F1DD
:1054100000410EE442464B4600204149FBF7DEF9CD
:1054200007E49FED377B8DED027B9FE63D4B21F03E
:105430000048984540F3E8803B4B0B4403430AD1B6
:1054400032463B46FAF7E8FEDDE90423FBF722FB90
:1054500000283FF4E6AEDDE902012BA3D3E90023E7
:10546000FBF792F828A3D3E90023FBF78DF8FFF7A9
:10547000E0BBBCF1000F40F0D080C3F1140345FA4B
:1054800003F202FA03F3AB4200F0E380E346FFF7D6
:10549000EABB9FED1F7B8DED087B8DED107B9FEDB3
:1054A000047B4FF000088DED067BC9E40026A4E4E0
:1054B000000000000000F03FFE822B654715973C7E
:1054C00000000000432EE63FEF39FAFE422EE63F91
:1054D000396CA80C615C20BED0A4BE726937663EF0
:1054E000F16BD2C541BDBB3E2CDE25AF6A56113FE4
:1054F00093BDBE166CC1663F3E5555555555C53FCB
:10550000000000000000F0BF59F3F8C21F6EA501B3
:105510000000000000000000FFFF8F40FFFF0F00B1
:105520000000F03FFFCB904000346F3F5C4B9C424B
:105530007FF73AAC5B4B9C423FF7C3AB0022594B21
:10554000FAF76AFE46A3D3E9002304460D46FBF7AB
:105550001BF845A3D3E90023804689462046294607
:10556000FBF712F80022CDE902014F4B20462946F5
:10557000FBF70AF802460B463DA1D1E90001FAF714
:105580004BFE22462B46FAF7FFFF02460B46002051
:105590004649FAF741FE224606460F462B4620466C
:1055A0002946FAF7F1FF02460B4630463946FAF72C
:1055B000EBFF31A3D3E90023FAF7E6FF02460B46DF
:1055C000DDE90201FAF728FE02460B4606460F46C1
:1055D00040464946FAF722FE002004460D46424660
:1055E0004B46AFE502460B46FFF7D5BBDDE90201AE
:1055F00023A3D3E90023FAF7C7FF21A3D3E90023AC
:10560000FAF7C2FFFFF715BB284B98453FF709AEE5
:10561000DDE900239246934632E64FF0000BFFF798
:105620002EBB9FED197B8DED087B9FED197B8DEDDA
:10563000107B9FED197B4FF480288DED067BFFF7E3
:10564000FFBB584643EC102B00F0A2F951EC100BB5
:10565000C8E602F00102C2F1020BFFF704BB00BF73
:10566000000000604715F73F44DF5DF80BAE543E85
:10567000555555555555D53FFE822B654715F73F76
:105680009C7500883CE4377E0000004003B8E23F90
:1056900006D0CF43EBFD4C3E000000000000F83F79
:1056A000FEFFEF3F0000F03F0000D03F0000E03F72
:1056B0002DE9F041624A57EC106BBA4300F0958037
:1056C000002F3B4610EE101A344654DD3F1500F013
:1056D000AF80C3F31303A7F2FF3743F48013E20F45
:1056E000F90702EB43034FEA440503D5ED0F05EB41
:1056F0004303A50000267F10B44616224FF4001184
:105700000CEB010098424FEAD5744FEA450503DCE3
:105710001B1A00EB010C0E44013A04EB43034FEA61
:105720005101EDD11046964620244FF0004209E089
:1057300052D05B00013C03EBD5734FEA52024FEAB3
:10574000450536D0634502EB0E01F1DD002901EB82
:10575000020E0ADBE046A3EB0C03A94288BF03F16B
:10576000FF336D1A1044C446E3E7BEF1000FF1DBCE
:105770000CF10108EFE727F0004232432AD0002F56
:1057800049D1CA0A153B4905002AFAD012F4801003
:1057900001D050E020465200D50200F10104F9D5B5
:1057A000C4F1200501FA04F4E9401F1A41EA02039A
:1057B0008FE72B4329D144087110F30701F17F5182
:1057C00001F5001148BF44F0004401EB07532246A5
:1057D00043EC102BBDE8F081A942AAD8002901EBC7
:1057E000020EC2DB98460023BBE710EE102A3B46B0
:1057F00010EE100A3946FAF7C7FE32463B46FAF772
:105800000DFD41EC100BBDE8F081421C16BF421C9F
:1058100001365408D0E710EE102A30463946FAF720
:10582000FBFC02460B46FAF7D9FF41EC100BD1E71F
:105830001A463B46AAE70C4620254FF0FF30B3E757
:105840000000F07F51EC100B10EE102A21F0004305
:1058500043EC102B704700BF10EE903A43F000402D
:1058600000F58010C00F7047002070470000000056
:105870009FED010B704700BF000000000000F87FA3
:10588000F0B551EC100BC1F30A55A5F2FF32132A03
:1058900083B00B464FEAD17610EE104A2FDC002A77
:1058A0004ADB394D154101EA0507074323D06D084E
:1058B00029400C430CD04FF48021132A23EA05051C
:1058C00041FA02F343EA05030CBF4FF00044002401
:1058D0002E4A02EBC6062046D6E900450246294676
:1058E0002046FAF79BFCCDE9000122462B46DDE974
:1058F0000001FAF791FC41EC100B03B0F0BD332A24
:1059000007DDB2F5806FF6D110EE102AFAF786FCAB
:10591000F1E7A5F213454FF0FF32EA401042EAD01A
:1059200052081042D4D04FF0804124EA020241FADA
:1059300005F542EA0504CBE721F000420243DAD044
:10594000C1F3130202435442104D1443240B05EBE0
:10595000C6004F0C04F40021D0E900457F0410EE8E
:10596000102A41EA070320462946FAF757FCCDE9F9
:1059700000012B462246DDE90001FAF74DFC21F03B
:10598000004343EAC671B6E7FFFF0F00C06D000891
:1059900038B553EC102BC3F30A511C46054629BBFE
:1059A00010EE101A23F0004421431ED019460022A5
:1059B000394B3A4C10EE100AFAF7E6FDA5420246C2
:1059C0000B4636DB0C46C1F30A513639294440F206
:1059D000FE70814235DC002914DD24F0FF4424F4FC
:1059E000E00444EA015343EC102B38BD40F2FF7051
:1059F0008142EBD110EE100A1946FAF70FFC41EC88
:105A0000100B38BD11F1350F1EDA4CF250318D42BA
:105A100043EC112B28DD9FED1C0B00F043F81AA37B
:105A2000D3E9002351EC100BFAF7AEFD41EC100B5B
:105A300038BD17A3D3E90023FAF7A6FD41EC100BFC
:105A400038BD43EC112BE6E724F0FF4424F4E004D6
:105A5000363144EA0153104619460022104BFAF73A
:105A600093FD41EC100B38BD9FED090B00F01AF8C7
:105A700007A3D3E9002351EC100BFAF785FD41ECA5
:105A8000100B38BDAFF300809C7500883CE4377E76
:105A900059F3F8C21F6EA50100005043B03CFFFF50
:105AA0000000903C53EC102B11EE900A23F00041C3
:105AB00000F0004041EA000343EC102B704700BFA8
:105AC000014B1868704700BF3800002070B50D4EBC
:105AD0000D4CA41BA4100025A54209D10B4E0C4C63
