:020000040800F2
:1000000000000220C95A00083D5400083F5400086F
:100010004154000843540008455400080000000003
:10002000000000000000000000000000475400082D
:1000300049540008000000004B5400084D540008CB
:10004000195B0008195B0008195B0008195B0008C0
:10005000195B0008195B0008195B0008195B0008B0
:10006000195B0008195B0008195B0008195B0008A0
:10007000195B0008195B0008195B0008195B000890
:10008000195B0008195B0008195B0008195B000880
:10009000195B0008195B0008195B0008195B000870
:1000A000195B0008195B0008195B0008195B000860
:1000B000595400086954000879540008195B000875
:1000C000195B0008195B0008195B0008195B000840
:1000D000195B0008195B000889540008195B0008C7
:1000E00099540008195B0008195B0008A554000822
:1000F000195B0008195B0008195B0008195B000810
:10010000195B0008195B0008BD540008195B000862
:10011000D1540008195B0008195B0008195B00083E
:10012000195B0008195B0008195B0008195B0008DF
:10013000195B00080000000000000000195B0008C7
:10014000195B0008195B0008195B0008195B0008BF
:10015000195B0008195B0008195B0008E1540008EE
:10016000195B0008195B0008195B0008195B00089F
:10017000195B0008195B0008195B0008000000000B
:1001800000000000195B00080000000000000000F3
:10019000195B00080000000000000000195B000867
:1001A000000000000000000000000000195B0008D3
:1001B000195B0008195B0008195B0008195B00084F
:0401C000195B0008BF
:1001D00010B5054C237833B9044B13B10448AFF381
:1001E00000800123237010BD4002002000000000A9
:1001F000A07A000808B5034B1BB103490348AFF3CD
:10020000008008BD0000000044020020A07A000821
:1002100081F0004102E000BF83F0004330B54FEAB7
:1002200041044FEA430594EA050F08BF90EA020F24
:100230001FBF54EA000C55EA020C7FEA645C7FEAB7
:10024000655C00F0E2804FEA5454D4EB5555B8BFDA
:100250006D420CDD2C4480EA020281EA030382EA4B
:10026000000083EA010180EA020281EA0303362DDD
:1002700088BF30BD11F0004F4FEA01314FF4801CB0
:100280004CEA113102D0404261EB410113F0004FC2
:100290004FEA03334CEA133302D0524263EB430379
:1002A00094EA050F00F0A780A4F10104D5F1200E17
:1002B0000DDB02FA0EFC22FA05F2801841F1000172
:1002C00003FA0EF2801843FA05F359410EE0A5F146
:1002D00020050EF1200E012A03FA0EFC28BF4CF077
:1002E000020C43FA05F3C01851EBE37101F000452D
:1002F00007D54FF0000EDCF1000C7EEB00006EEB3A
:100300000101B1F5801F1BD3B1F5001F0CD34908C3
:100310005FEA30004FEA3C0C04F101044FEA44521A
:1003200012F5800F80F09A80BCF1004F08BF5FEAA1
:10033000500C50F1000041EB045141EA050130BD81
:100340005FEA4C0C404141EB010111F4801FA4F124
:100350000104E9D191F0000F04BF01460020B1FA79
:1003600081F308BF2033A3F10B03B3F120020CDAB1
:100370000C3208DD02F1140CC2F10C0201FA0CF08F
:1003800021FA02F10CE002F11402D8BFC2F1200CF4
:1003900001FA02F120FA0CFCDCBF41EA0C019040AA
:1003A000E41AA2BF01EB0451294330BD6FEA0404F3
:1003B0001F3C1CDA0C340EDC04F11404C4F12002DE
:1003C00020FA04F001FA02F340EA030021FA04F3F0
:1003D00045EA030130BDC4F10C04C4F1200220FA47
:1003E00002F001FA04F340EA0300294630BD21FA85
:1003F00004F0294630BD94F0000F83F4801306BF4B
:1004000081F480110134013D4EE77FEA645C18BF3E
:100410007FEA655C29D094EA050F08BF90EA020FD5
:1004200005D054EA000C04BF1946104630BD91EACD
:10043000030F1EBF0021002030BD5FEA545C05D1D0
:100440004000494128BF41F0004130BD14F580040F
:100450003CBF01F5801130BD01F0004545F0FE4183
:1004600041F470014FF0000030BD7FEA645C1ABFB8
:10047000194610467FEA655C1CBF0B46024650EAEF
:10048000013406BF52EA033591EA030F41F400211B
:1004900030BD00BF90F0000F04BF0021704730B5A1
:1004A0004FF4806404F132044FF000054FF0000176
:1004B00050E700BF90F0000F04BF0021704730B537
:1004C0004FF4806404F1320410F0004548BF40420C
:1004D0004FF000013EE700BF42004FEAE2014FEA61
:1004E00031014FEA02701FBF12F07F4393F07F4F3C
:1004F00081F06051704732F07F4208BF704793F03F
:100500007F4F04BF41F40021704730B54FF4607451
:1005100001F0004521F000411CE700BF50EA010254
:1005200008BF704730B54FF000050AE050EA0102FD
:1005300008BF704730B511F0004502D5404261EB6D
:1005400041014FF4806404F132045FEA915C3FF4AE
:10055000D8AE4FF003025FEADC0C18BF03325FEA4B
:10056000DC0C18BF033202EBDC02C2F1200300FAFC
:1005700003FC20FA02F001FA03FE40EA0E0021FA21
:1005800002F11444BDE600BF4FF0FF3C06E000BF9F
:100590004FF0010C02E000BF4FF0010C4DF804CD0C
:1005A0004FEA410C7FEA6C5C4FEA430C18BF7FEACC
:1005B0006C5C1BD001B050EA410C0CBF52EA430CFA
:1005C00091EA030F02BF90EA020F0020704710F17A
:1005D000000F91EA030F58BF994208BF90422CBF09
:1005E000D8176FEAE37040F0010070474FEA410C02
:1005F0007FEA6C5C02D150EA013C07D14FEA430C20
:100600007FEA6C5CD6D152EA033CD3D05DF8040B90
:10061000704700BF8446104662468C4619466346C2
:1006200000E000BF01B5FFF7B7FF002848BF10F199
:10063000000F01BD4DF808EDFFF7F4FF0CBF0120DE
:1006400000205DF808FB00BF4DF808EDFFF7EAFF5A
:1006500034BF012000205DF808FB00BF4DF808ED15
:10066000FFF7E0FF94BF012000205DF808FB00BF0A
:100670004DF808EDFFF7CEFF94BF012000205DF894
:1006800008FB00BF4DF808EDFFF7C4FF34BF0120A1
:1006900000205DF808FB00BF4FEA4102B2F1E043E1
:1006A00024BFB3F5001CDCF1FE5C0DD901F0004C59
:1006B0004FEAC0024CEA5070B2F1004F40EB8300A9
:1006C00008BF20F00100704711F0804F21D113F1D5
:1006D0003872BCBF01F00040704741F480114FEA0E
:1006E0005252C2F11802C2F1200C10FA0CF320FA97
:1006F00002F018BF40F001004FEAC1234FEAD323B4
:1007000003FA0CFC40EA0C0023FA02F34FEA43031D
:10071000CCE77FEA625307D150EA01331EBF4FF0A6
:10072000FE4040F44000704701F0004040F0FE40C1
:1007300040F40000704700BF53B94AB9002908BF10
:1007400000281CBF4FF0FF314FF0FF3000F072B9AE
:10075000ADF1080C6DE904CE00F006F8DDF804E018
:10076000DDE9022304B070472DE9F047089E0446F6
:100770008846002B4BD18A42154667D9B2FA82F2DD
:100780004AB1C2F1200701FA02F320FA07F79540B7
:1007900047EA030894404FEA154E230CB8FBFEF7D6
:1007A0001FFA85FC0EFB178843EA084307FB0CF190
:1007B000994209D9EB1807F1FF3080F01B8199426B
:1007C00040F21881023F2B445B1AA4B2B3FBFEF047
:1007D0000EFB103344EA034400FB0CFCA44509D98A
:1007E0002C1900F1FF3380F00781A44540F2048109
:1007F00002382C4440EA0740A4EB0C0400271EB149
:10080000D4400023C6E900433946BDE8F0878B4257
:1008100009D9002E00F0EB800027C6E90001384618
:100820003946BDE8F087B3FA83F7002F47D18B42F2
:1008300002D3824200F2FA80841A61EB03030120A2
:100840009846002EE0D0C6E90048DDE702B9FFDE99
:10085000B2FA82F2002A40F08F80491B4FEA154E0F
:100860001FFA85F80127B1FBFEFC230C0EFB1C11BF
:1008700043EA014308FB0CF1994207D9EB180CF14C
:10088000FF3002D2994200F2CD808446591AA3B2B9
:10089000B1FBFEF00EFB101443EA044408FB00F821
:1008A000A04507D92C1900F1FF3302D2A04500F270
:1008B000B6801846A4EB080440EA0C409FE7C7F155
:1008C000200CBB4022FA0CFE4EEA030E01FA07F49C
:1008D00020FA0CF521FA0CF34FEA1E482543B3FB2E
:1008E000F8F92C0C08FB19331FFA8EFA44EA03437B
:1008F00009FB0AF49C4202FA07F200FA07F10BD94D
:100900001EEB030309F1FF3080F087809C4240F228
:100910008480A9F1020973441B1BADB2B3FBF8F04C
:1009200008FB103345EA034400FB0AFAA24508D944
:100930001EEB040400F1FF336BD2A24569D90238E3
:10094000744440EA0940A0FB0289A4EB0A044C4528
:10095000C2464B4654D351D0002E69D0B1EB0A05A4
:1009600064EB030404FA0CFCFD40FC404CEA050572
:10097000C6E90054002747E7C2F1200320FA03F735
:10098000954001FA02F021FA03F34FEA154E38437D
:10099000010CB3FBFEF71FFA85F80EFB173341EA93
:1009A000034107FB08F38B4204FA02F407D96918E4
:1009B00007F1FF3C2FD28B422DD9023F2944CB1A9D
:1009C00081B2B3FBFEF00EFB103341EA034100FBA2
:1009D00008F38B4207D9691800F1FF3C17D28B420C
:1009E00015D902382944C91A40EA07473BE7374678
:1009F000304609E70746E7E61846FBE64145ABD235
:100A0000B8EB020A69EB0E0201381346A4E7604610
:100A1000E9E7184695E76746D1E781467CE7023863
:100A20002C4447E7ACF1020C2B442FE7384608E78B
:100A30003746E9E6704700BF034613F8012B002A4A
:100A4000FBD1181A013870470000000000000000B8
:100A500001F0FF01102A2BDB10F0070F08D010F86F
:100A6000013B013A8B422DD010F0070F42B3F6D173
:100A7000F0B441EA012141EA014122F007047FF08C
:100A800000070023F0E80256083C85EA010586EAE3
:100A9000010685FA47F5A3FA87F586FA47F6A5FA1F
:100AA00087F68EB9EED1F0BC01F0FF0102F007022B
:100AB00032B110F8013B013A83EA010313B1F8D1D6
:100AC0000020704701387047002D06BF35460338B7
:100AD000073815F0010F07D1013015F4807F02BFF0
:100AE000013015F4C03F0130F0BC0138704700BF41
:100AF00010B504460E4B18784FF47A73B3FBF0F33D
:100B00000C4A1068B0FBF3F000F020FA68B90F2C23
:100B100001D901200AE0002221464FF0FF3000F009
:100B2000D5F9034B5C60002000E0012010BD00BF40
:100B3000000000206400002008B50B4B1A6842F446
:100B400000721A601A6842F480621A601A6842F4ED
:100B500080721A60032000F0A7F90020FFF7C8FF99
:100B600004F040F9002008BD003C0240034A11682F
:100B7000034B1B780B441360704700BF6C030020CD
:100B800000000020014B1868704700BF6C03002074
:100B9000494B5A6822F440325A605A6841680A4305
:100BA0005A600268536823F4807353600268536884
:100BB000016943EA012353600268536823F04073DC
:100BC00053600268536881680B43536002689368FE
:100BD00023F40063936002689368C1680B439360D9
:100BE000826A364B9A4249D00268936823F0706358
:100BF000936002689368816A0B439360026893680C
:100C000023F04053936002689368C16A0B4393607A
:100C10000268936823F00203936002689368816915
:100C200043EA41039360036A002B32D102685368A0
:100C300023F4006353600268D36A23F47003D36221
:100C40000168CB6AC269013A43EA0253CB62026887
:100C5000936823F40073936002689368016B43EA1E
:100C6000412393600268936823F480639360026871
:100C70009368416943EA81239360704702689368EF
:100C800023F0706393600268936823F0405393608D
:100C9000BEE70268536843F4006353600268536818
:100CA00023F46043536001684B68426A013A43EAA7
:100CB00042334B60BFE700BF002301400100000F3B
:100CC00030B310B50446036C43B1236C13F0100F1E
:100CD0000AD00120002384F83C3010BD436480F822
:100CE0003C3004F0C9F8F0E7236C23F4885323F078
:100CF000020343F0020323642046FFF749FF00206C
:100D00006064236C23F0030343F001032364E1E7F1
:100D10000120704730B482B00023019390F83C303A
:100D2000012B00F0B580012380F83C300B68092BC3
:100D30003ED90568EA689BB203EB43031E3B0724D8
:100D400004FA03F322EA0303EB600568EA688C689F
:100D50000B8803EB43031E3B04FA03F31343EB60DE
:100D60004B68062B3AD805686A6B03EB8303053B97
:100D70001F2404FA03F322EA03036B6305686A6B1A
:100D80004B6803EB8303053B0C8804FA03F313431E
:100D90006B6302683F4B9A4250D002683D4B9A42C7
:100DA00055D0002380F83C30184602B030BC704764
:100DB00005682A699BB203EB4303072404FA03F393
:100DC00022EA03032B6105682A698C680B8803EB10
:100DD000430304FA03F313432B61C1E70C2B16D82A
:100DE00005682A6B03EB8303233B1F2404FA03F3F8
:100DF00022EA03032B6305682A6B4B6803EB83032A
:100E0000233B0C8804FA03F313432B63C1E7056803
:100E1000EA6A03EB8303413B1F2404FA03F322EA4B
:100E20000303EB620568EA6A4B6803EB8303413B0B
:100E30000C8804FA03F31343EB62AAE70B68122B46
:100E4000ABD1154A536843F480035360A5E70B68A0
:100E5000124A934201D0112BA3D10F4A536843F495
:100E6000000353600A680D4B9A429AD10C4B1B68E1
:100E70000C4AA2FB03239B0C03EB83035A00019251
:100E800002E0019B013B0193019B002BF9D188E714
:100E900002208AE7002001400023014012000010D8
:100EA0006400002083DE1B43074AD36823F4E06319
:100EB0001B041B0C000200F4E060184340F0BF600C
:100EC00040F40030D060704700ED00E030B4174BC4
:100ED000DB68C3F30223C3F10704042C28BF0424F6
:100EE0001D1D062D18D9033B4FF0FF3505FA04F4FC
:100EF00021EA0401994005FA03F322EA03031943A6
:100F000000280BDB0901C9B200F1604000F5614027
:100F100080F8001330BC70470023E5E700F00F00B5
:100F20000901C9B2024B1954F4E700BF00ED00E01B
:100F300014ED00E000F01F02400901239340024A33
:100F400042F82030704700BF00E100E00138B0F106
:100F5000807F0AD2064B5860064AF02182F823109F
:100F60000020986007221A6070470120704700BF78
:100F700010E000E000ED00E0042805D0054A136809
:100F800023F0040313607047024A136843F004031C
:100F90001360704710E000E0704708B5FFF7FCFFF2
:100FA00008BD90F83530DBB2022B03D080234365B7
:100FB00001207047052380F835300268136823F05C
:100FC000010313600020704700230F2B00F2D18033
:100FD000F0B482B039E0062200E00022B2403A4389
:100FE0000234644E46F82420634A1468EA4302EA55
:100FF00004064F6817F4803F01D045EA04065E4CB2
:101000002660646802EA04064F6817F4003F01D0C6
:1010100045EA0406584C6660A46802EA04064F6874
:1010200017F4801F01D045EA0406534CA660E4681B
:1010300022404E6816F4001F01D045EA04024E4CCF
:10104000E26001330F2B00F2918001229A400C687C
:1010500004EA0205AA42F4D14C68022C01D0122CF9
:1010600010D1DE08083650F826C003F00704A700A8
:101070000F24BC402CEA040C0C69BC4044EA0C046C
:1010800040F8264004685F000326BE40F64306EAA7
:10109000040C4C6804F00304BC4044EA0C040460F3
:1010A0004C6804F1FF3CBCF1010F03D9112C01D0B5
:1010B000122C10D1846806EA040CCC68BC4044EAC7
:1010C0000C048460446824EA02024C68C4F30014EF
:1010D0009C4014434460C26816408A68BA40324358
:1010E000C2604A6812F0805FABD000220192234AAE
:1010F000546C44F480445464526C02F48042019273
:10110000019A9C08A61C1B4A52F8267003F00302A1
:1011100096000F22B24027EA0207194A90423FF494
:101120005CAF02F58062904216D002F58062904278
:1011300014D002F58062904212D002F58062904293
:1011400010D002F5806290420ED002F5806290428B
:101150003FF441AF072241E701223FE702223DE78A
:1011600003223BE7042239E7052237E702B0F0BC4F
:101170007047704700380140003C01400038024091
:101180000000024012B90904816170478161704713
:1011900008B5054B5B69034200D108BD024B58619D
:1011A00002F068FAF9E700BF003C0140002800F0B7
:1011B000828010B5044690F83D30002B41D02423A6
:1011C00084F83D302268136823F00103136000F0B7
:1011D0002DF93A4BA3FB00239B0C226853606168F6
:1011E000374A914232D80133226813626368344A25
:1011F000934235D85B00B0FBF3F0C0F30B03032B35
:1012000000D804202368D861E369216A22680B436F
:1012100013602369E16822680B4393606369A169E5
:1012200022680B43D3602268136843F00103136004
:1012300000202064202384F83D30206384F83E00A1
:1012400010BD80F83C3003F045FEB8E74FF49672CD
:1012500002FB03F31B4AA2FB03239B090133C3E7F1
:10126000A16889B903EB4302B0FBF2F2C2F30B02AF
:10127000B2FA82F25209E2B991B903EB4303B0FB2F
:10128000F3F040F40040BDE703EB830202EB82027F
:10129000B0FBF2F2C2F30B02B2FA82F25209EAE7B1
:1012A00003EB830303EB8303B0FBF3F040F4404014
:1012B000A8E70120A6E70120704700BF83DE1B439B
:1012C000A0860100D34D6210002800F09D8070B50B
:1012D00004464F4B1B6803F00F038B4209D2CBB27D
:1012E0004B4A1370136803F00F038B4201D00120A7
:1012F00070BD236813F0020F17D013F0040F04D051
:10130000444A936843F4E0539360236813F0080F52
:1013100004D0404A936843F4604393603D4A936825
:1013200023F0F003A068034393600D46236813F095
:10133000010F32D06368012B21D09A1E012A25D9D2
:10134000344A126812F0020F60D032498A6822F0E3
:10135000030213438B60FFF715FC06462D4B9B6879
:1013600003F00C036268B3EB820F16D0FFF70AFCA0
:10137000801B41F288339842F0D90320B8E7254A10
:10138000126812F4003FE0D10120B1E7214A12684F
:1013900012F0007FD9D10120AAE71D4B1B6803F092
:1013A0000F03AB4209D9EAB2194B1A701B6803F05C
:1013B0000F03AB4201D001209AE7236813F0040F1A
:1013C00006D0144A936823F4E053E1680B4393601A
:1013D000236813F0080F07D00E4A936823F4604384
:1013E000216943EAC103936000F040F8094B9B6810
:1013F000C3F30313084AD35CD840084B186000209D
:10140000FFF776FB002073E70120704701206FE7AC
:10141000003C024000380240C47A0008640000200A
:10142000014B1868704700BF6400002008B5FFF743
:10143000F7FF044B9B68C3F38223034AD35CD84075
:1014400008BD00BF00380240D47A000808B5FFF795
:10145000E7FF044B9B68C3F34233034AD35CD84095
:1014600008BD00BF00380240D47A00082DE9F04BD7
:101470005C4B9B6803F00C03082B07D00C2B5BD054
:10148000042B00F0AD805848BDE8F08B554B5A68EE
:1014900002F03F025B6813F4800F2AD0514B5B6867
:1014A000C3F388131E4600275C010025E41A65EB90
:1014B0000705A90141EA9461A001001B61EB050148
:1014C000CB0043EA5073C400A01943EB07014B0261
:1014D00043EAD0534402204619460023FFF72CF973
:1014E000404B5B68C3F3014301335B00B0FBF3F097
:1014F000CAE73C4B5B68C3F388131E4600275C01B8
:101500000025E41A65EB0705A90141EA9461A001F1
:10151000001B61EB0501CB0043EA5073C400A01926
:1015200043EB07018B0243EA90538402204619469D
:101530000023FFF701F9D3E72A4B5A6802F03F0274
:101540005B6813F4800F28D0264B5B68C3F38813C5
:101550001E4600275C010025E41A65EB0705A9017A
:1015600041EA9461A001001B61EB0501CB0043EA55
:101570005073C400A01943EB07014B0243EAD05358
:101580004402204619460023FFF7D6F8154B5B6846
:10159000C3F30273B0FBF3F076E7124B5B68C3F35F
:1015A00088131E4600275C010025E41A65EB070539
:1015B000A90141EA9461A001001B61EB0501CB0088
:1015C00043EA5073C400A01943EB07018B0243EABE
:1015D00090538402204619460023FFF7ADF8D5E763
:1015E000024851E7003802400024F40000127A005B
:1015F00070B582B00446036813F0010F41D0A64BCA
:101600009B6803F00C03042B32D0A34B9B6803F0C0
:101610000C03082B27D0A04B9B6803F00C030C2B6A
:1016200059D06368B3F5803F5BD0B3F5A02F5ED08F
:10163000994B1A6822F480321A601A6822F48022C8
:101640001A606368002B5CD0FFF79CFA0546924B4A
:101650001B6813F4003F14D1FFF794FA401B642871
:10166000F5D903209DE18C4B5B6813F4800FD2D039
:10167000894B1B6813F4003F03D06368002B00F014
:101680008D81236813F0020F67D0834B9B6813F0A2
:101690000C0F4AD0804B9B6803F00C03082B3FD003
:1016A0007D4B9B6803F00C030C2B48D0E368002BA8
:1016B00074D07A4B01221A60FFF764FA0546764B24
:1016C0001B6813F0020F60D1FFF75CFA401B022881
:1016D000F5D9032065E1704B5B6813F4800FA0D04F
:1016E000C6E76D4A136843F480331360A9E76A4B79
:1016F0001A6842F480221A601A6842F480321A6032
:101700009FE7FFF73FFA0546634B1B6813F4003F62
:10171000B7D0FFF737FA401B6428F5D9032040E122
:101720005D4B5B6813F4800FBAD15B4B1B6813F001
:10173000020F0AD0E368012B07D0012031E1564B9C
:101740005B6813F4800FB1D1EFE7534A136823F0BD
:10175000F803216943EAC1031360236813F0080FFB
:1017600040D0636963B34E4B01221A60FFF70AFA57
:101770000546494B5B6F13F0020F33D1FFF702FAB6
:10178000401B0228F5D903200BE1434A136823F0DC
:10179000F803216943EAC1031360DEE73F4B0022EF
:1017A0001A60FFF7EFF905463B4B1B6813F0020F79
:1017B000D3D0FFF7E7F9401B0228F5D90320F0E06A
:1017C000374B00221A60FFF7DDF90546324B5B6F9D
:1017D00013F0020F06D0FFF7D5F9401B0228F5D908
:1017E0000320DEE0236813F0040F79D02A4B1B6C32
:1017F00013F0805F33D100230193274B1A6C42F022
:1018000080521A641B6C03F080530193019B0125E5
:10181000244B1B6813F4807F23D0A368012B34D0A2
:10182000052B41D01C4B1A6F22F001021A671A6F68
:1018300022F004021A67A368002B3FD0FFF7A2F939
:101840000646154B1B6F13F0020F48D1FFF79AF9AC
:10185000801B41F288339842F3D90320A1E0002590
:10186000D6E7104A136843F480731360FFF78AF9D0
:1018700006460C4B1B6813F4807FCED1FFF782F92C
:10188000801B0228F5D903208BE0034A136F43F035
:1018900001031367CFE700BF003802400000474252
:1018A000800E474200700040404B1A6F42F0040225
:1018B0001A671A6F42F001021A67BCE7FFF762F974
:1018C00006463A4B1B6F13F0020F08D0FFF75AF988
:1018D000801B41F288339842F3D9032061E0E5B9D7
:1018E000A369002B5CD0314A926802F00C02082AEE
:1018F00059D0022B17D02E4B00221A60FFF742F965
:1019000004462A4B1B6813F0007F45D0FFF73AF9D5
:10191000001B0228F5D9032043E0244A136C23F06E
:1019200080531364DCE7224B00221A60FFF72AF988
:1019300005461E4B1B6813F0007F06D0FFF722F907
:10194000401B0228F5D903202BE0E369226A1343E8
:10195000626A43EA8213A26A5208013A43EA0243E6
:10196000E26A43EA0263226B43EA02730F4A53605E
:101970000F4B01221A60FFF705F904460B4B1B6859
:1019800013F0007F06D1FFF7FDF8001B0228F5D900
:10199000032006E0002004E0002002E0012000E037
:1019A000002002B070BD0120FBE700BF00380240FC
:1019B00060004742F8B505460F4616461C463BE018
:1019C0002CB1FFF7DFF8069BC01AA04234D32A6877
:1019D000536823F0E00353606B68B3F5827F0BD04C
:1019E000AB6AB3F5005F14D0012385F851300023B2
:1019F00085F85030032027E0AB68B3F5004F02D0E4
:101A0000B3F5806FECD12A68136823F040031360AC
:101A1000E6E72A68136823F400531B041B0C1360C9
:101A20002A68136843F400531360DDE70123B342CF
:101A300009D0B4F1FF3FC3D12B689B6837EA030399
:101A4000F4D00023F3E70020F8BD10B582B00446BF
:101A500000920B4600228021FFF7ACFF034610B92D
:101A6000184602B010BD636D43F020036365032385
:101A7000F6E700283BD010B504460023836290F8B7
:101A80005130002B2ED0022384F851302268136885
:101A900023F0400313606368A2681343E2681343B2
:101AA0002269134362691343A26902F4007213436B
:101AB000E2691343226A1343A16A22680B4313604D
:101AC000638B03F00403616A22680B43536022684E
:101AD000D36923F40063D36100206065012384F897
:101AE000513010BD80F8503003F020FACBE70120D0
:101AF00070472DE9F04184B01E4690F85030012B1C
:101B000000F0C88004460D469046012380F850300E
:101B1000FFF738F8074694F85130DBB2012B0AD0B2
:101B20000223012284F85120002284F85020184614
:101B300004B0BDE8F081002D00F0A480B8F1000FE2
:101B400000F0A280032384F85130002363652563ED
:101B5000A4F83480A4F83680A363A387E387636482
:101B60002364A368B3F5004F1BD023681A6812F0F2
:101B7000400F03D11A6842F040021A60E368B3F5DF
:101B8000006F14D063681BB1E38E9BB2012B3ED172
:101B9000236815F8012B1A73E38E013B9BB2E38691
:101BA00035E02268136843F480431360DDE763681F
:101BB0001BB1E38E9BB2012B0DD1236835F8022BAC
:101BC000DA60E38E013B9BB2E38604E0002E5DD039
:101BD000B6F1FF3F0FD1E38E9BB27BB323689A68C7
:101BE00012F0020FF2D035F8022BDA60E38E013BDF
:101BF0009BB2E386EFE7FEF7C5FFC01BB042EAD316
:101C000003238EE7002E43D0B6F1FF3F0FD1E38EC2
:101C10009BB29BB123689A6812F0020FF2D015F8BC
:101C2000012B1A73E38E013B9BB2E386EFE7FEF7CD
:101C3000A9FFC01BB042EAD3032372E700973346E3
:101C4000012202212046FFF7B5FE08B1032368E711
:101C50003A4631462046FFF7F8FE034618B12023E6
:101C6000636501235DE7A26832B903922268D168F7
:101C7000039192680392039A626D002A3FF451AF78
:101C800001234EE701234CE701234AE7032348E7FA
:101C9000032346E702234AE72DE9F04385B099463E
:101CA0000C9D90F85030012B00F0108104460F4637
:101CB0001646012380F85030FEF764FF804694F802
:101CC0005130DBB26268012B15D0B2F5827F0AD0A9
:101CD0000223012284F85120002284F85020184663
:101CE00005B0BDE8F083A268002A40F0E780042B2D
:101CF00001D00223EDE7002F00F0E280002E00F07B
:101D0000E180B9F1000F00F0DF8094F85130DBB2D0
:101D1000012B2BD000236365A663A4F83E90A4F8A2
:101D20003C902763A4F83690A4F83490236463644D
:101D300023681A6812F0400F03D11A6842F040027B
:101D40001A60E368B3F5006F14D063681BB1E38ECB
:101D50009BB2012B07D1236817F8012B1A73E38E6E
:101D6000013B9BB2E3864FF0010961E0052384F853
:101D70005130CFE763681BB1E38E9BB2012B07D1D3
:101D8000236837F8022BDA60E38E013B9BB2E386CF
:101D90004FF0010913E0E38F9BB26BB123689A689F
:101DA00012F0010F08D0DB6826F8023BE38F013BFD
:101DB0009BB2E3874FF00109B5F1FF3F1CD1E38EE1
:101DC0009BB21BB9E38F9BB2002B55D0B9F1000F2A
:101DD000E1D0E38E9BB2002BDDD023689A6812F02D
:101DE000020FD8D037F8022BDA60E38E013B9BB2AA
:101DF000E3864FF00009CEE7FEF7C4FEA0EB080033
:101E0000A842DCD3032364E7E38F9BB26BB1236862
:101E10009A6812F0010F08D0DB683370E38F013B42
:101E20009BB2E38701364FF00109B5F1FF3F1BD1AB
:101E3000E38E9BB213B9E38F9BB2EBB1B9F1000F04
:101E4000E2D0E38E9BB2002BDED023689A6812F0BA
:101E5000020FD9D03A781A73E38E013B9BB2E38626
:101E600001374FF00009CFE7FEF78CFEA0EB08002A
:101E7000A842DDD303232CE7CDF800802B460122B6
:101E800002212046FFF796FD08B1032321E74246D1
:101E900029462046FFF7D9FD034618B12023636584
:101EA000012316E7A268002A7FF413AF0392226889
:101EB000D168039192680392039A0AE7022308E724
:101EC000012306E7012304E7012302E7022306E7D3
:101ED00070B4036A23F001030362036A42688469F1
:101EE00024F073040D6845EA040623F002048B68AD
:101EF00023430C4DA84202D00B4CA0420BD123F03F
:101F00000803CD682B4323F0040322F440724D698B
:101F100015438A692A43426086614A6842630362C4
:101F200070BC7047000001400004014030B4036AF7
:101F300023F480730362036A4268C46924F0730463
:101F40000D682C4323F400738D6843EA05230E4D7E
:101F5000A84203D005F58065A8420ED123F40063A2
:101F6000CD6843EA052323F4806322F440524D698F
:101F700042EA05128D6942EA05124260C4614A686C
:101F8000C263036230BC70470000014030B4036A92
:101F900023F480530362036A4468C26922F4E64270
:101FA0000D6842EA052223F400538D6843EA0533A5
:101FB000094DA84203D005F58065A84204D124F458
:101FC00080444D6944EA85144460C2614A680264F1
:101FD000036230BC704700BF0000014010B4036AC8
:101FE000046A24F001040462846924F0F00444EAE1
:101FF000021223F00A030B43826103625DF8044B73
:10200000704730B4046A24F0100404628469056ADD
:1020100024F4407444EA022222F470421B039BB26F
:102020001A4325F0A005090101F0A00129438261AE
:10203000016230BC704710B4036A23F010030362DE
:102040008469036A24F4704444EA023223F0A00352
:1020500043EA0113826103625DF8044B704730B4B8
:10206000046A24F480740462C469056A24F00304D9
:10207000224322F0F0021B01DBB21A4325F4206553
:10208000090201F420612943C261016230BC70473A
:1020900030B4046A24F480540462C469056A24F4E8
:1020A000407444EA022222F470421B039BB21A439A
:1020B00025F42045090301F420412943C26101624E
:1020C00030BC7047836823F0700341F00701194367
:1020D0008160704710B4846824F47F4442EA03238B
:1020E0000B43234383605DF8044B704710B50468CD
:1020F000A26822F070024B68134323F007030A68BA
:102100001343A3604B68502B1ED00AD9602B21D0FB
:10211000702B05D10B698A68C9680068FFF7DAFF80
:1021200010BD402BFCD103681C6A1A6A22F0010220
:102130001A620268936923F0F003096943EA011304
:10214000936103681C62EBE70A6989680068FFF71E
:1021500045FFE5E70A6989680068FFF76CFFDFE77C
:102160000268D36843F00103D3600268136843F048
:102170000103136000207047704790F83830012B3E
:102180007DD010B50446012380F83830022380F852
:1021900039300268936823F47F4323F07703936018
:1021A0000B68402B57D010D9702B3ED01FD8502B26
:1021B00047D0602B32D1CA6849680068FFF73BFFFF
:1021C00060212068FFF77EFF28E0102B4DD008D952
:1021D000202B4FD0302B21D130210068FFF772FF28
:1021E0001CE0DBB900210068FFF76CFF16E0B3F5D7
:1021F000805F0ED0B3F5005F10D1CB684A68896864
:102200000068FFF767FF2268936843F48043936098
:1022100004E00268936823F007039360012384F8C5
:102220003930002084F8380010BDCB684A688968CE
:102230000068FFF74FFF2268936843F077039360CD
:10224000ECE7CA6849680068FFF7C8FE50212068BB
:10225000FFF738FFE2E7CA6849680068FFF7BEFE8B
:1022600040212068FFF72EFFD8E710210068FFF714
:1022700029FFD3E720210068FFF724FFCEE70220E3
:10228000704738B590F83830012B18D00446012536
:1022900080F83850022380F83930FFF727FF226892
:1022A000D36823F04003D3602268D36823F48043CB
:1022B000D36084F83950002084F8380038BD0220FB
:1022C000FCE7034690F83820012A1ED0012280F84E
:1022D00038200C2917D8DFE801F0071616160D165E
:1022E00016161016161613000268506B002283F89B
:1022F000382070470268906BF8E70268D06BF5E70A
:102300000268106CF2E70020F0E702207047704787
:102310007047704710B5044603681A6912F0020F3F
:1023200011D0DA6812F0020F0DD06FF002021A61BC
:102330000123037603689B6913F0030F70D001F04B
:1023400057F80023237623681A6912F0040F12D07D
:10235000DA6812F0040F0ED06FF004021A61022343
:10236000237623689B6913F4407F5FD0204601F0F9
:102370003FF80023237623681A6912F0080F12D061
:10238000DA6812F0080F0ED06FF008021A61042309
:1023900023762368DB6913F0030F4ED0204601F04B
:1023A00027F80023237623681A6912F0100F12D041
:1023B000DA6812F0100F0ED06FF010021A610823C5
:1023C00023762368DB6913F4407F3DD0204601F07B
:1023D0000FF80023237623681A6912F0010F03D047
:1023E000DA6812F0010F36D123681A6912F0800FF3
:1023F00003D0DA6812F0800F34D123681A6912F022
:10240000400F03D0DA6812F0400F32D123681A6906
:1024100012F0200F03D0DA6812F0200F30D110BD77
:10242000FFF775FF2046FFF773FF8AE72046FFF7A7
:102430006EFF2046FFF76CFF9BE72046FFF767FF24
:102440002046FFF765FFACE72046FFF760FF204618
:10245000FFF75EFFBDE76FF001021A61204603F04F
:102460008BF8C1E76FF080021A61204600F019FB7B
:10247000C3E76FF040021A612046FFF74AFFC5E745
:102480006FF020021A61204600F00AFBC7E7000047
:1024900003682E4A904212D0B0F1804F0FD0A2F5BF
:1024A0007C4290420BD002F58062904207D002F548
:1024B0008062904203D002F57842904203D123F02B
:1024C00070034A681343214A90422AD0B0F1804FEA
:1024D00027D0A2F57C42904223D002F58062904240
:1024E0001FD002F5806290421BD002F578429042E4
:1024F00017D002F57052904213D002F580629042DC
:102500000FD002F5806290420BD0A2F59832904233
:1025100007D002F58062904203D002F580629042BB
:1025200003D123F44073CA68134303608B68C3620A
:102530000B688362054B984203D003F58063984291
:1025400001D10B690363012343617047000001401F
:10255000A8B110B5044690F839305BB1022384F875
:102560003930211D2068FFF793FF012384F83930AB
:10257000002010BD80F8383002F01CFDEEE701208D
:102580007047A8B110B5044690F839305BB102230A
:1025900084F83930211D2068FFF77AFF012384F881
:1025A0003930002010BD80F8383002F019FEEEE717
:1025B00001207047A8B110B5044690F839305BB1DE
:1025C000022384F83930211D2068FFF761FF0123C1
:1025D00084F83930002010BD80F83830FFF7CCFD8A
:1025E000EEE701207047002847D0F8B505460C46B5
:1025F00090F83930002B3BD0022385F8393029463A
:1026000051F8042B936823F0070393602868FFF7C1
:102610003FFF29688A688E690F6A2068104326F494
:10262000407626F00306A268A36942EA03233343F7
:1026300023F47C4323F0FC03E668E26946EA0226C1
:102640001E43226A1303226943EA0213334327F02D
:10265000AA076268646942EA04123A4388602968FA
:102660008B612B681A62012385F839300020F8BD90
:1026700080F8383002F07AFDBEE701207047000094
:1026800070B4046A24F0010404628469056A1A4E75
:10269000B0421FD0B0F1804F1CD0A6F57C46B042AE
:1026A00018D006F58066B04214D006F58066B042B8
:1026B00010D006F57846B0420CD006F57056B04200
:1026C00008D0A6F59436B04204D024F0030242F0BC
:1026D000010202E024F00304224322F0F0021B0175
:1026E000DBB2134325F00A0201F00A0111438361B2
:1026F000016270BC704700BF0000014038B590F81F
:102700003830012B58D00D460446012380F838306C
:10271000022380F83930DAB1042A2AD0082A3AD0C4
:10272000CB684A6809680068FFF7B2FC2268D36981
:1027300023F44063D3612268D369A96843EA012383
:10274000D361012384F83930002084F8380038BD83
:10275000CB684A6809680068FFF792FF22689369AE
:1027600023F00C03936122689369A9680B4393617A
:10277000E7E7CB684A6809680068FFF742FC22680F
:10278000936923F44063936122689369A96843EADB
:1027900001239361D5E7CB684A6809680068FFF7B1
:1027A0005EFC2268D36923F00C03D3612268D369ED
:1027B000A9680B43D361C4E70220C8E730B4036AB9
:1027C00023F010030362036A4468826922F4E6423C
:1027D0000D6842EA052223F020038D6843EA0513C1
:1027E0000E4DA84203D005F58065A8420ED123F016
:1027F0008003CD6843EA051323F0400324F44064CA
:102800004D6944EA85048D6944EA85044460826127
:102810004A688263036230BC704700BF0000014019
:1028200038B590F83830012B66D00D4604460123A8
:1028300080F83830022380F839300C2A1AD8DFE8C3
:1028400002F0071919192019191934191919470013
:102850000068FFF73DFB2268936943F0080393612A
:102860002268936923F004039361226893692969BC
:102870000B439361012384F83930002084F8380039
:1028800038BD0068FFF79AFF2268936943F400633C
:1028900093612268936923F480639361226893694A
:1028A000296943EA01239361E4E70068FFF73EFBEF
:1028B0002268D36943F00803D3612268D36923F007
:1028C0000403D3612268D36929690B43D361D1E73B
:1028D0000068FFF75BFB2268D36943F40063D361B0
:1028E0002268D36923F48063D3612268D36929699C
:1028F00043EA0123D361BDE70220C1E710B40123FD
:1029000003FA01F4036A23EA04030362036A8A40B8
:10291000134303625DF8044B7047000010B5044692
:1029200001220068FFF7EAFF2368094A934203D0B7
:1029300002F58062934203D15A6C42F400425A6419
:102940002268136843F001031360002010BD00BF2C
:102950000000014010B504460C290DD8DFE801F055
:10296000070C0C0C170C0C0C1D0C0C0C2300026833
:10297000D36843F00203D36001222068FFF7BEFF53
:102980002268136843F001031360002010BD026841
:10299000D36843F00403D360EEE70268D36843F0E2
:1029A0000803D360E8E70268D36843F01003D360FC
:1029B000E2E710B5044661B1042916D001220021D6
:1029C0000068FFF79BFF012204212068FFF796FFB4
:1029D00004E0012200210068FFF790FF22681368DD
:1029E00043F001031360002010BD012204210068A0
:1029F000FFF784FFF2E790F83830012B22D030B493
:102A0000012280F83820022380F839300468636896
:102A100023F070036360046863680D682B43636090
:102A20000468A36823F08003A3600468A36849686E
:102A30000B43A36080F83920002380F83830184613
:102A400030BC70470220704790F83830012B25D0F9
:102A5000012380F83830CB6823F440738A6813432D
:102A600023F480634A68134323F400630A68134322
:102A700023F480530A69134323F400534A69134330
:102A800023F480438A69134323F400431343026809
:102A90005364002380F8383018467047022070478E
:102AA000704770470268D36823F49073D36002685C
:102AB000536923F001035361202380F83A307047B3
:102AC00090F83930DBB2212B2AD18368B3F5805FCF
:102AD00016D0036A5A1C02621A7803685A60C38CC3
:102AE000013B9BB2C384EBB90268D36823F0800337
:102AF000D3600268D36843F04003D360002070477E
:102B0000036A1B880268C3F30803536003691BB997
:102B1000036A02330362E2E7036A01330362DEE71A
:102B200002207047002070472DE9F84304460168F1
:102B30000A6922F44052C36813430B610168CA68F2
:102B400022F4164222F00C02836800690343606994
:102B50000343E06903431343CB6021684A6922F4CD
:102B60004072A36913434B61E369B3F5004F60D032
:102B70002368B84A934200F0148102F580629342C0
:102B800000F00F81FEF752FC00EB800000EB8000AC
:102B90006568AD00B0FBF5F5AF4FA7FB05356D09D6
:102BA0002E01FEF743FC00EB800000EB800065681F
:102BB000AD00B0FBF5F9FEF739FC00EB800000EB4F
:102BC00080006568AD00B0FBF5F5A7FB05356D0924
:102BD0004FF0640808FB15952D013235A7FB05352C
:102BE0006D0905F0F0053544FEF720FC00EB800090
:102BF00000EB80006668B600B0FBF6F6FEF716FC48
:102C000000EB800000EB800063689B00B0FBF3F0FA
:102C1000A7FB0030400908FB10684FEA081808F1CC
:102C20003208A7FB0837C7F3431723682F449F6078
:102C30000DE12368874A93425BD002F5806293429C
:102C400057D0FEF7F3FB00EB800000EB80006568D7
:102C50006D00B0FBF5F5804FA7FB05356D092E0122
:102C6000FEF7E4FB00EB800000EB800065686D0080
:102C7000B0FBF5F9FEF7DAFB00EB800000EB80001B
:102C800065686D00B0FBF5F5A7FB05356D094FF0E4
:102C9000640808FB1595ED003235A7FB05356D0975
:102CA0006D0005F4F8753544FEF7C0FB00EB8000BD
:102CB00000EB800066687600B0FBF6F6FEF7B6FB28
:102CC00000EB800000EB800063685B00B0FBF3F377
:102CD000A7FB03235B0908FB13684FEAC80808F148
:102CE0003208A7FB0837C7F3421723682F449F60B9
:102CF000ADE0FEF7ABFB00EB800000EB8000656809
:102D00006D00B0FBF5F5544FA7FB05356D092E019D
:102D1000FEF79CFB00EB800000EB800065686D0017
:102D2000B0FBF5F9FEF792FB00EB800000EB8000B2
:102D300065686D00B0FBF5F5A7FB05356D094FF033
:102D4000640808FB1595ED003235A7FB05356D09C4
:102D50006D0005F4F8753544FEF778FB00EB800054
:102D600000EB800066687600B0FBF6F6FEF76EFBBF
:102D700000EB800000EB800063685B00B0FBF3F3C6
:102D8000A7FB03235B0908FB13684FEAC80808F197
:102D90003208A7FB0837C7F3421723682F449F6008
:102DA00055E0FEF753FB00EB800000EB8000656808
:102DB000AD00B0FBF5F5284FA7FB05356D092E01D9
:102DC000FEF744FB00EB800000EB80006568AD007F
:102DD000B0FBF5F9FEF73AFB00EB800000EB80005A
:102DE0006568AD00B0FBF5F5A7FB05356D094FF043
:102DF000640808FB15952D013235A7FB05356D09D3
:102E000005F0F0053544FEF721FB00EB800000EBF8
:102E100080006668B600B0FBF6F6FEF717FB00EB25
:102E2000800000EB800063689B00B0FBF3F0A7FB21
:102E30000030400908FB10684FEA081808F1320812
:102E4000A7FB0837C7F3431723682F449F60BDE8EB
:102E5000F88300BF001001401F85EB512DE9F041C0
:102E600005460F4616469846069C2B681B6837EAAF
:102E700003030CBF01230023B3421DD1B4F1FF3F74
:102E8000F3D02CB1FDF77EFEA0EB0800A042ECD9F8
:102E90002A68D36823F4D073D3602A68536923F077
:102EA00001035361202385F8393085F83A30002337
:102EB00085F83830032000E00020BDE8F08158B3E9
:102EC00010B5044690F839300BB3242384F8393018
:102ED0002268D36823F40053D3602046FFF724FE12
:102EE0002268136923F4904313612268536923F025
:102EF0002A0353612268D36843F40053D36000204F
:102F0000E063202384F8393084F83A3010BD80F82B
:102F1000383002F0F3F9D8E7012070472DE9F0418D
:102F200082B01E4690F83930DBB2202B55D10446D2
:102F30000D469046002955D0002A55D090F83830DB
:102F4000012B53D0012380F838300023C3632123A1
:102F500080F83930FDF716FE0746A4F82480A4F85F
:102F6000268010E000963B46002280212046FFF795
:102F700075FF00283CD12B882268C3F308035360F7
:102F80002369C3B90235E38C9BB2B3B1E38C013B37
:102F90009BB2E384A368B3F5805FE3D000963B4621
:102FA000002280212046FFF759FF18BB2A782368AA
:102FB0005A600135E7E70135E5E700963B46002218
:102FC00040212046FFF74AFF0346A8B9202284F893
:102FD0003920002284F8382000E00223184602B08D
:102FE000BDE8F0810123F9E70123F7E70223F5E7C4
:102FF0000323F3E70323F1E70323EFE790F83A30E5
:10300000DBB2202B1BD1E1B1EAB190F83830012BB3
:103010001BD081628285C2850023C363222280F88F
:103020003A2080F8383001684A6942F001024A616A
:103030000168CA6842F49072CA601846704702205C
:103040007047012070470120704702207047704789
:1030500008B50168CB6823F04003CB60202380F8DB
:103060003930FFF7F4FF002008BD08B590F83A307A
:10307000DBB2222B40D18368B3F5805F0ED00369A9
:1030800003BB03685A68836A591C81621A70C38D36
:10309000013B9BB2C385F3B100202EE0826A036935
:1030A00043B903685B68C3F308031380836A023380
:1030B0008362ECE703685B68DBB21380836A0133E9
:1030C0008362E4E703685B68826A511C816203F0F3
:1030D0007F031370DBE70268D36823F49073D36037
:1030E0000268536923F001035361202380F83A30CA
:1030F00000F0F8FA002000E0022008BD7047000050
:1031000010B5044602681368D168526913F00F00C5
:1031100005D113F0200F02D011F0200F53D1002859
:1031200067D012F0010202D111F4907F61D013F048
:10313000010F06D011F4807F03D0E06B40F0010056
:10314000E06313F0040F04D01AB1E06B40F002000A
:10315000E06313F0020F04D01AB1E06B40F00400FA
:10316000E06313F0080F04D01AB1E26B42F00802DA
:10317000E263E26B002A48D013F0200F02D011F076
:10318000200F24D123685B6903F04003E26B12F047
:10319000080F00D13BB32046FFF784FC23685A692F
:1031A00012F0400F1BD05A6922F040025A61636B43
:1031B0008BB11A4A1A65606BFDF7F3FE28B3606B9A
:1031C000036D984721E02046FFF74FFF1DE02046A2
:1031D000FFF74BFFD6E72046FFF790FF15E02046AC
:1031E000FFF78CFF11E02046FFF788FF0023E36321
:1031F0000BE013F0800F02D011F0800F06D113F016
:10320000400F02D011F0400F04D110BD2046FFF74F
:1032100057FCFAE72046FFF71BFFF6E721320008CC
:1032200008B5806B0023C385C384FFF767FF08BD23
:1032300010B5094C00212046FFF78CFB04212046E5
:10324000FFF788FB054C00212046FFF783FB042194
:103250002046FFF77FFB10BD200600201408002049
:1032600008B502F017FA012800D008BD00F0A2FC52
:1032700000F050FC00F052FD00F02AFE002002F0A9
:103280004BFAF2E72D4B1B78012B19D02B4B5B78B7
:10329000012B25D010B50446284B9B78012B2DD04F
:1032A000264BDB78012B39D0254B1B68586300F087
:1032B000D1FC244B1B685863234B1B685C6310BD17
:1032C0001F4B1B6840F23A725A631E4B1B684FF447
:1032D000FA625A631C4B1B6840F2DC525A63704717
:1032E000174B1A684FF47A735363164A1268536384
:1032F000154B1B6840F2DC525A637047104B1B6839
:1033000040F2A4625A6300F0A5FC0E4B1B685863A0
:103310000D4B1B6840F2DC525A63D0E7084B1B6828
:1033200040F214525A6300F095FC064B1B68586338
:10333000054B1B6840F2DC525A63C0E75C02002078
:10334000A4060020D8070020A805002010B5DFED56
:10335000177AB4EEE70AF1EE10FA01DDB0EE670A73
:10336000DFED137AB4EEE70AF1EE10FA01D5B0EE14
:10337000670ADFED107A30EE277A77EEC07A0E4BCF
:103380001B68BCEEC77A83ED0D7AFCEEE77AC3EDDD
:103390000F7A0A4C012211462046FDF7F3FE012266
:1033A00008212046FDF7EEFE10BD00BF00000244DC
:1033B000000002C400400344E00600200008024070
:1033C00010B502F04FF9012800D010BD00F046FC06
:1033D000044600F049FC01462046FFF753FF00F089
:1033E000E5FDFFF7B3FF002002F07EF9EDE70000F6
:1033F00010B5044602681C4B9A4204D022681B4B4D
:103400009A4216D010BD037E012BF7D10021FEF7A2
:1034100058FF174B58605B6823B9154B40F2DC52DC
:103420009A60EBE704212046FEF74BFF104B9860B3
:10343000E4E7237E012BE5D100212046FEF741FF82
:103440000B4BD860DB681BB9094B64221A61D9E7C2
:1034500004212046FEF735FF064BA3FB00235B0942
:10346000034A1361CEE700BF00040040001800408B
:103470005C02002009CB3D8D014B9868704700BF6E
:103480005C020020014B1875704700BF5C020020F1
:10349000014B1869704700BF5C020020014B587D4A
:1034A000704700BF5C020020014B5875704700BF99
:1034B0005C020020014B987D704700BF5C02002039
:1034C000014B9875704700BF5C020020014BD87D0E
:1034D000704700BF5C020020014BD875704700BFE9
:1034E0005C020020014B1878704700BF5C0200208E
:1034F000014B1870704700BF5C020020014B18762A
:10350000704700BF5C020020014B187E704700BF6F
:103510005C020020014B5870704700BF5C02002025
:1035200008B50120FFF7C0FF0020FFF7C9FF00200A
:10353000FFF7D2FF0020FFF7DBFF0020FFF7EAFFD5
:103540000020FFF7DBFF08BD08B5FFF7E9FF08BD66
:1035500008B50020FFF7A8FF0020FFF7B1FF00200B
:10356000FFF7BAFF0120FFF7C3FF0020FFF7D2FFEC
:103570000020FFF7C3FF08BD08B50020FFF794FF48
:103580000020FFF79DFF0020FFF7A6FF0020FFF7B8
:10359000AFFF0120FFF7BEFF0020FFF7AFFF08BD20
:1035A000014B1878704700BF0800002008B50122C1
:1035B00002490348FFF722FD08BD00BF7003002049
:1035C0000404002008B5012202490348FFF716FD54
:1035D00008BD00BF700300200404002008B502F0FD
:1035E00065F8012800D008BD054B1B78302B03D0AF
:1035F000002002F09DF8F6E7FFF744FFF8E700BF70
:103600007003002010B59CB002F01AF8012801D018
:103610001CB010BD02F052FA02F032FA02F036FA93
:1036200002F04CFA02F038FA02F048FA00F048FCD6
:1036300000F0B6FC00F0C0FC01F0CEFB044600F048
:103640004DFD00902346094A642103A803F01CF9AC
:1036500003A8FDF7F1F94FF0FF3382B203A9044844
:10366000FFF75CFC002002F02DF8D1E7FC7A00089F
:103670009807002008B501224FF480510148FDF75A
:1036800081FD08BD0000024008B50122024903483F
:10369000FFF7B4FC08BD00BFF40300201C070020A6
:1036A00008B50C4B1B780C4A12780C49CA540AB95D
:1036B000084A53703F2B08D00133064A1370012289
:1036C00005490748FFF79AFC08BD024B00221A7013
:1036D000F5E700BF75020020F4030020B4030020CA
:1036E0001C07002010B504460268074B9A4204D01C
:1036F0002268064B9A4203D010BDFFF7D1FFF7E7CF
:10370000FFF760FFF8E700BF004C004000140140E5
:1037100000B583B001F0ACFF012818D003B05DF80C
:1037200004FB124B00229A704B1C104A92781048EE
:10373000805C104A5054D9B20C4A93785078834236
:1037400007D03F2BEDD00133084A9370ECE70021FE
:10375000F2E79070084B191D0091033207490548A4
:1037600003F0C6F8002001F0C5FFD7E7750200207E
:10377000B4030020740300200C000020B87A000875
:10378000014BD878704700BF75020020014B1868C4
:10379000704700BF0C000020014B5868704700BF05
:1037A0000C00002008B500210548FFF7B7F80021FC
:1037B0000448FFF7B3F800210348FFF7AFF808BD4E
:1037C000A8050020A4060020D807002010B52DED84
:1037D000048B444B1B78012B0DD0424B1B7A012BE1
:1037E00025D0404B5B7A012B50D0A0F547503F3895
:1037F000BDEC048B10BD02F04FF93A4B5C680444F9
:1038000002F05CF9DFED387A20EE270A02F0CEF9FB
:10381000DFED367A20EE270A07EE904AF8EEE77AD7
:1038200037EE800AFDEEC07A17EE900AE0E702F06C
:103830002DF908EE900A02F041F9DFED2B9A20EE07
:10384000290A02F06BF99FED299A20EE090AF8EE99
:10385000E88A38EE800ADFED267A80EE278A02F0C9
:103860001BF907EE900AB8EEE70A38EE408A02F03C
:1038700025F920EE290A02F051F920EE090A38EE66
:10388000408AFDEEC87A17EE900AB1E702F0FEF822
:10389000434208EE903A02F011F9DFED139A20EE60
:1038A000290A02F083F99FED119A20EE090AF8EE39
:1038B000E88A78EE808A02F0EFF807EE900AB8EE18
:1038C000E78A38EE288A02F0F9F820EE290A02F099
:1038D00025F920EE090A38EE408AFDEEC87A17EE87
:1038E000900A85E77C02002035FA8E3C00F05247B2
:1038F0000000C84207EE901AF8EEE77A0A4B93ED03
:10390000007A27EE877A06EE900AF8EEE66A77EEFE
:10391000E67AD3ED016A67EEA67A77EE277AFDEEB6
:10392000E77A17EE900A70471400002070B506463B
:1039300040F6872303FB00F3504A82FB0312DC1797
:10394000C4EB623404F2DC5424B240F282439C4261
:1039500015DD40F235739C4214DC494B1C80FFF7A7
:103960009DFD012811D0FFF7A5FD012835D0FFF7F7
:10397000CBFD012859D0434B1D80204670BD40F23D
:103980008344EAE740F23574E7E707EE906AF8EE21
:10399000E77A3D4B93ED027A67EE877A9FED3B7AAB
:1039A00067EE877ADFED3A6A87EEA67ADFED397A3D
:1039B00077EE277AFDEEE77A17EE903A1DB240F2E5
:1039C0004B439D4206DD40F26C739D42CBDD40F2DD
:1039D0006C75C8E740F24C45C5E707EE906AF8EE13
:1039E000E77A294B93ED037A67EE877A9FED2A7A7F
:1039F00067EE877ADFED266A87EEA67ADFED257A15
:103A000077EEC77AFDEEE77A17EE903A1DB240F2F4
:103A10004B439D4206DD40F26C739D42A7DD40F2B0
:103A20006C75A4E740F24C45A1E707EE906AF8EE0A
:103A3000E77A154B93ED047A67EE877A9FED167A55
:103A400067EE877ADFED126A87EEA67ADFED117AEC
:103A500077EEC77AFDEEE77A17EE903A1DB240F2A4
:103A60004B439D4206DD40F26C739D4283DD40F284
:103A70006C7580E740F24C457DE700BF89B5F814CE
:103A8000F6030020F80300201400002000504345F6
:103A90000050C3470080BB440028F44638B5FFF708
:103AA0006FFE022806D0FFF771FE104B98610F4B96
:103AB000986938BD0D4C6569FFF768FE2D1A002D19
:103AC000B8BF6D426469FFF767FE201A0028B8BFCF
:103AD0004042854204DAFFF759FE044B9861E6E75D
:103AE000FFF75AFE014B9861E1E700BF1400002088
:103AF00010B5044610B1012C05D010BDFFF74CFEE7
:103B0000034B5861F7E7FFF741FE014B5861F4E7BB
:103B10001400002038B5FFF7C1FFFFF757FE0C4B2C
:103B2000D86001F04BF801280AD0094CE568294615
:103B30002069FFF7DFFE60612561FFF7F7FE38BD02
:103B400001F026F8FFF7D4FF002001F03DF8ECE784
:103B50007C020020014B83ED000A70471400002016
:103B6000014B83ED010A704714000020014B93EDD7
:103B7000070A704714000020014B93ED080A7047B4
:103B800014000020014B93ED090A70471400002037
:103B9000014B93ED0A0A704714000020014B93ED8E
:103BA0000B0A704714000020014B93ED0C0A70477C
:103BB0001400002008B5FFF7F3FC012810D0FFF730
:103BC0006DFC012822D0FFF775FC012827D0FFF7F4
:103BD0009BFC01282CD0FFF779FC012831D008BDCF
:103BE000FFF792FC012808D0FFF7C0FFFFF7B2FFF4
:103BF000FFF7C2FFFFF7B4FFE1E7FFF7C9FFFFF7E9
:103C0000A9FFFFF7D1FFFFF7ABFFD8E7FFF7AEFF44
:103C1000FFF7A0FFFFF7B0FFFFF7A2FFD3E7FFF723
:103C2000B1FFFFF797FFFFF7B9FFFFF799FFCEE767
:103C3000FFF7AEFFFFF78EFFFFF7B6FFFFF790FF2E
:103C4000C9E7FFF793FFFFF785FFFFF795FFFFF742
:103C500087FFC4E740F2DC5070470000014BB3F926
:103C600000007047F6030020014BB3F900007047D5
:103C7000F803002010B5054C00212046FEF74EFE4B
:103C800008212046FEF74AFE10BD00BFE0060020D6
:103C9000DFED027A20EE270A704700BF00002F44B4
:103CA000164B93ED007ADFED167A27EE277AD3EDE7
:103CB000017ADFED146A67EEA67A37EE277AF1EE25
:103CC000007A20EE270A37EE000ADFED0F7AB4EE15
:103CD000E70AF1EE10FA01DDB0EE670ADFED0B7ACC
:103CE000B4EEE70AF1EE10FA05D4044B83ED010AB5
:103CF00083ED007A7047B0EE670AF6E79402002081
:103D000048E17A3F00D7A33C00701446007014C607
:103D1000014B83ED020A70479402002008B5FFF7BB
:103D2000ABFBB0F5C86F1DD3FFF73AFC01281ED0DE
:103D3000FFF7B4FB012820D0FFF7BCFB012822D0FD
:103D4000FFF7E2FB012824D0FFF7C0FB012826D0B3
:103D5000FFF7C8FB012809D1144B93ED030AFFF7C5
:103D6000D7FF03E09FED120AFFF7D2FF08BD114B0A
:103D700093ED030AFFF7CCFFDAE70C4B93ED000A53
:103D8000FFF7C6FFD8E7094B93ED010AFFF7C0FF25
:103D9000D6E7064B93ED020AFFF7BAFFD4E7054BCF
:103DA00093ED040AFFF7B4FFD2E700BF48000020FC
:103DB00000000000940200202DE9F84301F07CFC93
:103DC000012801D0BDE8F883FFF762FB384E336964
:103DD000C01A384F7861BD690544BD61FC69041B98
:103DE0003C6207EE900AF8EEE77A96ED057A67EE08
:103DF000877A17EE900AFCF76FFB00222E4BFCF738
:103E00000DFA8046894607EE905AF8EEE77A97ED6C
:103E1000097A67EE877A17EE900AFCF75DFB024697
:103E20000B4640464946FCF7F9F98046894607EEBD
:103E3000904AF8EEE77A96ED067A67EE877A17EE03
:103E4000900AFCF749FB02460B4640464946FCF700
:103E5000E5F9FCF721FC07EE900AB7EE087AF4EEDC
:103E6000C77AF1EE10FA01DDF0EE477AF5EEC07A8E
:103E7000F1EE10FA18D40F4BC3ED037AFFF708FBED
:103E8000632803D90B4B4FF07F52DA60FFF700FB3A
:103E90003B2802D8074B0022DA60064B5A69DA61E8
:103EA000002001F04BFC8DE7DFED047AE3E700BF73
:103EB00048000020940200200000E83F00000000BD
:103EC000014B93ED020A70479402002000000000AD
:103ED00010B52DED028B2E4C94ED020AFFF7D8FEA3
:103EE000B0EE408A01F0E4FD07EE900AF8EEE77AC2
:103EF00038EE678A84ED0A8AFFF7E2FFF0EEC07AB7
:103F000017EE900AFCF7E8FA1FA3D3E90023FCF7A9
:103F10009BFB50B1F0EEC87A9FED1E7AF4EEC77AA3
:103F2000F1EE10FA01D50022E262B5EEC08AF1EEA0
:103F300010FA0ADC164B93ED0A0AB5EEC00AF1EE50
:103F400010FA12D4BDEC028B10BDB0EE480AFFF798
:103F5000A7FEDFED117A20EE270ADFED107A30EEB2
:103F6000270A0B4B83ED0B0AE4E7FFF799FEDFED21
:103F70000A7A20EE270ADFED097A30EE670A044B51
:103F800083ED0B0ADEE700BF333333333333D33FE4
:103F900094020020000048430AD7233DCDCC0843BB
:103FA000014B93ED030A704794020020014B93EDFF
:103FB0000B0A704794020020014B93ED0A0A7047E8
:103FC0009402002008B501F041FB012800D008BD93
:103FD000FFF7D6FB18B90D4A136801331360FFF7DA
:103FE000CFFB012807D0FFF7CBFB032808D0002028
:103FF00001F06EFBEBE7054A536801335360F2E7CB
:10400000024A936801339360F1E700BFCC020020BD
:1040100008B5FFF7B5FB022810D0FFF7B1FB012868
:1040200018D0FFF7ADFB022819D0154B5B7D042B90
:1040300024D9144B1B68B3B9002020E0104B1B7D22
:10404000002BEAD101F02EFD0E4B18600C4B012223
:104050001A75E2E70A4A537D01335375E1E7084BCD
:1040600000225A75E1E701F01DFD06490B68C01AF0
:10407000034B186100220A605A7500E0002008BD59
:10408000CC020020FC03002008B5FFF779FB0128D3
:1040900005D0FFF775FB02280DD0002008BD0D4BA1
:1040A0001B7D012BF5D101F0FDFC0B4B1860094B7A
:1040B00000221A75EDE7084B1B680BB90020EDE7ED
:1040C00001F0F0FC044A1368C01A024B1861002387
:1040D0001360E3E7CC020020FC030020014B986949
:1040E000704700BFCC020020014B9861704700BFB1
:1040F000CC020020014B1868704700BFCC020020A2
:10410000014B5868704700BFCC020020014B18607B
:10411000704700BFCC020020014B5860704700BFC1
:10412000CC020020014B1869704700BFCC02002070
:10413000014B1861704700BFCC020020014B18757D
:10414000704700BFCC0200202DE9F0418AB0002466
:1041500001943E4B1A6B42F004021A631A6B02F090
:1041600004020192019A02941A6B42F080021A63CF
:104170001A6B02F080020292029A03941A6B42F0C8
:1041800001021A631A6B02F001020392039A04946B
:104190001A6B42F002021A631B6B03F002030493D2
:1041A000049B2B4D224609212846FCF7EBFFDFF844
:1041B000AC8022464FF481514046FCF7E3FF254F87
:1041C00022464FF410413846FCF7DCFF4FF4005311
:1041D0000593214B0693079405A92846FCF7F4FEA6
:1041E00009230593012606960794089405A92846F5
:1041F000FCF7EAFE4FF48153059306960794089462
:1042000005A94046FCF7E0FE4FF4104305930696DF
:104210000794089405A93846FCF7D6FE8023059339
:10422000022306930794032308930823099305A9FF
:104230002846FCF7C9FE224621462820FCF746FE08
:104240002820FCF777FE0AB0BDE8F0810038024074
:10425000000802400004024000002110000002405B
:10426000FEE7000000B585B01548164B036000233B
:1042700043608360036183610362C362124A8262A6
:10428000C3600122C26103634261FCF719FD68B992
:1042900004230093012301930023029369460848F5
:1042A000FCF738FD38B905B05DF804FB4FF49071A8
:1042B0000648FFF7D5FF4FF495710448FFF7D0FF8C
:1042C0005C060020002001400100000F047B000874
:1042D00008B50C480C4B03600C4B43600023836013
:1042E000C3604FF48042026143618361C361036232
:1042F000FCF75CFF00B908BD4FF49F710448FFF75D
:10430000AFFF00BF5405002000540040A08601000C
:10431000047B000800B595B03B483C4B036001238B
:1043200043602023836040F21943C360002303618C
:104330004361FEF70DF9002842D114A94FF48053D0
:1043400041F8103D3048FDF718FF00283DD12E48B8
:10435000FEF717F900283DD100230E930F930EA905
:104360002948FEF748FB002839D16023079340F223
:104370000D230893002209920A920B920C920D923F
:1043800007A92148FEF74CFA70BB082207A91E486E
:10439000FEF746FA68BB0023009301930293039350
:1043A00004934FF400520592069369461648FEF7AF
:1043B0004BFB18BB144800F033FF15B05DF804FB4D
:1043C0004FF4B6711248FFF74BFF4FF4B971104824
:1043D000FFF746FF40F277110D48FFF741FF4FF41A
:1043E000BF710B48FFF73CFF4FF4C5710848FFF75A
:1043F00037FF40F28F110648FFF732FF40F29B1162
:104400000348FFF72DFF00BFE00600200000014039
:10441000047B000800B58DB017484FF0804303605F
:104420000023436083604FF0FF32C26003610322C8
:10443000039204930122059206930793089309922D
:104440000A930B9303A9FEF7CEF850B9002301930A
:10445000029301A90848FEF7CEFA38B90DB05DF80D
:1044600004FB40F2B9110548FFF7FAFE4FF4E07182
:104470000248FFF7F5FE00BF5C070020047B000840
:1044800000B58DB02E482F4B0360532343600023AB
:1044900083604FF6FF72C2600361FEF759F800288F
:1044A00030D12748FEF786F8002830D1042307933F
:1044B00050230893002309930B9307A92048FDF785
:1044C000E0FE48BB00230593069305A91C48FEF7B0
:1044D00092FA30BB002201920123029303920492CC
:1044E00001A91748FEF70AF900BB022301930293C2
:1044F00004220DEB02011248FEF700F9D8B90DB005
:104500005DF804FB4FF4EA710F48FFF7A9FE40F293
:10451000D9110D48FFF7A4FE4FF4F1710A48FFF7D7
:104520009FFE40F2E9110848FFF79AFE4FF4F97137
:104530000548FFF795FE40F2F9110348FFF790FE9A
:104540002006002000040040047B000808B50B484A
:104550000B4B03604FF4E133436000238360C3607F
:104560000361042242618361C361FEF7A8FC00B9C4
:1045700008BD40F219310348FFF772FE1C07002006
:10458000004C0040047B000808B50B480B4B03604F
:104590004FF4E133436000238360C360036108226A
:1045A00042618361C361FEF78AFC00B908BD4FF424
:1045B0004B710348FFF754FE980700200044004069
:1045C000047B000808B50B480B4B03604FF41653EF
:1045D000436000238360C3600361082242618361FA
:1045E000C361FEF76CFC00B908BD40F23F310348DF
:1045F000FFF736FE1405002000480040047B000849
:1046000000B589B019481A4B036053234360002357
:10461000836040F69F72C2600361FDF799FFB0B9F5
:104620001248FDF7AEFFB8B96023019340F2DC53A6
:10463000029300220392059201A90C48FEF7F0F8BC
:1046400078B90A4800F0ECFD09B05DF804FB4FF4BE
:1046500035710848FFF704FE40F2D9210548FFF7FD
:10466000FFFD40F2E2210348FFF7FAFDA406002017
:10467000001C0040047B000800B587B01848194BA7
:104680000360532343600023836040F2E732C2603B
:104690000361FDF75DFF98B906A94FF4805341F817
:1046A000103D0F48FDF769FD78B900230093019391
:1046B00069460B48FEF79FF960B907B05DF804FB47
:1046C0004FF403710848FFF7CBFD40F21221064872
:1046D000FFF7C6FD40F219210348FFF7C1FD00BFF7
:1046E000D804002000080040047B000800B589B011
:1046F00019481A4B0360532343600023836040F63C
:104700009F72C2600361FDF723FFB0B91248FDF745
:1047100038FFB8B96023019340F2DC5302930022C2
:104720000392059201A90C48FEF77AF878B90A4875
:1047300000F076FD09B05DF804FB40F2F621084870
:10474000FFF78EFD40F2FB210548FFF789FD4FF48E
:1047500041710348FFF784FDD80700200020004086
:10476000047B000808B50F480F4B03604FF48273B9
:10477000436000238360C360036143614FF40072B0
:1047800082612822C2610362436283620A23C36298
:10479000FDF76FF900B908BD4FF4AB710348FFF79F
:1047A0005FFD00BF4404002000380040047B000887
:1047B00000B589B019481A4B0360532343600023A6
:1047C000836040F69F72C2600361FDF7C1FEB0B91D
:1047D0001248FDF7D6FEB8B96023019340F2DC53CE
:1047E000029300220392059201A90C48FEF718F8E3
:1047F00078B90A4800F014FD09B05DF804FB40F2F6
:1048000081210848FFF72CFD40F286210548FFF77B
:1048100027FD40F28F210348FFF722FDA805002065
:1048200000440140047B000800B587B01848194BCC
:104830000360532343600023836041F28732C260E8
:104840000361FDF785FE98B906A94FF4805341F83E
:10485000103D0F48FDF791FC78B9002300930193B8
:1048600069460B48FEF7C7F860B907B05DF804FB6E
:104870004FF40B710848FFF7F3FC40F23221064871
:10488000FFF7EEFC40F239210348FFF7E9FC00BFD7
:10489000E4050020000C0040047B000800B591B046
:1048A0002848294B0360292343600023836044F692
:1048B0001F62C26003614361FDF763FE00282CD1D3
:1048C00000230E930F930EA91E48FEF794F848BBE1
:1048D0006023079302230893002309930A930B9301
:1048E0000C930D93082207A91648FDF799FFF0B91C
:1048F0000023009301930293039304934FF4005217
:104900000592069369460F48FEF79EF8A0B90D4838
:1049100000F086FC11B05DF804FB40F24E210B481C
:10492000FFF79EFC40F255210848FFF799FC40F242
:1049300061210648FFF794FC40F26D210348FFF720
:104940008FFC00BF9C04002000040140047B000891
:1049500000B58BB02748284B0360532343600023E6
:1049600083604FF6FF72C2600361FDF7F1FD38BB53
:104970002048FDF71FFE40BB0423059350230693F8
:1049800000230793099305A91A48FDF77AFC08BB91
:1049900000220192012302930392049201A9154877
:1049A000FDF7ACFED8B902230193029304220DEB6C
:1049B00002011048FDF7A2FEB0B90BB05DF804FB90
:1049C0004FF429710D48FFF74BFC40F2A9210B4829
:1049D000FFF746FC40F2B2210848FFF741FC40F2E5
:1049E000BB210648FFF73CFC40F2C2210348FFF719
:1049F00037FC00BF1408002000180040047B0008AA
:104A000008B50B480B4B03604FF4E13343600023C0
:104A10008360C3600361042242618361C361FEF766
:104A20004EFA00B908BD40F299310348FFF718FC6F
:104A30000404002000140140047B000800B595B078
:104A400000220092294B196C41F0805119641B6CB3
:104A500003F080530093009B0192254B196841F4A9
:104A6000404119601B6803F440430193019B0223FA
:104A7000079301210A9110210B910D930E920822A8
:104A80000F92A822109211931293139307A8FCF788
:104A9000AFFD10BB0F230293022303930023049363
:104AA0004FF4A05305930693052102A8FCF70CFCD4
:104AB000B8B9FCF7B5FC0F4BA3FB00308009FCF73D
:104AC00045FA0420FCF758FA002211464FF0FF3057
:104AD000FCF7FCF915B05DF804FBED210648FFF783
:104AE000BFFBFB210448FFF7BBFB00BF00380240BF
:104AF00000700040D34D6210047B000808B5FCF73D
:104B00001BF8FFF79BFFFFF71FFBFFF7ABFBFFF760
:104B1000DFFBFFF7FFFBFFF77DFCFFF7B1FCFFF7C3
:104B200015FDFFF731FDFFF74DFDFFF769FDFFF7BD
:104B3000A3FDFFF7DBFDFFF715FEFFF739FEFFF7DB
:104B400073FEFFF7ABFEFFF703FFFFF759FFFEF71A
:104B50009BFD00F02BFEFFF78DF8FEF723FE00F023
:104B6000EDFCFEF765FBFEF721FDFEF7D1FD00F041
:104B700059FFFFF727FA00F02DF8FEF771FBFEF75B
:104B80001FFCFFF719F9FEF73DFDFEF727FDECE7E7
:104B900010B5FEF7FBFD0446FEF7F8FD00F0FE0041
:104BA000201AC0B210BD10B5FEF7F0FD0446FEF7A6
:104BB000F3FD201A0028B8BF404210BD014B187801
:104BC000704700BFE8020020014B1870704700BF1B
:104BD000E802002010B500F03FFD012800D010BD14
:104BE0007C4B1B78092B00F2F180DFE803F0052BEA
:104BF00068769DAAB1BBDBE8FEF7A6FCFEF7C0FD18
:104C000002280FD0FEF7BCFD022840F0A780FFF776
:104C1000CAFF41F27C53984240F2A0806D4B0222C1
:104C20001A709BE0FFF7BFFF41F27B539842E9D82F
:104C30000020FFF783FA00F035FF664B5860012231
:104C40001A708BE0FFF7E4F9FFF76CFA43F2C82320
:104C5000984205D9FFF766FA47F22F5398421AD9BE
:104C6000FFF760FAB0F57A6F05D9FFF75BFA43F208
:104C7000C723984219D900F015FF564B5B68C01A3C
:104C800048F2E803984269D9524B06221A70002074
:104C9000FFF74EFA62E04F4C0323237000F002FF4F
:104CA00060600020FFF744FA58E04A4C0723237065
:104CB00000F0F8FE60600020FFF73AFA4EE0FEF7E1
:104CC0005FFD01284AD10020FFF70EFA0020FFF710
:104CD00035FA404B00221A7040E0FFF7D5F9FFF794
:104CE00021FA43F2C823984205D9FFF71BFA47F28D
:104CF0002F5398420ED900F0D5FE364B5B68C01A90
:104D000048F2E803984229D90020324B1870FFF787
:104D10000FFA23E00020FFF70BFA0020FFF7F6F967
:104D20002C4B04221A7019E0FEF726FCFFF7E2F97B
:104D30004F2813D90020FFF7EFF9264B05221A70F0
:104D40000CE0FFF7DDF9032808D9FEF7E9FB05E0E1
:104D50000120FFF739FF1F4B02221A70002000F0DC
:104D6000BDFC3CE7FFF790F9FFF7DCF9B0F57A6F8F
:104D700009D9FFF7D7F943F2C723984203D8154B57
:104D800008221A70EAE700F08DFE124B5B68C01A29
:104D900048F2E8039842E1D900200E4B1870FFF763
:104DA000C7F9DBE7FEF7D4FBFFF7A4F94F28D5D905
:104DB0000020FFF7B1F9074B05221A70CEE7FFF785
:104DC0009FF90328CAD9FEF7ABFBC7E7014B0022C6
:104DD0001A72C3E7EC020020014B1878704700BF3D
:104DE000EC02002010B582B000240094214B5A6CD4
:104DF00042F480425A645A6C02F480420092009A53
:104E000001941A6C42F080521A641B6C03F08053B8
:104E10000193019B0320FCF747F8224621466FF0DF
:104E20000B00FCF753F8224621466FF00A00FCF70E
:104E30004DF8224621466FF00900FCF747F822465C
:104E400021466FF00400FCF741F8224621466FF03E
:104E50000300FCF73BF8224621466FF00100FCF707
:104E600035F8224621464FF0FF30FCF72FF802B00C
:104E700010BD00BF003802400268134B9A4200D0B8
:104E8000704730B587B00024009403F58C335A6C1A
:104E900042F480725A645B6C03F480730093009B4D
:104EA0001023019303250295039401A90748FCF7F9
:104EB0008BF8302301930295039401A90448FCF771
:104EC00083F807B030BD00BF002001400000024061
:104ED000000802400268124B9A4200D0704700B5A9
:104EE00087B0C0230193122302930123039303236A
:104EF0000493042305930DEB03010A48FCF764F8BF
:104F000000230093084B1A6C42F400121A641B6CC5
:104F100003F400130093009B07B05DF804FB00BF8F
:104F200000540040000402400038024002681E4B5A
:104F30009A4200D070472DE9F04186B000240094D9
:104F400003F500331A6C42F480421A641B6C03F4BC
:104F500080430093009B022501950295039403264C
:104F6000049607230593DFF8488001A94046FCF723
:104F70002BF80423019302950394049605270597C3
:104F80000DEB03014046FCF71FF84FF4005301936B
:104F9000029503940496059701A90448FCF714F8B8
:104FA00006B0BDE8F08100BF0038004000040240B8
:104FB0000008024070B58EB00368614A934223D066
:104FC000604A93422ED0604A934255D05F4A934242
:104FD00066D05F4A934277D05E4A934200F0818068
:104FE0005D4A934200F09F805C4A934218D10023AF
:104FF00008935B4B1A6C42F480721A641B6C03F4C6
:1050000080730893089B0BE000230193544B5A6C68
:1050100042F001025A645B6C03F001030193019BAF
:105020000EB070BD002402944D4B1A6C42F0020287
:105030001A641B6C03F002030293029B012609967B
:1050400002250A950B940C940D9509A94548FBF788
:10505000BBFF402309930A950B940C940D9509A965
:105060004148FBF7B1FF224631461D20FBF72EFFDA
:105070001D20FBF75FFFD3E700220392384B196C2A
:1050800041F0040119641B6C03F004030393039BB8
:1050900001211E20FBF71AFF1E20FBF74BFFBFE785
:1050A000002104912E4B1A6C42F008021A641B6C0A
:1050B00003F008030493049B0A463220FBF706FF23
:1050C0003220FBF737FFABE700230593244B5A6CE4
:1050D00042F400325A645B6C03F400330593059B81
:1050E0009EE7002406941E4B1A6C42F040021A649C
:1050F0001B6C03F040030693069B4FF48043099317
:1051000002230A930B940C9409230D9309A91548C3
:10511000FBF75AFF224621462B20FBF7D7FE2B2018
:10512000FBF708FF7CE7002307930D4B1A6C42F056
:1051300080021A641B6C03F080030793079B6FE7E0
:10514000000001400004004000080040000C004046
:105150000044014000180040001C004000200040B6
:105160000038024000040240000802400368B3F126
:10517000804F00D0704770B586B00024009403F5CE
:105180000E331A6C42F001021A641B6C03F0010327
:105190000093009B4FF40043019302260296039470
:1051A00004940125059501A90B48FBF70DFF4FF469
:1051B00000730193029603940494059501A907488E
:1051C000FBF702FF224629461C20FBF77FFE1C202E
:1051D000FBF7B0FE06B070BD0000024000040240C4
:1051E00002680E4B9A4200D0704700B583B0002190
:1051F000019103F59A335A6C42F002025A645B6CD7
:1052000003F002030193019B0A462B20FBF75EFE8D
:105210002B20FBF78FFE03B05DF804FB0004014078
:1052200000B587B003682D4A93420ED02C4A9342B2
:105230001AD02C4A934226D02B4A934232D02B4A82
:1052400093423DD007B05DF804FB4FF4A063019397
:10525000022302930023039304930123059301A9DE
:105260002348FBF7B1FEEDE74FF48073019302236F
:1052700002930023039304930323059301A91D487C
:10528000FBF7A2FEDEE74FF4807301930223029343
:105290000023039304930323059301A91648FBF706
:1052A00093FECFE74023019302230293002303934D
:1052B00004930923059301A90D48FBF785FEC1E777
:1052C0008023019302230293002303930493092371
:1052D000059301A90648FBF777FEB3E700000140FC
:1052E0000004014000440140001C00400020004038
:1052F0000000024000080240000402402DE9F04393
:105300008BB00368474A934208D0474A934249D03A
:10531000464A934269D00BB0BDE8F0830025019561
:10532000434C236C43F400232364236C03F40023D5
:105330000193019B032605964FF00209CDF81890C2
:105340000127079708964FF00808CDF8248005A993
:105350003848FBF739FE2A4639463420FBF7B6FDBC
:105360003420FBF7E7FD0295636C43F02003636490
:10537000636C03F020030293029B80230593CDF816
:10538000189007970896CDF8248005A92A48FBF7BE
:105390001BFE2A4629464720FBF798FD4720FBF7CE
:1053A000C9FDB8E700250395214B1A6C42F4003281
:1053B0001A641B6C03F400330393039B0C230593C3
:1053C00002230693012407940323089307230993D8
:1053D00005A91848FBF7F8FD2A4621462620FBF7C9
:1053E00075FD2620FBF7A6FD95E700230493104BDF
:1053F0001A6C42F480221A641B6C03F48023049319
:10540000049B4FF440630593022306930123079303
:10541000032308930723099305A90748FBF7D4FD45
:1054200079E700BF004C00400044004000480040C5
:105430000038024000000240000802407047FEE7CA
:10544000FEE7FEE7FEE770477047704708B5FBF7D9
:105450008DFBFBF7A2FD08BD08B50248FCF75AFF1B
:1054600008BD00BF5C07002008B50248FCF752FFEA
:1054700008BD00BF2006002008B50248FCF74AFF1F
:1054800008BD00BFD804002008B50248FDF738FE6B
:1054900008BD00BF9807002008B54FF40050FBF787
:1054A00077FE08BD08B50348FCF734FF0248FCF757
:1054B00031FF08BD9C0400201408002008B500F04E
:1054C000D3FA0248FCF726FF08BD00BFE405002020
:1054D00008B50248FDF714FE08BD00BF1C070020F8
:1054E00008B50248FDF70CFE08BD00BF040400200B
:1054F0000F49D1F8883043F47003C1F888300D4B60
:105500001A6842F001021A60002098601A6822F0BE
:10551000847222F480321A60074A5A601A6822F4B0
:1055200080221A60D8604FF000638B60704700BF24
:1055300000ED00E0003802401030002408B50548B6
:10554000FCF70EFE0448FCF70BFE08210348FDF7AC
:10555000E5F908BDD8040020E40500209C040020E3
:105560000B8801339BB20B80834200D0704701232C
:10557000137000230B80F9E702682F4B9A4200D08A
:10558000704710B52D4C2246A11C0520FFF7E8FFFF
:10559000221DA11D0520FFF7E3FF04F1080204F11D
:1055A0000A010520FFF7DCFF04F10C0204F10E01F3
:1055B0000520FFF7D5FF04F1100204F112010520C8
:1055C000FFF7CEFF04F1140204F116010520FFF7E6
:1055D000C7FF04F1180204F11A010520FFF7C0FF0C
:1055E00004F11C0204F11E010520FFF7B9FF04F1CC
:1055F000200204F122010520FFF7B2FF04F124028A
:1056000004F126010520FFF7ABFF04F1280204F1A5
:105610002A010520FFF7A4FF04F12C0204F12E015A
:105620006420FFF79DFF04F1300204F132013220C3
:10563000FFF796FF10BD00BF0008004008030020E0
:10564000014B1879704700BF08030020014B187AFE
:10565000704700BF08030020014B187B704700BF54
:1056600008030020014B187C704700BF080300208E
:10567000014B187D704700BF08030020014B187EC6
:10568000704700BF08030020014B187F704700BF20
:1056900008030020014B93F8200070470803002006
:1056A000014B93F82400704708030020014B93F846
:1056B0002C00704708030020014B93F8300070471E
:1056C00008030020014B1871704700BF0803002039
:1056D000014B1872704700BF08030020014B18737C
:1056E000704700BF08030020014B1874704700BFCB
:1056F00008030020014B1875704700BF0803002005
:10570000014B1876704700BF08030020014B187743
:10571000704700BF08030020014B83F8200070474A
:1057200008030020014B83F8240070470803002081
:10573000014B83F82C00704708030020014B83F8CD
:10574000300070470803002038B5144C00224FF495
:1057500080512046FBF716FD114D4FF0FF3302221A
:1057600010492846FCF7C5F901224FF48051204624
:10577000FBF708FD00224FF480512046FBF702FDA5
:105780004FF0FF33022208492846FCF7B2F9012204
:105790004FF480512046FBF7F5FC38BD0004024071
:1057A00044040020540800206008002010B5104C6C
:1057B00018212046FDF7FDF818212046FDF7F9F8DD
:1057C0000C4AA62313700023537093700A4AA02139
:1057D000117053709370094B11221A7050225A7035
:1057E000074B13221A7010225A70FFF7ADFF10BD3D
:1057F0005C070020500800205C08002054080020AE
:105800006008002030B583B0FFF73EFF012801D0CB
:1058100003B030BD1C4D00224FF480512846FBF7E9
:10582000B1FC1A4C4FF0FF33009303232246184972
:105830001848FCF731FA01224FF480512846FBF753
:10584000A1FCA278120212B26378134307EE903AD9
:10585000F8EEE77A9FED107A67EE877A0F4BC3ED8B
:10586000007A9FED0F7A67EE877A0E4B93ED007A00
:1058700077EE877AC3ED007A0B4A138801331380E1
:105880000020FFF743FFC3E7000402405808002050
:10589000500800204404002050CD09416808002031
:1058A0006F12833A640800204003002030B583B0B3
:1058B000FFF7E4FE012801D003B030BD1D4D0022EA
:1058C0004FF480512846FBF75DFC1B4C4FF0FF3333
:1058D00000930323224619491948FCF7DDF90122F8
:1058E0004FF480512846FBF74DFCA278120212B209
:1058F0006378134307EE903AF8EEE77A9FED117A5A
:1059000067EE877A104B93ED007A77EEC77ADFED7A
:105910000F6A87EEA67A0E4B83ED007A0D4BD3ED1E
:10592000017A37EE277A83ED017A0020FFF7E8FE4F
:10593000C2E700BF000402405808002050080020C1
:105940004404002050CD0941640800200050434821
:10595000680800204003002008B52DED028B07EEFB
:10596000900AB8EEE78ADFED077A28EE278ADFEDA6
:10597000067A20EE270A00F0D1F828EE000ABDECE6
:10598000028B08BD6EDB363F35FA8E3C08B52DED37
:10599000028B07EE900AB8EEE78ADFED077A28EE71
:1059A000278ADFED067A20EE270A00F0FFF828EEBE
:1059B000000ABDEC028B08BD6EDB363F35FA8E3C2B
:1059C00038B52DED028BFFF76BFE012802D0BDEC40
:1059D000028B38BD124CE56894ED018AB0EE480A9E
:1059E0002846FFF7B9FFD4ED047AF8EEE77A37EEF0
:1059F000800ABDEEC00A84ED040AB0EE480A2846CB
:105A0000FFF7C4FFD4ED057AF8EEE77A37EE800AA7
:105A1000BDEEC00A84ED050A0020FFF783FED6E73D
:105A20004003002008B50E4B1B880E4A1288934293
:105A300011D2B3F5FA7F0BD8FFF726FE01280ED15D
:105A4000074A1388013313800020FFF75FFE06E04A
:105A5000FFF7D8FE03E0FFF729FFFFF7B1FF08BD0E
:105A60004003002068000020044B9969D9614FF081
:105A70008042526A9A61521ADA60704740030020ED
:105A8000014B93ED000A704768080020014B18692C
:105A9000704700BF40030020014B5869704700BFAA
:105AA00040030020014B9869704700BF400300206D
:105AB000014BD868704700BF40030020014B93EDB5
:105AC000010A704740030020DFF834D0002103E0D2
:105AD0000C4B5B58435004310B480C4B42189A4214
