:020000040800F2
:1000000000000220C1530008A14D0008A34D0008C4
:10001000A54D0008A74D0008A94D000800000000EC
:10002000000000000000000000000000AB4D0008D0
:10003000AD4D000800000000AF4D0008B14D0008B4
:1000400011540008115400081154000811540008FC
:1000500011540008115400081154000811540008EC
:1000600011540008115400081154000811540008DC
:1000700011540008115400081154000811540008CC
:1000800011540008115400081154000811540008BC
:1000900011540008115400081154000811540008AC
:1000A000115400081154000811540008115400089C
:1000B000BD4D0008CD4D0008DD4D0008115400086D
:1000C000115400081154000811540008115400087C
:1000D0001154000811540008ED4D00081154000897
:1000E000115400081154000811540008115400085C
:1000F000115400081154000811540008115400084C
:100100001154000811540008FD4D00081154000856
:10011000114E000811540008115400081154000831
:10012000115400081154000811540008115400081B
:1001300011540008000000000000000011540008E5
:1001400011540008115400081154000811540008FB
:1001500011540008115400081154000811540008EB
:1001600011540008115400081154000811540008DB
:100170001154000811540008115400080000000038
:100180000000000011540008000000000000000002
:100190001154000800000000000000001154000885
:1001A00000000000000000000000000011540008E2
:1001B000115400081154000811540008115400088B
:0401C00011540008CE
:1001D00010B5054C237833B9044B13B10448AFF381
:1001E00000800123237010BD1C02002000000000CD
:1001F0009873000808B5034B1BB103490348AFF3DC
:10020000008008BD00000000200200209873000854
:1002100081F0004102E000BF83F0004330B54FEAB7
:1002200041044FEA430594EA050F08BF90EA020F24
:100230001FBF54EA000C55EA020C7FEA645C7FEAB7
:10024000655C00F0E2804FEA5454D4EB5555B8BFDA
:100250006D420CDD2C4480EA020281EA030382EA4B
:10026000000083EA010180EA020281EA0303362DDD
:1002700088BF30BD11F0004F4FEA01314FF4801CB0
:100280004CEA113102D0404261EB410113F0004FC2
:100290004FEA03334CEA133302D0524263EB430379
:1002A00094EA050F00F0A780A4F10104D5F1200E17
:1002B0000DDB02FA0EFC22FA05F2801841F1000172
:1002C00003FA0EF2801843FA05F359410EE0A5F146
:1002D00020050EF1200E012A03FA0EFC28BF4CF077
:1002E000020C43FA05F3C01851EBE37101F000452D
:1002F00007D54FF0000EDCF1000C7EEB00006EEB3A
:100300000101B1F5801F1BD3B1F5001F0CD34908C3
:100310005FEA30004FEA3C0C04F101044FEA44521A
:1003200012F5800F80F09A80BCF1004F08BF5FEAA1
:10033000500C50F1000041EB045141EA050130BD81
:100340005FEA4C0C404141EB010111F4801FA4F124
:100350000104E9D191F0000F04BF01460020B1FA79
:1003600081F308BF2033A3F10B03B3F120020CDAB1
:100370000C3208DD02F1140CC2F10C0201FA0CF08F
:1003800021FA02F10CE002F11402D8BFC2F1200CF4
:1003900001FA02F120FA0CFCDCBF41EA0C019040AA
:1003A000E41AA2BF01EB0451294330BD6FEA0404F3
:1003B0001F3C1CDA0C340EDC04F11404C4F12002DE
:1003C00020FA04F001FA02F340EA030021FA04F3F0
:1003D00045EA030130BDC4F10C04C4F1200220FA47
:1003E00002F001FA04F340EA0300294630BD21FA85
:1003F00004F0294630BD94F0000F83F4801306BF4B
:1004000081F480110134013D4EE77FEA645C18BF3E
:100410007FEA655C29D094EA050F08BF90EA020FD5
:1004200005D054EA000C04BF1946104630BD91EACD
:10043000030F1EBF0021002030BD5FEA545C05D1D0
:100440004000494128BF41F0004130BD14F580040F
:100450003CBF01F5801130BD01F0004545F0FE4183
:1004600041F470014FF0000030BD7FEA645C1ABFB8
:10047000194610467FEA655C1CBF0B46024650EAEF
:10048000013406BF52EA033591EA030F41F400211B
:1004900030BD00BF90F0000F04BF0021704730B5A1
:1004A0004FF4806404F132044FF000054FF0000176
:1004B00050E700BF90F0000F04BF0021704730B537
:1004C0004FF4806404F1320410F0004548BF40420C
:1004D0004FF000013EE700BF42004FEAE2014FEA61
:1004E00031014FEA02701FBF12F07F4393F07F4F3C
:1004F00081F06051704732F07F4208BF704793F03F
:100500007F4F04BF41F40021704730B54FF4607451
:1005100001F0004521F000411CE700BF50EA010254
:1005200008BF704730B54FF000050AE050EA0102FD
:1005300008BF704730B511F0004502D5404261EB6D
:1005400041014FF4806404F132045FEA915C3FF4AE
:10055000D8AE4FF003025FEADC0C18BF03325FEA4B
:10056000DC0C18BF033202EBDC02C2F1200300FAFC
:1005700003FC20FA02F001FA03FE40EA0E0021FA21
:1005800002F11444BDE600BF70B54FF0FF0C4CF40F
:10059000E06C1CEA11541DBF1CEA135594EA0C0FC1
:1005A00095EA0C0F00F0DEF82C4481EA030621EAFC
:1005B0004C5123EA4C5350EA013518BF52EA033537
:1005C00041F4801143F4801338D0A0FB02CE4FF0E9
:1005D0000005E1FB02E506F00042E0FB03E54FF019
:1005E0000006E1FB03569CF0000F18BF4EF0010E11
:1005F000A4F1FF04B6F5007F64F5407404D25FEA0D
:100600004E0E6D4146EB060642EAC62141EA5551BF
:100610004FEAC52040EA5E504FEACE2EB4F1FD0C01
:1006200088BFBCF5E06F1ED8BEF1004F08BF5FEA7F
:10063000500E50F1000041EB045170BD06F0004631
:1006400046EA010140EA020081EA0301B4EB5C04DE
:10065000C2BFD4EB0C0541EA045170BD41F48011D6
:100660004FF0000E013C00F3AB8014F1360FDEBFFB
:10067000002001F0004170BDC4F10004203C35DAD7
:100680000C341BDC04F11404C4F1200500FA05F35A
:1006900020FA04F001FA05F240EA020001F00042FB
:1006A00021F0004110EBD37021FA04F642EB060171
:1006B0005EEA430E08BF20EAD37070BDC4F10C049B
:1006C000C4F1200500FA04F320FA05F001FA04F25F
:1006D00040EA020001F0004110EBD37041F100014B
:1006E0005EEA430E08BF20EAD37070BDC4F1200556
:1006F00000FA05F24EEA020E20FA04F301FA05F2BE
:1007000043EA020321FA04F001F0004121FA04F265
:1007100020EA020000EBD3705EEA430E08BF20EA35
:10072000D37070BD94F0000F0FD101F0004640006F
:1007300041EB010111F4801F08BF013CF7D041EAF1
:10074000060195F0000F18BF704703F000465200F5
:1007500043EB030313F4801F08BF013DF7D043EAC6
:100760000603704794EA0C0F0CEA135518BF95EA7C
:100770000C0F0CD050EA410618BF52EA4306D1D103
:1007800081EA030101F000414FF0000070BD50EA22
:10079000410606BF1046194652EA430619D094EAAC
:1007A0000C0F02D150EA013613D195EA0C0F05D196
:1007B00052EA03361CBF104619460AD181EA0301EA
:1007C00001F0004141F0FE4141F470014FF00000A2
:1007D00070BD41F0FE4141F4780170BD70B54FF03D
:1007E000FF0C4CF4E06C1CEA11541DBF1CEA1355BD
:1007F00094EA0C0F95EA0C0F00F0A7F8A4EB05049F
:1008000081EA030E52EA03354FEA013100F0888095
:100810004FEA03334FF0805545EA131343EA12635E
:100820004FEA022245EA111545EA10654FEA002613
:100830000EF000419D4208BF964244F1FD0404F5CC
:10084000407402D25B084FEA3202B61A65EB030528
:100850005B084FEA32024FF480104FF4002CB6EBE5
:10086000020E75EB030E22BFB61A754640EA0C0065
:100870005B084FEA3202B6EB020E75EB030E22BFA5
:10088000B61A754640EA5C005B084FEA3202B6EBE6
:10089000020E75EB030E22BFB61A754640EA9C00A5
:1008A0005B084FEA3202B6EB020E75EB030E22BF75
:1008B000B61A754640EADC0055EA060E18D04FEA33
:1008C000051545EA16754FEA06164FEAC30343EAD3
:1008D00052734FEAC2025FEA1C1CC0D111F4801FA0
:1008E0000BD141EA00014FF000004FF0004CB6E799
:1008F00011F4801F04BF01430020B4F1FD0C88BF38
:10090000BCF5E06F3FF6AFAEB5EB030C04BFB6EB42
:10091000020C5FEA500C50F1000041EB045170BD35
:100920000EF0004E4EEA113114EB5C04C2BFD4EB62
:100930000C0541EA045170BD41F480114FF0000EE6
:10094000013C90E645EA060E8DE60CEA135594EA62
:100950000C0F08BF95EA0C0F3FF43BAF94EA0C0F65
:100960000AD150EA01347FF434AF95EA0C0F7FF4DA
:1009700025AF104619462CE795EA0C0F06D152EA2E
:1009800003353FF4FDAE1046194622E750EA410612
:1009900018BF52EA43067FF4C5AE50EA41047FF423
:1009A0000DAF52EA43057FF4EBAE12E74FEA410286
:1009B00012F5001215D211D56FF47873B3EB6252B1
:1009C00012D94FEAC12343F0004343EA505311F0D8
:1009D000004F23FA02F018BF404270474FF000006A
:1009E000704750EA013005D111F0004008BF6FF0A8
:1009F000004070474FF00000704700BF4FEA4102CF
:100A0000B2F1E04324BFB3F5001CDCF1FE5C0DD96C
:100A100001F0004C4FEAC0024CEA5070B2F1004FB6
:100A200040EB830008BF20F00100704711F0804FB9
:100A300021D113F13872BCBF01F00040704741F47E
:100A400080114FEA5252C2F11802C2F1200C10FA82
:100A50000CF320FA02F018BF40F001004FEAC12366
:100A60004FEAD32303FA0CFC40EA0C0023FA02F30A
:100A70004FEA4303CCE77FEA625307D150EA0133E0
:100A80001EBF4FF0FE4040F44000704701F00040B0
:100A900040F0FE4040F40000704700BF53B94AB92F
:100AA000002908BF00281CBF4FF0FF314FF0FF3076
:100AB00000F072B9ADF1080C6DE904CE00F006F853
:100AC000DDF804E0DDE9022304B070472DE9F047CA
:100AD000089E04468846002B4BD18A42154667D9AA
:100AE000B2FA82F24AB1C2F1200701FA02F320FA07
:100AF00007F7954047EA030894404FEA154E230C48
:100B0000B8FBFEF71FFA85FC0EFB178843EA084383
:100B100007FB0CF1994209D9EB1807F1FF3080F07F
:100B20001B81994240F21881023F2B445B1AA4B208
:100B3000B3FBFEF00EFB103344EA034400FB0CFC55
:100B4000A44509D92C1900F1FF3380F00781A44591
:100B500040F2048102382C4440EA0740A4EB0C0424
:100B600000271EB1D4400023C6E900433946BDE842
:100B7000F0878B4209D9002E00F0EB800027C6E9F0
:100B8000000138463946BDE8F087B3FA83F7002FF5
:100B900047D18B4202D3824200F2FA80841A61EB81
:100BA000030301209846002EE0D0C6E90048DDE7A7
:100BB00002B9FFDEB2FA82F2002A40F08F80491BB0
:100BC0004FEA154E1FFA85F80127B1FBFEFC230CF6
:100BD0000EFB1C1143EA014308FB0CF1994207D9B3
:100BE000EB180CF1FF3002D2994200F2CD8084461E
:100BF000591AA3B2B1FBFEF00EFB101443EA0444F1
:100C000008FB00F8A04507D92C1900F1FF3302D2E8
:100C1000A04500F2B6801846A4EB080440EA0C4058
:100C20009FE7C7F1200CBB4022FA0CFE4EEA030EF0
:100C300001FA07F420FA0CF521FA0CF34FEA1E48EA
:100C40002543B3FBF8F92C0C08FB19331FFA8EFA75
:100C500044EA034309FB0AF49C4202FA07F200FA51
:100C600007F10BD91EEB030309F1FF3080F08780F9
:100C70009C4240F28480A9F1020973441B1BADB26F
:100C8000B3FBF8F008FB103345EA034400FB0AFA13
:100C9000A24508D91EEB040400F1FF336BD2A24534
:100CA00069D90238744440EA0940A0FB0289A4EBE8
:100CB0000A044C45C2464B4654D351D0002E69D04D
:100CC000B1EB0A0564EB030404FA0CFCFD40FC40A4
:100CD0004CEA0505C6E90054002747E7C2F12003A6
:100CE00020FA03F7954001FA02F021FA03F34FEAE4
:100CF000154E3843010CB3FBFEF71FFA85F80EFBC7
:100D0000173341EA034107FB08F38B4204FA02F46C
:100D100007D9691807F1FF3C2FD28B422DD9023F2A
:100D20002944CB1A81B2B3FBFEF00EFB103341EA2B
:100D3000034100FB08F38B4207D9691800F1FF3C1F
:100D400017D28B4215D902382944C91A40EA0747FD
:100D50003BE73746304609E70746E7E61846FBE635
:100D60004145ABD2B8EB020A69EB0E0201381346DB
:100D7000A4E76046E9E7184695E76746D1E781466C
:100D80007CE702382C4447E7ACF1020C2B442FE7F8
:100D9000384608E73746E9E6704700BF034613F8D0
:100DA000012B002AFBD1181A0138704700000000FF
:100DB00001F0FF01102A2BDB10F0070F08D010F80C
:100DC000013B013A8B422DD010F0070F42B3F6D110
:100DD000F0B441EA012141EA014122F007047FF029
:100DE00000070023F0E80256083C85EA010586EA80
:100DF000010685FA47F5A3FA87F586FA47F6A5FABC
:100E000087F68EB9EED1F0BC01F0FF0102F00702C7
:100E100032B110F8013B013A83EA010313B1F8D172
:100E20000020704701387047002D06BF3546033853
:100E3000073815F0010F07D1013015F4807F02BF8C
:100E4000013015F4C03F0130F0BC0138704700BFDD
:100E500010B504460E4B18784FF47A73B3FBF0F3D9
:100E60000C4A1068B0FBF3F000F020FA68B90F2CC0
:100E700001D901200AE0002221464FF0FF3000F0A6
:100E8000D5F9034B5C60002000E0012010BD00BFDD
:100E9000000000204400002008B50B4B1A6842F403
:100EA00000721A601A6842F480621A601A6842F48A
:100EB00080721A60032000F0A7F90020FFF7C8FF36
:100EC00003F0C4FC002008BD003C0240034A116846
:100ED000034B1B780B441360704700BFF0020020E7
:100EE00000000020014B1868704700BFF00200208E
:100EF000494B5A6822F440325A605A6841680A43A2
:100F00005A600268536823F4807353600268536820
:100F1000016943EA012353600268536823F0407378
:100F200053600268536881680B435360026893689A
:100F300023F40063936002689368C1680B43936075
:100F4000826A364B9A4249D00268936823F07063F4
:100F5000936002689368816A0B43936002689368A8
:100F600023F04053936002689368C16A0B43936017
:100F70000268936823F002039360026893688169B2
:100F800043EA41039360036A002B32D1026853683D
:100F900023F4006353600268D36A23F47003D362BE
:100FA0000168CB6AC269013A43EA0253CB62026824
:100FB000936823F40073936002689368016B43EABB
:100FC000412393600268936823F48063936002680E
:100FD0009368416943EA812393607047026893688C
:100FE00023F0706393600268936823F0405393602A
:100FF000BEE70268536843F40063536002685368B5
:1010000023F46043536001684B68426A013A43EA43
:1010100042334B60BFE700BF002301400100000FD7
:1010200030B310B50446036C43B1236C13F0100FBA
:101030000AD00120002384F83C3010BD436480F8BE
:101040003C3003F04DFCF0E7236C23F4885323F08D
:10105000020343F0020323642046FFF749FF002008
:101060006064236C23F0030343F001032364E1E78E
:101070000120704730B482B00023019390F83C30D7
:10108000012B00F0B580012380F83C300B68092B60
:101090003ED90568EA689BB203EB43031E3B072475
:1010A00004FA03F322EA0303EB600568EA688C683C
:1010B0000B8803EB43031E3B04FA03F31343EB607B
:1010C0004B68062B3AD805686A6B03EB8303053B34
:1010D0001F2404FA03F322EA03036B6305686A6BB7
:1010E0004B6803EB8303053B0C8804FA03F31343BB
:1010F0006B6302683F4B9A4250D002683D4B9A4264
:1011000055D0002380F83C30184602B030BC704700
:1011100005682A699BB203EB4303072404FA03F32F
:1011200022EA03032B6105682A698C680B8803EBAC
:10113000430304FA03F313432B61C1E70C2B16D8C6
:1011400005682A6B03EB8303233B1F2404FA03F394
:1011500022EA03032B6305682A6B4B6803EB8303C6
:10116000233B0C8804FA03F313432B63C1E70568A0
:10117000EA6A03EB8303413B1F2404FA03F322EAE8
:101180000303EB620568EA6A4B6803EB8303413BA8
:101190000C8804FA03F31343EB62AAE70B68122BE3
:1011A000ABD1154A536843F480035360A5E70B683D
:1011B000124A934201D0112BA3D10F4A536843F432
:1011C000000353600A680D4B9A429AD10C4B1B687E
:1011D0000C4AA2FB03239B0C03EB83035A000192EE
:1011E00002E0019B013B0193019B002BF9D188E7B1
:1011F00002208AE700200140002301401200001075
:101200004400002083DE1B43074AD36823F4E063D5
:101210001B041B0C000200F4E060184340F0BF60A8
:1012200040F40030D060704700ED00E030B4174B60
:10123000DB68C3F30223C3F10704042C28BF042492
:101240001D1D062D18D9033B4FF0FF3505FA04F498
:1012500021EA0401994005FA03F322EA0303194342
:1012600000280BDB0901C9B200F1604000F56140C4
:1012700080F8001330BC70470023E5E700F00F0052
:101280000901C9B2024B1954F4E700BF00ED00E0B8
:1012900014ED00E000F01F02400901239340024AD0
:1012A00042F82030704700BF00E100E00138B0F1A3
:1012B000807F0AD2064B5860064AF02182F823103C
:1012C0000020986007221A6070470120704700BF15
:1012D00010E000E000ED00E0042805D0054A1368A6
:1012E00023F0040313607047024A136843F00403B9
:1012F0001360704710E000E0704708B5FFF7FCFF8F
:1013000008BD90F83530DBB2022B03D08023436553
:1013100001207047052380F835300268136823F0F8
:10132000010313600020704700230F2B00F2D180CF
:10133000F0B482B039E0062200E00022B2403A4325
:101340000234644E46F82420634A1468EA4302EAF1
:1013500004064F6817F4803F01D045EA04065E4C4E
:101360002660646802EA04064F6817F4003F01D063
:1013700045EA0406584C6660A46802EA04064F6811
:1013800017F4801F01D045EA0406534CA660E468B8
:1013900022404E6816F4001F01D045EA04024E4C6C
:1013A000E26001330F2B00F2918001229A400C6819
:1013B00004EA0205AA42F4D14C68022C01D0122C96
:1013C00010D1DE08083650F826C003F00704A70045
:1013D0000F24BC402CEA040C0C69BC4044EA0C0409
:1013E00040F8264004685F000326BE40F64306EA44
:1013F000040C4C6804F00304BC4044EA0C04046090
:101400004C6804F1FF3CBCF1010F03D9112C01D051
:10141000122C10D1846806EA040CCC68BC4044EA63
:101420000C048460446824EA02024C68C4F300148B
:101430009C4014434460C26816408A68BA403243F4
:10144000C2604A6812F0805FABD000220192234A4A
:10145000546C44F480445464526C02F4804201920F
:10146000019A9C08A61C1B4A52F8267003F003023E
:1014700096000F22B24027EA0207194A90423FF431
:101480005CAF02F58062904216D002F58062904215
:1014900014D002F58062904212D002F58062904230
:1014A00010D002F5806290420ED002F58062904228
:1014B0003FF441AF072241E701223FE702223DE727
:1014C00003223BE7042239E7052237E702B0F0BCEC
:1014D0007047704700380140003C0140003802402E
:1014E0000000024012B909048161704781617047B0
:1014F000002800F0828010B5044690F83D30002BA3
:1015000041D0242384F83D302268136823F001037E
:10151000136000F02DF93A4BA3FB00239B0C2268CB
:1015200053606168374A914232D8013322681362AE
:101530006368344A934235D85B00B0FBF3F0C0F3E4
:101540000B03032B00D804202368D861E369216AC8
:1015500022680B4313602369E16822680B439360A0
:101560006369A16922680B43D3602268136843F062
:101570000103136000202064202384F83D302063A1
:1015800084F83E0010BD80F83C3003F0D7F9B8E78E
:101590004FF4967202FB03F31B4AA2FB03239B0941
:1015A0000133C3E7A16889B903EB4302B0FBF2F250
:1015B000C2F30B02B2FA82F25209E2B991B903EB1B
:1015C0004303B0FBF3F040F40040BDE703EB8302BC
:1015D00002EB8202B0FBF2F2C2F30B02B2FA82F229
:1015E0005209EAE703EB830303EB8303B0FBF3F059
:1015F00040F44040A8E70120A6E70120704700BF63
:1016000083DE1B43A0860100D34D6210002800F04A
:101610009D8070B504464F4B1B6803F00F038B424F
:1016200009D2CBB24B4A1370136803F00F038B42FD
:1016300001D0012070BD236813F0020F17D013F002
:10164000040F04D0444A936843F4E0539360236842
:1016500013F0080F04D0404A936843F4604393604A
:101660003D4A936823F0F003A068034393600D465E
:10167000236813F0010F32D06368012B21D09A1E2A
:10168000012A25D9344A126812F0020F60D032497B
:101690008A6822F0030213438B60FFF723FC06469F
:1016A0002D4B9B6803F00C036268B3EB820F16D0DE
:1016B000FFF718FC801B41F288339842F0D90320D1
:1016C000B8E7254A126812F4003FE0D10120B1E7E3
:1016D000214A126812F0007FD9D10120AAE71D4BE0
:1016E0001B6803F00F03AB4209D9EAB2194B1A7019
:1016F0001B6803F00F03AB4201D001209AE7236877
:1017000013F0040F06D0144A936823F4E053E16801
:101710000B439360236813F0080F07D00E4A9368B9
:1017200023F46043216943EAC103936000F040F869
:10173000094B9B68C3F30313084AD35CD840084B9A
:1017400018600020FFF784FB002073E7012070473A
:1017500001206FE7003C024000380240BC730008E3
:1017600044000020014B1868704700BF440000206F
:1017700008B5FFF7F7FF044B9B68C3F38223034AC6
:10178000D35CD84008BD00BF00380240CC730008CD
:1017900008B5FFF7E7FF044B9B68C3F34233034AE6
:1017A000D35CD84008BD00BF00380240CC730008AD
:1017B0002DE9F04B5C4B9B6803F00C03082B07D022
:1017C0000C2B5BD0042B00F0AD805848BDE8F08BAB
:1017D000554B5A6802F03F025B6813F4800F2AD021
:1017E000514B5B68C3F388131E4600275C0100253C
:1017F000E41A65EB0705A90141EA9461A001001B09
:1018000061EB0501CB0043EA5073C400A01943EB20
:1018100007014B0243EAD0534402204619460023F5
:10182000FFF73CF9404B5B68C3F3014301335B00B6
:10183000B0FBF3F0CAE73C4B5B68C3F388131E466A
:1018400000275C010025E41A65EB0705A90141EAC0
:101850009461A001001B61EB0501CB0043EA5073CA
:10186000C400A01943EB07018B0243EA90538402A2
:10187000204619460023FFF711F9D3E72A4B5A688F
:1018800002F03F025B6813F4800F28D0264B5B68A0
:10189000C3F388131E4600275C010025E41A65EB9C
:1018A0000705A90141EA9461A001001B61EB050154
:1018B000CB0043EA5073C400A01943EB07014B026D
:1018C00043EAD0534402204619460023FFF7E6F8C6
:1018D000154B5B68C3F30273B0FBF3F076E7124B72
:1018E0005B68C3F388131E4600275C010025E41AD9
:1018F00065EB0705A90141EA9461A001001B61EBBA
:101900000501CB0043EA5073C400A01943EB070163
:101910008B0243EA90538402204619460023FFF7C6
:10192000BDF8D5E7024851E7003802400024F40032
:1019300000127A0070B582B00446036813F0010FFC
:1019400041D0A64B9B6803F00C03042B32D0A34B71
:101950009B6803F00C03082B27D0A04B9B6803F077
:101960000C030C2B59D06368B3F5803F5BD0B3F503
:10197000A02F5ED0994B1A6822F480321A601A6840
:1019800022F480221A606368002B5CD0FFF7AAFA69
:101990000546924B1B6813F4003F14D1FFF7A2FADF
:1019A000401B6428F5D903209DE18C4B5B6813F440
:1019B000800FD2D0894B1B6813F4003F03D06368BB
:1019C000002B00F08D81236813F0020F67D0834B4A
:1019D0009B6813F00C0F4AD0804B9B6803F00C03FC
:1019E000082B3FD07D4B9B6803F00C030C2B48D099
:1019F000E368002B74D07A4B01221A60FFF772FA69
:101A00000546764B1B6813F0020F60D1FFF76AFAA8
:101A1000401B0228F5D9032065E1704B5B6813F485
:101A2000800FA0D0C6E76D4A136843F4803313607B
:101A3000A9E76A4B1A6842F480221A601A6842F4D5
:101A400080321A609FE7FFF74DFA0546634B1B682B
:101A500013F4003FB7D0FFF745FA401B6428F5D9CF
:101A6000032040E15D4B5B6813F4800FBAD15B4B00
:101A70001B6813F0020F0AD0E368012B07D0012086
:101A800031E1564B5B6813F4800FB1D1EFE7534A55
:101A9000136823F0F803216943EAC1031360236844
:101AA00013F0080F40D0636963B34E4B01221A60F4
:101AB000FFF718FA0546494B5B6F13F0020F33D15D
:101AC000FFF710FA401B0228F5D903200BE1434A27
:101AD000136823F0F803216943EAC1031360DEE7CA
:101AE0003F4B00221A60FFF7FDF905463B4B1B6890
:101AF00013F0020FD3D0FFF7F5F9401B0228F5D9F8
:101B00000320F0E0374B00221A60FFF7EBF905469F
:101B1000324B5B6F13F0020F06D0FFF7E3F9401B67
:101B20000228F5D90320DEE0236813F0040F79D0F2
:101B30002A4B1B6C13F0805F33D100230193274B9A
:101B40001A6C42F080521A641B6C03F080530193AC
:101B5000019B0125244B1B6813F4807F23D0A368CD
:101B6000012B34D0052B41D01C4B1A6F22F00102FF
:101B70001A671A6F22F004021A67A368002B3FD07D
:101B8000FFF7B0F90646154B1B6F13F0020F48D153
:101B9000FFF7A8F9801B41F288339842F3D903205C
:101BA000A1E00025D6E7104A136843F48073136060
:101BB000FFF798F906460C4B1B6813F4807FCED1D3
:101BC000FFF790F9801B0228F5D903208BE0034A28
:101BD000136F43F001031367CFE700BF00380240E3
:101BE00000004742800E474200700040404B1A6F91
:101BF00042F004021A671A6F42F001021A67BCE74A
:101C0000FFF770F906463A4B1B6F13F0020F08D02E
:101C1000FFF768F9801B41F288339842F3D903201B
:101C200061E0E5B9A369002B5CD0314A926802F00B
:101C30000C02082A59D0022B17D02E4B00221A6012
:101C4000FFF750F904462A4B1B6813F0007F45D07C
:101C5000FFF748F9001B0228F5D9032043E0244A86
:101C6000136C23F080531364DCE7224B00221A60CC
:101C7000FFF738F905461E4B1B6813F0007F06D0AE
:101C8000FFF730F9401B0228F5D903202BE0E36968
:101C9000226A1343626A43EA8213A26A5208013A33
:101CA00043EA0243E26A43EA0263226B43EA0273B5
:101CB0000F4A53600F4B01221A60FFF713F90446D5
:101CC0000B4B1B6813F0007F06D1FFF70BF9001BCD
:101CD0000228F5D9032006E0002004E0002002E0FD
:101CE000012000E0002002B070BD0120FBE700BF32
:101CF0000038024060004742F8B505460F461646D8
:101D00001C463BE02CB1FFF7EDF8069BC01AA04241
:101D100034D32A68536823F0E00353606B68B3F54B
:101D2000827F0BD0AB6AB3F5005F14D0012385F836
:101D30005130002385F85030032027E0AB68B3F51D
:101D4000004F02D0B3F5806FECD12A68136823F0FE
:101D500040031360E6E72A68136823F400531B046A
:101D60001B0C13602A68136843F400531360DDE70B
:101D70000123B34209D0B4F1FF3FC3D12B689B6864
:101D800037EA0303F4D00023F3E70020F8BD10B5D1
:101D900082B0044600920B4600228021FFF7ACFF80
:101DA000034610B9184602B010BD636D43F020031E
:101DB00063650323F6E700283BD010B504460023F3
:101DC000836290F85130002B2ED0022384F85130DA
:101DD0002268136823F0400313606368A26813430A
:101DE000E26813432269134362691343A26902F450
:101DF00000721343E2691343226A1343A16A226803
:101E00000B431360638B03F00403616A22680B4386
:101E100053602268D36923F40063D36100206065B6
:101E2000012384F8513010BD80F8503002F0B2FD2B
:101E3000CBE7012070472DE9F04184B01E4690F8B1
:101E40005030012B00F0C88004460D469046012317
:101E500080F85030FFF746F8074694F85130DBB26F
:101E6000012B0AD00223012284F85120002284F899
:101E70005020184604B0BDE8F081002D00F0A48089
:101E8000B8F1000F00F0A280032384F85130002342
:101E900063652563A4F83480A4F83680A363A38720
:101EA000E38763642364A368B3F5004F1BD0236802
:101EB0001A6812F0400F03D11A6842F040021A600B
:101EC000E368B3F5006F14D063681BB1E38E9BB277
:101ED000012B3ED1236815F8012B1A73E38E013BC9
:101EE0009BB2E38635E02268136843F480431360B5
:101EF000DDE763681BB1E38E9BB2012B0DD1236834
:101F000035F8022BDA60E38E013B9BB2E38604E0F6
:101F1000002E5DD0B6F1FF3F0FD1E38E9BB27BB3B5
:101F200023689A6812F0020FF2D035F8022BDA60BB
:101F3000E38E013B9BB2E386EFE7FEF7D3FFC01BC6
:101F4000B042EAD303238EE7002E43D0B6F1FF3F21
:101F50000FD1E38E9BB29BB123689A6812F0020FF7
:101F6000F2D015F8012B1A73E38E013B9BB2E38686
:101F7000EFE7FEF7B7FFC01BB042EAD3032372E7D7
:101F800000973346012202212046FFF7B5FE08B133
:101F9000032368E73A4631462046FFF7F8FE03463A
:101FA00018B12023636501235DE7A26832B903926B
:101FB0002268D168039192680392039A626D002AA5
:101FC0003FF451AF01234EE701234CE701234AE7D9
:101FD000032348E7032346E702234AE72DE9F043BA
:101FE00085B099460C9D90F85030012B00F010817F
:101FF00004460F461646012380F85030FEF772FF64
:10200000804694F85130DBB26268012B15D0B2F5EE
:10201000827F0AD00223012284F85120002284F812
:102020005020184605B0BDE8F083A268002A40F0B1
:10203000E780042B01D00223EDE7002F00F0E280BF
:10204000002E00F0E180B9F1000F00F0DF8094F87D
:102050005130DBB2012B2BD000236365A663A4F8BB
:102060003E90A4F83C902763A4F83690A4F83490EE
:102070002364636423681A6812F0400F03D11A685E
:1020800042F040021A60E368B3F5006F14D0636851
:102090001BB1E38E9BB2012B07D1236817F8012BEC
:1020A0001A73E38E013B9BB2E3864FF0010961E0B6
:1020B000052384F85130CFE763681BB1E38E9BB2F0
:1020C000012B07D1236837F8022BDA60E38E013B3E
:1020D0009BB2E3864FF0010913E0E38F9BB26BB133
:1020E00023689A6812F0010F08D0DB6826F8023BDB
:1020F000E38F013B9BB2E3874FF00109B5F1FF3F4E
:102100001CD1E38E9BB21BB9E38F9BB2002B55D041
:10211000B9F1000FE1D0E38E9BB2002BDDD0236834
:102120009A6812F0020FD8D037F8022BDA60E38EEB
:10213000013B9BB2E3864FF00009CEE7FEF7D2FEEB
:10214000A0EB0800A842DCD3032364E7E38F9BB233
:102150006BB123689A6812F0010F08D0DB68337006
:10216000E38F013B9BB2E38701364FF00109B5F1E4
:10217000FF3F1BD1E38E9BB213B9E38F9BB2EBB150
:10218000B9F1000FE2D0E38E9BB2002BDED02368C2
:102190009A6812F0020FD9D03A781A73E38E013B95
:1021A0009BB2E38601374FF00009CFE7FEF79AFEB6
:1021B000A0EB0800A842DDD303232CE7CDF8008074
:1021C0002B46012202212046FFF796FD08B103238A
:1021D00021E7424629462046FFF7D9FD034618B1BC
:1021E00020236365012316E7A268002A7FF413AF5A
:1021F00003922268D168039192680392039A0AE7D6
:10220000022308E7012306E7012304E7012302E78D
:10221000022306E770B4036A23F001030362036A32
:102220004268846924F073040D6845EA040623F0CB
:1022300002048B6823430C4DA84202D00B4CA042F1
:102240000BD123F00803CD682B4323F0040322F4C1
:1022500040724D6915438A692A43426086614A6823
:102260004263036270BC70470000014000040140FB
:1022700030B4036A23F480730362036A4268C4695A
:1022800024F073040D682C4323F400738D6843EA33
:1022900005230E4DA84203D005F58065A8420ED156
:1022A00023F40063CD6843EA052323F4806322F41A
:1022B00040524D6942EA05128D6942EA05124260B8
:1022C000C4614A68C263036230BC704700000140C9
:1022D00030B4036A23F480530362036A4468C2691A
:1022E00022F4E6420D6842EA052223F400538D6889
:1022F00043EA0533094DA84203D005F58065A8429D
:1023000004D124F480444D6944EA85144460C261D8
:102310004A680264036230BC704700BF000001409D
:1023200010B4036A046A24F001040462846924F08E
:10233000F00444EA021223F00A030B4382610362B1
:102340005DF8044B704730B4046A24F01004046252
:102350008469056A24F4407444EA022222F470423B
:102360001B039BB21A4325F0A005090101F0A0014F
:1023700029438261016230BC704710B4036A23F0C4
:10238000100303628469036A24F4704444EA02324D
:1023900023F0A00343EA0113826103625DF8044B5A
:1023A000704730B4046A24F480740462C469056A16
:1023B00024F00304224322F0F0021B01DBB21A4393
:1023C00025F42065090201F420612943C2610162FC
:1023D00030BC704730B4046A24F480540462C46989
:1023E000056A24F4407444EA022222F470421B037A
:1023F0009BB21A4325F42045090301F420412943E7
:10240000C261016230BC7047836823F0700341F001
:10241000070119438160704710B4846824F47F4435
:1024200042EA03230B43234383605DF8044B704768
:1024300010B50468A26822F070024B68134323F0C1
:1024400007030A681343A3604B68502B1ED00AD9B8
:10245000602B21D0702B05D10B698A68C968006890
:10246000FFF7DAFF10BD402BFCD103681C6A1A6A23
:1024700022F001021A620268936923F0F0030969ED
:1024800043EA0113936103681C62EBE70A698968F8
:102490000068FFF745FFE5E70A6989680068FFF70C
:1024A0006CFFDFE70268D36843F00103D360026882
:1024B000136843F0010313600020704770477047B2
:1024C00090F83830012B7DD010B50446012380F8F8
:1024D0003830022380F839300268936823F47F4350
:1024E00023F0770393600B68402B57D010D9702BE3
:1024F0003ED01FD8502B47D0602B32D1CA684968D4
:102500000068FFF73AFF60212068FFF77DFF28E0B1
:10251000102B4DD008D9202B4FD0302B21D130217A
:102520000068FFF771FF1CE0DBB900210068FFF7CE
:102530006BFF16E0B3F5805F0ED0B3F5005F10D1EE
:10254000CB684A6889680068FFF766FF226893686D
:1025500043F48043936004E00268936823F0070328
:102560009360012384F83930002084F8380010BDCE
:10257000CB684A6889680068FFF74EFF2268936855
:1025800043F077039360ECE7CA6849680068FFF797
:10259000C7FE50212068FFF737FFE2E7CA684968A5
:1025A0000068FFF7BDFE40212068FFF72DFFD8E748
:1025B00010210068FFF728FFD3E720210068FFF70C
:1025C00023FFCEE70220704738B590F83830012B52
:1025D00018D00446012580F83850022380F839309D
:1025E000FFF726FF2268D36823F04003D3602268F8
:1025F000D36823F48043D36084F83950002084F8F2
:10260000380038BD0220FCE7034690F83820012A44
:102610001ED0012280F838200C2917D8DFE801F0FD
:10262000071616160D161616101616161300026843
:10263000506B002283F8382070470268906BF8E7EF
:102640000268D06BF5E70268106CF2E70020F0E753
:102650000220704770477047704710B50446036802
:102660001A6912F0020F11D0DA6812F0020F0DD0C1
:102670006FF002021A610123037603689B6913F06D
:10268000030F70D001F048F80023237623681A69FD
:1026900012F0040F12D0DA6812F0040F0ED06FF0AF
:1026A00004021A610223237623689B6913F4407F96
:1026B0005FD0204601F030F80023237623681A69A2
:1026C00012F0080F12D0DA6812F0080F0ED06FF077
:1026D00008021A61042323762368DB6913F0030FD1
:1026E0004ED0204601F018F80023237623681A699B
:1026F00012F0100F12D0DA6812F0100F0ED06FF037
:1027000010021A61082323762368DB6913F4407FE3
:102710003DD0204601F000F80023237623681A6993
:1027200012F0010F03D0DA6812F0010F36D12368DE
:102730001A6912F0800F03D0DA6812F0800F34D1DA
:1027400023681A6912F0400F03D0DA6812F0400FC4
:1027500032D123681A6912F0200F03D0DA6812F020
:10276000200F30D110BDFFF775FF2046FFF773FF34
:102770008AE72046FFF76EFF2046FFF76CFF9BE7D6
:102780002046FFF767FF2046FFF765FFACE72046CE
:10279000FFF760FF2046FFF75EFFBDE76FF0010225
:1027A0001A61204602F07AFBC1E76FF080021A61DD
:1027B000204600F018FBC3E76FF040021A61204684
:1027C000FFF74AFFC5E76FF020021A61204600F0CC
:1027D00009FBC7E703682E4A904212D0B0F1804F40
:1027E0000FD0A2F57C4290420BD002F5806290425D
:1027F00007D002F58062904203D002F57842904201
:1028000003D123F070034A681343214A90422AD02F
:10281000B0F1804F27D0A2F57C42904223D002F540
:10282000806290421FD002F5806290421BD002F578
:102830007842904217D002F57052904213D002F5C0
:10284000806290420FD002F5806290420BD0A2F5D8
:102850009832904207D002F58062904203D002F590
:102860008062904203D123F44073CA68134303602B
:102870008B68C3620B688362054B984203D003F5F3
:102880008063984201D10B69036301234361704760
:1028900000000140A8B110B5044690F839305BB192
:1028A000022384F83930211D2068FFF793FF0123AC
:1028B00084F83930002010BD80F8383002F0AEF8CE
:1028C000EEE701207047A8B110B5044690F8393002
:1028D0005BB1022384F83930211D2068FFF77AFFAD
:1028E000012384F83930002010BD80F83830FFF71C
:1028F000E5FDEEE701207047A8B110B5044690F859
:1029000039305BB1022384F83930211D2068FFF78C
:1029100061FF012384F83930002010BD80F8383081
:10292000FFF7CDFDEEE701207047002847D0F8B54E
:1029300005460C4690F83930002B3BD0022385F831
:102940003930294651F8042B936823F0070393602C
:102950002868FFF73FFF29688A688E690F6A206838
:10296000104326F4407626F00306A268A36942EAE3
:102970000323334323F47C4323F0FC03E668E2693A
:1029800046EA02261E43226A1303226943EA02131F
:10299000334327F0AA076268646942EA04123A43A3
:1029A000886029688B612B681A62012385F83930A9
:1029B0000020F8BD80F8383002F0E4F8BEE70120CE
:1029C0007047000070B4046A24F001040462846952
:1029D000056A1A4EB0421FD0B0F1804F1CD0A6F548
:1029E0007C46B04218D006F58066B04214D006F599
:1029F0008066B04210D006F57846B0420CD006F59D
:102A00007056B04208D0A6F59436B04204D024F0F7
:102A1000030242F0010202E024F00304224322F008
:102A2000F0021B01DBB2134325F00A0201F00A0198
:102A300011438361016270BC704700BF0000014018
:102A400038B590F83830012B58D00D460446012394
:102A500080F83830022380F83930DAB1042A2AD0DD
:102A6000082A3AD0CB684A6809680068FFF7B2FCC8
:102A70002268D36923F44063D3612268D369A968CB
:102A800043EA0123D361012384F83930002084F81C
:102A9000380038BDCB684A6809680068FFF792FFC4
:102AA0002268936923F00C03936122689369A968F3
:102AB0000B439361E7E7CB684A6809680068FFF752
:102AC00042FC2268936923F440639361226893690E
:102AD000A96843EA01239361D5E7CB684A6809688E
:102AE0000068FFF75EFC2268D36923F00C03D36112
:102AF0002268D369A9680B43D361C4E70220C8E701
:102B000030B4036A23F010030362036A44688269E5
:102B100022F4E6420D6842EA052223F020038D6884
:102B200043EA05130E4DA84203D005F58065A8427F
:102B30000ED123F08003CD6843EA051323F0400350
:102B400024F440644D6944EA85048D6944EA8504AF
:102B5000446082614A688263036230BC704700BF90
:102B60000000014038B590F83830012B66D00D4692
:102B70000446012380F83830022380F839300C2ACB
:102B80001AD8DFE802F00719191920191919341990
:102B9000191947000068FFF73DFB2268936943F06D
:102BA000080393612268936923F004039361226808
:102BB000936929690B439361012384F8393000201C
:102BC00084F8380038BD0068FFF79AFF22689369DF
:102BD00043F4006393612268936923F480639361F3
:102BE00022689369296943EA01239361E4E7006855
:102BF000FFF73EFB2268D36943F00803D3612268E4
:102C0000D36923F00403D3612268D36929690B4394
:102C1000D361D1E70068FFF75BFB2268D36943F417
:102C20000063D3612268D36923F48063D36122688F
:102C3000D369296943EA0123D361BDE70220C1E7D3
:102C400010B4012303FA01F4036A23EA04030362C4
:102C5000036A8A40134303625DF8044B7047000027
:102C600010B5044601220068FFF7EAFF2368094A0D
:102C7000934203D002F58062934203D15A6C42F42E
:102C800000425A642268136843F001031360002075
:102C900010BD00BF0000014010B504460C290DD83E
:102CA000DFE801F0070C0C0C170C0C0C1D0C0C0CC5
:102CB00023000268D36843F00203D3600122206836
:102CC000FFF7BEFF2268136843F001031360002082
:102CD00010BD0268D36843F00403D360EEE70268D6
:102CE000D36843F00803D360E8E70268D36843F091
:102CF0001003D360E2E710B5044661B1042916D091
:102D0000012200210068FFF79BFF012204212068B7
:102D1000FFF796FF04E0012200210068FFF790FF13
:102D20002268136843F001031360002010BD0122E4
:102D300004210068FFF784FFF2E790F83830012B98
:102D400022D030B4012280F83820022380F83930B4
:102D50000468636823F070036360046863680D6847
:102D60002B4363600468A36823F08003A3600468B6
:102D7000A36849680B43A36080F83920002380F8DA
:102D80003830184630BC70470220704790F8383011
:102D9000012B25D0012380F83830CB6823F4407311
:102DA0008A68134323F480634A68134323F400635F
:102DB0000A68134323F480530A69134323F400532E
:102DC0004A69134323F480438A69134323F400437D
:102DD000134302685364002380F838301846704764
:102DE00002207047704770470268D36823F49073DD
:102DF000D3600268536923F001035361202380F8F4
:102E00003A30704790F83930DBB2212B2AD18368F1
:102E1000B3F5805F16D0036A5A1C02621A78036801
:102E20005A60C38C013B9BB2C384EBB90268D36880
:102E300023F08003D3600268D36843F04003D3607B
:102E400000207047036A1B880268C3F308035360BD
:102E500003691BB9036A02330362E2E7036A0133C1
:102E60000362DEE702207047002070472DE9F84337
:102E7000044601680A6922F44052C36813430B6197
:102E80000168CA6822F4164222F00C0283680069C5
:102E9000034360690343E06903431343CB60216844
:102EA0004A6922F44072A36913434B61E369B3F5A5
:102EB000004F60D02368B84A934200F0148102F5B5
:102EC0008062934200F00F81FEF752FC00EB80001D
:102ED00000EB80006568AD00B0FBF5F5AF4FA7FBD8
:102EE00005356D092E01FEF743FC00EB800000EB79
:102EF00080006568AD00B0FBF5F9FEF739FC00EB2A
:102F0000800000EB80006568AD00B0FBF5F5A7FB25
:102F100005356D094FF0640808FB15952D01323514
:102F2000A7FB05356D0905F0F0053544FEF720FCDB
:102F300000EB800000EB80006668B600B0FBF6F6A0
:102F4000FEF716FC00EB800000EB800063689B003E
:102F5000B0FBF3F0A7FB0030400908FB10684FEA14
:102F6000081808F13208A7FB0837C7F3431723688E
:102F70002F449F600DE12368874A93425BD002F59E
:102F80008062934257D0FEF7F3FB00EB800000EB2A
:102F9000800065686D00B0FBF5F5804FA7FB053537
:102FA0006D092E01FEF7E4FB00EB800000EB8000D2
:102FB00065686D00B0FBF5F9FEF7DAFB00EB800009
:102FC00000EB800065686D00B0FBF5F5A7FB0535EB
:102FD0006D094FF0640808FB1595ED003235A7FB2D
:102FE00005356D096D0005F4F8753544FEF7C0FB35
:102FF00000EB800000EB800066687600B0FBF6F620
:10300000FEF7B6FB00EB800000EB800063685B001E
:10301000B0FBF3F3A7FB03235B0908FB13684FEA3C
:10302000C80808F13208A7FB0837C7F3421723681E
:103030002F449F60ADE0FEF7ABFB00EB800000EBA0
:10304000800065686D00B0FBF5F5544FA7FB0535B2
:103050006D092E01FEF79CFB00EB800000EB800069
:1030600065686D00B0FBF5F9FEF792FB00EB8000A0
:1030700000EB800065686D00B0FBF5F5A7FB05353A
:103080006D094FF0640808FB1595ED003235A7FB7C
:1030900005356D096D0005F4F8753544FEF778FBCC
:1030A00000EB800000EB800066687600B0FBF6F66F
:1030B000FEF76EFB00EB800000EB800063685B00B6
:1030C000B0FBF3F3A7FB03235B0908FB13684FEA8C
:1030D000C80808F13208A7FB0837C7F3421723686E
:1030E0002F449F6055E0FEF753FB00EB800000EBA0
:1030F00080006568AD00B0FBF5F5284FA7FB0535EE
:103100006D092E01FEF744FB00EB800000EB800010
:103110006568AD00B0FBF5F9FEF73AFB00EB800007
:1031200000EB80006568AD00B0FBF5F5A7FB053549
:103130006D094FF0640808FB15952D013235A7FB8A
:1031400005356D0905F0F0053544FEF721FB00EB70
:10315000800000EB80006668B600B0FBF6F6FEF774
:1031600017FB00EB800000EB800063689B00B0FB66
:10317000F3F0A7FB0030400908FB10684FEA08187D
:1031800008F13208A7FB0837C7F3431723682F4419
:103190009F60BDE8F88300BF001001401F85EB5120
:1031A0002DE9F04105460F4616469846069C2B68C9
:1031B0001B6837EA03030CBF01230023B3421DD170
:1031C000B4F1FF3FF3D02CB1FDF78CFEA0EB08006B
:1031D000A042ECD92A68D36823F4D073D3602A685C
:1031E000536923F001035361202385F8393085F8B2
:1031F0003A30002385F83830032000E00020BDE895
:10320000F08158B310B5044690F839300BB324233D
:1032100084F839302268D36823F40053D360204601
:10322000FFF724FE2268136923F490431361226898
:10323000536923F02A0353612268D36843F400538F
:10324000D3600020E063202384F8393084F83A30DA
:1032500010BD80F8383001F027FDD8E70120704715
:103260002DE9F04182B01E4690F83930DBB2202BB8
:1032700055D104460D469046002955D0002A55D018
:1032800090F83830012B53D0012380F838300023D8
:10329000C363212380F83930FDF724FE0746A4F8E4
:1032A0002480A4F8268010E000963B46002280216E
:1032B0002046FFF775FF00283CD12B882268C3F316
:1032C000080353602369C3B90235E38C9BB2B3B1E1
:1032D000E38C013B9BB2E384A368B3F5805FE3D04A
:1032E00000963B46002280212046FFF759FF18BB7D
:1032F0002A7823685A600135E7E70135E5E700964B
:103300003B46002240212046FFF74AFF0346A8B96A
:10331000202284F83920002284F8382000E002239B
:10332000184602B0BDE8F0810123F9E70123F7E771
:103330000223F5E70323F3E70323F1E70323EFE792
:1033400090F83A30DBB2202B1BD1E1B1EAB190F812
:103350003830012B1BD081628285C2850023C36374
:10336000222280F83A2080F8383001684A6942F019
:1033700001024A610168CA6842F49072CA60184644
:1033800070470220704701207047012070470220DB
:103390007047704708B50168CB6823F04003CB60E5
:1033A000202380F83930FFF7F4FF002008BD08B56E
:1033B00090F83A30DBB2222B40D18368B3F5805FBE
:1033C0000ED0036903BB03685A68836A591C816283
:1033D0001A70C38D013B9BB2C385F3B100202EE070
:1033E000826A036943B903685B68C3F30803138007
:1033F000836A02338362ECE703685B68DBB21380A5
:10340000836A01338362E4E703685B68826A511C64
:10341000816203F07F031370DBE70268D36823F453
:103420009073D3600268536923F001035361202332
:1034300080F83A3000F002FA002000E0022008BDD7
:103440007047000010B5044602681368D1685269DD
:1034500013F00F0005D113F0200F02D011F0200F50
:1034600053D1002867D012F0010202D111F4907FED
:1034700061D013F0010F06D011F4807F03D0E06B10
:1034800040F00100E06313F0040F04D01AB1E06BC8
:1034900040F00200E06313F0020F04D01AB1E06BB9
:1034A00040F00400E06313F0080F04D01AB1E26B9F
:1034B00042F00802E263E26B002A48D013F0200FCA
:1034C00002D011F0200F24D123685B6903F0400380
:1034D000E26B12F0080F00D13BB32046FFF784FCEB
:1034E00023685A6912F0400F1BD05A6922F040023B
:1034F0005A61636B8BB11A4A1A65606BFDF701FF65
:1035000028B3606B036D984721E02046FFF74FFF1B
:103510001DE02046FFF74BFFD6E72046FFF790FF60
:1035200015E02046FFF78CFF11E02046FFF788FFEB
:103530000023E3630BE013F0800F02D011F0800F43
:1035400006D113F0400F02D011F0400F04D110BD8E
:103550002046FFF757FCFAE72046FFF71BFFF6E788
:103560006535000808B5806B0023C385C384FFF769
:1035700067FF08BD10B5054C00212046FFF78CFB06
:1035800004212046FFF788FB10BD00BF2005002066
:1035900008B501F0FBFC012800D008BD00F090FA4E
:1035A00000F036FB002001F027FDF6E708B5114BCF
:1035B0001B78012B0DD0104B1B68586300F0BCFA30
:1035C0000E4B1B6858630E4B1B6840F2DC525A636B
:1035D00008BD094B1B6840F2A4625A63074B1B6885
:1035E00040F23A725A63064B1B6840F2DC525A634F
:1035F000EEE700BF38020020A4050020D806002016
:10360000A804002010B5B0F5037F04DC10F5037F9B
:1036100003DC0E4801E04FF4037080B200F20D238A
:103620009BB2C0F50370013080B2094A126853633F
:10363000D063084C012211462046FDF753FF0122BA
:1036400008212046FDF74EFF10BD00BFF5FDFFFF2E
:10365000E00500200008024010B52DED028B01F0BE
:103660007DFC012802D0BDEC028B10BD144B5B68C1
:103670009F2B15D900F064FA044600F067FA014662
:103680002046FFF793FF00F00BFBBDEEC00A10EEE3
:10369000103A18B2FFF7B6FF002001F095FCE2E700
:1036A0009FED088AB0EE480A00F006FBB0EE480A2B
:1036B00000F008FBB0EE480A00F0F8FADAE700BFC5
:1036C000380200200000000008B5012000F04AFA8E
:1036D000002000F041FA00F023FA00F009FA00F0AF
:1036E00025FA00F00BFA00F0D5FA00F0C7FA08BD91
:1036F00008B5002000F036FA012000F02DFA00F0A5
:1037000003FA00F0F5F900F005FA00F0F7F900F01F
:10371000BBFA00F0B3FA08BD037E012B00D070475E
:1037200010B504460021FEF76FFF074B98609B68B9
:103730001BB9054B96225A6010BD04212046FEF7A6
:1037400063FF014B5860F7E73802002000000000DB
:1037500030B59DB001F0F0FB012801D01DB030BDA7
:1037600001F022FE01F0FCFD01F018FE01F0FEFD6B
:10377000FCF7A0FE18A3D3E90023FCF705FFFDF733
:1037800015F9044601F0F8FDFCF794FE12A3D3E905
:103790000023FCF7F9FEFDF709F9054601F00AFEE2
:1037A000009523460A4A642103A802F0E9FC03A815
:1037B000FDF7F4FA4FF0FF3382B203A90548FFF793
:1037C0004FFD002001F0EEFBC8E700BFAFF3008023
:1037D000F473000898060020FCA9F1D24D62503F16
:1037E00008B5012202490348FFF7AAFD08BD00BF42
:1037F000740300201C06002008B50C4B1B780C4AF3
:1038000012780C49CA540AB9084A53703F2B08D0A1
:103810000133064A1370012205490748FFF790FD5E
:1038200008BD024B00221A70F5E700BF44020020D9
:1038300074030020340300201C06002008B5FFF7A5
:10384000DBFF08BD00B583B001F08EFB012818D066
:1038500003B05DF804FB124B00229A704B1C104A17
:1038600092781048805C104A5054D9B20C4A937830
:103870005078834207D03F2BEDD00133084A937034
:10388000ECE70021F2E79070084B191D009103321C
:103890000749054802F0A8FC002001F09BFBD7E790
:1038A0004402002034030020F4020020080000201D
:1038B000B0730008014BD878704700BF4402002065
:1038C000014B1868704700BF08000020014B586882
:1038D000704700BF0800002008B500210548FFF729
:1038E000BFF900210448FFF7BBF900210348FFF7A7
:1038F000B7F908BDA8040020A4050020D8060020C0
:10390000B0F5C84F01D343F2FF10A0F547503F3840
:103910007047000007EE901AF8EEE77A0A4B93ED35
:10392000007A27EE877A06EE900AF8EEE66A77EEDE
:10393000E67AD3ED016A67EEA67A77EE277AFDEE96
:10394000E77A17EE900A70471000002010B440F696
:10395000872202FB00F23B4C84FB0234D317C3EBFB
:10396000643303F2DC531BB240F28242934213DD14
:1039700040F23572934212DC334A1380334A127894
:10398000012A0FD0324A1278012A33D0314A1180ED
:1039900018465DF8044B704740F28343ECE740F271
:1039A0003573E9E707EE900AF8EEE77A2A4A92EDD6
:1039B000027A67EE877A9FED297A67EE877ADFEDE4
:1039C000286A87EEA67ADFED277A77EE277AFDEE72
:1039D000E77A17EE902A11B240F24B42914206DD8F
:1039E00040F26C729142CDDD40F26C71CAE740F258
:1039F0004C41C7E707EE900AF8EEE77A164A92EDD7
:103A0000037A67EE877A9FED187A67EE877ADFEDA3
:103A1000146A87EEA67ADFED137A77EEC77AFDEEA9
:103A2000E77A17EE902A11B240F24B42914206DD3E
:103A300040F26C729142A9DD40F26C71A6E740F24F
:103A40004C41A3E789B5F814760300207A030020DF
:103A50007B03002078030020100000200050434525
:103A60000050C3470080BB440028F44638B5FFF738
:103A700021FF022806D0FFF723FF104B58610F4BA0
:103A8000586938BD0D4C2569FFF71AFF2D1A002D16
:103A9000B8BF6D422469FFF719FF201A0028B8BF8C
:103AA0004042854204DAFFF70BFF044B5861E6E71A
:103AB000FFF70CFF014B5861E1E700BF1000002049
:103AC00038B5FFF7D3FFFFF71BFF0546064C206014
:103AD000064B5A691A6101466068FFF71BFFA06038
:103AE0006560FFF733FF38BD48020020100000205A
:103AF000014B83ED000A704710000020014B83ED5D
:103B0000010A704710000020014B93ED060A704730
:103B100010000020014B93ED070A704710000020B1
:103B2000014B93ED080A704710000020014B93ED04
:103B3000090A70471000002040F2DC507047000076
:103B4000014BB3F90000704776030020014BB3F935
:103B50000000704778030020014B1870704700BFC9
:103B60007A030020014B1870704700BF7B030020D0
:103B700010B5054C00212046FFF772F808212046B9
:103B8000FFF76EF810BD00BFE0050020DFED027A00
:103B900020EE270A704700BF00002F44164B93ED1C
:103BA000007ADFED167A27EE277AD3ED017ADFED82
:103BB000146A67EEA67A37EE277AF1EE007A20EEE5
:103BC000270A37EE000ADFED0F7AB4EEE70AF1EECE
:103BD00010FA01DDB0EE670ADFED0B7AB4EEE70A0A
:103BE000F1EE10FA05D4044B83ED010A83ED007A5F
:103BF0007047B0EE670AF6E75402002048E17A3FCA
:103C000000D7A33C00409C4500409CC5000000003C
:103C100010B52DED028B184C94ED020AFFF7B6FF9C
:103C2000B0EE408A01F0B4FB07EE900AB8EEE70A66
:103C300038EE400A84ED030AFFF7B0FF10EE100AD9
:103C4000FCF74AFC08A3D3E90023FCF79DFC08A37A
:103C5000D3E90023FCF7E2FAFCF7D0FE2061BDECCB
:103C6000028B10BDAFF300807B14AE47E17AA43F16
:103C70009A9999999919614054020020014B83ED5A
:103C8000020A704754020020014B93ED000A70476E
:103C900038000020014B93ED010A704738000020E6
:103CA000014B93ED040A704754020020014B83ED51
:103CB000010A704754020020014B83ED040A70474B
:103CC00054020020014B83ED000A7047540200208B
:103CD00008B501F037F9012800D008BDFFF7EAFD6B
:103CE00018B90D4A136801331360FFF7E3FD01288B
:103CF00007D0FFF7DFFD032808D0002001F058F9B6
:103D0000EBE7054A536801335360F2E7024A9368D0
:103D100001339360F1E700BF7402002008B5FFF79C
:103D2000C9FD032805D0FFF7C5FD01280DD00020EF
:103D300008BD0D4B1B7B002BF5D101F023FB0B4B7A
:103D40001860094B01221A73EDE7084B1B680BB989
:103D50000020EDE701F016FB044A1368C01A024B7D
:103D6000186100231360E3E7740200207C03002045
:103D700008B5FFF79FFD012805D0FFF79BFD03283D
:103D80000DD0002008BD0D4B1B7B012BF5D101F0A0
:103D9000F9FA0B4B1860094B00221A73EDE7084B38
:103DA0001B680BB90020EDE701F0ECFA044A136838
:103DB000C01A024B186100231360E3E7740200206D
:103DC0007C030020014B5868704700BF740200203C
:103DD000014B9868704700BF74020020014B586087
:103DE000704700BF74020020014B9860704700BF0D
:103DF00074020020014B1869704700BF7402002054
:103E0000014B1861704700BF74020020014B186815
:103E1000704700BF7C030020014B1860704700BF53
:103E20007C0300202DE9F0418AB0002401943B4B33
:103E30001A6B42F004021A631A6B02F00402019238
:103E4000019A02941A6B42F080021A631A6B02F014
:103E500080020292029A03941A6B42F001021A63E2
:103E60001A6B02F001020392039A04941A6B42F057
:103E700002021A631B6B03F002030493049B284D98
:103E8000224640F209112846FDF72CFBDFF89C8002
:103E900022464FF481514046FDF724FB214F224634
:103EA0004FF450413846FDF71DFB4FF40053059386
:103EB0001D4B0693079405A92846FDF735FA40F2F5
:103EC00009130593012606960794089405A9284628
:103ED000FDF72AFA4FF48153059306960794089448
:103EE00005A94046FDF720FA4FF450430593069686
:103EF0000794089405A93846FDF716FA8023059320
:103F0000022306930794032308930823099305A922
:103F10002846FDF709FA0AB0BDE8F08100380240F2
:103F2000000802400004024000002110000002408E
:103F3000FEE7000000B585B01548164B036000236E
:103F400043608360036183610362C362124A8262D9
:103F5000C3600122C26103634261FDF761F868B981
:103F60000423009301230193002302936946084828
:103F7000FDF780F838B905B05DF804FB40F20B118D
:103F80000648FFF7D5FF40F215110448FFF7D0FFB0
:103F90005C050020002001400100000FFC730008B8
:103FA00008B50C480C4B03600C4B43600023836046
:103FB000C3604FF48042026143618361C361036265
:103FC000FDF796FA00B908BD40F229110448FFF741
:103FD000AFFF00BF5404002000540040A086010041
:103FE000FC73000800B595B03B483C4B03600123CF
:103FF00043602023836040F21943C36000230361C0
:104000004361FEF747FC002842D114A94FF48053C6
:1040100041F8103D3048FEF753FA00283DD12E48B4
:10402000FEF751FC00283DD100230E930F930EA9FB
:104030002948FEF782FE002839D16023079340F219
:104040000D230893002209920A920B920C920D9272
:1040500007A92148FEF786FD70BB082207A91E4864
:10406000FEF780FD68BB0023009301930293039346
:1040700004934FF400520592069369461648FEF7E2
:1040800085FE18BB144800F0B7FD15B05DF804FBC1
:1040900040F257111248FFF74BFF40F25D111048F4
:1040A000FFF746FF4FF4B1710D48FFF741FF40F2B3
:1040B00069110B48FFF73CFF40F275110848FFF704
:1040C00037FF4FF4BD710648FFF732FF4FF4C3715D
:1040D0000348FFF72DFF00BFE0050020000001406E
:1040E000FC73000800B58DB017484FF080430360A3
:1040F0000023436083604FF0FF32C26003610322FC
:104100000392049301220592069307930893099260
:104110000A930B9303A9FEF708FC50B900230193FF
:10412000029301A90848FEF708FE38B90DB05DF802
:1041300004FB4FF4D2710548FFF7FAFE40F2AB11D1
:104140000248FFF7F5FE00BF5C060020FC73000884
:1041500000B58DB03748384B036040F247334360B9
:10416000002383604FF6FF72C2600361FEF792FB8B
:1041700000283CD12F48FEF7BFFB00283CD1042388
:10418000079350230893002309930B9307A9294809
:10419000FEF71AFA002834D100230593069305A9E7
:1041A0002448FEF7CAFD002830D1002201920123E5
:1041B00002930392049201A91E48FEF741FC50BBF2
:1041C00002230193029304220DEB02011948FEF72A
:1041D00037FC28BB0023019301230293082201A985
:1041E0001448FEF72DFC00BB0DB05DF804FB40F257
:1041F000BF111248FFF79CFE4FF4E2710F48FFF722
:1042000097FE40F2CD110D48FFF792FE4FF4EA7190
:104210000A48FFF78DFE40F2DD110848FFF788FEDF
:104220004FF4F2710548FFF783FE40F2EB110348AB
:10423000FFF77EFE2005002000040040FC7300080C
:1042400008B50B480B4B03604FF4E1334360002388
:104250008360C3600361042242618361C361FEF72E
:10426000D0FF00B908BD4FF429710348FFF760FE85
:104270001C060020004C0040FC73000808B50B48E9
:104280000B4B03604FF4E133436000238360C36052
:104290000361082242618361C361FEF7B2FF00B986
:1042A00008BD40F2B7210348FFF742FE9806002000
:1042B00000440040FC73000808B50B480B4B03603A
:1042C0004FF41653436000238360C36003610822E8
:1042D00042618361C361FEF794FF00B908BD40F2FB
:1042E000CA210348FFF724FE1404002000480040C0
:1042F000FC73000800B589B019481A4B03605323BA
:1043000043600023836040F69F72C2600361FEF742
:10431000C1FAB0B91248FEF7D6FAB8B960230193D2
:1043200040F2DC53029300220392059201A90C484B
:10433000FEF718FC78B90A4800F05EFC09B05DF899
:1043400004FB40F25F210848FFF7F2FD4FF41971BA
:104350000548FFF7EDFD40F26D210348FFF7E8FD4A
:10436000A4050020001C0040FC73000800B587B0C5
:104370001848194B0360532343600023836040F2C5
:10438000E732C2600361FEF785FA98B906A94FF4D7
:10439000805341F8103D0F48FEF792F878B900239A
:1043A0000093019369460B48FEF7C7FC60B907B05C
:1043B0005DF804FB4FF4FF710848FFF7B9FD4FF4B7
:1043C00001710648FFF7B4FD40F20B210348FFF7E7
:1043D000AFFD00BFD803002000080040FC730008B8
:1043E00000B589B019481A4B03605323436000237A
:1043F000836043F67F62C2600361FEF74BFAB0B997
:104400001248FEF760FAB8B96023019340F2DC531A
:10441000029300220392059201A90C48FEF7A2FB29
:1044200078B90A4800F0E8FB09B05DF804FB40F2F7
:1044300081210848FFF77CFD40F286210548FFF7FF
:1044400077FD40F28F210348FFF772FDD806002068
:1044500000200040FC73000808B50F480F4B0360B4
:104460004FF48273436000238360C3600361436140
:104470004FF4007282612822C26103624362836248
:104480000A23C362FDF797FC00B908BD40F2411151
:104490000348FFF74DFD00BF8003002000380040B7
:1044A000FC73000800B587B01848194B036053230C
:1044B00043600023836041F28732C2600361FEF7EC
:1044C000E9F998B906A94FF4805341F8103D0F4817
:1044D000FDF7F6FF78B900230093019369460B4876
:1044E000FEF72BFC60B907B05DF804FB40F21E211B
:1044F0000848FFF71DFD4FF409710648FFF718FD46
:1045000040F22B210348FFF713FD00BFE404002015
:10451000000C0040FC73000800B589B019481A4B24
:104520000360532343600023836040F69F72C260A0
:104530000361FEF7AFF9B0B91248FEF7C4F9B8B994
:104540006023019340F2DC53029300220392059210
:1045500001A90C48FEF706FB78B90A4800F04CFBAD
:1045600009B05DF804FB40F23D210848FFF7E0FC8C
:1045700040F242210548FFF7DBFC40F24B210348A3
:10458000FFF7D6FCA804002000440140FC7300089B
:1045900000B595B000220092294B196C41F0805172
:1045A00019641B6C03F080530093009B0192254B10
:1045B000196841F4404119601B6803F440430193BA
:1045C000019B0223079301210A9110210B910D9366
:1045D0000E9208220F92A822109211931293139315
:1045E00007A8FDF7A7F910BB0F230293022303933B
:1045F000002304934FF4A05305930693052102A8CA
:10460000FDF704F8B8B9FDF7ADF80F4BA3FB003088
:104610008009FCF74BFE0420FCF75EFE00221146E9
:104620004FF0FF30FCF702FE15B05DF804FBD82117
:104630000648FFF77DFCE6210448FFF779FC00BF40
:104640000038024000700040D34D6210FC73000837
:1046500008B5FCF721FCFFF79BFFFFF7E3FBFFF733
:1046600069FCFFF79DFCFFF7BDFCFFF73BFDFFF783
:104670006FFDFFF7E5FDFFF701FEFFF71DFEFFF7FA
:1046800039FEFFF773FEFFF7ABFEFFF7E5FEFFF71E
:1046900009FFFFF741FFFFF7A3F800F0EBFCFFF77E
:1046A00067FAFFF719F900F0E1FBFEF763FFFFF788
:1046B000C9F800F017FEFFF70BFB00F007F8FEF754
:1046C00067FFFEF7C9FFFFF743F8F0E710B500F00A
:1046D0003FFC012800D010BD5A4B1B7B072B00F27A
:1046E000AA80DFE803F0041D3949556E808CFEF77F
:1046F000FFFFFFF713FBFFF77DFB41F28833984282
:1047000040F29C80FFF776FB44F24F63984200F240
:1047100095804C4B01221A730020FFF771FB8DE04E
:10472000FFF726FBFFF766FB41F28833984240F221
:104730008580FFF75FFB44F61F6398427ED8414BAC
:1047400002221A7300F01EFEFFF766FB0020FFF73F
:1047500057FBFEF7B9FF71E000F014FE0446FFF7C7
:1047600055FB201A384B984268DD0020FFF73CFBD0
:10477000344B03221A7361E0FFF79CF803285DD1E4
:1047800000F000FEFFF748FB2E4B04221A7355E0A1
:1047900000F0F8FD0446FFF739FB201A4AF21043F7
:1047A00098424BDDFFF714FB052803D9254B052262
:1047B0001A7343E00020FFF717FB224B03221A7302
:1047C0003CE000F0DFFD0446FFF720FB201A1E4B03
:1047D000984233DDFEF78CFF0020FFF7FFFA194BFC
:1047E00006221A732AE0FFF765F8012826D100F0A7
:1047F000C9FDFFF711FB134B07221A731EE000F0EF
:10480000C1FD0446FFF702FB201A46F660539842AA
:1048100014DDFFF7D7FA032806D90020FFF7F0FAD6
:10482000084B00221A7309E00020FFF7D7FA054B66
:1048300006221A7302E0034B00221A73002000F0D4
:10484000BDFB48E78C020020C045040010B582B0D3
:1048500000240094214B5A6C42F480425A645A6CF2
:1048600002F480420092009A01941A6C42F0805245
:104870001A641B6C03F080530193019B0320FCF727
:10488000C3FC224621466FF00B00FCF7CFFC22460A
:1048900021466FF00A00FCF7C9FC224621466FF062
:1048A0000900FCF7C3FC224621466FF00400FCF728
:1048B000BDFC224621466FF00300FCF7B7FC224600
:1048C00021466FF00100FCF7B1FC224621464FF073
:1048D000FF30FCF7ABFC02B010BD00BF0038024057
:1048E0000268134B9A4200D0704730B587B000245D
:1048F000009403F58C335A6C42F480725A645B6CFA
:1049000003F480730093009B102301930325029509
:10491000039401A90748FCF707FD30230193029592
:10492000039401A90448FCF7FFFC07B030BD00BFA9
:104930000020014000000240000802400268124BC3
:104940009A4200D0704700B587B0C023019312236C
:1049500002930123039303230493042305930DEB94
:1049600003010A48FCF7E0FC00230093084B1A6C93
:1049700042F400121A641B6C03F400130093009BB2
:1049800007B05DF804FB00BF005400400004024083
:104990000038024002681E4B9A4200D070472DE951
:1049A000F04186B00024009403F500331A6C42F401
:1049B00080421A641B6C03F480430093009B022521
:1049C0000195029503940326049607230593DFF8C7
:1049D000488001A94046FCF7A7FC042301930295F7
:1049E00003940496052705970DEB03014046FCF759
:1049F0009BFC4FF400530193029503940496059792
:104A000001A90448FCF790FC06B0BDE8F08100BFA6
:104A100000380040000402400008024070B58CB02D
:104A200003684E4A93421ED04D4A934229D04D4AC4
:104A3000934250D04C4A934261D04C4A934272D038
:104A40004B4A93427CD04B4A934218D100230693A1
:104A5000494B1A6C42F480721A641B6C03F4807325
:104A60000693069B0BE000230093434B5A6C42F0E5
:104A700001025A645B6C03F001030093009B0CB0CD
:104A800070BD002401943C4B1A6C42F002021A647F
:104A90001B6C03F002030193019B0126079602257C
:104AA000089509940A940B9507A93448FCF73CFC37
:104AB00040230793089509940A940B9507A9304859
:104AC000FCF732FC224631461D20FCF7AFFB1D20CF
:104AD000FCF7E0FBD3E700220292274B196C41F070
:104AE000040119641B6C03F004030293029B01216F
:104AF0001E20FCF79BFB1E20FCF7CCFBBFE7002130
:104B000003911D4B1A6C42F008021A641B6C03F0EF
:104B100008030393039B0A463220FCF787FB3220ED
:104B2000FCF7B8FBABE700230493134B5A6C42F439
:104B300000325A645B6C03F400330493049B9EE7D9
:104B4000002305930C4B1A6C42F080021A641B6C14
:104B500003F080030593059B91E700BF000001402F
:104B60000004004000080040000C004000440140E8
:104B7000001C0040002000400038024000040240B9
:104B8000000802400368B3F1804F00D0704770B551
:104B900086B00024009403F50E331A6C42F0010233
:104BA0001A641B6C03F001030093009B4FF4004355
:104BB000019302260296039404940125059501A908
:104BC0000B48FCF7B1FB4FF400730193029603947A
:104BD0000494059501A90748FCF7A6FB224629463F
:104BE0001C20FCF723FB1C20FCF754FB06B070BD17
:104BF000000002400004024000B587B00368244A68
:104C000093420BD0234A934217D0234A934223D096
:104C1000224A93422ED007B05DF804FB4FF4A06304
:104C2000019302230293002303930493012305932A
:104C300001A91B48FCF778FBEDE74FF48073019363
:104C4000022302930023039304930323059301A9F2
:104C50001448FCF769FBDEE740230193022302932B
:104C60000023039304930923059301A90C48FCF73F
:104C70005BFBD0E78023019302230293002303937D
:104C800004930923059301A90548FCF74DFBC2E7EE
:104C90000000014000440140001C00400020004092
:104CA000000002400004024030B589B00368364A73
:104CB000934207D0354A934226D0354A934246D094
:104CC00009B030BD00250095324B1A6C42F4002229
:104CD0001A641B6C03F400230093009B03230393CB
:104CE000022204920124059406930823079303A942
:104CF0002948FCF719FB2A4621463420FCF796FA8E
:104D00003420FCF7C7FADBE700250195214B1A6C2C
:104D100042F400321A641B6C03F400330193019BCC
:104D20000C23039302230493012405940323069385
:104D30000723079303A91848FCF7F6FA2A462146E9
:104D40002620FCF773FA2620FCF7A4FAB8E7002324
:104D50000293104B1A6C42F480221A641B6C03F409
:104D600080230293029B4FF4406303930223049336
:104D700001230593032306930723079303A90748F9
:104D8000FCF7D2FA9CE700BF004C00400044004012
:104D90000048004000380240000002400008024085
:104DA0007047FEE7FEE7FEE7FEE770477047704793
:104DB00008B5FCF78BF8FCF7A0FA08BD08B5024867
:104DC000FDF74BFC08BD00BF5C06002008B502489B
:104DD000FDF743FC08BD00BF2005002008B50248D0
:104DE000FDF73BFC08BD00BFD803002008B5024812
:104DF000FEF728FB08BD00BF9806002008B500F0AC
:104E0000A3FA0248FDF729FC08BD00BFE404002016
:104E100008B50248FEF716FB08BD00BF1C060020BF
:104E20000F49D1F8883043F47003C1F888300D4B36
:104E30001A6842F001021A60002098601A6822F095
:104E4000847222F480321A60074A5A601A6822F487
:104E500080221A60D8604FF000638B60704700BFFB
:104E600000ED00E0003802401030002408B503488F
:104E7000FDF718FB0248FDF715FB08BDD80300201D
:104E8000E40400200B8801339BB20B80834200D0E6
:104E900070470123137000230B80F9E70268244B4D
:104EA0009A4200D0704710B5224C2246A11C052022
:104EB000FFF7E8FF221DA11D0520FFF7E3FF04F126
:104EC000080204F10A010520FFF7DCFF04F10C02DF
:104ED00004F10E010520FFF7D5FF04F1100204F1E3
:104EE00012010520FFF7CEFF04F1140204F11601B0
:104EF0000520FFF7C7FF04F1180204F11A0105208D
:104F0000FFF7C0FF04F11C0204F11E010520FFF7AA
:104F1000B9FF04F1200204F122010520FFF7B2FFDE
:104F200004F1240204F126010520FFF7ABFF10BDB8
:104F3000000800409A020020014B1879704700BF1A
:104F40009A020020014B187A704700BF9A02002095
:104F5000014B187B704700BF9A020020014B187C60
:104F6000704700BF9A020020014B187D704700BFB8
:104F70009A020020014B187E704700BF9A02002061
:104F8000014B187F704700BF9A020020014B93F835
:104F9000200070479A020020014B93F824007047CC
:104FA0009A020020014B1871704700BF9A0200203E
:104FB000014B1872704700BF9A020020014B187312
:104FC000704700BF9A020020014B1874704700BF61
:104FD0009A020020014B1875704700BF9A0200200A
:104FE000014B1876704700BF9A020020014B1877DA
:104FF000704700BF9A020020014B83F820007047E1
:105000009A020020014B83F8240070479A02002086
:1050100038B5144C00224FF480512046FCF762FA58
:10502000114D4FF0FF33022210492846FCF703FFD1
:1050300001224FF480512046FCF754FA00224FF42D
:1050400080512046FCF74EFA4FF0FF330222084908
:105050002846FCF7F0FE01224FF480512046FCF771
:1050600041FA38BD000402408003002018070020E8
:105070002407002008B518210D48FDF73CFE0D4A15
:10508000A62313700023537093700B4AA021117054
:1050900053709370094B11221A7050225A70084BAA
:1050A00013221A7010225A70FFF7B2FF08BD00BF1A
:1050B0005C060020140700202007002018070020AD
:1050C0002407002030B583B0FFF75AFF012801D034
:1050D00003B030BD1C4D00224FF480512846FCF730
:1050E00001FA1A4C4FF0FF3300930323224618496C
:1050F0001848FCF773FF01224FF480512846FCF753
:10510000F1F9A278120212B26378134307EE903AD3
:10511000F8EEE77A9FED107A67EE877A0F4BC3EDD2
:10512000007A9FED0F7A67EE877A0E4B93ED007A47
:1051300077EE877AC3ED007A0B4A13880133138028
:105140000020FFF753FFC3E7000402401C070020C4
:10515000140700208003002050CD09412C070020B7
:1051600017B7513928070020C402002030B583B09A
:10517000FFF700FF012801D003B030BD1D4D002214
:105180004FF480512846FCF7ADF91B4C4FF0FF332C
:1051900000930323224619491948FCF71FFF0122F7
:1051A0004FF480512846FCF79DF9A278120212B202
:1051B0006378134307EE903AF8EEE77A9FED117AA1
:1051C00067EE877A104B93ED007A77EEC77ADFEDC2
:1051D0000F6A87EEA67A0E4B83ED007A0D4BD3ED66
:1051E000017A37EE277A83ED017A0020FFF7F8FE87
:1051F000C2E700BF000402401C0700201407002083
:105200008003002050CD094128070020005043486A
:105210002C070020C402002008B52DED028B07EEFC
:10522000900AB8EEE78ADFED077A28EE278ADFEDED
:10523000067A20EE270A00F0EDF828EE000ABDEC11
:10524000028B08BD6EDB363F35FA8E3C08B52DED7E
:10525000028B07EE900AB8EEE78ADFED077A28EEB8
:10526000278ADFED067A20EE270A00F01BF928EEE8
:10527000000ABDEC028B08BD6EDB363F35FA8E3C72
:1052800038B52DED028BFFF787FE012802D0BDEC6B
:10529000028B38BD124CE56894ED018AB0EE480AE5
:1052A0002846FFF7B9FFD4ED047AF8EEE77A37EE37
:1052B000800ABDEEC00A84ED040AB0EE480A284612
:1052C000FFF7C4FFD4ED057AF8EEE77A37EE800AEF
:1052D000BDEEC00A84ED050A0020FFF793FED6E775
:1052E000C402002008B5154B1A88154B1B889A423A
:1052F00019D200224FF480511248FCF7F3F80F4BFB
:105300001B88B3F5966F0BD8FFF73AFE012814D12E
:105310000A4A1388013313800020FFF767FE0CE070
:10532000FFF7D0FE09E001224FF480510548FCF759
:10533000D9F8FFF71BFFFFF7A3FF08BDC402002049
:105340004800002000000240044B9969D9614FF0E9
:105350008042526A9A61521ADA607047C402002091
:10536000014B93ED000A70472C070020014B186990
:10537000704700BFC4020020014B5869704700BF4E
:10538000C4020020014B9869704700BFC40200208E
:10539000014BD868704700BFC4020020014B93ED59
:1053A000000A704728070020014B93ED010A70475F
:1053B000C4020020014B93ED020A7047C402002092
:1053C000DFF834D0002103E00C4B5B58435004312C
:1053D0000B480C4B42189A42F6D30B4A02E00023CA
:1053E00042F8043B094B9A42F9D3FFF719FD00F04C
:1053F000A3FEFFF72DF9704700000220A8790008EE
:10540000000000201C0200201C02002038070020A1
:10541000FEE7000000B510EE103A204A23F00043EA
:10542000934283B019DDB3F1FF4F04DB30EE400A45
:1054300003B05DF804FB684600F07EF800F003005E
:10544000012811D002281FD0B8B10120DDED010ADA
:105450009DED000A00F066FDEAE7DFED110A00F0BD
:10546000B7F903B05DF804FBDDED010A9DED000A1C
:1054700000F058FDB1EE400ADAE7DDED010A9DEDDE
:10548000000A00F0A5F9D3E7DDED010A9DED000A61
:1054900000F09EF9B1EE400ACAE700BFD80F493FBD
:1054A0000000000000B510EE103A214A23F000433E
:1054B000934283B01ADDB3F1FF4F04DB30EE400AB4
:1054C00003B05DF804FB684600F036F800F0030016
:1054D000012813D0022820D0B8B1DDED010A9DEDDE
:1054E000000A00F075F9B1EE400AE9E70020DFEDAF
:1054F000110A00F017FD03B05DF804FBDDED010AB1
:105500009DED000A00F064F9DAE70120DDED010A03
:105510009DED000A00F006FDD2E70120DDED010A55
:105520009DED000A00F0FEFCB1EE400AC8E700BFA6
:10553000D80F493F0000000070B510EE103A964AAF
:1055400023F00044944286B0054669DD934A9442B4
:1055500010EE106A1ADC002B24F00F04DFED907AB5
:10556000904A64DD944270EE677A00F0CF809FED40
:105570008E7A77EEC76A012077EEE67AC5ED006A8B
:1055800077EEC77AC5ED017A06B070BD874A9442BE
:1055900061DDB4F1FF4F80F2B180E215863AA4EBF1
:1055A000C25307EE903ABDEEE77ADFED816AB8EEBE
:1055B000C77A77EEC77A8DED037A67EEA67ABDEEED
:1055C000E77AB8EEC77A77EEC77A8DED047A67EEA0
:1055D000A67AF5EE407AF1EE10FACDED057A40F0BC
:1055E000C780B5EE407AF1EE10FA0CBF012302231A
:1055F000704901910221009103A8294600F06AF93F
:10560000002E12DA95ED007AD5ED017AB1EE477AE7
:10561000F1EE677A404285ED007AC5ED017A04E04B
:10562000002285ED000A4260002006B070BD944261
:1056300070EE277A00F089809FED5B7A77EE876ABB
:105640004FF0FF3077EEE67AC5ED006A77EE877AA5
:10565000C5ED017AE9E700F0ADFCDFED576ADFED5B
:10566000505A9FED517AF6EE007AE0EE267AFDEE82
:10567000E77A17EE900AF8EEE76A1F28B1EE666A3D
:10568000A6EE250A66EE877A52DD30EE677A17EECF
:10569000103AE415C3F3C753E31A082B52DDDFEDCC
:1056A000477A9FED477AF0EE405AE6EE275A30EE01
:1056B000650AA6EE270AF0EE407AD6EE877A35EE36
:1056C000E77A17EE103AC3F3C753E41A192C51DCEA
:1056D00085ED007AB0EE650A30EE470A002E30EE16
:1056E000670A85ED010AA0DAB1EE477AB1EE400A09
:1056F00085ED007A85ED010A404296E770EE407A2A
:105700000020C5ED017AC5ED007A8EE7DFED2B6A4A
:105710009FED2B7A77EEE67A012077EEC76A77EE77
:10572000E67AC5ED006A77EEC77AC5ED017A7CE7C7
:10573000421E244B53F8223024F0FF029A4230EEEE
:10574000677AA4D085ED007AC6E7DFED1C6A9FED8D
:105750001C7A77EEA67A4FF0FF3077EE876A77EE05
:10576000E67AC5ED006A77EE877AC5ED017A5CE7E7
:1057700003233DE79FED147A9FED145AB0EE650ABE
:10578000A6EE070A75EEC07AE6EE077AD6EE857ABF
:1057900030EE677AD6E700BFD80F493FE3CB16401B
:1057A000800FC93FD00FC93F43443537800F49436D
:1057B000000080438C74000884F9223F0044353790
:1057C00008A3852E0C74000800A3852E32318D2489
:1057D00010EE103A23F00043B3F1485F2CDAFDEEEF
:1057E000C07A17EE903A002B5BD020EE007ADFED06
:1057F000314A9FED315ADFED315A9FED316ADFEDCD
:10580000317ADFED316AA7EE245AE7EE055AA7EEAA
:10581000256AE7EE067AE7EE276A66EE876A60EEAB
:10582000C00AB6EE006AE7EE260AF7EE007AD7EE77
:10583000060A37EEE00A704720EE007ADFED1D4AD7
:105840009FED1D5ADFED1D5A9FED1D6ADFED1D7A9C
:10585000DFED1D6A1D4AA7EE245A9342E5EE075A72
:10586000A5EE876AE6EE077AE7EE876A66EE876A54
:10587000D5DD174A934217DC03F17F4307EE903AD8
:10588000B7EE006A36EE676A60EEC00AF6EE005ABE
:10589000E7EE260AD7EE257A77EEE07A36EE670A4B
:1058A0007047B7EE000A7047B6EE076AF5EE027A67
:1058B000EAE700BF4ED747ADF6740F317CF293B4E0
:1058C000010DD037610BB6BAABAA2A3D9999993E22
:1058D0000000483F2DE9F04F2DED048BD7B003F1C8
:1058E000FF390293D31E48BF131DB24C649D05912E
:1058F000DB1023EAE37354F82560039303F10108F6
:10590000A2EBC80816EB09028646A3EB090316D4DE
:105910001A449FEDA97A6598511C1AAA002BA4BFBE
:1059200050F8234007EE904A03F10103ACBFF8EEB4
:10593000E77AF0EE477A8B42E2EC017AEED1029BF5
:10594000002E4FEA83044FEA860A1DDB1AAB1819B2
:1059500043AA7346191902EB0A0742ADF446B9F19E
:10596000000FDFED957A09DB02466346F3EC016A2E
:1059700032ED017A8B42E6EE877AF7D1E5EC017AD7
:10598000BD4200F10400EAD1AAF1080306ADEB180C
:1059900004939FED8B9ADFED898A009605ABB346A1
:1059A00074449A4442AF76464FEA8B0156AB0B449F
:1059B000BBF1000F13ED140A16DD07EB8B032A462B
:1059C00060EE097AB0EE407AFDEEE77A73ED016A97
:1059D000F8EEE77ABB42A7EEE87A37EEA60ABDEE0C
:1059E000C77AA2EC017AEBD14046019100F030FB7E
:1059F000B0EE408AB4EE000A28EE000A00F0E2FAA7
:105A0000F2EE007AA0EE678AB8F1000F0199FDEE80
:105A1000C89AF8EEE97A38EE678A40F3C4800BF151
:105A2000FF3CC8F1080355F82C2042FA03F000FAB5
:105A300003F3D31A45F82C3019EE90CA8444C8F108
:105A4000070209EE90CA43FA02F2002A31DD19EE8C
:105A5000903ABBF1000F03F1010309EE903A40F3D5
:105A600029822868002840F08680BBF1010F0BD006
:105A7000AE464FF0010C5EF8040F0CF10103002854
:105A80007CD19B459C46F6D1B8F1000F0EDDB8F1F4
:105A9000010F00F03281B8F1020F07D10BF1FF3195
:105AA00055F8213003F03F0345F82130022A00F079
:105AB0001281B5EE408AF1EE10FA40F09580009B1D
:105AC0000BF1FF3C63450EDC0BF18041013905EB26
:105AD0008101002051F80439514540EA0300F9D111
