:020000040800F2
:1000000000000220A9610008055B0008075B0008EA
:10001000095B00080B5B00080D5B00080000000096
:100020000000000000000000000000000F5B00085E
:10003000115B000800000000135B0008155B00085E
:10004000F9610008F9610008F9610008F961000828
:10005000F9610008F9610008F9610008F961000818
:10006000F9610008F9610008F9610008F961000808
:10007000F9610008F9610008F9610008F9610008F8
:10008000F9610008F9610008F9610008F9610008E8
:10009000F9610008F9610008F9610008F9610008D8
:1000A000F9610008F9610008F9610008F9610008C8
:1000B000215B0008315B0008415B0008F961000822
:1000C000F9610008F9610008F9610008F9610008A8
:1000D000F9610008F9610008515B0008F961000846
:1000E000615B0008F9610008F96100086D5B0008B8
:1000F000F9610008F9610008F9610008F961000878
:10010000F9610008F9610008855B0008F9610008E1
:10011000995B0008F9610008F9610008F9610008BD
:10012000F9610008F9610008F9610008F961000847
:10013000F96100080000000000000000F9610008FB
:10014000F9610008F9610008F9610008F961000827
:10015000F9610008F9610008F9610008A95B00086D
:10016000F9610008F9610008F9610008F961000807
:10017000F9610008F9610008F96100080000000059
:1001800000000000F961000800000000000000000D
:10019000F96100080000000000000000F96100089B
:1001A000000000000000000000000000F9610008ED
:1001B000F9610008F9610008F9610008F9610008B7
:0401C000F9610008D9
:1001D00010B5054C237833B9044B13B10448AFF381
:1001E00000800123237010BD640200200000000085
:1001F0008081000808B5034B1BB103490348AFF3E6
:10020000008008BD00000000680200208081000816
:1002100081F0004102E000BF83F0004330B54FEAB7
:1002200041044FEA430594EA050F08BF90EA020F24
:100230001FBF54EA000C55EA020C7FEA645C7FEAB7
:10024000655C00F0E2804FEA5454D4EB5555B8BFDA
:100250006D420CDD2C4480EA020281EA030382EA4B
:10026000000083EA010180EA020281EA0303362DDD
:1002700088BF30BD11F0004F4FEA01314FF4801CB0
:100280004CEA113102D0404261EB410113F0004FC2
:100290004FEA03334CEA133302D0524263EB430379
:1002A00094EA050F00F0A780A4F10104D5F1200E17
:1002B0000DDB02FA0EFC22FA05F2801841F1000172
:1002C00003FA0EF2801843FA05F359410EE0A5F146
:1002D00020050EF1200E012A03FA0EFC28BF4CF077
:1002E000020C43FA05F3C01851EBE37101F000452D
:1002F00007D54FF0000EDCF1000C7EEB00006EEB3A
:100300000101B1F5801F1BD3B1F5001F0CD34908C3
:100310005FEA30004FEA3C0C04F101044FEA44521A
:1003200012F5800F80F09A80BCF1004F08BF5FEAA1
:10033000500C50F1000041EB045141EA050130BD81
:100340005FEA4C0C404141EB010111F4801FA4F124
:100350000104E9D191F0000F04BF01460020B1FA79
:1003600081F308BF2033A3F10B03B3F120020CDAB1
:100370000C3208DD02F1140CC2F10C0201FA0CF08F
:1003800021FA02F10CE002F11402D8BFC2F1200CF4
:1003900001FA02F120FA0CFCDCBF41EA0C019040AA
:1003A000E41AA2BF01EB0451294330BD6FEA0404F3
:1003B0001F3C1CDA0C340EDC04F11404C4F12002DE
:1003C00020FA04F001FA02F340EA030021FA04F3F0
:1003D00045EA030130BDC4F10C04C4F1200220FA47
:1003E00002F001FA04F340EA0300294630BD21FA85
:1003F00004F0294630BD94F0000F83F4801306BF4B
:1004000081F480110134013D4EE77FEA645C18BF3E
:100410007FEA655C29D094EA050F08BF90EA020FD5
:1004200005D054EA000C04BF1946104630BD91EACD
:10043000030F1EBF0021002030BD5FEA545C05D1D0
:100440004000494128BF41F0004130BD14F580040F
:100450003CBF01F5801130BD01F0004545F0FE4183
:1004600041F470014FF0000030BD7FEA645C1ABFB8
:10047000194610467FEA655C1CBF0B46024650EAEF
:10048000013406BF52EA033591EA030F41F400211B
:1004900030BD00BF90F0000F04BF0021704730B5A1
:1004A0004FF4806404F132044FF000054FF0000176
:1004B00050E700BF90F0000F04BF0021704730B537
:1004C0004FF4806404F1320410F0004548BF40420C
:1004D0004FF000013EE700BF42004FEAE2014FEA61
:1004E00031014FEA02701FBF12F07F4393F07F4F3C
:1004F00081F06051704732F07F4208BF704793F03F
:100500007F4F04BF41F40021704730B54FF4607451
:1005100001F0004521F000411CE700BF50EA010254
:1005200008BF704730B54FF000050AE050EA0102FD
:1005300008BF704730B511F0004502D5404261EB6D
:1005400041014FF4806404F132045FEA915C3FF4AE
:10055000D8AE4FF003025FEADC0C18BF03325FEA4B
:10056000DC0C18BF033202EBDC02C2F1200300FAFC
:1005700003FC20FA02F001FA03FE40EA0E0021FA21
:1005800002F11444BDE600BF4FF0FF3C06E000BF9F
:100590004FF0010C02E000BF4FF0010C4DF804CD0C
:1005A0004FEA410C7FEA6C5C4FEA430C18BF7FEACC
:1005B0006C5C1BD001B050EA410C0CBF52EA430CFA
:1005C00091EA030F02BF90EA020F0020704710F17A
:1005D000000F91EA030F58BF994208BF90422CBF09
:1005E000D8176FEAE37040F0010070474FEA410C02
:1005F0007FEA6C5C02D150EA013C07D14FEA430C20
:100600007FEA6C5CD6D152EA033CD3D05DF8040B90
:10061000704700BF8446104662468C4619466346C2
:1006200000E000BF01B5FFF7B7FF002848BF10F199
:10063000000F01BD4DF808EDFFF7F4FF0CBF0120DE
:1006400000205DF808FB00BF4DF808EDFFF7EAFF5A
:1006500034BF012000205DF808FB00BF4DF808ED15
:10066000FFF7E0FF94BF012000205DF808FB00BF0A
:100670004DF808EDFFF7CEFF94BF012000205DF894
:1006800008FB00BF4DF808EDFFF7C4FF34BF0120A1
:1006900000205DF808FB00BF4FEA4102B2F1E043E1
:1006A00024BFB3F5001CDCF1FE5C0DD901F0004C59
:1006B0004FEAC0024CEA5070B2F1004F40EB8300A9
:1006C00008BF20F00100704711F0804F21D113F1D5
:1006D0003872BCBF01F00040704741F480114FEA0E
:1006E0005252C2F11802C2F1200C10FA0CF320FA97
:1006F00002F018BF40F001004FEAC1234FEAD323B4
:1007000003FA0CFC40EA0C0023FA02F34FEA43031D
:10071000CCE77FEA625307D150EA01331EBF4FF0A6
:10072000FE4040F44000704701F0004040F0FE40C1
:1007300040F40000704700BF53B94AB9002908BF10
:1007400000281CBF4FF0FF314FF0FF3000F072B9AE
:10075000ADF1080C6DE904CE00F006F8DDF804E018
:10076000DDE9022304B070472DE9F047089E0446F6
:100770008846002B4BD18A42154667D9B2FA82F2DD
:100780004AB1C2F1200701FA02F320FA07F79540B7
:1007900047EA030894404FEA154E230CB8FBFEF7D6
:1007A0001FFA85FC0EFB178843EA084307FB0CF190
:1007B000994209D9EB1807F1FF3080F01B8199426B
:1007C00040F21881023F2B445B1AA4B2B3FBFEF047
:1007D0000EFB103344EA034400FB0CFCA44509D98A
:1007E0002C1900F1FF3380F00781A44540F2048109
:1007F00002382C4440EA0740A4EB0C0400271EB149
:10080000D4400023C6E900433946BDE8F0878B4257
:1008100009D9002E00F0EB800027C6E90001384618
:100820003946BDE8F087B3FA83F7002F47D18B42F2
:1008300002D3824200F2FA80841A61EB03030120A2
:100840009846002EE0D0C6E90048DDE702B9FFDE99
:10085000B2FA82F2002A40F08F80491B4FEA154E0F
:100860001FFA85F80127B1FBFEFC230C0EFB1C11BF
:1008700043EA014308FB0CF1994207D9EB180CF14C
:10088000FF3002D2994200F2CD808446591AA3B2B9
:10089000B1FBFEF00EFB101443EA044408FB00F821
:1008A000A04507D92C1900F1FF3302D2A04500F270
:1008B000B6801846A4EB080440EA0C409FE7C7F155
:1008C000200CBB4022FA0CFE4EEA030E01FA07F49C
:1008D00020FA0CF521FA0CF34FEA1E482543B3FB2E
:1008E000F8F92C0C08FB19331FFA8EFA44EA03437B
:1008F00009FB0AF49C4202FA07F200FA07F10BD94D
:100900001EEB030309F1FF3080F087809C4240F228
:100910008480A9F1020973441B1BADB2B3FBF8F04C
:1009200008FB103345EA034400FB0AFAA24508D944
:100930001EEB040400F1FF336BD2A24569D90238E3
:10094000744440EA0940A0FB0289A4EB0A044C4528
:10095000C2464B4654D351D0002E69D0B1EB0A05A4
:1009600064EB030404FA0CFCFD40FC404CEA050572
:10097000C6E90054002747E7C2F1200320FA03F735
:10098000954001FA02F021FA03F34FEA154E38437D
:10099000010CB3FBFEF71FFA85F80EFB173341EA93
:1009A000034107FB08F38B4204FA02F407D96918E4
:1009B00007F1FF3C2FD28B422DD9023F2944CB1A9D
:1009C00081B2B3FBFEF00EFB103341EA034100FBA2
:1009D00008F38B4207D9691800F1FF3C17D28B420C
:1009E00015D902382944C91A40EA07473BE7374678
:1009F000304609E70746E7E61846FBE64145ABD235
:100A0000B8EB020A69EB0E0201381346A4E7604610
:100A1000E9E7184695E76746D1E781467CE7023863
:100A20002C4447E7ACF1020C2B442FE7384608E78B
:100A30003746E9E6704700BF034613F8012B002A4A
:100A4000FBD1181A013870470000000000000000B8
:100A500001F0FF01102A2BDB10F0070F08D010F86F
:100A6000013B013A8B422DD010F0070F42B3F6D173
:100A7000F0B441EA012141EA014122F007047FF08C
:100A800000070023F0E80256083C85EA010586EAE3
:100A9000010685FA47F5A3FA87F586FA47F6A5FA1F
:100AA00087F68EB9EED1F0BC01F0FF0102F007022B
:100AB00032B110F8013B013A83EA010313B1F8D1D6
:100AC0000020704701387047002D06BF35460338B7
:100AD000073815F0010F07D1013015F4807F02BFF0
:100AE000013015F4C03F0130F0BC0138704700BF41
:100AF00010B504460E4B18784FF47A73B3FBF0F33D
:100B00000C4A1068B0FBF3F000F020FA68B90F2C23
:100B100001D901200AE0002221464FF0FF3000F009
:100B2000D5F9034B5C60002000E0012010BD00BF40
:100B3000000000208800002008B50B4B1A6842F422
:100B400000721A601A6842F480621A601A6842F4ED
:100B500080721A60032000F0A7F90020FFF7C8FF99
:100B600004F0A4FC002008BD003C0240034A1168C8
:100B7000034B1B780B441360704700BFAC0300208D
:100B800000000020014B1868704700BFAC03002034
:100B9000494B5A6822F440325A605A6841680A4305
:100BA0005A600268536823F4807353600268536884
:100BB000016943EA012353600268536823F04073DC
:100BC00053600268536881680B43536002689368FE
:100BD00023F40063936002689368C1680B439360D9
:100BE000826A364B9A4249D00268936823F0706358
:100BF000936002689368816A0B439360026893680C
:100C000023F04053936002689368C16A0B4393607A
:100C10000268936823F00203936002689368816915
:100C200043EA41039360036A002B32D102685368A0
:100C300023F4006353600268D36A23F47003D36221
:100C40000168CB6AC269013A43EA0253CB62026887
:100C5000936823F40073936002689368016B43EA1E
:100C6000412393600268936823F480639360026871
:100C70009368416943EA81239360704702689368EF
:100C800023F0706393600268936823F0405393608D
:100C9000BEE70268536843F4006353600268536818
:100CA00023F46043536001684B68426A013A43EAA7
:100CB00042334B60BFE700BF002301400100000F3B
:100CC00030B310B50446036C43B1236C13F0100F1E
:100CD0000AD00120002384F83C3010BD436480F822
:100CE0003C3004F02DFCF0E7236C23F4885323F010
:100CF000020343F0020323642046FFF749FF00206C
:100D00006064236C23F0030343F001032364E1E7F1
:100D10000120704730B482B00023019390F83C303A
:100D2000012B00F0B580012380F83C300B68092BC3
:100D30003ED90568EA689BB203EB43031E3B0724D8
:100D400004FA03F322EA0303EB600568EA688C689F
:100D50000B8803EB43031E3B04FA03F31343EB60DE
:100D60004B68062B3AD805686A6B03EB8303053B97
:100D70001F2404FA03F322EA03036B6305686A6B1A
:100D80004B6803EB8303053B0C8804FA03F313431E
:100D90006B6302683F4B9A4250D002683D4B9A42C7
:100DA00055D0002380F83C30184602B030BC704764
:100DB00005682A699BB203EB4303072404FA03F393
:100DC00022EA03032B6105682A698C680B8803EB10
:100DD000430304FA03F313432B61C1E70C2B16D82A
:100DE00005682A6B03EB8303233B1F2404FA03F3F8
:100DF00022EA03032B6305682A6B4B6803EB83032A
:100E0000233B0C8804FA03F313432B63C1E7056803
:100E1000EA6A03EB8303413B1F2404FA03F322EA4B
:100E20000303EB620568EA6A4B6803EB8303413B0B
:100E30000C8804FA03F31343EB62AAE70B68122B46
:100E4000ABD1154A536843F480035360A5E70B68A0
:100E5000124A934201D0112BA3D10F4A536843F495
:100E6000000353600A680D4B9A429AD10C4B1B68E1
:100E70000C4AA2FB03239B0C03EB83035A00019251
:100E800002E0019B013B0193019B002BF9D188E714
:100E900002208AE7002001400023014012000010D8
:100EA0008800002083DE1B43074AD36823F4E063F5
:100EB0001B041B0C000200F4E060184340F0BF600C
:100EC00040F40030D060704700ED00E030B4174BC4
:100ED000DB68C3F30223C3F10704042C28BF0424F6
:100EE0001D1D062D18D9033B4FF0FF3505FA04F4FC
:100EF00021EA0401994005FA03F322EA03031943A6
:100F000000280BDB0901C9B200F1604000F5614027
:100F100080F8001330BC70470023E5E700F00F00B5
:100F20000901C9B2024B1954F4E700BF00ED00E01B
:100F300014ED00E000F01F02400901239340024A33
:100F400042F82030704700BF00E100E00138B0F106
:100F5000807F0AD2064B5860064AF02182F823109F
:100F60000020986007221A6070470120704700BF78
:100F700010E000E000ED00E0042805D0054A136809
:100F800023F0040313607047024A136843F004031C
:100F90001360704710E000E0704708B5FFF7FCFFF2
:100FA00008BD90F83530DBB2022B03D080234365B7
:100FB00001207047052380F835300268136823F05C
:100FC000010313600020704700230F2B00F2D18033
:100FD000F0B482B039E0062200E00022B2403A4389
:100FE0000234644E46F82420634A1468EA4302EA55
:100FF00004064F6817F4803F01D045EA04065E4CB2
:101000002660646802EA04064F6817F4003F01D0C6
:1010100045EA0406584C6660A46802EA04064F6874
:1010200017F4801F01D045EA0406534CA660E4681B
:1010300022404E6816F4001F01D045EA04024E4CCF
:10104000E26001330F2B00F2918001229A400C687C
:1010500004EA0205AA42F4D14C68022C01D0122CF9
:1010600010D1DE08083650F826C003F00704A700A8
:101070000F24BC402CEA040C0C69BC4044EA0C046C
:1010800040F8264004685F000326BE40F64306EAA7
:10109000040C4C6804F00304BC4044EA0C040460F3
:1010A0004C6804F1FF3CBCF1010F03D9112C01D0B5
:1010B000122C10D1846806EA040CCC68BC4044EAC7
:1010C0000C048460446824EA02024C68C4F30014EF
:1010D0009C4014434460C26816408A68BA40324358
:1010E000C2604A6812F0805FABD000220192234AAE
:1010F000546C44F480445464526C02F48042019273
:10110000019A9C08A61C1B4A52F8267003F00302A1
:1011100096000F22B24027EA0207194A90423FF494
:101120005CAF02F58062904216D002F58062904278
:1011300014D002F58062904212D002F58062904293
:1011400010D002F5806290420ED002F5806290428B
:101150003FF441AF072241E701223FE702223DE78A
:1011600003223BE7042239E7052237E702B0F0BC4F
:101170007047704700380140003C01400038024091
:101180000000024012B90904816170478161704713
:1011900008B5054B5B69034200D108BD024B58619D
:1011A00002F020FBF9E700BF003C0140002800F0FE
:1011B000828010B5044690F83D30002B41D02423A6
:1011C00084F83D302268136823F00103136000F0B7
:1011D0002DF93A4BA3FB00239B0C226853606168F6
:1011E000374A914232D80133226813626368344A25
:1011F000934235D85B00B0FBF3F0C0F30B03032B35
:1012000000D804202368D861E369216A22680B436F
:1012100013602369E16822680B4393606369A169E5
:1012200022680B43D3602268136843F00103136004
:1012300000202064202384F83D30206384F83E00A1
:1012400010BD80F83C3004F0A9F9B8E74FF496726D
:1012500002FB03F31B4AA2FB03239B090133C3E7F1
:10126000A16889B903EB4302B0FBF2F2C2F30B02AF
:10127000B2FA82F25209E2B991B903EB4303B0FB2F
:10128000F3F040F40040BDE703EB830202EB82027F
:10129000B0FBF2F2C2F30B02B2FA82F25209EAE7B1
:1012A00003EB830303EB8303B0FBF3F040F4404014
:1012B000A8E70120A6E70120704700BF83DE1B439B
:1012C000A0860100D34D6210002800F09D8070B50B
:1012D00004464F4B1B6803F00F038B4209D2CBB27D
:1012E0004B4A1370136803F00F038B4201D00120A7
:1012F00070BD236813F0020F17D013F0040F04D051
:10130000444A936843F4E0539360236813F0080F52
:1013100004D0404A936843F4604393603D4A936825
:1013200023F0F003A068034393600D46236813F095
:10133000010F32D06368012B21D09A1E012A25D9D2
:10134000344A126812F0020F60D032498A6822F0E3
:10135000030213438B60FFF715FC06462D4B9B6879
:1013600003F00C036268B3EB820F16D0FFF70AFCA0
:10137000801B41F288339842F0D90320B8E7254A10
:10138000126812F4003FE0D10120B1E7214A12684F
:1013900012F0007FD9D10120AAE71D4B1B6803F092
:1013A0000F03AB4209D9EAB2194B1A701B6803F05C
:1013B0000F03AB4201D001209AE7236813F0040F1A
:1013C00006D0144A936823F4E053E1680B4393601A
:1013D000236813F0080F07D00E4A936823F4604384
:1013E000216943EAC103936000F040F8094B9B6810
:1013F000C3F30313084AD35CD840084B186000209D
:10140000FFF776FB002073E70120704701206FE7AC
:10141000003C024000380240A481000888000020FF
:10142000014B1868704700BF8800002008B5FFF71F
:10143000F7FF044B9B68C3F38223034AD35CD84075
:1014400008BD00BF00380240B481000808B5FFF7AE
:10145000E7FF044B9B68C3F34233034AD35CD84095
:1014600008BD00BF00380240B48100082DE9F04BF0
:101470005C4B9B6803F00C03082B07D00C2B5BD054
:10148000042B00F0AD805848BDE8F08B554B5A68EE
:1014900002F03F025B6813F4800F2AD0514B5B6867
:1014A000C3F388131E4600275C010025E41A65EB90
:1014B0000705A90141EA9461A001001B61EB050148
:1014C000CB0043EA5073C400A01943EB07014B0261
:1014D00043EAD0534402204619460023FFF72CF973
:1014E000404B5B68C3F3014301335B00B0FBF3F097
:1014F000CAE73C4B5B68C3F388131E4600275C01B8
:101500000025E41A65EB0705A90141EA9461A001F1
:10151000001B61EB0501CB0043EA5073C400A01926
:1015200043EB07018B0243EA90538402204619469D
:101530000023FFF701F9D3E72A4B5A6802F03F0274
:101540005B6813F4800F28D0264B5B68C3F38813C5
:101550001E4600275C010025E41A65EB0705A9017A
:1015600041EA9461A001001B61EB0501CB0043EA55
:101570005073C400A01943EB07014B0243EAD05358
:101580004402204619460023FFF7D6F8154B5B6846
:10159000C3F30273B0FBF3F076E7124B5B68C3F35F
:1015A00088131E4600275C010025E41A65EB070539
:1015B000A90141EA9461A001001B61EB0501CB0088
:1015C00043EA5073C400A01943EB07018B0243EABE
:1015D00090538402204619460023FFF7ADF8D5E763
:1015E000024851E7003802400024F40000127A005B
:1015F00070B582B00446036813F0010F41D0A64BCA
:101600009B6803F00C03042B32D0A34B9B6803F0C0
:101610000C03082B27D0A04B9B6803F00C030C2B6A
:1016200059D06368B3F5803F5BD0B3F5A02F5ED08F
:10163000994B1A6822F480321A601A6822F48022C8
:101640001A606368002B5CD0FFF79CFA0546924B4A
:101650001B6813F4003F14D1FFF794FA401B642871
:10166000F5D903209DE18C4B5B6813F4800FD2D039
:10167000894B1B6813F4003F03D06368002B00F014
:101680008D81236813F0020F67D0834B9B6813F0A2
:101690000C0F4AD0804B9B6803F00C03082B3FD003
:1016A0007D4B9B6803F00C030C2B48D0E368002BA8
:1016B00074D07A4B01221A60FFF764FA0546764B24
:1016C0001B6813F0020F60D1FFF75CFA401B022881
:1016D000F5D9032065E1704B5B6813F4800FA0D04F
:1016E000C6E76D4A136843F480331360A9E76A4B79
:1016F0001A6842F480221A601A6842F480321A6032
:101700009FE7FFF73FFA0546634B1B6813F4003F62
:10171000B7D0FFF737FA401B6428F5D9032040E122
:101720005D4B5B6813F4800FBAD15B4B1B6813F001
:10173000020F0AD0E368012B07D0012031E1564B9C
:101740005B6813F4800FB1D1EFE7534A136823F0BD
:10175000F803216943EAC1031360236813F0080FFB
:1017600040D0636963B34E4B01221A60FFF70AFA57
:101770000546494B5B6F13F0020F33D1FFF702FAB6
:10178000401B0228F5D903200BE1434A136823F0DC
:10179000F803216943EAC1031360DEE73F4B0022EF
:1017A0001A60FFF7EFF905463B4B1B6813F0020F79
:1017B000D3D0FFF7E7F9401B0228F5D90320F0E06A
:1017C000374B00221A60FFF7DDF90546324B5B6F9D
:1017D00013F0020F06D0FFF7D5F9401B0228F5D908
:1017E0000320DEE0236813F0040F79D02A4B1B6C32
:1017F00013F0805F33D100230193274B1A6C42F022
:1018000080521A641B6C03F080530193019B0125E5
:10181000244B1B6813F4807F23D0A368012B34D0A2
:10182000052B41D01C4B1A6F22F001021A671A6F68
:1018300022F004021A67A368002B3FD0FFF7A2F939
:101840000646154B1B6F13F0020F48D1FFF79AF9AC
:10185000801B41F288339842F3D90320A1E0002590
:10186000D6E7104A136843F480731360FFF78AF9D0
:1018700006460C4B1B6813F4807FCED1FFF782F92C
:10188000801B0228F5D903208BE0034A136F43F035
:1018900001031367CFE700BF003802400000474252
:1018A000800E474200700040404B1A6F42F0040225
:1018B0001A671A6F42F001021A67BCE7FFF762F974
:1018C00006463A4B1B6F13F0020F08D0FFF75AF988
:1018D000801B41F288339842F3D9032061E0E5B9D7
:1018E000A369002B5CD0314A926802F00C02082AEE
:1018F00059D0022B17D02E4B00221A60FFF742F965
:1019000004462A4B1B6813F0007F45D0FFF73AF9D5
:10191000001B0228F5D9032043E0244A136C23F06E
:1019200080531364DCE7224B00221A60FFF72AF988
:1019300005461E4B1B6813F0007F06D0FFF722F907
:10194000401B0228F5D903202BE0E369226A1343E8
:10195000626A43EA8213A26A5208013A43EA0243E6
:10196000E26A43EA0263226B43EA02730F4A53605E
:101970000F4B01221A60FFF705F904460B4B1B6859
:1019800013F0007F06D1FFF7FDF8001B0228F5D900
:10199000032006E0002004E0002002E0012000E037
:1019A000002002B070BD0120FBE700BF00380240FC
:1019B00060004742F8B505460F4616461C463BE018
:1019C0002CB1FFF7DFF8069BC01AA04234D32A6877
:1019D000536823F0E00353606B68B3F5827F0BD04C
:1019E000AB6AB3F5005F14D0012385F851300023B2
:1019F00085F85030032027E0AB68B3F5004F02D0E4
:101A0000B3F5806FECD12A68136823F040031360AC
:101A1000E6E72A68136823F400531B041B0C1360C9
:101A20002A68136843F400531360DDE70123B342CF
:101A300009D0B4F1FF3FC3D12B689B6837EA030399
:101A4000F4D00023F3E70020F8BD10B582B00446BF
:101A500000920B4600228021FFF7ACFF034610B92D
:101A6000184602B010BD636D43F020036365032385
:101A7000F6E700283BD010B504460023836290F8B7
:101A80005130002B2ED0022384F851302268136885
:101A900023F0400313606368A2681343E2681343B2
:101AA0002269134362691343A26902F4007213436B
:101AB000E2691343226A1343A16A22680B4313604D
:101AC000638B03F00403616A22680B43536022684E
:101AD000D36923F40063D36100206065012384F897
:101AE000513010BD80F8503003F084FDCBE7012069
:101AF00070472DE9F04184B01E4690F85030012B1C
:101B000000F0C88004460D469046012380F850300E
:101B1000FFF738F8074694F85130DBB2012B0AD0B2
:101B20000223012284F85120002284F85020184614
:101B300004B0BDE8F081002D00F0A480B8F1000FE2
:101B400000F0A280032384F85130002363652563ED
:101B5000A4F83480A4F83680A363A387E387636482
:101B60002364A368B3F5004F1BD023681A6812F0F2
:101B7000400F03D11A6842F040021A60E368B3F5DF
:101B8000006F14D063681BB1E38E9BB2012B3ED172
:101B9000236815F8012B1A73E38E013B9BB2E38691
:101BA00035E02268136843F480431360DDE763681F
:101BB0001BB1E38E9BB2012B0DD1236835F8022BAC
:101BC000DA60E38E013B9BB2E38604E0002E5DD039
:101BD000B6F1FF3F0FD1E38E9BB27BB323689A68C7
:101BE00012F0020FF2D035F8022BDA60E38E013BDF
:101BF0009BB2E386EFE7FEF7C5FFC01BB042EAD316
:101C000003238EE7002E43D0B6F1FF3F0FD1E38EC2
:101C10009BB29BB123689A6812F0020FF2D015F8BC
:101C2000012B1A73E38E013B9BB2E386EFE7FEF7CD
:101C3000A9FFC01BB042EAD3032372E700973346E3
:101C4000012202212046FFF7B5FE08B1032368E711
:101C50003A4631462046FFF7F8FE034618B12023E6
:101C6000636501235DE7A26832B903922268D168F7
:101C7000039192680392039A626D002A3FF451AF78
:101C800001234EE701234CE701234AE7032348E7FA
:101C9000032346E702234AE72DE9F04385B099463E
:101CA0000C9D90F85030012B00F0108104460F4637
:101CB0001646012380F85030FEF764FF804694F802
:101CC0005130DBB26268012B15D0B2F5827F0AD0A9
:101CD0000223012284F85120002284F85020184663
:101CE00005B0BDE8F083A268002A40F0E780042B2D
:101CF00001D00223EDE7002F00F0E280002E00F07B
:101D0000E180B9F1000F00F0DF8094F85130DBB2D0
:101D1000012B2BD000236365A663A4F83E90A4F8A2
:101D20003C902763A4F83690A4F83490236463644D
:101D300023681A6812F0400F03D11A6842F040027B
:101D40001A60E368B3F5006F14D063681BB1E38ECB
:101D50009BB2012B07D1236817F8012B1A73E38E6E
:101D6000013B9BB2E3864FF0010961E0052384F853
:101D70005130CFE763681BB1E38E9BB2012B07D1D3
:101D8000236837F8022BDA60E38E013B9BB2E386CF
:101D90004FF0010913E0E38F9BB26BB123689A689F
:101DA00012F0010F08D0DB6826F8023BE38F013BFD
:101DB0009BB2E3874FF00109B5F1FF3F1CD1E38EE1
:101DC0009BB21BB9E38F9BB2002B55D0B9F1000F2A
:101DD000E1D0E38E9BB2002BDDD023689A6812F02D
:101DE000020FD8D037F8022BDA60E38E013B9BB2AA
:101DF000E3864FF00009CEE7FEF7C4FEA0EB080033
:101E0000A842DCD3032364E7E38F9BB26BB1236862
:101E10009A6812F0010F08D0DB683370E38F013B42
:101E20009BB2E38701364FF00109B5F1FF3F1BD1AB
:101E3000E38E9BB213B9E38F9BB2EBB1B9F1000F04
:101E4000E2D0E38E9BB2002BDED023689A6812F0BA
:101E5000020FD9D03A781A73E38E013B9BB2E38626
:101E600001374FF00009CFE7FEF78CFEA0EB08002A
:101E7000A842DDD303232CE7CDF800802B460122B6
:101E800002212046FFF796FD08B1032321E74246D1
:101E900029462046FFF7D9FD034618B12023636584
:101EA000012316E7A268002A7FF413AF0392226889
:101EB000D168039192680392039A0AE7022308E724
:101EC000012306E7012304E7012302E7022306E7D3
:101ED00070B4036A23F001030362036A42688469F1
:101EE00024F073040D6845EA040623F002048B68AD
:101EF00023430C4DA84202D00B4CA0420BD123F03F
:101F00000803CD682B4323F0040322F440724D698B
:101F100015438A692A43426086614A6842630362C4
:101F200070BC7047000001400004014030B4036AF7
:101F300023F480730362036A4268C46924F0730463
:101F40000D682C4323F400738D6843EA05230E4D7E
:101F5000A84203D005F58065A8420ED123F40063A2
:101F6000CD6843EA052323F4806322F440524D698F
:101F700042EA05128D6942EA05124260C4614A686C
:101F8000C263036230BC70470000014030B4036A92
:101F900023F480530362036A4468C26922F4E64270
:101FA0000D6842EA052223F400538D6843EA0533A5
:101FB000094DA84203D005F58065A84204D124F458
:101FC00080444D6944EA85144460C2614A680264F1
:101FD000036230BC704700BF0000014010B4036AC8
:101FE000046A24F001040462846924F0F00444EAE1
:101FF000021223F00A030B43826103625DF8044B73
:10200000704730B4046A24F0100404628469056ADD
:1020100024F4407444EA022222F470421B039BB26F
:102020001A4325F0A005090101F0A00129438261AE
:10203000016230BC704710B4036A23F010030362DE
:102040008469036A24F4704444EA023223F0A00352
:1020500043EA0113826103625DF8044B704730B4B8
:10206000046A24F480740462C469056A24F00304D9
:10207000224322F0F0021B01DBB21A4325F4206553
:10208000090201F420612943C261016230BC70473A
:1020900030B4046A24F480540462C469056A24F4E8
:1020A000407444EA022222F470421B039BB21A439A
:1020B00025F42045090301F420412943C26101624E
:1020C00030BC7047836823F0700341F00701194367
:1020D0008160704710B4846824F47F4442EA03238B
:1020E0000B43234383605DF8044B704710B50468CD
:1020F000A26822F070024B68134323F007030A68BA
:102100001343A3604B68502B1ED00AD9602B21D0FB
:10211000702B05D10B698A68C9680068FFF7DAFF80
:1021200010BD402BFCD103681C6A1A6A22F0010220
:102130001A620268936923F0F003096943EA011304
:10214000936103681C62EBE70A6989680068FFF71E
:1021500045FFE5E70A6989680068FFF76CFFDFE77C
:102160000268D36843F00103D3600268136843F048
:102170000103136000207047704790F83830012B3E
:102180007DD010B50446012380F83830022380F852
:1021900039300268936823F47F4323F07703936018
:1021A0000B68402B57D010D9702B3ED01FD8502B26
:1021B00047D0602B32D1CA6849680068FFF73BFFFF
:1021C00060212068FFF77EFF28E0102B4DD008D952
:1021D000202B4FD0302B21D130210068FFF772FF28
:1021E0001CE0DBB900210068FFF76CFF16E0B3F5D7
:1021F000805F0ED0B3F5005F10D1CB684A68896864
:102200000068FFF767FF2268936843F48043936098
:1022100004E00268936823F007039360012384F8C5
:102220003930002084F8380010BDCB684A688968CE
:102230000068FFF74FFF2268936843F077039360CD
:10224000ECE7CA6849680068FFF7C8FE50212068BB
:10225000FFF738FFE2E7CA6849680068FFF7BEFE8B
:1022600040212068FFF72EFFD8E710210068FFF714
:1022700029FFD3E720210068FFF724FFCEE70220E3
:10228000704738B590F83830012B18D00446012536
:1022900080F83850022380F83930FFF727FF226892
:1022A000D36823F04003D3602268D36823F48043CB
:1022B000D36084F83950002084F8380038BD0220FB
:1022C000FCE7034690F83820012A1ED0012280F84E
:1022D00038200C2917D8DFE801F0071616160D165E
:1022E00016161016161613000268506B002283F89B
:1022F000382070470268906BF8E70268D06BF5E70A
:102300000268106CF2E70020F0E702207047704787
:102310007047704710B5044603681A6912F0020F3F
:1023200011D0DA6812F0020F0DD06FF002021A61BC
:102330000123037603689B6913F0030F70D001F04B
:102340006BF80023237623681A6912F0040F12D069
:10235000DA6812F0040F0ED06FF004021A61022343
:10236000237623689B6913F4407F5FD0204601F0F9
:1023700053F80023237623681A6912F0080F12D04D
:10238000DA6812F0080F0ED06FF008021A61042309
:1023900023762368DB6913F0030F4ED0204601F04B
:1023A0003BF80023237623681A6912F0100F12D02D
:1023B000DA6812F0100F0ED06FF010021A610823C5
:1023C00023762368DB6913F4407F3DD0204601F07B
:1023D00023F80023237623681A6912F0010F03D033
:1023E000DA6812F0010F36D123681A6912F0800FF3
:1023F00003D0DA6812F0800F34D123681A6912F022
:10240000400F03D0DA6812F0400F32D123681A6906
:1024100012F0200F03D0DA6812F0200F30D110BD77
:10242000FFF775FF2046FFF773FF8AE72046FFF7A7
:102430006EFF2046FFF76CFF9BE72046FFF767FF24
:102440002046FFF765FFACE72046FFF760FF204618
:10245000FFF75EFFBDE76FF001021A61204603F04F
:10246000EFFBC1E76FF080021A61204600F019FB14
:10247000C3E76FF040021A612046FFF74AFFC5E745
:102480006FF020021A61204600F00AFBC7E7000047
:1024900003682E4A904212D0B0F1804F0FD0A2F5BF
:1024A0007C4290420BD002F58062904207D002F548
:1024B0008062904203D002F57842904203D123F02B
:1024C00070034A681343214A90422AD0B0F1804FEA
:1024D00027D0A2F57C42904223D002F58062904240
:1024E0001FD002F5806290421BD002F578429042E4
:1024F00017D002F57052904213D002F580629042DC
:102500000FD002F5806290420BD0A2F59832904233
:1025100007D002F58062904203D002F580629042BB
:1025200003D123F44073CA68134303608B68C3620A
:102530000B688362054B984203D003F58063984291
:1025400001D10B690363012343617047000001401F
:10255000A8B110B5044690F839305BB1022384F875
:102560003930211D2068FFF793FF012384F83930AB
:10257000002010BD80F8383003F080F8EEE701202D
:102580007047A8B110B5044690F839305BB102230A
:1025900084F83930211D2068FFF77AFF012384F881
:1025A0003930002010BD80F8383003F07DF9EEE7B7
:1025B00001207047A8B110B5044690F839305BB1DE
:1025C000022384F83930211D2068FFF761FF0123C1
:1025D00084F83930002010BD80F83830FFF7CCFD8A
:1025E000EEE701207047002847D0F8B505460C46B5
:1025F00090F83930002B3BD0022385F8393029463A
:1026000051F8042B936823F0070393602868FFF7C1
:102610003FFF29688A688E690F6A2068104326F494
:10262000407626F00306A268A36942EA03233343F7
:1026300023F47C4323F0FC03E668E26946EA0226C1
:102640001E43226A1303226943EA0213334327F02D
:10265000AA076268646942EA04123A4388602968FA
:102660008B612B681A62012385F839300020F8BD90
:1026700080F8383003F0DEF8BEE701207047000034
:1026800070B4046A24F0010404628469056A1A4E75
:10269000B0421FD0B0F1804F1CD0A6F57C46B042AE
:1026A00018D006F58066B04214D006F58066B042B8
:1026B00010D006F57846B0420CD006F57056B04200
:1026C00008D0A6F59436B04204D024F0030242F0BC
:1026D000010202E024F00304224322F0F0021B0175
:1026E000DBB2134325F00A0201F00A0111438361B2
:1026F000016270BC704700BF0000014038B590F81F
:102700003830012B58D00D460446012380F838306C
:10271000022380F83930DAB1042A2AD0082A3AD0C4
:10272000CB684A6809680068FFF7B2FC2268D36981
:1027300023F44063D3612268D369A96843EA012383
:10274000D361012384F83930002084F8380038BD83
:10275000CB684A6809680068FFF792FF22689369AE
:1027600023F00C03936122689369A9680B4393617A
:10277000E7E7CB684A6809680068FFF742FC22680F
:10278000936923F44063936122689369A96843EADB
:1027900001239361D5E7CB684A6809680068FFF7B1
:1027A0005EFC2268D36923F00C03D3612268D369ED
:1027B000A9680B43D361C4E70220C8E730B4036AB9
:1027C00023F010030362036A4468826922F4E6423C
:1027D0000D6842EA052223F020038D6843EA0513C1
:1027E0000E4DA84203D005F58065A8420ED123F016
:1027F0008003CD6843EA051323F0400324F44064CA
:102800004D6944EA85048D6944EA85044460826127
:102810004A688263036230BC704700BF0000014019
:1028200038B590F83830012B66D00D4604460123A8
:1028300080F83830022380F839300C2A1AD8DFE8C3
:1028400002F0071919192019191934191919470013
:102850000068FFF73DFB2268936943F0080393612A
:102860002268936923F004039361226893692969BC
:102870000B439361012384F83930002084F8380039
:1028800038BD0068FFF79AFF2268936943F400633C
:1028900093612268936923F480639361226893694A
:1028A000296943EA01239361E4E70068FFF73EFBEF
:1028B0002268D36943F00803D3612268D36923F007
:1028C0000403D3612268D36929690B43D361D1E73B
:1028D0000068FFF75BFB2268D36943F40063D361B0
:1028E0002268D36923F48063D3612268D36929699C
:1028F00043EA0123D361BDE70220C1E710B40123FD
:1029000003FA01F4036A23EA04030362036A8A40B8
:10291000134303625DF8044B7047000010B5044692
:1029200001220068FFF7EAFF2368094A934203D0B7
:1029300002F58062934203D15A6C42F400425A6419
:102940002268136843F001031360002010BD00BF2C
:102950000000014010B504460C290DD8DFE801F055
:10296000070C0C0C170C0C0C1D0C0C0C2300026833
:10297000D36843F00203D36001222068FFF7BEFF53
:102980002268136843F001031360002010BD026841
:10299000D36843F00403D360EEE70268D36843F0E2
:1029A0000803D360E8E70268D36843F01003D360FC
:1029B000E2E710B5044661B1042916D001220021D6
:1029C0000068FFF79BFF012204212068FFF796FFB4
:1029D00004E0012200210068FFF790FF22681368DD
:1029E00043F001031360002010BD012204210068A0
:1029F000FFF784FFF2E790F83830012B22D030B493
:102A0000012280F83820022380F839300468636896
:102A100023F070036360046863680D682B43636090
:102A20000468A36823F08003A3600468A36849686E
:102A30000B43A36080F83920002380F83830184613
:102A400030BC70470220704790F83830012B25D0F9
:102A5000012380F83830CB6823F440738A6813432D
:102A600023F480634A68134323F400630A68134322
:102A700023F480530A69134323F400534A69134330
:102A800023F480438A69134323F400431343026809
:102A90005364002380F8383018467047022070478E
:102AA000704770470268D36823F49073D36002685C
:102AB000536923F001035361202380F83A307047B3
:102AC00090F83930DBB2212B2AD18368B3F5805FCF
:102AD00016D0036A5A1C02621A7803685A60C38CC3
:102AE000013B9BB2C384EBB90268D36823F0800337
:102AF000D3600268D36843F04003D360002070477E
:102B0000036A1B880268C3F30803536003691BB997
:102B1000036A02330362E2E7036A01330362DEE71A
:102B200002207047002070472DE9F84304460168F1
:102B30000A6922F44052C36813430B610168CA68F2
:102B400022F4164222F00C02836800690343606994
:102B50000343E06903431343CB6021684A6922F4CD
:102B60004072A36913434B61E369B3F5004F60D032
:102B70002368B84A934200F0148102F580629342C0
:102B800000F00F81FEF752FC00EB800000EB8000AC
:102B90006568AD00B0FBF5F5AF4FA7FB05356D09D6
:102BA0002E01FEF743FC00EB800000EB800065681F
:102BB000AD00B0FBF5F9FEF739FC00EB800000EB4F
:102BC00080006568AD00B0FBF5F5A7FB05356D0924
:102BD0004FF0640808FB15952D013235A7FB05352C
:102BE0006D0905F0F0053544FEF720FC00EB800090
:102BF00000EB80006668B600B0FBF6F6FEF716FC48
:102C000000EB800000EB800063689B00B0FBF3F0FA
:102C1000A7FB0030400908FB10684FEA081808F1CC
:102C20003208A7FB0837C7F3431723682F449F6078
:102C30000DE12368874A93425BD002F5806293429C
:102C400057D0FEF7F3FB00EB800000EB80006568D7
:102C50006D00B0FBF5F5804FA7FB05356D092E0122
:102C6000FEF7E4FB00EB800000EB800065686D0080
:102C7000B0FBF5F9FEF7DAFB00EB800000EB80001B
:102C800065686D00B0FBF5F5A7FB05356D094FF0E4
:102C9000640808FB1595ED003235A7FB05356D0975
:102CA0006D0005F4F8753544FEF7C0FB00EB8000BD
:102CB00000EB800066687600B0FBF6F6FEF7B6FB28
:102CC00000EB800000EB800063685B00B0FBF3F377
:102CD000A7FB03235B0908FB13684FEAC80808F148
:102CE0003208A7FB0837C7F3421723682F449F60B9
:102CF000ADE0FEF7ABFB00EB800000EB8000656809
:102D00006D00B0FBF5F5544FA7FB05356D092E019D
:102D1000FEF79CFB00EB800000EB800065686D0017
:102D2000B0FBF5F9FEF792FB00EB800000EB8000B2
:102D300065686D00B0FBF5F5A7FB05356D094FF033
:102D4000640808FB1595ED003235A7FB05356D09C4
:102D50006D0005F4F8753544FEF778FB00EB800054
:102D600000EB800066687600B0FBF6F6FEF76EFBBF
:102D700000EB800000EB800063685B00B0FBF3F3C6
:102D8000A7FB03235B0908FB13684FEAC80808F197
:102D90003208A7FB0837C7F3421723682F449F6008
:102DA00055E0FEF753FB00EB800000EB8000656808
:102DB000AD00B0FBF5F5284FA7FB05356D092E01D9
:102DC000FEF744FB00EB800000EB80006568AD007F
:102DD000B0FBF5F9FEF73AFB00EB800000EB80005A
:102DE0006568AD00B0FBF5F5A7FB05356D094FF043
:102DF000640808FB15952D013235A7FB05356D09D3
:102E000005F0F0053544FEF721FB00EB800000EBF8
:102E100080006668B600B0FBF6F6FEF717FB00EB25
:102E2000800000EB800063689B00B0FBF3F0A7FB21
:102E30000030400908FB10684FEA081808F1320812
:102E4000A7FB0837C7F3431723682F449F60BDE8EB
:102E5000F88300BF001001401F85EB512DE9F041C0
:102E600005460F4616469846069C2B681B6837EAAF
:102E700003030CBF01230023B3421DD1B4F1FF3F74
:102E8000F3D02CB1FDF77EFEA0EB0800A042ECD9F8
:102E90002A68D36823F4D073D3602A68536923F077
:102EA00001035361202385F8393085F83A30002337
:102EB00085F83830032000E00020BDE8F08158B3E9
:102EC00010B5044690F839300BB3242384F8393018
:102ED0002268D36823F40053D3602046FFF724FE12
:102EE0002268136923F4904313612268536923F025
:102EF0002A0353612268D36843F40053D36000204F
:102F0000E063202384F8393084F83A3010BD80F82B
:102F1000383002F057FDD8E7012070472DE9F04125
:102F200082B01E4690F83930DBB2202B55D10446D2
:102F30000D469046002955D0002A55D090F83830DB
:102F4000012B53D0012380F838300023C3632123A1
:102F500080F83930FDF716FE0746A4F82480A4F85F
:102F6000268010E000963B46002280212046FFF795
:102F700075FF00283CD12B882268C3F308035360F7
:102F80002369C3B90235E38C9BB2B3B1E38C013B37
:102F90009BB2E384A368B3F5805FE3D000963B4621
:102FA000002280212046FFF759FF18BB2A782368AA
:102FB0005A600135E7E70135E5E700963B46002218
:102FC00040212046FFF74AFF0346A8B9202284F893
:102FD0003920002284F8382000E00223184602B08D
:102FE000BDE8F0810123F9E70123F7E70223F5E7C4
:102FF0000323F3E70323F1E70323EFE790F83A30E5
:10300000DBB2202B1BD1E1B1EAB190F83830012BB3
:103010001BD081628285C2850023C363222280F88F
:103020003A2080F8383001684A6942F001024A616A
:103030000168CA6842F49072CA601846704702205C
:103040007047012070470120704702207047704789
:1030500008B50168CB6823F04003CB60202380F8DB
:103060003930FFF7F4FF002008BD08B590F83A307A
:10307000DBB2222B40D18368B3F5805F0ED00369A9
:1030800003BB03685A68836A591C81621A70C38D36
:10309000013B9BB2C385F3B100202EE0826A036935
:1030A00043B903685B68C3F308031380836A023380
:1030B0008362ECE703685B68DBB21380836A0133E9
:1030C0008362E4E703685B68826A511C816203F0F3
:1030D0007F031370DBE70268D36823F49073D36037
:1030E0000268536923F001035361202380F83A30CA
:1030F00000F0B4FB002000E0022008BD7047000093
:1031000010B5044602681368D168526913F00F00C5
:1031100005D113F0200F02D011F0200F53D1002859
:1031200067D012F0010202D111F4907F61D013F048
:10313000010F06D011F4807F03D0E06B40F0010056
:10314000E06313F0040F04D01AB1E06B40F002000A
:10315000E06313F0020F04D01AB1E06B40F00400FA
:10316000E06313F0080F04D01AB1E26B42F00802DA
:10317000E263E26B002A48D013F0200F02D011F076
:10318000200F24D123685B6903F04003E26B12F047
:10319000080F00D13BB32046FFF784FC23685A692F
:1031A00012F0400F1BD05A6922F040025A61636B43
:1031B0008BB11A4A1A65606BFDF7F3FE28B3606B9A
:1031C000036D984721E02046FFF74FFF1DE02046A2
:1031D000FFF74BFFD6E72046FFF790FF15E02046AC
:1031E000FFF78CFF11E02046FFF788FF0023E36321
:1031F0000BE013F0800F02D011F0800F06D113F016
:10320000400F02D011F0400F04D110BD2046FFF74F
:1032100057FCFAE72046FFF71BFFF6E721320008CC
:1032200008B5806B0023C385C384FFF767FF08BD23
:1032300010B5094C00212046FFF78CFB04212046E5
:10324000FFF788FB054C00212046FFF783FB042194
:103250002046FFF77FFB10BD6006002054080020C9
:1032600008B502F07BFD012800D008BD00F060FD2C
:1032700000F00EFD00F014FE00F0FAFE002002F057
:10328000AFFDF2E7374B1B78012B1DD0354B5B7838
:10329000012B29D0334B9B78012B33D010B504463A
:1032A000304BDB78012B3DD02E4B1B79012B49D0C5
:1032B0002D4B1B68586300F08BFD2C4B1B6858632B
:1032C0002B4B1B685C6310BD274B1B6840F23A72A6
:1032D0005A63264B1B684FF4FA625A63244B1B68EF
:1032E00040F2DC525A6370471F4B1A684FF47A73EE
:1032F00053631E4A126853631D4B1B6840F2DC5235
:103300005A637047184B1B6840F23A725A63174B66
:103310001B684FF47A725A63154B1B6840F2DC52FB
:103320005A637047104B1B6840F2A4625A6300F066
:103330004FFD0E4B1B6858630D4B1B6840F2DC526F
:103340005A63C0E7084B1B6840F214525A6300F0FE
:103350003FFD064B1B685863054B1B6840F2DC526F
:103360005A63B0E780020020E4060020180800201D
:10337000E805002010B5DFED177AB4EEE70AF1EEAC
:1033800010FA01DDB0EE670ADFED137AB4EEE70A5A
:10339000F1EE10FA01D5B0EE670ADFED107A30EEEB
:1033A000277A77EEC07A0E4B1B68BCEEC77A83EDA6
:1033B0000D7AFCEEE77AC3ED0F7A0A4C0122114632
:1033C0002046FDF7DFFE012208212046FDF7DAFE48
:1033D00010BD00BF00000244000002C400400344CE
:1033E000200700200008024010B502F09FFC0128D1
:1033F00000D010BD00F0F0FC044600F0F3FC0146E4
:103400002046FFF73FFF00F0A1FEFFF7B3FF0020CB
:1034100002F0CEFCEDE7000010B5044602681C4B3C
:103420009A4204D022681B4B9A4216D010BD037EEC
:10343000012BF7D10021FEF744FF174B98609B68E2
:1034400023B9154B40F2DC52DA60EBE70421204649
:10345000FEF737FF104BD860E4E7237E012BE5D160
:1034600000212046FEF72DFF0B4B18611B691BB98D
:10347000094B64225A61D9E704212046FEF721FF57
:10348000064BA3FB00235B09034A5361CEE700BF51
:1034900000040040001800408002002009CB3D8D50
:1034A000014BD868704700BF80020020014B1870A4
:1034B000704700BF08000020014B1878704700BF1C
:1034C00008000020014B5869704700BF80020020AF
:1034D000014B187E704700BF80020020014B187618
:1034E000704700BF80020020014B587E704700BF2C
:1034F00080020020014B5876704700BF80020020F8
:10350000014B987E704700BF80020020014B9876E7
:10351000704700BF80020020014B1878704700BF41
:1035200080020020014B1870704700BF800200200D
:10353000014BD876704700BF80020020014BD87E37
:10354000704700BF80020020014B5878704700BFD1
:1035500080020020014B5870704700BF800200209D
:10356000014B9870704700BF8002002008B5002012
:10357000FFF7B4FF0120FFF7BDFF0020FFF7C6FFF4
:103580000020FFF7CFFF0020FFF7E4FF0020FFF748
:10359000CFFF0020FFF7E4FF01224FF480510248E3
:1035A000FDF7F0FD08BD00BF0000024008B5002097
:1035B000FFF794FF0020FFF79DFF0020FFF7A6FF15
:1035C0000020FFF7AFFF0020FFF7C4FF0120FFF747
:1035D000AFFF0020FFF7C4FF01224FF480510248E3
:1035E000FDF7D0FD08BD00BF0000024008B5012076
:1035F000FFF774FF0020FFF77DFF0020FFF786FF35
:103600000020FFF78FFF0020FFF7A4FF0020FFF747
:103610008FFF0020FFF7A4FF08BD08B5FFF7E6FF06
:1036200008BD08B50020FFF759FF0020FFF762FF33
:103630000020FFF76BFF0120FFF774FF0020FFF76A
:1036400089FF0020FFF774FF0020FFF789FF08BD06
:1036500008B50020FFF742FF0020FFF74BFF0020D6
:10366000FFF754FF0020FFF75DFF0120FFF772FF17
:103670000020FFF75DFF0020FFF772FF08BD00008C
:10368000014B5878704700BF08000020014B58706C
:10369000704700BF0800002008B50020FFF71EFF9C
:1036A0000020FFF727FF0120FFF7F0FF0020FFF7C2
:1036B0002DFF0020FFF736FF0020FFF74BFF002013
:1036C000FFF736FF0020FFF74BFF08BD08B50020CD
:1036D000FFF704FF0020FFF70DFF0020FFF7D6FFE4
:1036E0000020FFF713FF0020FFF71CFF0020FFF76B
:1036F00031FF0020FFF71CFF0120FFF731FF08BD5D
:1037000008B5012202490348FFF778FC08BD00BF55
:10371000B00300204404002008B5012202490348F8
:10372000FFF76CFC08BD00BFB0030020440400207C
:1037300008B502F01FFB012800D008BD094B1B781B
:10374000302B07D0FFF7B8FE012806D0002002F08A
:1037500053FBF2E7FFF7AAFEF4E7034A13680133CD
:103760001360F3E7B00300209C02002030B59DB049
:1037700002F0CAFA012801D01DB030BD02F002FDEE
:1037800002F0E2FC02F0E6FC02F0FCFC02F0E8FCD5
:1037900002F0F8FC00F064FC00F0D2FC00F0DCFC6D
:1037A00000F0AAF8044601F07BFE054601F072FE27
:1037B000019000952346094A642103A803F0D4FB35
:1037C00003A8FDF739F94FF0FF3382B203A904488B
:1037D000FFF7A4FB002002F0D9FACDE7DC81000856
:1037E000D807002008B5012001F04EFE0120FFF7A8
:1037F0004DFF08BD014B1868704700BF9C020020B8
:1038000008B5012202490348FFF7F8FB08BD00BFD5
:10381000340400205C07002008B50C4B1B780C4AD0
:1038200012780C49CA540AB9084A53703F2B08D081
:103830000133064A1370012205490748FFF7DEFBF2
:1038400008BD024B00221A70F5E700BFA00200205D
:1038500034040020F40300205C07002010B5044667
:103860000268074B9A4204D02268064B9A4203D062
:1038700010BDFFF7D1FFF7E7FFF74EFFF8E700BFF6
:10388000004C00400014014000B583B002F054FA2F
:10389000012818D003B05DF804FB124B00229A7087
:1038A0004B1C104A92781048805C104A5054D9B290
:1038B0000C4A93785078834207D03F2BEDD00133E8
:1038C000084A9370ECE70021F2E79070084B191D4D
:1038D000009103320749054803F07AFB002002F00B
:1038E0006DFAD7E7A0020020F4030020B403002003
:1038F0000C00002098810008014BD878704700BF69
:10390000A0020020014B1868704700BF0C00002087
:10391000014B5868704700BF0C00002008B500211B
:103920000548FEF7FBFF00210448FEF7F7FF0021E2
:103930000348FEF7F3FF08BDE8050020E406002079
:103940001808002010B52DED048B444B1B78012B7B
:103950000DD0424B1B7A012B25D0404B5B7A012BBB
:1039600050D0A0F547503F38BDEC048B10BD02F09D
:10397000F7FB3A4B5C68044402F004FCDFED387A54
:1039800020EE270A02F082FCDFED367A20EE270ACD
:1039900007EE904AF8EEE77A37EE800AFDEEC07A3D
:1039A00017EE900AE0E702F0D5FB08EE900A02F06D
:1039B000E9FBDFED2B9A20EE290A02F01FFC9FEDB8
:1039C000299A20EE090AF8EEE88A38EE800ADFED3F
:1039D000267A80EE278A02F0C3FB07EE900AB8EE43
:1039E000E70A38EE408A02F0CDFB20EE290A02F009
:1039F00005FC20EE090A38EE408AFDEEC87A17EE83
:103A0000900AB1E702F0A6FB434208EE903A02F0BA
:103A1000B9FBDFED139A20EE290A02F037FC9FED87
:103A2000119A20EE090AF8EEE88A78EE808A02F010
:103A300097FB07EE900AB8EEE78A38EE288A02F084
:103A4000A1FB20EE290A02F0D9FB20EE090A38EE8C
:103A5000408AFDEEC87A17EE900A85E7A40200209E
:103A600035FA8E3C00F052470000C84207EE901A2B
:103A7000F8EEE77A0A4B93ED007A27EE877A06EEA6
:103A8000900AF8EEE66A77EEE67AD3ED016A67EE21
:103A9000A67A77EE277AFDEEE77A17EE900A70475E
:103AA0001400002070B5064640F6872303FB00F3A0
:103AB000504A82FB0312DC17C4EB623404F2DC547C
:103AC00024B240F282439C4215DD40F235739C42A1
:103AD00014DC494B1C80FFF7FBFC012811D0FFF7D9
:103AE00003FD012835D0FFF729FD012859D0434BAC
:103AF0001D80204670BD40F28344EAE740F23574F1
:103B0000E7E707EE906AF8EEE77A3D4B93ED027A2D
:103B100067EE877A9FED3B7A67EE877ADFED3A6A48
:103B200087EEA67ADFED397A77EEC77AFDEEE77A8F
:103B300017EE903A1DB240F24B439D4206DD40F233
:103B40006C739D42CBDD40F26C75C8E740F24C458A
:103B5000C5E707EE906AF8EEE77A2D4B93ED037A0E
:103B600067EE877A9FED2B7A67EE877ADFED266A1C
:103B700087EEA67ADFED257A77EE277AFDEEE77AF3
:103B800017EE903A1DB240F24B439D4206DD40F2E3
:103B90006C739D42A7DD40F26C75A4E740F24C4582
:103BA000A1E707EE906AF8EEE77A154B93ED037AFA
:103BB00067EE877A9FED177A67EE877ADFED126AF4
:103BC00087EEA67ADFED117A77EEC77AFDEEE77A17
:103BD00017EE903A1DB240F24B439D4206DD40F293
:103BE0006C739D4283DD40F26C7580E740F24C457A
:103BF0007DE700BF89B5F8143604002038040020A2
:103C000014000020005043450050C3470080BB44CF
:103C1000A40200200028F44638B5FFF76DFE022804
:103C200006D0FFF76FFE104B58610F4B586938BD37
:103C30000D4C2569FFF766FE2D1A002DB8BF6D42A9
:103C40002469FFF765FE201A0028B8BF404285426C
:103C500004DAFFF757FE044B5861E6E7FFF758FE1A
:103C6000014B5861E1E700BF1400002010B5044685
:103C700010B1012C05D010BDFFF74AFE034B1861AF
:103C8000F7E7FFF73FFE014B1861F4E7140000204F
:103C900038B5FFF7C1FFFFF755FE0C4B186101F077
:103CA00079F801280AD0094C256929466069FFF78F
:103CB000DDFEA0616561FFF7F5FE38BD01F053F848
:103CC000FFF7D4FF002001F06BF8ECE7A40200201E
:103CD000014B83ED000A704714000020014B83ED77
:103CE000010A704714000020014B93ED060A70474B
:103CF00014000020014B93ED070A704714000020C8
:103D0000014B93ED080A704714000020014B93ED1E
:103D1000090A704714000020014B93ED0A0A70470E
:103D200014000020014B93ED0B0A70471400002093
:103D300008B5FFF7A5FC012810D0FFF7C9FB012843
:103D400022D0FFF7D1FB012827D0FFF7F7FB01288E
:103D50002CD0FFF7D5FB012831D008BDFFF7EEFBD3
:103D6000012808D0FFF7C0FFFFF7B2FFFFF7C2FF3F
:103D7000FFF7B4FFE1E7FFF7C9FFFFF7A9FFFFF780
:103D8000D1FFFFF7ABFFD8E7FFF7AEFFFFF7A0FFCC
:103D9000FFF7B0FFFFF7A2FFD3E7FFF7B1FFFFF791
:103DA00097FFFFF7B9FFFFF799FFCEE7FFF7AEFFE9
:103DB000FFF78EFFFFF7B6FFFFF790FFC9E7FFF7AA
:103DC00093FFFFF785FFFFF795FFFFF787FFC4E736
:103DD00040F2DC5070470000014BB3F9000070471F
:103DE00036040020014BB3F900007047380400206E
:103DF000014B1870704700BFA402002010B5054C9D
:103E000000212046FEF78AFD08212046FEF786FDA8
:103E100010BD00BF20070020DFED027A20EE270A48
:103E2000704700BF00002F44154BD3ED007A9FED83
:103E3000157A67EE877A93ED017ADFED136A27EE44
:103E4000267A77EE877A30EE000A37EE800A9FED09
:103E50000F7AB4EEC70AF1EE10FA01DDB0EE470AB0
:103E60009FED0B7AB4EEC70AF1EE10FA05D4044BBD
:103E700083ED010AC3ED007A7047B0EE470AF6E71A
:103E8000C002002048E17A3F00D7A33C00701446EE
:103E9000007014C6014B83ED020A7047C002002077
:103EA00008B5FFF7FDFAB0F5C86F03D3FFF704FBC1
:103EB000012804D09FED250AFFF7ECFF08BDFFF7AE
:103EC000DFFB01281DD0FFF703FB01281FD0FFF700
:103ED0000BFB012821D0FFF731FB012823D0FFF78E
:103EE0000FFB012825D0FFF717FB012827D0FFF78C
:103EF0002BFB0128E2D1164B93ED030AFFF7CAFF13
:103F0000DCE7144B93ED030AFFF7C4FFDBE7104B2C
:103F100093ED000AFFF7BEFFD9E70D4B93ED010AC1
:103F2000FFF7B8FFD7E70A4B93ED020AFFF7B2FF9E
:103F3000D5E7084B93ED040AFFF7ACFFD3E7044B3A
:103F400093ED030AFFF7A6FFD1E700BF00000000D2
:103F500044000020C00200202DE9F84301F010FFCA
:103F6000012801D0BDE8F883FFF7ACFA384E336979
:103F7000C01A384F7861BD690544BD61FC69041BF6
:103F80003C6207EE900AF8EEE77A96ED057A67EE66
:103F9000877A17EE900AFCF79FFA00222E4BFCF767
:103FA0003DF98046894607EE905AF8EEE77A97ED9C
:103FB000097A67EE877A17EE900AFCF78DFA0246C7
:103FC0000B4640464946FCF729F98046894607EEEC
:103FD000904AF8EEE77A96ED067A67EE877A17EE62
:103FE000900AFCF779FA02460B4640464946FCF730
:103FF00015F9FCF751FB07EE900AB7EE087AF4EEDC
:10400000C77AF1EE10FA01DDF0EE477AF5EEC07AEC
:10401000F1EE10FA18D40F4BC3ED037AFFF752FA02
:10402000632803D90B4B4FF07F52DA60FFF74AFA4F
:104030003B2802D8074B0022DA60064B5A69DA6146
:10404000002001F0DFFE8DE7DFED047AE3E700BF3B
:1040500044000020C00200200000E83F00000000F3
:10406000014B93ED020A7047C002002000000000DF
:1040700010B52DED028B2E4C94ED020AFFF7CCFE0D
:10408000B0EE408A02F078F807EE900AF8EEE77A90
:1040900038EE678A84ED0A8AFFF7E2FFF0EEC07A15
:1040A00017EE900AFCF718FA1FA3D3E90023FCF7D8
:1040B000CBFA50B1F0EEC87A9FED1E7AF4EEC77AD3
:1040C000F1EE10FA01D50022E262B5EEC08AF1EEFF
:1040D00010FA0ADC164B93ED0A0AB5EEC00AF1EEAF
:1040E00010FA12D4BDEC028B10BDB0EE480AFFF7F7
:1040F0009BFEDFED117A20EE270ADFED107A30EE1D
:10410000270A0B4B83ED0B0AE4E7FFF78DFEDFED8B
:104110000A7A20EE270ADFED097A30EE670A044BAF
:1041200083ED0B0ADEE700BF333333333333D33F42
:10413000C0020020000048430AD7233DCDCC0843ED
:10414000014B93ED030A7047C0020020014B93ED31
:104150000B0A7047C0020020014B93ED0A0A70471A
:10416000C002002008B501F0D5FD012800D008BD2F
:10417000FFF7C2FB18B90D4A136801331360FFF74C
:10418000BBFB012807D0FFF7B7FB032808D00020AE
:1041900001F002FEEBE7054A536801335360F2E792
:1041A000024A936801339360F1E700BFF8020020F0
:1041B00008B5FFF7A1FB022810D0FFF79DFB0128EF
:1041C00018D0FFF799FB022819D0154B5B7D042B03
:1041D00024D9144B1B68B3B9002020E0104B1B7D81
:1041E000002BEAD101F0C2FF0E4B18600C4B0122EC
:1041F0001A75E2E70A4A537D01335375E1E7084B2C
:1042000000225A75E1E701F0B1FF06490B68C01AB8
:10421000034B186100220A605A7500E0002008BDB7
:10422000F80200203C04002008B5FFF765FB0128D8
:1042300005D0FFF761FB02280DD0002008BD0D4B13
:104240001B7D012BF5D101F091FF0B4B1860094B41
:1042500000221A75EDE7084B1B680BB90020EDE74B
:1042600001F084FF044A1368C01A024B186100234E
:104270001360E3E7F80200203C040020014B986142
:10428000704700BFF8020020014B1868704700BF5C
:10429000F8020020014B5868704700BFF802002068
:1042A000014B9868704700BFF8020020014B18606E
:1042B000704700BFF8020020014B5860704700BFF4
:1042C000F8020020014B9860704700BFF802002000
:1042D000014B1869704700BFF8020020014B1861BC
:1042E000704700BFF8020020014B1868704700BFFC
:1042F0003C040020014B1860704700BF3C040020C4
:10430000014B1875704700BFF80200202DE9F041FD
:104310008AB0002401943E4B1A6B42F004021A63E7
:104320001A6B02F004020192019A02941A6B42F095
:1043300080021A631A6B02F080020292029A0394BE
:104340001A6B42F001021A631A6B02F00102039227
:10435000039A04941A6B42F002021A631B6B03F077
:1043600002030493049B2B4D224609212846FCF7A7
:1043700009FFDFF8AC8022464FF481514046FCF73C
:1043800001FF254F22464FF410413846FCF7FAFE54
:104390004FF400530593214B0693079405A9284633
:1043A000FCF712FE0923059301260696079408944C
:1043B00005A92846FCF708FE4FF48153059306969D
:1043C0000794089405A94046FCF7FEFD4FF41043FE
:1043D000059306960794089405A93846FCF7F4FD62
:1043E000802305930223069307940323089308234D
:1043F000099305A92846FCF7E7FD22462146282017
:10440000FCF764FD2820FCF795FD0AB0BDE8F081BB
:104410000038024000080240000402400000211061
:1044200000000240FEE7000000B585B01548164BBD
:104430000360002343608360036183610362C3629E
:10444000124A8262C3600122C26103634261FCF7C7
:1044500037FC68B9042300930123019300230293DE
:1044600069460848FCF756FC38B905B05DF804FB0E
:104470004FF494710648FFF7D5FF4FF49971044843
:10448000FFF7D0FF9C060020002001400100000F34
:10449000E881000808B50C480C4B03600C4B4360E6
:1044A00000238360C3604FF48042026143618361F3
:1044B000C3610362FCF77AFE00B908BD4FF4A37133
:1044C0000448FFF7AFFF00BF9405002000540040F0
:1044D000A0860100E881000800B595B03B483C4B40
:1044E0000360012343602023836040F21943C360CB
:1044F000002303614361FEF72BF8002842D114A981
:104500004FF4805341F8103D3048FDF736FE002847
:104510003DD12E48FEF735F800283DD100230E93FB
:104520000F930EA92948FEF766FA002839D16023B7
:10453000079340F20D230893002209920A920B92EE
:104540000C920D9207A92148FEF76AF970BB082268
:1045500007A91E48FEF764F968BB00230093019386
:104560000293039304934FF4005205920693694615
:104570001648FEF769FA18BB144801F0B5F915B0F2
:104580005DF804FB4FF4BA711248FFF74BFF4FF48C
:10459000BD711048FFF746FF40F27F110D48FFF74D
:1045A00041FF4FF4C3710B48FFF73CFF4FF4C97153
:1045B0000848FFF737FF40F297110648FFF732FF30
:1045C00040F2A3110348FFF72DFF00BF2007002092
:1045D00000000140E881000800B58DB017484FF099
:1045E000804303600023436083604FF0FF32C2606A
:1045F0000361032203920493012205920693079319
:10460000089309920A930B9303A9FDF7ECFF50B9A5
:1046100000230193029301A90848FEF7ECF938B989
:104620000DB05DF804FB40F2C1110548FFF7FAFE3A
:104630004FF4E4710248FFF7F5FE00BF9C0700202D
:10464000E881000800B58DB02E482F4B036053233E
:104650004360002383604FF6FF72C2600361FDF781
:1046600077FF002830D12748FDF7A4FF002830D17C
:104670000423079350230893002309930B9307A95E
:104680002048FDF7FEFD48BB00230593069305A9CE
:104690001C48FEF7B0F930BB0022019201230293BF
:1046A0000392049201A91748FEF728F800BB0223E1
:1046B0000193029304220DEB02011248FEF71EF84B
:1046C000D8B90DB05DF804FB4FF4EE710F48FFF759
:1046D000A9FE40F2E1110D48FFF7A4FE4FF4F57179
:1046E0000A48FFF79FFE40F2F1110848FFF79AFED3
:1046F0004FF4FD710548FFF795FE40F20121034894
:10470000FFF790FE6006002000040040E8810008EA
:1047100008B50B480B4B03604FF4E13343600023B3
:104720008360C3600361042242618361C361FEF759
:10473000C6FB00B908BD40F221310348FFF772FE05
:104740005C070020004C0040E881000808B50B48D9
:104750000B4B03604FF4E133436000238360C3607D
:104760000361082242618361C361FEF7A8FB00B9BF
:1047700008BD4FF44D710348FFF754FED8070020E1
:1047800000440040E881000808B50B480B4B03606B
:104790004FF41653436000238360C3600361082213
:1047A00042618361C361FEF78AFB00B908BD40F234
:1047B00047310348FFF736FE54050020004800400B
:1047C000E881000800B589B019481A4B03605323EB
:1047D00043600023836040F69F72C2600361FDF76F
:1047E000B7FEB0B91248FDF7CCFEB8B9602301930B
:1047F00040F2DC53029300220392059201A90C4877
:10480000FEF70EF878B90A4801F06EF809B05DF8C5
:1048100004FB4FF437710848FFF704FE40F2E12132
:104820000548FFF7FFFD40F2EA210348FFF7FAFDD4
:10483000E4060020001C0040E881000800B587B0B5
:104840001848194B0360532343600023836040F2F0
:10485000E732C2600361FDF77BFE98B906A94FF409
:10486000805341F8103D0F48FDF787FC78B90023CD
:104870000093019369460B48FEF7BDF860B907B095
:104880005DF804FB4FF405710848FFF7CBFD40F2DB
:104890001A210648FFF7C6FD40F221210348FFF721
:1048A000C1FD00BF1805002000080040E881000895
:1048B00000B589B019481A4B0360532343600023A5
:1048C000836040F69F72C2600361FDF741FEB0B99C
:1048D0001248FDF756FEB8B96023019340F2DC534D
:1048E000029300220392059201A90C48FDF798FF5C
:1048F00078B90A4800F0F8FF09B05DF804FB40F20F
:10490000FE210848FFF78EFD40F203310548FFF70E
:1049100089FD4FF443710348FFF784FD1808002018
:1049200000200040E881000808B50F480F4B0360E5
:104930004FF48273436000238360C360036143616B
:104940004FF4007282612822C26103624362836273
:104950000A23C362FDF78DF800B908BD4FF4AF71AB
:104960000348FFF75FFD00BF8404002000380040CB
:10497000E881000800B589B019481A4B0360532339
:1049800043600023836040F69F72C2600361FDF7BD
:10499000DFFDB0B91248FDF7F4FDB8B9602301930B
:1049A00040F2DC53029300220392059201A90C48C5
:1049B000FDF736FF78B90A4800F096FF09B05DF8B8
:1049C00004FB40F289210848FFF72CFD40F28E21BC
:1049D0000548FFF727FD40F297210348FFF722FD26
:1049E000E805002000440140E881000800B587B0D8
:1049F0001848194B0360532343600023836041F23E
:104A00008732C2600361FDF7A3FD98B906A94FF490
:104A1000805341F8103D0F48FDF7AFFB78B90023F4
:104A20000093019369460B48FDF7E5FF60B907B0B5
:104A30005DF804FB4FF40D710848FFF7F3FC40F2FA
:104A40003A210648FFF7EEFC40F241210348FFF708
:104A5000E9FC00BF24060020000C0040E8810008AB
:104A600000B591B02848294B0360292343600023F7
:104A7000836044F61F62C26003614361FDF781FDFC
:104A800000282CD100230E930F930EA91E48FDF78A
:104A9000B2FF48BB602307930223089300230993C6
:104AA0000A930B930C930D93082207A91648FDF760
:104AB000B7FEF0B90023009301930293039304938C
:104AC0004FF400520592069369460F48FDF7BCFF6C
:104AD000A0B90D4800F008FF11B05DF804FB40F2EA
:104AE00056210B48FFF79EFC40F25D210848FFF776
:104AF00099FC40F269210648FFF794FC40F27521C9
:104B00000348FFF78FFC00BFDC04002000040140D5
:104B1000E881000800B58BB02748284B0360532379
:104B20004360002383604FF6FF72C2600361FDF7AC
:104B30000FFD38BB2048FDF73DFD40BB0423059326
:104B40005023069300230793099305A91A48FDF7FC
:104B500098FB08BB00220192012302930392049266
:104B600001A91548FDF7CAFDD8B9022301930293A4
:104B700004220DEB02011048FDF7C0FDB0B90BB0E7
:104B80005DF804FB4FF42B710D48FFF74BFC40F22E
:104B9000B1210B48FFF746FC40F2BA210848FFF765
:104BA00041FC40F2C3210648FFF73CFC40F2CA2119
:104BB0000348FFF737FC00BF5408002000180040EE
:104BC000E881000808B50B480B4B03604FF4E13354
:104BD000436000238360C3600361042242618361F8
:104BE000C361FEF76CF900B908BD40F2A13103487A
:104BF000FFF718FC4404002000140140E88100087D
:104C000000B595B000220092294B196C41F08051FB
:104C100019641B6C03F080530093009B0192254B99
:104C2000196841F4404119601B6803F44043019343
:104C3000019B0223079301210A9110210B910D93EF
:104C40000E9208220F92A82210921193129313939E
:104C500007A8FCF7CDFC10BB0F230293022303939C
:104C6000002304934FF4A05305930693052102A853
:104C7000FCF72AFBB8B9FCF7D3FB0F4BA3FB0030C2
:104C80008009FCF763F90420FCF776F9002211464D
:104C90004FF0FF30FCF71AF915B05DF804FBF52171
:104CA0000648FFF7BFFB40F203110448FFF7BAFBC9
:104CB0000038024000700040D34D6210E8810008C7
:104CC00008B5FBF739FFFFF79BFFFFF71FFBFFF767
:104CD000ABFBFFF7DFFBFFF7FFFBFFF77DFCFFF709
:104CE000B1FCFFF715FDFFF731FDFFF74DFDFFF7B5
:104CF00069FDFFF7A3FDFFF7DBFDFFF715FEFFF7EB
:104D000039FEFFF773FEFFF7ABFEFFF703FFFFF778
:104D100059FFFEF775FD01F0ADF8FFF76FF8FEF7EC
:104D2000FDFD00F06FFFFEF783FAFEF7E9FC0DE0F2
:104D300000F066F900F078FAFEF792FAFEF754FBFD
:104D4000FFF70AF9FEF712FDFEF7F2FCFEF79CFDF5
:104D500001F0CCF9FFF706FA00F090FB0128E7D04C
:104D600000F024F8E8E710B5FEF7CCFD0446FEF7A6
:104D7000C9FD00F0FE00201AC0B210BD10B5FEF74C
:104D8000C1FD0446FEF7C4FD201A0028B8BF40420A
:104D900010BD0000014B1878704700BF14030020BD
:104DA000014B1870704700BF1403002010B500F0CD
:104DB000B7FF012800D010BD8F4B1B7A0A2B00F2E1
:104DC0001681DFE813F00B00310079008700AE0098
:104DD000BB00C200CC00ED00FE000A01FEF71DFC86
:104DE000FEF78AFD02280FD0FEF786FD022840F06C
:104DF000B280FFF7C3FF41F27C53984240F2AB8090
:104E00007D4B02221A72A6E0FFF7B8FF41F27B53F6
:104E10009842E9D80020FFF773FA01F0A7F9764B22
:104E2000586001221A7296E0FFF7C2F9FFF750FAB4
:104E300043F69823984205D9FFF74AFA47F22F53D1
:104E400098421BD9FFF744FA40F6B833984205D987
:104E5000FFF73EFA43F6972398421ED901F086F9F0
:104E6000654B5B68C01A48F2E803984273D9624BFD
:104E700006221A720020FFF731FA6CE0FEF7BAFC46
:104E8000B0F5167FDED95C4C0323237201F06EF976
:104E900060600020FFF722FA5DE0FEF7ABFCB0F5A2
:104EA000167FDBD9544C0723237201F05FF9606051
:104EB0000020FFF713FA4EE0FEF71EFD01284AD14D
:104EC0000020FFF7DBF90020FFF71AFA4A4B002217
:104ED0001A7240E0FFF7A8F9FFF7FAF943F2C82386
:104EE000984205D9FFF7F4F947F22F5398420ED9AB
:104EF00001F03CF9404B5B68C01A48F2E803984265
:104F000029D900203C4B1872FFF7E8F923E0002074
:104F1000FFF7E4F90020FFF7C9F9374B04221A72B2
:104F200019E0FEF795FBFFF7AFF94F2813D90020E2
:104F3000FFF7C2F9304B05221A720CE0FFF7AAF90D
:104F4000032808D9FEF752FB05E00120FFF728FFF0
:104F5000294B02221A72002000F024FF2BE7FFF7F2
:104F600063F9FFF7B5F940F6B833984209D9FFF76E
:104F7000AFF943F69723984203D81F4B08221A72C1
:104F8000E9E701F0F3F81C4B5B68C01A48F2E8034C
:104F90009842E0D90020184B1872FFF79FF9DAE722
:104FA00001F0E4F8144B5860FEF790FBFFF76CF942
:104FB0004F28D0D90020FFF77FF90F4B09221A7232
:104FC000C9E701F0D3F80C4B5B68C01A0B4B984251
:104FD000C1D9094B0A221A72BDE7FFF75BF9022813
:104FE000B9D9FEF703FB044B01225A72B3E7024B17
:104FF00000229A72AFE700BF18030020E0220200EF
:1050000010B5FEF73DFB012800D010BD00F088FE72
:105010000128FAD1794B5B7F0B2B00F2E880DFE8A7
:1050200003F00615E62E3F4C65768DA1C0D5FEF740
:1050300033FBFEF761FC032840F0DC8001F096F8BA
:10504000FFF758F96D4B01225A77D3E001F08EF843
:105050000446FFF749F9201A694B984240F3CA8089
:10506000FFF71EF9952803D9644B03225A77C1E054
:105070000020FFF727F9614B00225A77BAE001F0D0
:1050800075F80446FFF730F9201A5E4B984240F35A
:10509000B1800020FFF710F9584B04225A77A9E09D
:1050A000FEF72AFC012840F0A58001F05FF8FFF729
:1050B00021F9524B05225A779CE001F057F804463B
:1050C000FFF712F9201AB0F5FA5F40F39380FFF76B
:1050D000E1F8032803D9494B06225A778AE00020D9
:1050E000FFF7EAF8454B04225A7783E001F03EF8D7
:1050F0000446FFF7F9F8201A434B98427ADD01F095
:1051000035F8FFF7F7F83D4B07225A7772E001F0C8
:105110002DF80446FFF7E8F8201A3C4B984269DD69
:105120009FED3B0A01F034F8FEF77BFA01F01EF820
:10513000FFF7E0F8314B08225A775BE001F016F8F0
:105140000446FFF7D1F8201A324B984252DD002076
:1051500001F024F801F00AF8FFF7CCF8274B0922F8
:105160005A7747E00120FEF743FEFEF71FFA0020C2
:10517000FEF7D8F900F0FAFF0446FFF7B5F8201A59
:10518000254B984236DD1D4C00202077FEF730FE7F
:10519000FEF72CFA0A23637700F0E8FFFFF7AAF87E
:1051A00028E0FEF755FA00F0E1FF0446FFF79CF80F
:1051B000201A1A4B98421DDD00F0D8FFFFF79AF82D
:1051C000FEF714FA0D4B0B225A7713E000F0CEFFD6
:1051D0000446FFF789F8201A114B98420ADD002097
:1051E000FEF754FA0F4B092283F8242002E0034B08
:1051F00000225A77002000F0D5FD06E718030020B2
:10520000503403003E6D1D0068F60A00A0860100C0
:105210000000000020BF020050A50500400D030063
:10522000920A26006000002010B5FEF729FA00B1AE
:1052300010BD00F075FD0128FAD1884B93F8243099
:10524000092B00F20681DFE813F016000401630069
:105250009900A700C300D700E50004010A0000F090
:1052600085FF7F4B18627D4B002283F824200020AD
:1052700000F098FDDCE7FEF7B9F9794B93F824309C
:10528000012B26D9764B93F82430023BDBB2012B5D
:10529000EDD800F06BFF724B1B6AC31A714A934240
:1052A000E5DD0020FFF70EF86C4B022283F8242086
:1052B00000F05CFF6A4CA062FEF758F994F82430C5
:1052C000022B21D0032BD2D1654B002283F824205E
:1052D000CDE700F04BFF624B1B6AC31A624A934250
:1052E000D0DD0020FEF7EEFF5C4B022283F8242085
:1052F00000F03CFF5A4CA062FEF738F994F82430D5
:10530000013384F82430BDE7013384F82430AEE75C
:10531000534B93F82430022B00D05BB900F026FFEA
:105320004F4B9B6AC31A514A934203DD4B4B0322F6
:1053300083F824204A4B93F82430012B11D0484B9A
:1053400093F82430032B92D100F010FF444B9B6A5A
:10535000C31A474A93428ADD404B032283F8242034
:1053600085E700F003FF3E4B9B6AC31A414A934214
:10537000E5DD3A4B032283F82420E0E7FEF7BCFA90
:1053800003287FF474AF00F0F1FEFEF7B3FF334B58
:10539000042283F824206AE700F0E8FE0446FEF7C2
:1053A000A3FF201A4AF2104398427FF760AFFEF73E
:1053B00077FF052804D9294B052283F8242056E7D6
:1053C0000020FEF77FFF254B032283F824204EE7C1
:1053D00000F0CCFE0446FEF787FF201A264B9842C9
:1053E0007FF745AFFEF702F90020FEF765FF1B4B84
:1053F000062283F824203AE7FEF77EFA01287FF49C
:1054000036AF00F0B3FEFEF775FF144B072283F8AA
:1054100024202CE700F0AAFE0446FEF765FF201AC0
:1054200046F6605398427FF722AFFEF733FF03281A
:1054300007D90020FEF752FF084B092283F82420E9
:1054400015E70020FEF738FF044B062283F82420DE
:105450000DE7024B092283F8242008E760000020B2
:1054600018030020E0E60B0030570500A0BB0D003C
:10547000C0090E00F09C0900C0450400014B587A99
:10548000704700BF18030020014B5872704700BFDF
:1054900018030020014B587F704700BF18030020FD
:1054A000014B587D704700BF1803002010B582B033
:1054B00000240094214B5A6C42F480425A645A6C86
:1054C00002F480420092009A01941A6C42F08052D9
:1054D0001A641B6C03F080530193019B0320FBF7BC
:1054E000E3FC224621466FF00B00FBF7EFFC22465F
:1054F00021466FF00A00FBF7E9FC224621466FF0D7
:105500000900FBF7E3FC224621466FF00400FBF79D
:10551000DDFC224621466FF00300FBF7D7FC224654
:1055200021466FF00100FBF7D1FC224621464FF0E7
:10553000FF30FBF7CBFC02B010BD00BF00380240CB
:105540000268134B9A4200D0704730B587B00024F0
:10555000009403F58C335A6C42F480725A645B6C8D
:1055600003F480730093009B10230193032502959D
:10557000039401A90748FBF727FD30230193029507
:10558000039401A90448FBF71FFD07B030BD00BF1D
:105590000020014000000240000802400268124B57
:1055A0009A4200D0704700B587B0C0230193122300
:1055B00002930123039303230493042305930DEB28
:1055C00003010A48FBF700FD00230093084B1A6C07
:1055D00042F400121A641B6C03F400130093009B46
:1055E00007B05DF804FB00BF005400400004024017
:1055F0000038024002681E4B9A4200D070472DE9E5
:10560000F04186B00024009403F500331A6C42F494
:1056100080421A641B6C03F480430093009B0225B4
:105620000195029503940326049607230593DFF85A
:10563000488001A94046FBF7C7FC0423019302956B
:1056400003940496052705970DEB03014046FBF7ED
:10565000BBFC4FF400530193029503940496059705
:1056600001A90448FBF7B0FC06B0BDE8F08100BF1B
:1056700000380040000402400008024070B58EB0BF
:105680000368614A934223D0604A93422ED0604A15
:10569000934255D05F4A934266D05F4A934277D097
:1056A0005E4A934200F081805D4A934200F09F8001
:1056B0005C4A934218D1002308935B4B1A6C42F466
:1056C00080721A641B6C03F480730893089B0BE0D0
:1056D00000230193544B5A6C42F001025A645B6CF4
:1056E00003F001030193019B0EB070BD00240294EE
:1056F0004D4B1A6C42F002021A641B6C03F0020359
:105700000293029B0126099602250A950B940C949C
:105710000D9509A94548FBF757FC402309930A95C5
:105720000B940C940D9509A94148FBF74DFC2246BA
:1057300031461D20FBF7CAFB1D20FBF7FBFBD3E71F
:1057400000220392384B196C41F0040119641B6C60
:1057500003F004030393039B01211E20FBF7B6FB18
:105760001E20FBF7E7FBBFE7002104912E4B1A6CCC
:1057700042F008021A641B6C03F008030493049BB4
:105780000A463220FBF7A2FB3220FBF7D3FBABE744
:1057900000230593244B5A6C42F400325A645B6C2C
:1057A00003F400330593059B9EE7002406941E4BEB
:1057B0001A6C42F040021A641B6C03F0400306931B
:1057C000069B4FF48043099302230A930B940C9495
:1057D00009230D9309A91548FBF7F6FB224621463C
:1057E0002B20FBF773FB2B20FBF7A4FB7CE70023AC
:1057F00007930D4B1A6C42F080021A641B6C03F085
:1058000080030793079B6FE70000014000040040FE
:1058100000080040000C0040004401400018004017
:10582000001C0040002000400038024000040240FC
:10583000000802400368B3F1804F00D0704770B594
:1058400086B00024009403F50E331A6C42F0010276
:105850001A641B6C03F001030093009B4FF4004398
:10586000019302260296039404940125059501A94B
:105870000B48FBF7A9FB4FF40073019302960394C6
:105880000494059501A90748FBF79EFB224629468B
:105890001C20FBF71BFB1C20FBF74CFB06B070BD6C
:1058A000000002400004024002680E4B9A4200D001
:1058B000704700B583B00021019103F59A335A6C0B
:1058C00042F002025A645B6C03F002030193019BF5
:1058D0000A462B20FBF7FAFA2B20FBF72BFB03B031
:1058E0005DF804FB0004014000B587B003682D4A51
:1058F00093420ED02C4A93421AD02C4A934226D07F
:105900002B4A934232D02B4A93423DD007B05DF8E8
:1059100004FB4FF4A063019302230293002303933B
:1059200004930123059301A92348FBF74DFBEDE701
:105930004FF4807301930223029300230393049393
:105940000323059301A91D48FBF73EFBDEE74FF457
:105950008073019302230293002303930493032390
:10596000059301A91648FBF72FFBCFE740230193CE
:10597000022302930023039304930923059301A9AF
:105980000D48FBF721FBC1E780230193022302931B
:105990000023039304930923059301A90648FBF709
:1059A00013FBB3E700000140000401400044014044
:1059B000001C00400020004000000240000802409F
:1059C000000402402DE9F0438BB00368474A93423C
:1059D00008D0474A934249D0464A934269D00BB017
:1059E000BDE8F08300250195434C236C43F400236C
:1059F0002364236C03F400230193019B0326059683
:105A00004FF00209CDF818900127079708964FF03C
:105A10000808CDF8248005A93848FBF7D5FA2A46AE
:105A200039463420FBF752FA3420FBF783FA02950B
:105A3000636C43F020036364636C03F02003029300
:105A4000029B80230593CDF8189007970896CDF810
:105A5000248005A92A48FBF7B7FA2A462946472099
:105A6000FBF734FA4720FBF765FAB8E70025039502
:105A7000214B1A6C42F400321A641B6C03F400339D
:105A80000393039B0C23059302230693012407949D
:105A9000032308930723099305A91848FBF794FAF1
:105AA0002A4621462620FBF711FA2620FBF742FA68
:105AB00095E700230493104B1A6C42F480221A6479
:105AC0001B6C03F480230493049B4FF44063059301
:105AD00002230693012307930323089307230993C3
