:020000040800F2
:100000000000022059500008E54B0008E74B0008AB
:10001000E94B0008EB4B0008ED4B00080000000026
:10002000000000000000000000000000EF4B00088E
:10003000F14B000800000000F34B0008F54B0008EE
:10004000A9500008A9500008A9500008A9500008AC
:10005000A9500008A9500008A9500008A95000089C
:10006000A9500008A9500008A9500008A95000088C
:10007000A9500008A9500008A9500008A95000087C
:10008000A9500008A9500008A9500008A95000086C
:10009000A9500008A9500008A9500008A95000085C
:1000A000A9500008A9500008A9500008A95000084C
:1000B000014C0008114C0008214C0008A950000810
:1000C000A9500008A9500008A9500008A95000082C
:1000D000A9500008A9500008314C0008A950000898
:1000E000A9500008A9500008A9500008A95000080C
:1000F000A9500008A9500008A9500008A9500008FC
:10010000A9500008A9500008414C0008A950000857
:10011000554C0008A9500008A9500008A950000833
:10012000A9500008A9500008A9500008A9500008CB
:10013000A95000080000000000000000A9500008BD
:10014000A9500008A9500008A9500008A9500008AB
:10015000A9500008A9500008A9500008A95000089B
:10016000A9500008A9500008A9500008A95000088B
:10017000A9500008A9500008A9500008000000007C
:1001800000000000A950000800000000000000006E
:10019000A95000080000000000000000A95000085D
:1001A000000000000000000000000000A95000084E
:1001B000A9500008A9500008A9500008A95000083B
:0401C000A95000083A
:1001D00010B5054C237833B9044B13B10448AFF381
:1001E00000800123237010BD1002002000000000D9
:1001F0007077000808B5034B1BB103490348AFF300
:10020000008008BD00000000140200207077000884
:1002100081F0004102E000BF83F0004330B54FEAB7
:1002200041044FEA430594EA050F08BF90EA020F24
:100230001FBF54EA000C55EA020C7FEA645C7FEAB7
:10024000655C00F0E2804FEA5454D4EB5555B8BFDA
:100250006D420CDD2C4480EA020281EA030382EA4B
:10026000000083EA010180EA020281EA0303362DDD
:1002700088BF30BD11F0004F4FEA01314FF4801CB0
:100280004CEA113102D0404261EB410113F0004FC2
:100290004FEA03334CEA133302D0524263EB430379
:1002A00094EA050F00F0A780A4F10104D5F1200E17
:1002B0000DDB02FA0EFC22FA05F2801841F1000172
:1002C00003FA0EF2801843FA05F359410EE0A5F146
:1002D00020050EF1200E012A03FA0EFC28BF4CF077
:1002E000020C43FA05F3C01851EBE37101F000452D
:1002F00007D54FF0000EDCF1000C7EEB00006EEB3A
:100300000101B1F5801F1BD3B1F5001F0CD34908C3
:100310005FEA30004FEA3C0C04F101044FEA44521A
:1003200012F5800F80F09A80BCF1004F08BF5FEAA1
:10033000500C50F1000041EB045141EA050130BD81
:100340005FEA4C0C404141EB010111F4801FA4F124
:100350000104E9D191F0000F04BF01460020B1FA79
:1003600081F308BF2033A3F10B03B3F120020CDAB1
:100370000C3208DD02F1140CC2F10C0201FA0CF08F
:1003800021FA02F10CE002F11402D8BFC2F1200CF4
:1003900001FA02F120FA0CFCDCBF41EA0C019040AA
:1003A000E41AA2BF01EB0451294330BD6FEA0404F3
:1003B0001F3C1CDA0C340EDC04F11404C4F12002DE
:1003C00020FA04F001FA02F340EA030021FA04F3F0
:1003D00045EA030130BDC4F10C04C4F1200220FA47
:1003E00002F001FA04F340EA0300294630BD21FA85
:1003F00004F0294630BD94F0000F83F4801306BF4B
:1004000081F480110134013D4EE77FEA645C18BF3E
:100410007FEA655C29D094EA050F08BF90EA020FD5
:1004200005D054EA000C04BF1946104630BD91EACD
:10043000030F1EBF0021002030BD5FEA545C05D1D0
:100440004000494128BF41F0004130BD14F580040F
:100450003CBF01F5801130BD01F0004545F0FE4183
:1004600041F470014FF0000030BD7FEA645C1ABFB8
:10047000194610467FEA655C1CBF0B46024650EAEF
:10048000013406BF52EA033591EA030F41F400211B
:1004900030BD00BF90F0000F04BF0021704730B5A1
:1004A0004FF4806404F132044FF000054FF0000176
:1004B00050E700BF90F0000F04BF0021704730B537
:1004C0004FF4806404F1320410F0004548BF40420C
:1004D0004FF000013EE700BF42004FEAE2014FEA61
:1004E00031014FEA02701FBF12F07F4393F07F4F3C
:1004F00081F06051704732F07F4208BF704793F03F
:100500007F4F04BF41F40021704730B54FF4607451
:1005100001F0004521F000411CE700BF50EA010254
:1005200008BF704730B54FF000050AE050EA0102FD
:1005300008BF704730B511F0004502D5404261EB6D
:1005400041014FF4806404F132045FEA915C3FF4AE
:10055000D8AE4FF003025FEADC0C18BF03325FEA4B
:10056000DC0C18BF033202EBDC02C2F1200300FAFC
:1005700003FC20FA02F001FA03FE40EA0E0021FA21
:1005800002F11444BDE600BF70B54FF0FF0C4CF40F
:10059000E06C1CEA11541DBF1CEA135594EA0C0FC1
:1005A00095EA0C0F00F0DEF82C4481EA030621EAFC
:1005B0004C5123EA4C5350EA013518BF52EA033537
:1005C00041F4801143F4801338D0A0FB02CE4FF0E9
:1005D0000005E1FB02E506F00042E0FB03E54FF019
:1005E0000006E1FB03569CF0000F18BF4EF0010E11
:1005F000A4F1FF04B6F5007F64F5407404D25FEA0D
:100600004E0E6D4146EB060642EAC62141EA5551BF
:100610004FEAC52040EA5E504FEACE2EB4F1FD0C01
:1006200088BFBCF5E06F1ED8BEF1004F08BF5FEA7F
:10063000500E50F1000041EB045170BD06F0004631
:1006400046EA010140EA020081EA0301B4EB5C04DE
:10065000C2BFD4EB0C0541EA045170BD41F48011D6
:100660004FF0000E013C00F3AB8014F1360FDEBFFB
:10067000002001F0004170BDC4F10004203C35DAD7
:100680000C341BDC04F11404C4F1200500FA05F35A
:1006900020FA04F001FA05F240EA020001F00042FB
:1006A00021F0004110EBD37021FA04F642EB060171
:1006B0005EEA430E08BF20EAD37070BDC4F10C049B
:1006C000C4F1200500FA04F320FA05F001FA04F25F
:1006D00040EA020001F0004110EBD37041F100014B
:1006E0005EEA430E08BF20EAD37070BDC4F1200556
:1006F00000FA05F24EEA020E20FA04F301FA05F2BE
:1007000043EA020321FA04F001F0004121FA04F265
:1007100020EA020000EBD3705EEA430E08BF20EA35
:10072000D37070BD94F0000F0FD101F0004640006F
:1007300041EB010111F4801F08BF013CF7D041EAF1
:10074000060195F0000F18BF704703F000465200F5
:1007500043EB030313F4801F08BF013DF7D043EAC6
:100760000603704794EA0C0F0CEA135518BF95EA7C
:100770000C0F0CD050EA410618BF52EA4306D1D103
:1007800081EA030101F000414FF0000070BD50EA22
:10079000410606BF1046194652EA430619D094EAAC
:1007A0000C0F02D150EA013613D195EA0C0F05D196
:1007B00052EA03361CBF104619460AD181EA0301EA
:1007C00001F0004141F0FE4141F470014FF00000A2
:1007D00070BD41F0FE4141F4780170BD70B54FF03D
:1007E000FF0C4CF4E06C1CEA11541DBF1CEA1355BD
:1007F00094EA0C0F95EA0C0F00F0A7F8A4EB05049F
:1008000081EA030E52EA03354FEA013100F0888095
:100810004FEA03334FF0805545EA131343EA12635E
:100820004FEA022245EA111545EA10654FEA002613
:100830000EF000419D4208BF964244F1FD0404F5CC
:10084000407402D25B084FEA3202B61A65EB030528
:100850005B084FEA32024FF480104FF4002CB6EBE5
:10086000020E75EB030E22BFB61A754640EA0C0065
:100870005B084FEA3202B6EB020E75EB030E22BFA5
:10088000B61A754640EA5C005B084FEA3202B6EBE6
:10089000020E75EB030E22BFB61A754640EA9C00A5
:1008A0005B084FEA3202B6EB020E75EB030E22BF75
:1008B000B61A754640EADC0055EA060E18D04FEA33
:1008C000051545EA16754FEA06164FEAC30343EAD3
:1008D00052734FEAC2025FEA1C1CC0D111F4801FA0
:1008E0000BD141EA00014FF000004FF0004CB6E799
:1008F00011F4801F04BF01430020B4F1FD0C88BF38
:10090000BCF5E06F3FF6AFAEB5EB030C04BFB6EB42
:10091000020C5FEA500C50F1000041EB045170BD35
:100920000EF0004E4EEA113114EB5C04C2BFD4EB62
:100930000C0541EA045170BD41F480114FF0000EE6
:10094000013C90E645EA060E8DE60CEA135594EA62
:100950000C0F08BF95EA0C0F3FF43BAF94EA0C0F65
:100960000AD150EA01347FF434AF95EA0C0F7FF4DA
:1009700025AF104619462CE795EA0C0F06D152EA2E
:1009800003353FF4FDAE1046194622E750EA410612
:1009900018BF52EA43067FF4C5AE50EA41047FF423
:1009A0000DAF52EA43057FF4EBAE12E74FF0FF3C88
:1009B00006E000BF4FF0010C02E000BF4FF0010C59
:1009C0004DF804CD4FEA410C7FEA6C5C4FEA430CD2
:1009D00018BF7FEA6C5C1BD001B050EA410C0CBF21
:1009E00052EA430C91EA030F02BF90EA020F002083
:1009F000704710F1000F91EA030F58BF994208BFEA
:100A000090422CBFD8176FEAE37040F001007047A6
:100A10004FEA410C7FEA6C5C02D150EA013C07D1FD
:100A20004FEA430C7FEA6C5CD6D152EA033CD3D048
:100A30005DF8040B704700BF8446104662468C4642
:100A40001946634600E000BF01B5FFF7B7FF002875
:100A500048BF10F1000F01BD4DF808EDFFF7F4FF9E
:100A60000CBF012000205DF808FB00BF4DF808ED29
:100A7000FFF7EAFF34BF012000205DF808FB00BF4C
:100A80004DF808EDFFF7E0FF94BF012000205DF86E
:100A900008FB00BF4DF808EDFFF7CEFF94BF012023
:100AA00000205DF808FB00BF4DF808EDFFF7C4FF1C
:100AB00034BF012000205DF808FB00BF4FEA41026F
:100AC00012F5001215D211D56FF47873B3EB6252A0
:100AD00012D94FEAC12343F0004343EA505311F0C7
:100AE000004F23FA02F018BF404270474FF0000059
:100AF000704750EA013005D111F0004008BF6FF097
:100B0000004070474FF00000704700BF4FEA4102BD
:100B1000B2F1E04324BFB3F5001CDCF1FE5C0DD95B
:100B200001F0004C4FEAC0024CEA5070B2F1004FA5
:100B300040EB830008BF20F00100704711F0804FA8
:100B400021D113F13872BCBF01F00040704741F46D
:100B500080114FEA5252C2F11802C2F1200C10FA71
:100B60000CF320FA02F018BF40F001004FEAC12355
:100B70004FEAD32303FA0CFC40EA0C0023FA02F3F9
:100B80004FEA4303CCE77FEA625307D150EA0133CF
:100B90001EBF4FF0FE4040F44000704701F000409F
:100BA00040F0FE4040F40000704700BF53B94AB91E
:100BB000002908BF00281CBF4FF0FF314FF0FF3065
:100BC00000F072B9ADF1080C6DE904CE00F006F842
:100BD000DDF804E0DDE9022304B070472DE9F047B9
:100BE000089E04468846002B4BD18A42154667D999
:100BF000B2FA82F24AB1C2F1200701FA02F320FAF6
:100C000007F7954047EA030894404FEA154E230C36
:100C1000B8FBFEF71FFA85FC0EFB178843EA084372
:100C200007FB0CF1994209D9EB1807F1FF3080F06E
:100C30001B81994240F21881023F2B445B1AA4B2F7
:100C4000B3FBFEF00EFB103344EA034400FB0CFC44
:100C5000A44509D92C1900F1FF3380F00781A44580
:100C600040F2048102382C4440EA0740A4EB0C0413
:100C700000271EB1D4400023C6E900433946BDE831
:100C8000F0878B4209D9002E00F0EB800027C6E9DF
:100C9000000138463946BDE8F087B3FA83F7002FE4
:100CA00047D18B4202D3824200F2FA80841A61EB70
:100CB000030301209846002EE0D0C6E90048DDE796
:100CC00002B9FFDEB2FA82F2002A40F08F80491B9F
:100CD0004FEA154E1FFA85F80127B1FBFEFC230CE5
:100CE0000EFB1C1143EA014308FB0CF1994207D9A2
:100CF000EB180CF1FF3002D2994200F2CD8084460D
:100D0000591AA3B2B1FBFEF00EFB101443EA0444DF
:100D100008FB00F8A04507D92C1900F1FF3302D2D7
:100D2000A04500F2B6801846A4EB080440EA0C4047
:100D30009FE7C7F1200CBB4022FA0CFE4EEA030EDF
:100D400001FA07F420FA0CF521FA0CF34FEA1E48D9
:100D50002543B3FBF8F92C0C08FB19331FFA8EFA64
:100D600044EA034309FB0AF49C4202FA07F200FA40
:100D700007F10BD91EEB030309F1FF3080F08780E8
:100D80009C4240F28480A9F1020973441B1BADB25E
:100D9000B3FBF8F008FB103345EA034400FB0AFA02
:100DA000A24508D91EEB040400F1FF336BD2A24523
:100DB00069D90238744440EA0940A0FB0289A4EBD7
:100DC0000A044C45C2464B4654D351D0002E69D03C
:100DD000B1EB0A0564EB030404FA0CFCFD40FC4093
:100DE0004CEA0505C6E90054002747E7C2F1200395
:100DF00020FA03F7954001FA02F021FA03F34FEAD3
:100E0000154E3843010CB3FBFEF71FFA85F80EFBB5
:100E1000173341EA034107FB08F38B4204FA02F45B
:100E200007D9691807F1FF3C2FD28B422DD9023F19
:100E30002944CB1A81B2B3FBFEF00EFB103341EA1A
:100E4000034100FB08F38B4207D9691800F1FF3C0E
:100E500017D28B4215D902382944C91A40EA0747EC
:100E60003BE73746304609E70746E7E61846FBE624
:100E70004145ABD2B8EB020A69EB0E0201381346CA
:100E8000A4E76046E9E7184695E76746D1E781465B
:100E90007CE702382C4447E7ACF1020C2B442FE7E7
:100EA000384608E73746E9E6704700BF034613F8BF
:100EB000012B002AFBD1181A0138704700000000EE
:100EC00001F0FF01102A2BDB10F0070F08D010F8FB
:100ED000013B013A8B422DD010F0070F42B3F6D1FF
:100EE000F0B441EA012141EA014122F007047FF018
:100EF00000070023F0E80256083C85EA010586EA6F
:100F0000010685FA47F5A3FA87F586FA47F6A5FAAA
:100F100087F68EB9EED1F0BC01F0FF0102F00702B6
:100F200032B110F8013B013A83EA010313B1F8D161
:100F30000020704701387047002D06BF3546033842
:100F4000073815F0010F07D1013015F4807F02BF7B
:100F5000013015F4C03F0130F0BC0138704700BFCC
:100F600010B504460E4B18784FF47A73B3FBF0F3C8
:100F70000C4A1068B0FBF3F000F020FA68B90F2CAF
:100F800001D901200AE0002221464FF0FF3000F095
:100F9000D5F9034B5C60002000E0012010BD00BFCC
:100FA000000000203800002008B50B4B1A6842F4FE
:100FB00000721A601A6842F480621A601A6842F479
:100FC00080721A60032000F0A7F90020FFF7C8FF25
:100FD00003F05EFB002008BD003C0240034A11689C
:100FE000034B1B780B441360704700BFD4020020F2
:100FF00000000020014B1868704700BFD402002099
:10100000494B5A6822F440325A605A6841680A4390
:101010005A600268536823F480735360026853680F
:10102000016943EA012353600268536823F0407367
:1010300053600268536881680B4353600268936889
:1010400023F40063936002689368C1680B43936064
:10105000826A364B9A4249D00268936823F07063E3
:10106000936002689368816A0B4393600268936897
:1010700023F04053936002689368C16A0B43936006
:101080000268936823F002039360026893688169A1
:1010900043EA41039360036A002B32D1026853682C
:1010A00023F4006353600268D36A23F47003D362AD
:1010B0000168CB6AC269013A43EA0253CB62026813
:1010C000936823F40073936002689368016B43EAAA
:1010D000412393600268936823F4806393600268FD
:1010E0009368416943EA812393607047026893687B
:1010F00023F0706393600268936823F04053936019
:10110000BEE70268536843F40063536002685368A3
:1011100023F46043536001684B68426A013A43EA32
:1011200042334B60BFE700BF002301400100000FC6
:1011300030B310B50446036C43B1236C13F0100FA9
:101140000AD00120002384F83C3010BD436480F8AD
:101150003C3003F0E7FAF0E7236C23F4885323F0E4
:10116000020343F0020323642046FFF749FF0020F7
:101170006064236C23F0030343F001032364E1E77D
:101180000120704730B482B00023019390F83C30C6
:10119000012B00F0B580012380F83C300B68092B4F
:1011A0003ED90568EA689BB203EB43031E3B072464
:1011B00004FA03F322EA0303EB600568EA688C682B
:1011C0000B8803EB43031E3B04FA03F31343EB606A
:1011D0004B68062B3AD805686A6B03EB8303053B23
:1011E0001F2404FA03F322EA03036B6305686A6BA6
:1011F0004B6803EB8303053B0C8804FA03F31343AA
:101200006B6302683F4B9A4250D002683D4B9A4252
:1012100055D0002380F83C30184602B030BC7047EF
:1012200005682A699BB203EB4303072404FA03F31E
:1012300022EA03032B6105682A698C680B8803EB9B
:10124000430304FA03F313432B61C1E70C2B16D8B5
:1012500005682A6B03EB8303233B1F2404FA03F383
:1012600022EA03032B6305682A6B4B6803EB8303B5
:10127000233B0C8804FA03F313432B63C1E705688F
:10128000EA6A03EB8303413B1F2404FA03F322EAD7
:101290000303EB620568EA6A4B6803EB8303413B97
:1012A0000C8804FA03F31343EB62AAE70B68122BD2
:1012B000ABD1154A536843F480035360A5E70B682C
:1012C000124A934201D0112BA3D10F4A536843F421
:1012D000000353600A680D4B9A429AD10C4B1B686D
:1012E0000C4AA2FB03239B0C03EB83035A000192DD
:1012F00002E0019B013B0193019B002BF9D188E7A0
:1013000002208AE700200140002301401200001063
:101310003800002083DE1B43074AD36823F4E063D0
:101320001B041B0C000200F4E060184340F0BF6097
:1013300040F40030D060704700ED00E030B4174B4F
:10134000DB68C3F30223C3F10704042C28BF042481
:101350001D1D062D18D9033B4FF0FF3505FA04F487
:1013600021EA0401994005FA03F322EA0303194331
:1013700000280BDB0901C9B200F1604000F56140B3
:1013800080F8001330BC70470023E5E700F00F0041
:101390000901C9B2024B1954F4E700BF00ED00E0A7
:1013A00014ED00E000F01F02400901239340024ABF
:1013B00042F82030704700BF00E100E00138B0F192
:1013C000807F0AD2064B5860064AF02182F823102B
:1013D0000020986007221A6070470120704700BF04
:1013E00010E000E000ED00E0042805D0054A136895
:1013F00023F0040313607047024A136843F00403A8
:101400001360704710E000E0704708B5FFF7FCFF7D
:1014100008BD90F83530DBB2022B03D08023436542
:1014200001207047052380F835300268136823F0E7
:10143000010313600020704700230F2B00F2D180BE
:10144000F0B482B039E0062200E00022B2403A4314
:101450000234644E46F82420634A1468EA4302EAE0
:1014600004064F6817F4803F01D045EA04065E4C3D
:101470002660646802EA04064F6817F4003F01D052
:1014800045EA0406584C6660A46802EA04064F6800
:1014900017F4801F01D045EA0406534CA660E468A7
:1014A00022404E6816F4001F01D045EA04024E4C5B
:1014B000E26001330F2B00F2918001229A400C6808
:1014C00004EA0205AA42F4D14C68022C01D0122C85
:1014D00010D1DE08083650F826C003F00704A70034
:1014E0000F24BC402CEA040C0C69BC4044EA0C04F8
:1014F00040F8264004685F000326BE40F64306EA33
:10150000040C4C6804F00304BC4044EA0C0404607E
:101510004C6804F1FF3CBCF1010F03D9112C01D040
:10152000122C10D1846806EA040CCC68BC4044EA52
:101530000C048460446824EA02024C68C4F300147A
:101540009C4014434460C26816408A68BA403243E3
:10155000C2604A6812F0805FABD000220192234A39
:10156000546C44F480445464526C02F480420192FE
:10157000019A9C08A61C1B4A52F8267003F003022D
:1015800096000F22B24027EA0207194A90423FF420
:101590005CAF02F58062904216D002F58062904204
:1015A00014D002F58062904212D002F5806290421F
:1015B00010D002F5806290420ED002F58062904217
:1015C0003FF441AF072241E701223FE702223DE716
:1015D00003223BE7042239E7052237E702B0F0BCDB
:1015E0007047704700380140003C0140003802401D
:1015F0000000024012B9090481617047816170479F
:10160000002800F0828010B5044690F83D30002B91
:1016100041D0242384F83D302268136823F001036D
:10162000136000F02DF93A4BA3FB00239B0C2268BA
:1016300053606168374A914232D80133226813629D
:101640006368344A934235D85B00B0FBF3F0C0F3D3
:101650000B03032B00D804202368D861E369216AB7
:1016600022680B4313602369E16822680B4393608F
:101670006369A16922680B43D3602268136843F051
:101680000103136000202064202384F83D30206390
:1016900084F83E0010BD80F83C3003F071F8B8E7E4
:1016A0004FF4967202FB03F31B4AA2FB03239B0930
:1016B0000133C3E7A16889B903EB4302B0FBF2F23F
:1016C000C2F30B02B2FA82F25209E2B991B903EB0A
:1016D0004303B0FBF3F040F40040BDE703EB8302AB
:1016E00002EB8202B0FBF2F2C2F30B02B2FA82F218
:1016F0005209EAE703EB830303EB8303B0FBF3F048
:1017000040F44040A8E70120A6E70120704700BF51
:1017100083DE1B43A0860100D34D6210002800F039
:101720009D8070B504464F4B1B6803F00F038B423E
:1017300009D2CBB24B4A1370136803F00F038B42EC
:1017400001D0012070BD236813F0020F17D013F0F1
:10175000040F04D0444A936843F4E0539360236831
:1017600013F0080F04D0404A936843F46043936039
:101770003D4A936823F0F003A068034393600D464D
:10178000236813F0010F32D06368012B21D09A1E19
:10179000012A25D9344A126812F0020F60D032496A
:1017A0008A6822F0030213438B60FFF723FC06468E
:1017B0002D4B9B6803F00C036268B3EB820F16D0CD
:1017C000FFF718FC801B41F288339842F0D90320C0
:1017D000B8E7254A126812F4003FE0D10120B1E7D2
:1017E000214A126812F0007FD9D10120AAE71D4BCF
:1017F0001B6803F00F03AB4209D9EAB2194B1A7008
:101800001B6803F00F03AB4201D001209AE7236865
:1018100013F0040F06D0144A936823F4E053E168F0
:101820000B439360236813F0080F07D00E4A9368A8
:1018300023F46043216943EAC103936000F040F858
:10184000094B9B68C3F30313084AD35CD840084B89
:1018500018600020FFF784FB002073E70120704729
:1018600001206FE7003C02400038024098770008F2
:1018700038000020014B1868704700BF3800002076
:1018800008B5FFF7F7FF044B9B68C3F38223034AB5
:10189000D35CD84008BD00BF00380240A8770008DC
:1018A00008B5FFF7E7FF044B9B68C3F34233034AD5
:1018B000D35CD84008BD00BF00380240A8770008BC
:1018C0002DE9F04B5C4B9B6803F00C03082B07D011
:1018D0000C2B5BD0042B00F0AD805848BDE8F08B9A
:1018E000554B5A6802F03F025B6813F4800F2AD010
:1018F000514B5B68C3F388131E4600275C0100252B
:10190000E41A65EB0705A90141EA9461A001001BF7
:1019100061EB0501CB0043EA5073C400A01943EB0F
:1019200007014B0243EAD0534402204619460023E4
:10193000FFF73CF9404B5B68C3F3014301335B00A5
:10194000B0FBF3F0CAE73C4B5B68C3F388131E4659
:1019500000275C010025E41A65EB0705A90141EAAF
:101960009461A001001B61EB0501CB0043EA5073B9
:10197000C400A01943EB07018B0243EA9053840291
:10198000204619460023FFF711F9D3E72A4B5A687E
:1019900002F03F025B6813F4800F28D0264B5B688F
:1019A000C3F388131E4600275C010025E41A65EB8B
:1019B0000705A90141EA9461A001001B61EB050143
:1019C000CB0043EA5073C400A01943EB07014B025C
:1019D00043EAD0534402204619460023FFF7E6F8B5
:1019E000154B5B68C3F30273B0FBF3F076E7124B61
:1019F0005B68C3F388131E4600275C010025E41AC8
:101A000065EB0705A90141EA9461A001001B61EBA8
:101A10000501CB0043EA5073C400A01943EB070152
:101A20008B0243EA90538402204619460023FFF7B5
:101A3000BDF8D5E7024851E7003802400024F40021
:101A400000127A0070B582B00446036813F0010FEB
:101A500041D0A64B9B6803F00C03042B32D0A34B60
:101A60009B6803F00C03082B27D0A04B9B6803F066
:101A70000C030C2B59D06368B3F5803F5BD0B3F5F2
:101A8000A02F5ED0994B1A6822F480321A601A682F
:101A900022F480221A606368002B5CD0FFF7AAFA58
:101AA0000546924B1B6813F4003F14D1FFF7A2FACE
:101AB000401B6428F5D903209DE18C4B5B6813F42F
:101AC000800FD2D0894B1B6813F4003F03D06368AA
:101AD000002B00F08D81236813F0020F67D0834B39
:101AE0009B6813F00C0F4AD0804B9B6803F00C03EB
:101AF000082B3FD07D4B9B6803F00C030C2B48D088
:101B0000E368002B74D07A4B01221A60FFF772FA57
:101B10000546764B1B6813F0020F60D1FFF76AFA97
:101B2000401B0228F5D9032065E1704B5B6813F474
:101B3000800FA0D0C6E76D4A136843F4803313606A
:101B4000A9E76A4B1A6842F480221A601A6842F4C4
:101B500080321A609FE7FFF74DFA0546634B1B681A
:101B600013F4003FB7D0FFF745FA401B6428F5D9BE
:101B7000032040E15D4B5B6813F4800FBAD15B4BEF
:101B80001B6813F0020F0AD0E368012B07D0012075
:101B900031E1564B5B6813F4800FB1D1EFE7534A44
:101BA000136823F0F803216943EAC1031360236833
:101BB00013F0080F40D0636963B34E4B01221A60E3
:101BC000FFF718FA0546494B5B6F13F0020F33D14C
:101BD000FFF710FA401B0228F5D903200BE1434A16
:101BE000136823F0F803216943EAC1031360DEE7B9
:101BF0003F4B00221A60FFF7FDF905463B4B1B687F
:101C000013F0020FD3D0FFF7F5F9401B0228F5D9E6
:101C10000320F0E0374B00221A60FFF7EBF905468E
:101C2000324B5B6F13F0020F06D0FFF7E3F9401B56
:101C30000228F5D90320DEE0236813F0040F79D0E1
:101C40002A4B1B6C13F0805F33D100230193274B89
:101C50001A6C42F080521A641B6C03F0805301939B
:101C6000019B0125244B1B6813F4807F23D0A368BC
:101C7000012B34D0052B41D01C4B1A6F22F00102EE
:101C80001A671A6F22F004021A67A368002B3FD06C
:101C9000FFF7B0F90646154B1B6F13F0020F48D142
:101CA000FFF7A8F9801B41F288339842F3D903204B
:101CB000A1E00025D6E7104A136843F4807313604F
:101CC000FFF798F906460C4B1B6813F4807FCED1C2
:101CD000FFF790F9801B0228F5D903208BE0034A17
:101CE000136F43F001031367CFE700BF00380240D2
:101CF00000004742800E474200700040404B1A6F80
:101D000042F004021A671A6F42F001021A67BCE738
:101D1000FFF770F906463A4B1B6F13F0020F08D01D
:101D2000FFF768F9801B41F288339842F3D903200A
:101D300061E0E5B9A369002B5CD0314A926802F0FA
:101D40000C02082A59D0022B17D02E4B00221A6001
:101D5000FFF750F904462A4B1B6813F0007F45D06B
:101D6000FFF748F9001B0228F5D9032043E0244A75
:101D7000136C23F080531364DCE7224B00221A60BB
:101D8000FFF738F905461E4B1B6813F0007F06D09D
:101D9000FFF730F9401B0228F5D903202BE0E36957
:101DA000226A1343626A43EA8213A26A5208013A22
:101DB00043EA0243E26A43EA0263226B43EA0273A4
:101DC0000F4A53600F4B01221A60FFF713F90446C4
:101DD0000B4B1B6813F0007F06D1FFF70BF9001BBC
:101DE0000228F5D9032006E0002004E0002002E0EC
:101DF000012000E0002002B070BD0120FBE700BF21
:101E00000038024060004742F8B505460F461646C6
:101E10001C463BE02CB1FFF7EDF8069BC01AA04230
:101E200034D32A68536823F0E00353606B68B3F53A
:101E3000827F0BD0AB6AB3F5005F14D0012385F825
:101E40005130002385F85030032027E0AB68B3F50C
:101E5000004F02D0B3F5806FECD12A68136823F0ED
:101E600040031360E6E72A68136823F400531B0459
:101E70001B0C13602A68136843F400531360DDE7FA
:101E80000123B34209D0B4F1FF3FC3D12B689B6853
:101E900037EA0303F4D00023F3E70020F8BD10B5C0
:101EA00082B0044600920B4600228021FFF7ACFF6F
:101EB000034610B9184602B010BD636D43F020030D
:101EC00063650323F6E700283BD010B504460023E2
:101ED000836290F85130002B2ED0022384F85130C9
:101EE0002268136823F0400313606368A2681343F9
:101EF000E26813432269134362691343A26902F43F
:101F000000721343E2691343226A1343A16A2268F1
:101F10000B431360638B03F00403616A22680B4375
:101F200053602268D36923F40063D36100206065A5
:101F3000012384F8513010BD80F8503002F04CFC81
:101F4000CBE7012070472DE9F04184B01E4690F8A0
:101F50005030012B00F0C88004460D469046012306
:101F600080F85030FFF746F8074694F85130DBB25E
:101F7000012B0AD00223012284F85120002284F888
:101F80005020184604B0BDE8F081002D00F0A48078
:101F9000B8F1000F00F0A280032384F85130002331
:101FA00063652563A4F83480A4F83680A363A3870F
:101FB000E38763642364A368B3F5004F1BD02368F1
:101FC0001A6812F0400F03D11A6842F040021A60FA
:101FD000E368B3F5006F14D063681BB1E38E9BB266
:101FE000012B3ED1236815F8012B1A73E38E013BB8
:101FF0009BB2E38635E02268136843F480431360A4
:10200000DDE763681BB1E38E9BB2012B0DD1236822
:1020100035F8022BDA60E38E013B9BB2E38604E0E5
:10202000002E5DD0B6F1FF3F0FD1E38E9BB27BB3A4
:1020300023689A6812F0020FF2D035F8022BDA60AA
:10204000E38E013B9BB2E386EFE7FEF7D3FFC01BB5
:10205000B042EAD303238EE7002E43D0B6F1FF3F10
:102060000FD1E38E9BB29BB123689A6812F0020FE6
:10207000F2D015F8012B1A73E38E013B9BB2E38675
:10208000EFE7FEF7B7FFC01BB042EAD3032372E7C6
:1020900000973346012202212046FFF7B5FE08B122
:1020A000032368E73A4631462046FFF7F8FE034629
:1020B00018B12023636501235DE7A26832B903925A
:1020C0002268D168039192680392039A626D002A94
:1020D0003FF451AF01234EE701234CE701234AE7C8
:1020E000032348E7032346E702234AE72DE9F043A9
:1020F00085B099460C9D90F85030012B00F010816E
:1021000004460F461646012380F85030FEF772FF52
:10211000804694F85130DBB26268012B15D0B2F5DD
:10212000827F0AD00223012284F85120002284F801
:102130005020184605B0BDE8F083A268002A40F0A0
:10214000E780042B01D00223EDE7002F00F0E280AE
:10215000002E00F0E180B9F1000F00F0DF8094F86C
:102160005130DBB2012B2BD000236365A663A4F8AA
:102170003E90A4F83C902763A4F83690A4F83490DD
:102180002364636423681A6812F0400F03D11A684D
:1021900042F040021A60E368B3F5006F14D0636840
:1021A0001BB1E38E9BB2012B07D1236817F8012BDB
:1021B0001A73E38E013B9BB2E3864FF0010961E0A5
:1021C000052384F85130CFE763681BB1E38E9BB2DF
:1021D000012B07D1236837F8022BDA60E38E013B2D
:1021E0009BB2E3864FF0010913E0E38F9BB26BB122
:1021F00023689A6812F0010F08D0DB6826F8023BCA
:10220000E38F013B9BB2E3874FF00109B5F1FF3F3C
:102210001CD1E38E9BB21BB9E38F9BB2002B55D030
:10222000B9F1000FE1D0E38E9BB2002BDDD0236823
:102230009A6812F0020FD8D037F8022BDA60E38EDA
:10224000013B9BB2E3864FF00009CEE7FEF7D2FEDA
:10225000A0EB0800A842DCD3032364E7E38F9BB222
:102260006BB123689A6812F0010F08D0DB683370F5
:10227000E38F013B9BB2E38701364FF00109B5F1D3
:10228000FF3F1BD1E38E9BB213B9E38F9BB2EBB13F
:10229000B9F1000FE2D0E38E9BB2002BDED02368B1
:1022A0009A6812F0020FD9D03A781A73E38E013B84
:1022B0009BB2E38601374FF00009CFE7FEF79AFEA5
:1022C000A0EB0800A842DDD303232CE7CDF8008063
:1022D0002B46012202212046FFF796FD08B1032379
:1022E00021E7424629462046FFF7D9FD034618B1AB
:1022F00020236365012316E7A268002A7FF413AF49
:1023000003922268D168039192680392039A0AE7C4
:10231000022308E7012306E7012304E7012302E77C
:10232000022306E770B4036A23F001030362036A21
:102330004268846924F073040D6845EA040623F0BA
:1023400002048B6823430C4DA84202D00B4CA042E0
:102350000BD123F00803CD682B4323F0040322F4B0
:1023600040724D6915438A692A43426086614A6812
:102370004263036270BC70470000014000040140EA
:1023800030B4036A23F480730362036A4268C46949
:1023900024F073040D682C4323F400738D6843EA22
:1023A00005230E4DA84203D005F58065A8420ED145
:1023B00023F40063CD6843EA052323F4806322F409
:1023C00040524D6942EA05128D6942EA05124260A7
:1023D000C4614A68C263036230BC704700000140B8
:1023E00030B4036A23F480530362036A4468C26909
:1023F00022F4E6420D6842EA052223F400538D6878
:1024000043EA0533094DA84203D005F58065A8428B
:1024100004D124F480444D6944EA85144460C261C7
:102420004A680264036230BC704700BF000001408C
:1024300010B4036A046A24F001040462846924F07D
:10244000F00444EA021223F00A030B4382610362A0
:102450005DF8044B704730B4046A24F01004046241
:102460008469056A24F4407444EA022222F470422A
:102470001B039BB21A4325F0A005090101F0A0013E
:1024800029438261016230BC704710B4036A23F0B3
:10249000100303628469036A24F4704444EA02323C
:1024A00023F0A00343EA0113826103625DF8044B49
:1024B000704730B4046A24F480740462C469056A05
:1024C00024F00304224322F0F0021B01DBB21A4382
:1024D00025F42065090201F420612943C2610162EB
:1024E00030BC704730B4046A24F480540462C46978
:1024F000056A24F4407444EA022222F470421B0369
:102500009BB21A4325F42045090301F420412943D5
:10251000C261016230BC7047836823F0700341F0F0
:10252000070119438160704710B4846824F47F4424
:1025300042EA03230B43234383605DF8044B704757
:1025400010B50468A26822F070024B68134323F0B0
:1025500007030A681343A3604B68502B1ED00AD9A7
:10256000602B21D0702B05D10B698A68C96800687F
:10257000FFF7DAFF10BD402BFCD103681C6A1A6A12
:1025800022F001021A620268936923F0F0030969DC
:1025900043EA0113936103681C62EBE70A698968E7
:1025A0000068FFF745FFE5E70A6989680068FFF7FB
:1025B0006CFFDFE77047704790F83830012B7DD013
:1025C00010B50446012380F83830022380F83930F2
:1025D0000268936823F47F4323F0770393600B68CA
:1025E000402B57D010D9702B3ED01FD8502B47D03E
:1025F000602B32D1CA6849680068FFF746FF602146
:102600002068FFF789FF28E0102B4DD008D9202B38
:102610004FD0302B21D130210068FFF77DFF1CE027
:10262000DBB900210068FFF777FF16E0B3F5805FA4
:102630000ED0B3F5005F10D1CB684A688968006896
:10264000FFF772FF2268936843F48043936004E0CD
:102650000268936823F007039360012384F83930FC
:10266000002084F8380010BDCB684A68896800688B
:10267000FFF75AFF2268936843F077039360ECE713
:10268000CA6849680068FFF7D3FE50212068FFF749
:1026900043FFE2E7CA6849680068FFF7C9FE4021C6
:1026A0002068FFF739FFD8E710210068FFF734FFF3
:1026B000D3E720210068FFF72FFFCEE70220704705
:1026C00038B590F83830012B18D00446012580F831
:1026D0003850022380F83930FFF732FF2268D36880
:1026E00023F04003D3602268D36823F48043D3608F
:1026F00084F83950002084F8380038BD0220FCE707
:10270000034690F83820012A1ED0012280F8382094
:102710000C2917D8DFE801F0071616160D16161645
:102720001016161613000268506B002283F838202A
:1027300070470268906BF8E70268D06BF5E70268B3
:10274000106CF2E70020F0E70220704770477047F6
:10275000704710B5044603681A6912F0020F11D0D1
:10276000DA6812F0020F0DD06FF002021A61012335
:10277000037603689B6913F0030F70D001F018F91A
:102780000023237623681A6912F0040F12D0DA6846
:1027900012F0040F0ED06FF004021A6102232376A8
:1027A00023689B6913F4407F5FD0204601F000F955
:1027B0000023237623681A6912F0080F12D0DA6812
:1027C00012F0080F0ED06FF008021A61042323766E
:1027D0002368DB6913F0030F4ED0204601F0E8F8C0
:1027E0000023237623681A6912F0100F12D0DA68DA
:1027F00012F0100F0ED06FF010021A61082323762A
:102800002368DB6913F4407F3DD0204601F0D0F807
:102810000023237623681A6912F0010F03D0DA68C7
:1028200012F0010F36D123681A6912F0800F03D01D
:10283000DA6812F0800F34D123681A6912F0400F61
:1028400003D0DA6812F0400F32D123681A6912F00F
:10285000200F03D0DA6812F0200F30D110BDFFF73F
:1028600075FF2046FFF773FF8AE72046FFF76EFFEC
:102870002046FFF76CFF9BE72046FFF767FF2046E7
:10288000FFF765FFACE72046FFF760FF2046FFF744
:102890005EFFBDE76FF001021A61204602F014FAF4
:1028A000C1E76FF080021A61204600F018FBC3E711
:1028B0006FF040021A612046FFF74AFFC5E76FF04C
:1028C00020021A61204600F009FBC7E703682E4A80
:1028D000904212D0B0F1804F0FD0A2F57C429042CE
:1028E0000BD002F58062904207D002F580629042E0
:1028F00003D002F57842904203D123F070034A6876
:102900001343214A90422AD0B0F1804F27D0A2F53C
:102910007C42904223D002F5806290421FD002F5A3
:10292000806290421BD002F57842904217D002F5A7
:102930007052904213D002F5806290420FD002F59F
:10294000806290420BD0A2F59832904207D002F5F7
:102950008062904203D002F58062904203D123F45A
:102960004073CA68134303608B68C3620B68836259
:10297000054B984203D003F58063984201D10B695F
:10298000036301234361704700000140A8B110B503
:10299000044690F839305BB1022384F83930211DA8
:1029A0002068FFF793FF012384F83930002010BD21
:1029B00080F8383001F054FFEEE701207047A8B1ED
:1029C00010B5044690F839305BB1022384F83930F1
:1029D000211D2068FFF77AFF012384F83930002099
:1029E00010BD80F83830FFF7E5FDEEE701207047B5
:1029F000A8B110B5044690F839305BB1022384F8D1
:102A00003930211D2068FFF761FF012384F8393038
:102A1000002010BD80F83830FFF7CDFDEEE7012033
:102A20007047002847D0F8B505460C4690F8393075
:102A3000002B3BD0022385F83930294651F8042B6E
:102A4000936823F0070393602868FFF73FFF296826
:102A50008A688E690F6A2068104326F4407626F053
:102A60000306A268A36942EA0323334323F47C43A9
:102A700023F0FC03E668E26946EA02261E43226A66
:102A80001303226943EA0213334327F0AA0762685B
:102A9000646942EA04123A43886029688B612B68B2
:102AA0001A62012385F839300020F8BD80F83830EB
:102AB00001F08AFFBEE701207047000070B4046A8D
:102AC00024F0010404628469056A1A4EB0421FD0E2
:102AD000B0F1804F1CD0A6F57C46B04218D006F568
:102AE0008066B04214D006F58066B04210D006F57C
:102AF0007846B0420CD006F57056B04208D0A6F524
:102B00009436B04204D024F0030242F0010202E005
:102B100024F00304224322F0F0021B01DBB2134332
:102B200025F00A0201F00A0111438361016270BCC1
:102B3000704700BF0000014038B590F83830012BD5
:102B400058D00D460446012380F83830022380F81F
:102B50003930DAB1042A2AD0082A3AD0CB684A6838
:102B600009680068FFF7BEFC2268D36923F440635C
:102B7000D3612268D369A96843EA0123D3610123A1
:102B800084F83930002084F8380038BDCB684A68B2
:102B900009680068FFF792FF2268936923F00C032D
:102BA000936122689369A9680B439361E7E7CB6857
:102BB0004A6809680068FFF74EFC2268936923F4AD
:102BC0004063936122689369A96843EA0123936192
:102BD000D5E7CB684A6809680068FFF76AFC226895
:102BE000D36923F00C03D3612268D369A9680B432E
:102BF000D361C4E70220C8E730B4036A23F01003AE
:102C00000362036A4468826922F4E6420D6842EA7C
:102C1000052223F020038D6843EA05130E4DA842D8
:102C200003D005F58065A8420ED123F08003CD685E
:102C300043EA051323F0400324F440644D6944EA59
:102C400085048D6944EA8504446082614A68826330
:102C5000036230BC704700BF0000014038B590F8F7
:102C60003830012B66D00D460446012380F83830F9
:102C7000022380F839300C2A1AD8DFE802F007194D
:102C80001919201919193419191947000068FFF783
:102C900049FB2268936943F00803936122689369B2
:102CA00023F0040393612268936929690B439361BC
:102CB000012384F83930002084F8380038BD0068DA
:102CC000FFF79AFF2268936943F4006393612268D7
:102CD000936923F48063936122689369296943EAC5
:102CE00001239361E4E70068FFF74AFB2268D36998
:102CF00043F00803D3612268D36923F00403D3614E
:102D00002268D36929690B43D361D1E70068FFF7D3
:102D100067FB2268D36943F40063D3612268D369F7
:102D200023F48063D3612268D369296943EA0123CC
:102D3000D361BDE70220C1E710B4012303FA01F417
:102D4000036A23EA04030362036A8A4013430362AB
:102D50005DF8044B7047000010B50446012200687E
:102D6000FFF7EAFF2368094A934203D002F5806225
:102D7000934203D15A6C42F400425A6422681368A9
:102D800043F001031360002010BD00BF00000140AC
:102D900010B504460C290DD8DFE801F0070C0C0C27
:102DA000170C0C0C1D0C0C0C23000268D36843F0AC
:102DB0000203D36001222068FFF7BEFF2268136878
:102DC00043F001031360002010BD0268D36843F094
:102DD0000403D360EEE70268D36843F00803D360CE
:102DE000E8E70268D36843F01003D360E2E710B568
:102DF000044661B1042916D0012200210068FFF7C2
:102E00009BFF012204212068FFF796FF04E00122C6
:102E100000210068FFF790FF2268136843F0010368
:102E20001360002010BD012204210068FFF784FF19
:102E3000F2E790F83830012B22D030B4012280F82C
:102E40003820022380F839300468636823F0700367
:102E50006360046863680D682B4363600468A3685B
:102E600023F08003A3600468A36849680B43A36050
:102E700080F83920002380F83830184630BC70477D
:102E80000220704790F83830012B25D0012380F8BC
:102E90003830CB6823F440738A68134323F480638B
:102EA0004A68134323F400630A68134323F48053EE
:102EB0000A69134323F400534A69134323F48043FC
:102EC0008A69134323F400431343026853640023C5
:102ED00080F83830184670470220704770477047B6
:102EE0000268D36823F49073D3600268536923F0B7
:102EF00001035361202380F83A30704790F839304D
:102F0000DBB2212B2AD18368B3F5805F16D0036A28
:102F10005A1C02621A7803685A60C38C013B9BB248
:102F2000C384EBB90268D36823F08003D3600268DE
:102F3000D36843F04003D36000207047036A1B88C6
:102F40000268C3F30803536003691BB9036A0233C1
:102F50000362E2E7036A01330362DEE7022070479F
:102F6000002070472DE9F843044601680A6922F4FD
:102F70004052C36813430B610168CA6822F41642C9
:102F800022F00C0283680069034360690343E0692F
:102F900003431343CB6021684A6922F44072A3695A
:102FA00013434B61E369B3F5004F60D02368B84A1F
:102FB000934200F0148102F58062934200F00F8189
:102FC000FEF75EFC00EB800000EB80006568AD0062
:102FD000B0FBF5F5AF4FA7FB05356D092E01FEF7E8
:102FE0004FFC00EB800000EB80006568AD00B0FB9B
:102FF000F5F9FEF745FC00EB800000EB800065680A
:10300000AD00B0FBF5F5A7FB05356D094FF0640881
:1030100008FB15952D013235A7FB05356D0905F027
:10302000F0053544FEF72CFC00EB800000EB80003F
:103030006668B600B0FBF6F6FEF722FC00EB8000F7
:1030400000EB800063689B00B0FBF3F0A7FB00304F
:10305000400908FB10684FEA081808F13208A7FB7E
:103060000837C7F3431723682F449F600DE1236897
:10307000874A93425BD002F58062934257D0FEF7B5
:10308000FFFB00EB800000EB800065686D00B0FB8B
:10309000F5F5804FA7FB05356D092E01FEF7F0FB16
:1030A00000EB800000EB800065686D00B0FBF5F977
:1030B000FEF7E6FB00EB800000EB800065686D002A
:1030C000B0FBF5F5A7FB05356D094FF0640808FB6B
:1030D0001595ED003235A7FB05356D096D0005F43A
:1030E000F8753544FEF7CCFB00EB800000EB800068
:1030F00066687600B0FBF6F6FEF7C2FB00EB8000D8
:1031000000EB800063685B00B0FBF3F3A7FB0323D5
:103110005B0908FB13684FEAC80808F13208A7FBEF
:103120000837C7F3421723682F449F60ADE0FEF7CE
:10313000B7FB00EB800000EB800065686D00B0FB22
:10314000F5F5544FA7FB05356D092E01FEF7A8FBD9
:1031500000EB800000EB800065686D00B0FBF5F9C6
:10316000FEF79EFB00EB800000EB800065686D00C1
:10317000B0FBF5F5A7FB05356D094FF0640808FBBA
:103180001595ED003235A7FB05356D096D0005F489
:10319000F8753544FEF784FB00EB800000EB8000FF
:1031A00066687600B0FBF6F6FEF77AFB00EB80006F
:1031B00000EB800063685B00B0FBF3F3A7FB032325
:1031C0005B0908FB13684FEAC80808F13208A7FB3F
:1031D0000837C7F3421723682F449F6055E0FEF776
:1031E0005FFB00EB800000EB80006568AD00B0FB8A
:1031F000F5F5284FA7FB05356D092E01FEF750FBAD
:1032000000EB800000EB80006568AD00B0FBF5F9D5
:10321000FEF746FB00EB800000EB80006568AD0028
:10322000B0FBF5F5A7FB05356D094FF0640808FB09
:1032300015952D013235A7FB05356D0905F0F00513
:103240003544FEF72DFB00EB800000EB8000666844
:10325000B600B0FBF6F6FEF723FB00EB800000EBB8
:10326000800063689B00B0FBF3F0A7FB00304009CF
:1032700008FB10684FEA081808F13208A7FB083766
:10328000C7F3431723682F449F60BDE8F88300BF4E
:10329000001001401F85EB512DE9F04105460F4616
:1032A00016469846069C2B681B6837EA03030CBF3A
:1032B00001230023B3421DD1B4F1FF3FF3D02CB161
:1032C000FDF798FEA0EB0800A042ECD92A68D3686D
:1032D00023F4D073D3602A68536923F00103536148
:1032E000202385F8393085F83A30002385F83830C6
:1032F000032000E00020BDE8F08158B310B504467B
:1033000090F839300BB3242384F839302268D3681D
:1033100023F40053D3602046FFF724FE226813698C
:1033200023F4904313612268536923F02A03536105
:103330002268D36843F40053D3600020E063202365
:1033400084F8393084F83A3010BD80F8383001F014
:10335000CDFBD8E7012070472DE9F04182B01E4631
:1033600090F83930DBB2202B55D104460D469046FB
:10337000002955D0002A55D090F83830012B53D071
:10338000012380F838300023C363212380F83930CB
:10339000FDF730FE0746A4F82480A4F8268010E04C
:1033A00000963B46002280212046FFF775FF00284B
:1033B0003CD12B882268C3F3080353602369C3B947
:1033C0000235E38C9BB2B3B1E38C013B9BB2E38447
:1033D000A368B3F5805FE3D000963B4600228021CE
:1033E0002046FFF759FF18BB2A7823685A60013539
:1033F000E7E70135E5E700963B46002240212046FD
:10340000FFF74AFF0346A8B9202284F8392000229A
:1034100084F8382000E00223184602B0BDE8F081AD
:103420000123F9E70123F7E70223F5E70323F3E795
:103430000323F1E70323EFE790F83A30DBB2202BC8
:103440001BD1E1B1EAB190F83830012B1BD0816279
:103450008285C2850023C363222280F83A2080F847
:10346000383001684A6942F001024A610168CA685D
:1034700042F49072CA6018467047022070470120DB
:1034800070470120704702207047704708B50168F7
:10349000CB6823F04003CB60202380F83930FFF75E
:1034A000F4FF002008BD08B590F83A30DBB2222BBB
:1034B00040D18368B3F5805F0ED0036903BB036816
:1034C0005A68836A591C81621A70C38D013B9BB292
:1034D000C385F3B100202EE0826A036943B9036813
:1034E0005B68C3F308031380836A02338362ECE7EB
:1034F00003685B68DBB21380836A01338362E4E7AD
:1035000003685B68826A511C816203F07F03137059
:10351000DBE70268D36823F49073D36002685369D1
:1035200023F001035361202380F83A3000F046F97C
:10353000002000E0022008BD7047000010B50446DE
:1035400002681368D168526913F00F0005D113F0B7
:10355000200F02D011F0200F53D1002867D012F0B5
:10356000010202D111F4907F61D013F0010F06D057
:1035700011F4807F03D0E06B40F00100E06313F0B2
:10358000040F04D01AB1E06B40F00200E06313F0C6
:10359000020F04D01AB1E06B40F00400E06313F0B6
:1035A000080F04D01AB1E26B42F00802E263E26B4A
:1035B000002A48D013F0200F02D011F0200F24D1A0
:1035C00023685B6903F04003E26B12F0080F00D13F
:1035D0003BB32046FFF784FC23685A6912F0400F82
:1035E0001BD05A6922F040025A61636B8BB11A4AB0
:1035F0001A65606BFDF70DFF28B3606B036D98478C
:1036000021E02046FFF74FFF1DE02046FFF74BFF6C
:10361000D6E72046FFF790FF15E02046FFF78CFF26
:1036200011E02046FFF788FF0023E3630BE013F06F
:10363000800F02D011F0800F06D113F0400F02D09E
:1036400011F0400F04D110BD2046FFF757FCFAE7F8
:103650002046FFF71BFFF6E75D36000808B5806BD4
:103660000023C385C384FFF767FF08BD2DE9F04140
:103670008AB0002401943B4B1A6B42F004021A6397
:103680001A6B02F004020192019A02941A6B42F042
:1036900080021A631A6B02F080020292029A03946B
:1036A0001A6B42F001021A631A6B02F001020392D4
:1036B000039A04941A6B42F002021A631B6B03F024
:1036C00002030493049B284D224640F20911284628
:1036D000FDF790FFDFF89C8022464FF48151404671
:1036E000FDF788FF214F22464FF450413846FDF741
:1036F00081FF4FF4005305931D4B0693079405A9D2
:103700002846FDF799FE40F2091305930126069617
:103710000794089405A92846FDF78EFE4FF48153BF
:10372000059306960794089405A94046FDF784FE84
:103730004FF45043059306960794089405A938461C
:10374000FDF77AFE80230593022306930794032353
:1037500008930823099305A92846FDF76DFE0AB0D2
:10376000BDE8F08100380240000802400004024039
:10377000000021100000024008B50C4B1B780C4AD9
:1037800012780C49CA540AB9084A53703F2B08D022
:103790000133064A1370012205490748FFF74CFE22
:1037A00008BD024B00221A70F5E700BF2C02002072
:1037B000C606002048060020C806002008B5FFF70E
:1037C000DBFF08BDDFED027A20EE270A704700BF5D
:1037D00000002F44164B93ED017ADFED167A27EEA9
:1037E000277AD3ED027ADFED146A67EEA67A37EE18
:1037F000277AF1EE007A20EE270A37EE000ADFED95
:103800000F7AB4EEE70AF1EE10FA01DDB0EE670AC6
:10381000DFED0B7AB4EEE70AF1EE10FA05D4044BB3
:1038200083ED020A83ED017A7047B0EE670AF6E78E
:103830002C02002048E17A3F00D7A33C00409C4581
:1038400000409CC5B0F5C84F01D343F2FF10A0F56E
:1038500047503F387047000007EE901AF8EEE77ABD
:103860000A4B93ED007A27EE877A06EE900AF8EE7F
:10387000E66A77EEE67AD3ED016A67EEA67A77EE2E
:10388000277AFDEEE77A17EE900A704708000020CD
:1038900010B440F6872202FB00F23B4C84FB02345A
:1038A000D317C3EB643303F2DC531BB240F2824202
:1038B000934213DD40F23572934212DC334A138097
:1038C000334A1278012A0FD0324A1278012A33D0B3
:1038D000314A118018465DF8044B704740F283432B
:1038E000ECE740F23573E9E707EE900AF8EEE77A85
:1038F0002A4A92ED027A67EE877A9FED297A67EE7F
:10390000877ADFED286A87EEA67ADFED277A77EEF1
:10391000277AFDEEE77A17EE902A11B240F24B4279
:10392000914206DD40F26C729142CDDD40F26C7145
:10393000CAE740F24C41C7E707EE900AF8EEE77A93
:10394000164A92ED037A67EE877A9FED187A67EE52
:10395000877ADFED146A87EEA67ADFED137A77EEC9
:10396000C77AFDEEE77A17EE902A11B240F24B4289
:10397000914206DD40F26C729142A9DD40F26C7119
:10398000A6E740F24C41A3E789B5F81440040020B3
:10399000C50600200807002042040020080000207F
:1039A000005043450050C3470080BB440028F44604
:1039B000037E012B00D0704710B504460021FEF7AE
:1039C0009FFE074BD860DB681BB9054B96221A6136
:1039D00010BD04212046FEF793FE014B1861F7E766
:1039E0002C020020A02801D8002070470120704739
:1039F0000E4B1B78012B00D070470D4B1B781BB969
:103A00000C494A6901324A61012B05D0032B08D0C9
:103A1000064B00221A70EFE706498A6901328A6173
:103A2000F4E7044AD3690133D361F1E7A00200202F
:103A3000C40600202C020020124B1B78022B03D05E
:103A4000012B0FD0002070470F4A92F82820002A3F
:103A5000F6D10E4A11680E4A11600B4A012182F814
:103A60002810EDE70A4B1B684BB1084A1068C01AD2
:103A7000054B5862064B00221A60C0B27047002006
:103A8000704700BFC40600202C020020B8020020AE
:103A9000C4070020124B1B78012B03D0022B0FD040
:103AA000002070470F4A92F82820012AF6D10E4ACA
:103AB00011680E4A11600B4A002182F82810EDE7C8
:103AC0000A4B1B684BB1084A1068C01A054B586274
:103AD000064B00221A60C0B270470020704700BF3A
:103AE000C40600202C020020B8020020C4070020D9
:103AF000114B1B78012B03D00F4B00221A7070471B
:103B000000B59DB00D4AD36A126B00920C4A642135
:103B100003A802F021FD03A8FDF7C8F94FF0FF3319
:103B200082B203A90748FFF717FC034B00221A7063
:103B30001DB05DF804FB00BF9C0200202C02002099
:103B4000D07700084807002008B5174B1B78012BD9
:103B50001AD008BD154B002283F834204B1C134AA1
:103B600092F834201248805C124A5054D9B20F4A5D
:103B700092F834305278934208D03F2BEAD0013388
:103B80000A4A82F83430E9E70021F0E7074B83F86E
:103B90003420094B094A0A49064802F011FD024B3C
:103BA00000221A70D5E700BFAC0200202C020020D2
:103BB000480600208004002030030020C4060020B6
:103BC0008877000808B50A4B01221A700022094BB9
:103BD0001A70094BD9691960196A5960596A074BFB
:103BE00099634FF480510648FDF704FD08BD00BFFE
:103BF000C506002008070020080000202C02002035
:103C00000000024008B5FFF7DDFF08BD024B9A6ACD
:103C1000024B9A63704700BF080000202C0200206E
:103C200038B53C4B1B78012B00D038BD3A4B93F88C
:103C30004130042B65D8DFE803F0032538485700EE
:103C4000FFF7E0FFFFF7F8FE334B5B6AA3F54B523B
:103C5000093A44F266218A4206D82F4B012283F8A2
:103C6000412000225A6250E0A3F59C53093B41F6E3
:103C70003E72934249D8284B022283F84120002209
:103C80005A6242E0FFF706FF234B5B6AA3F54B53F2
:103C9000093B44F26622934237D81F4B00225A62F6
:103CA0005A61032283F841202FE0FFF7F3FE1A4BFD
:103CB0005B6AA3F59C53093B41F63E72934224D8BC
:103CC000154B002283F841201FE0134C012384F898
:103CD0004230FFF79BFF6369132B16D90022A261C4
:103CE000042284F8412010E00B4B9B69032B0CD974
:103CF000094C002584F84250FFF764FF84F84150D6
:103D000003E0054B002283F84120024B00221A7089
:103D10008BE700BFA40200202C020020B0F5037F37
:103D200004DC10F5037F03DC084801E04FF4037066
:103D300080B200F20D239BB2C0F50370013080B257
:103D4000034A12685363D063704700BFF5FDFFFF5D
:103D50008806002010B5224B1869FFF743FE20B9F2
:103D60001F4B00225A645A609A601D4B93F84230F0
:103D70006BB91C4A12681C49B1F9001051631B4A07
:103D8000116840F2DC524A63194909684A63012B01
:103D900015D0134BD3ED117AFDEEE77A17EE903A7A
:103DA00018B2FFF7BBFF134C012211462046FDF766
:103DB00021FC012208212046FDF71CFC10BD094B07
:103DC0001A680D4BB3F92C105163084A1268B3F905
:103DD0002E305363064B1B6840F2DC525A63D8E71F
:103DE0002C02002044050020400400208807002009
:103DF0000404002000080240080000200000000029
:103E000038B5214B1B78012B00D038BD1F4B1868EB
:103E1000FFF718FD05461E4CA0640146E06CFFF755
:103E20001BFD2065E564FFF733FD94ED0E0AFFF7F7
:103E3000C9FC184BD3ED007AF8EEE77A30EE670A4A
:103E400084ED150AFFF7C6FC10EE100AFCF744FBE0
:103E500009A3D3E90023FCF797FB09A3D3E90023C7
:103E6000FCF7DCF9FCF752FE6064FFF773FF064BCA
:103E700000221A70C9E700BF7B14AE47E17AA43F65
:103E80009A99999999196140A8020020300300205D
:103E90002C020020C0020020FEE7000000B585B023
:103EA0001548164B03600023436083600361836100
:103EB0000362C362124A8262C3600122C261036369
:103EC0004261FDF735F968B904230093012301939A
:103ED0000023029369460848FDF754F938B905B044
:103EE0005DF804FB4FF4CD710648FFF7D5FF4FF4A2
:103EF000D2710448FFF7D0FFFC04002000200140ED
:103F00000100000FD877000808B50C480C4B03607F
:103F10000C4B436000238360C3604FF48042026116
:103F200043618361C3610362FDF76AFB00B908BDA9
:103F30004FF4DC710448FFF7AFFF00BFB00300206F
:103F400000540040A0860100D877000800B595B065
:103F50003B483C4B0360012343602023836040F2D5
:103F60001943C360002303614361FEF70FFD00287E
:103F700042D114A94FF4805341F8103D3048FEF768
:103F80001BFB00283DD12E48FEF719FD00283DD12E
:103F900000230E930F930EA92948FEF74AFF00282D
:103FA00039D16023079340F20D2308930022099230
:103FB0000A920B920C920D9207A92148FEF74EFE31
:103FC00070BB082207A91E48FEF748FE68BB002305
:103FD000009301930293039304934FF400520592CC
:103FE000069369461648FEF74DFF18BB144800F0CB
:103FF00025FD15B05DF804FB4FF4F3711248FFF78F
:104000004BFF4FF4F6711048FFF746FF40F2F111F5
:104010000D48FFF741FF4FF4FC710B48FFF73CFFE1
:104020004FF401710848FFF737FF40F209210648B5
:10403000FFF732FF40F215210348FFF72DFF00BFC5
:104040008806002000000140D877000800B58DB038
:1040500017484FF0804303600023436083604FF0B4
:10406000FF32C2600361032203920493012205928E
:1040700006930793089309920A930B9303A9FEF7FB
:10408000D0FC50B900230193029301A90848FEF720
:10409000D0FE38B90DB05DF804FB40F2332105487D
:1040A000FFF7FAFE40F23A210248FFF7F5FE00BFA3
:1040B0000C070020D877000800B58DB03748384B82
:1040C000036040F247334360002383604FF6FF7282
:1040D000C2600361FEF75AFC00283CD12F48FEF76E
:1040E00087FC00283CD10423079350230893002326
:1040F00009930B9307A92948FEF7E2FA002834D167
:1041000000230593069305A92448FEF792FE002894
:1041100030D100220192012302930392049201A95B
:104120001E48FEF709FD50BB0223019302930422AF
:104130000DEB02011948FEF7FFFC28BB0023019399
:1041400001230293082201A91448FEF7F5FC00BBE5
:104150000DB05DF804FB40F24E211248FFF79CFEC3
:1041600040F253210F48FFF797FE4FF417710D48A7
:10417000FFF792FE40F263210A48FFF78DFE4FF4ED
:104180001B710848FFF788FE40F273210548FFF7CE
:1041900083FE40F27A210348FFF77EFEC004002030
:1041A00000040040D877000808B50B480B4B0360AB
:1041B0004FF4E133436000238360C3600361042252
:1041C00042618361C361FFF798F800B908BD40F20E
:1041D00033310348FFF760FEC8060020004C004062
:1041E000D877000808B50B480B4B03604FF4E13358
:1041F000436000238360C3600361082242618361DE
:10420000C361FFF77AF800B908BD40F246310348B0
:10421000FFF742FE4807002000440040D87700081E
:1042200008B50B480B4B03604FF416534360002353
:104230008360C3600361082242618361C361FFF749
:104240005CF800B908BD40F259310348FFF724FE7D
:104250007003002000480040D877000800B589B0FE
:1042600019481A4B0360532343600023836040F6D0
:104270009F72C2600361FEF789FBB0B91248FEF776
:104280009EFBB8B96023019340F2DC5302930022F5
:104290000392059201A90C48FEF7E0FC78B90A48A0
:1042A00000F0CCFB09B05DF804FB40F2EE210848B9
:1042B000FFF7F2FD40F2F3210548FFF7EDFD4FF463
:1042C0003F710348FFF7E8FD44050020001C004053
:1042D000D877000800B587B01848194B03605323FE
:1042E00043600023836040F2E732C2600361FEF75F
:1042F0004DFB98B906A94FF4805341F8103D0F4883
:10430000FEF75AF978B900230093019369460B48E8
:10431000FEF78FFD60B907B05DF804FB40F28D2118
:104320000848FFF7B9FD40F293210648FFF7B4FDB6
:1043300040F29A210348FFF7AFFD00BF340300208D
:1043400000080040D877000800B589B019481A4B1A
:104350000360532343600023836043F67F62C2609F
:104360000361FEF713FBB0B91248FEF728FBB8B99A
:104370006023019340F2DC530293002203920592E2
:1043800001A90C48FEF76AFC78B90A4800F056FB10
:1043900009B05DF804FB4FF444710848FFF77CFD59
:1043A00040F215310548FFF777FD40F21E31034812
:1043B000FFF772FD8807002000200040D877000832
:1043C00008B50F480F4B03604FF48273436000231E
:1043D0008360C360036143614FF4007282612822ED
:1043E000C2610362436283620A23C362FDF76BFD0D
:1043F00000B908BD4FF4E8710348FFF74DFD00BF59
:10440000D802002000380040D877000800B587B0F7
:104410001848194B0360532343600023836041F223
:104420008732C2600361FEF7B1FA98B906A94FF46A
:10443000805341F8103D0F48FEF7BEF878B90023CD
:104440000093019369460B48FEF7F3FC60B907B08F
:104450005DF804FB40F2AD210848FFF71DFD40F276
:10446000B3210648FFF718FD40F2BA210348FFF7D1
:1044700013FD00BF44040020000C0040D877000862
:1044800000B589B019481A4B0360532343600023D9
:10449000836040F69F72C2600361FEF777FAB0B99D
:1044A0001248FEF78CFAB8B96023019340F2DC534E
:1044B000029300220392059201A90C48FEF7CEFB5D
:1044C00078B90A4800F0BAFA09B05DF804FB4FF475
:1044D00033710848FFF7E0FC40F2D1210548FFF7AF
:1044E000DBFC40F2DA210348FFF7D6FC040400208D
:1044F00000440140D877000800B595B00022009232
:104500002A4B196C41F0805119641B6C03F08053E5
:104510000093009B0192264B196841F440411960B9
:104520001B6803F440430193019B0223079301217D
:104530000A9110210B910D930E9208220F92A8223E
:10454000109211931293139307A8FDF77BFA10BBF7
:104550000F23029302230393002304934FF4A053E9
:1045600005930693052102A8FDF7D8F8C0B9FDF719
:1045700081F9104BA3FB00308009FCF71FFF0420DA
:10458000FCF732FF002211464FF0FF30FCF7D6FE59
:1045900015B05DF804FB40F267110748FFF77CFC9B
:1045A00040F275110448FFF777FC00BF0038024065
:1045B00000700040D34D6210D877000808B5FCF7B2
:1045C000F3FCFFF799FFFFF751F8FFF767FCFFF7E0
:1045D0009BFCFFF7BBFCFFF739FDFFF76DFDFFF715
:1045E000E3FDFFF7FFFDFFF71BFEFFF737FEFFF7C9
:1045F00071FEFFF7A9FEFFF7E3FEFFF707FFFFF7E6
:104600003FFF1B4C00212046FEF7A6FB0821204659
:10461000FEF7A2FB00211748FEF79EFB002116487B
:10462000FEF79AFB00211548FEF796FB1821144867
:10463000FEF7DDFB134C00212046FEF7A9FB042109
:104640002046FEF7A5FB01220F491048FEF7F4FEB5
:1046500000F086FB00F0ECFCFFF7CAF9FFF774FAF4
:10466000FFF7DEFAFFF7CCFBFFF742FAF2E700BFF5
:10467000880600200404002044050020880700204C
:104680000C070020C0040020C6060020C806002039
:1046900010B582B000240094214B5A6C42F4804241
:1046A0005A645A6C02F480420092009A01941A6C87
:1046B00042F080521A641B6C03F080530193019BFB
:1046C0000320FCF729FE224621466FF00B00FCF781
:1046D00035FE224621466FF00A00FCF72FFE2246E7
:1046E00021466FF00900FCF729FE224621466FF0B3
:1046F0000400FCF723FE224621466FF00300FCF77E
:104700001DFE224621466FF00100FCF717FE2246EF
:1047100021464FF0FF30FCF711FE02B010BD00BF84
:10472000003802400268134B9A4200D0704730B5FF
:1047300087B00024009403F58C335A6C42F48072E5
:104740005A645B6C03F480730093009B1023019305
:1047500003250295039401A90748FCF76DFE302359
:1047600001930295039401A90448FCF765FE07B084
:1047700030BD00BF002001400000024000080240A0
:104780000268124B9A4200D0704700B587B0C02330
:10479000019312230293012303930323049304231D
:1047A00005930DEB03010A48FCF746FE0023009336
:1047B000084B1A6C42F400121A641B6C03F40013C9
:1047C0000093009B07B05DF804FB00BF005400405D
:1047D000000402400038024002681E4B9A4200D09A
:1047E00070472DE9F04186B00024009403F50033B2
:1047F0001A6C42F480421A641B6C03F480430093E9
:10480000009B022501950295039403260496072335
:104810000593DFF8488001A94046FCF70DFE04230C
:104820000193029503940496052705970DEB030168
:104830004046FCF701FE4FF40053019302950394A8
:104840000496059701A90448FCF7F6FD06B0BDE8FB
:10485000F08100BF00380040000402400008024020
:1048600070B58CB003684E4A93421ED04D4A9342B5
:1048700029D04D4A934250D04C4A934261D04C4A81
:10488000934272D04B4A93427CD04B4A934218D108
:1048900000230693494B1A6C42F480721A641B6C15
:1048A00003F480730693069B0BE000230093434BB5
:1048B0005A6C42F001025A645B6C03F001030093EE
:1048C000009B0CB070BD002401943C4B1A6C42F06C
:1048D00002021A641B6C03F002030193019B012680
:1048E00007960225089509940A940B9507A9344860
:1048F000FCF7A2FD40230793089509940A940B95B1
:1049000007A93048FCF798FD224631461D20FCF7E8
:1049100015FD1D20FCF746FDD3E700220292274B30
:10492000196C41F0040119641B6C03F00403029339
:10493000029B01211E20FCF701FD1E20FCF732FD29
:10494000BFE7002103911D4B1A6C42F008021A6464
:104950001B6C03F008030393039B0A463220FCF709
:10496000EDFC3220FCF71EFDABE700230493134B54
:104970005A6C42F400325A645B6C03F400330493C3
:10498000049B9EE7002305930C4B1A6C42F08002B7
:104990001A641B6C03F080030593059B91E700BF2D
:1049A000000001400004004000080040000C0040EE
:1049B00000440140001C004000200040003802403C
:1049C00000040240000802400368B3F1804F00D0A9
:1049D000704770B586B00024009403F50E331A6C4E
:1049E00042F001021A641B6C03F001030093009B68
:1049F0004FF4004301930226029603940494012588
:104A0000059501A90B48FCF717FD4FF400730193BE
:104A1000029603940494059501A90748FCF70CFD40
:104A2000224629461C20FCF789FC1C20FCF7BAFC16
:104A300006B070BD000002400004024000B587B01F
:104A40000368244A93420BD0234A934217D0234A47
:104A5000934223D0224A93422ED007B05DF804FB44
:104A60004FF4A06301930223029300230393049362
:104A70000123059301A91B48FCF7DEFCEDE74FF489
:104A8000807301930223029300230393049303236F
:104A9000059301A91448FCF7CFFCDEE740230193FE
:104AA000022302930023039304930923059301A98E
:104AB0000C48FCF7C1FCD0E780230193022302934A
:104AC0000023039304930923059301A90548FCF7E8
:104AD000B3FCC2E70000014000440140001C00405C
:104AE00000200040000002400004024030B589B0C0
:104AF0000368364A934207D0354A934226D0354A56
:104B0000934246D009B030BD00250095324B1A6C57
:104B100042F400221A641B6C03F400230093009BF0
:104B2000032303930222049201240594069308238D
:104B3000079303A92948FCF77FFC2A462146342025
:104B4000FCF7FCFB3420FCF72DFCDBE7002501958E
:104B5000214B1A6C42F400321A641B6C03F40033CC
:104B60000193019B0C2303930223049301240594D6
:104B7000032306930723079303A91848FCF75CFC5B
:104B80002A4621462620FCF7D9FB2620FCF70AFC02
:104B9000B8E700230293104B1A6C42F480221A6487
:104BA0001B6C03F480230293029B4FF44063039336
:104BB00002230493012305930323069307230793FA
:104BC00003A90748FCF738FC9CE700BF004C0040F5
:104BD000004400400048004000380240000002400D
:104BE000000802407047FEE7FEE7FEE7FEE7704779
:104BF0007047704708B5FCF7F1F9FCF706FC08BDF3
:104C000008B50248FDF7A5FD08BD00BF0C07002050
:104C100008B50248FDF79DFD08BD00BFC004002097
:104C200008B50248FDF795FD08BD00BF340300201C
:104C300008B50248FEF782FC08BD00BF4807002007
:104C400008B500F081F80248FDF783FD08BD00BFFC
:104C50004404002008B50248FEF770FC08BD00BF00
:104C6000C80600200F49D1F8883043F47003C1F81A
:104C700088300D4B1A6842F001021A6000209860DB
:104C80001A6822F0847222F480321A60074A5A604D
:104C90001A6822F480221A60D8604FF000638B609B
:104CA000704700BF00ED00E00038024010300024E3
:104CB0000B8801339BB20B80834200D070470123E5
:104CC000137000230B80F9E702681D4B9A4200D055
:104CD000704710B51B4C2246A11C0520FFF7E8FFCA
:104CE000221DA11D0520FFF7E3FF04F1080204F1D6
:104CF0000A010520FFF7DCFF04F10C0204F10E01AC
:104D00000520FFF7D5FF04F1100204F11201052080
:104D1000FFF7CEFF04F1140204F116010520FFF79E
:104D2000C7FF04F1180204F11A010520FFF7C0FFC4
:104D300004F11C0204F11E010120FFF7B9FF10BDB0
:104D40000008004098020020044B196859604FF099
:104D50008042526A1A60521A9A607047B802002064
:104D600010B50A4C00224FF480512046FCF742FC5B
:104D70004FF0FF33022206490648FDF7E4F801220E
:104D80004FF480512046FCF735FC10BD0004024072
:104D9000CC070020D8020020224B1B78012B00D02A
:104DA000704730B583B0204D00224FF48051284623
:104DB000FCF720FC1D4C4FF0FF33009303232246E9
:104DC0001B491C48FDF792F901224FF480512846F7
:104DD000FCF710FCA278120212B26378134307EEBC
:104DE000903AF8EEE77A9FED147A67EE877A134BE4
:104DF000C3ED007A9FED127A67EE877A114B93ED3F
:104E0000007ADFED116A27EE267A77EE877AC3ED16
:104E1000007A0E4A938901339381024B00221A7063
:104E200003B030BDB402002000040240D0070020CF
:104E3000C8070020D802002000000C41D80700203D
:104E40006F12833AD407002077BE7F3FB80200205C
:104E5000214B1B78012B00D0704730B583B01F4D1C
:104E600000224FF480512846FCF7C4FB1C4C4FF045
:104E7000FF330093032322461A491B48FDF736F9F6
:104E800001224FF480512846FCF7B4FBA0780002C1
:104E900000B26378184307EE900AF8EEE77A17EE4F
:104EA000900AFBF719FB0022104BFBF76DFB044641
:104EB0000D460F4B1868FBF70FFB02460B462046CA
:104EC0002946FBF7A9F9FBF721FE0A4B1860024BB4
:104ED00000221A7003B030BDB0020020000402406E
:104EE000D0070020C8070020D80200200080214001
:104EF000D4070020D807002008B52DED028B07EE5F
:104F0000900AF8EEE77A9FED127A67EE877ADFED86
:104F1000116A87EEA68ADFED107A80EE270A20EE6E
:104F2000070ADFED0E7A60EE277A17EE900AFBF79C
:104F3000D3FA41EC100B00F01BF951EC100BFBF70E
:104F4000E5FD07EE900A28EE270ABDEC028B08BDAE
:104F50000000484300000C4300007A4435FA8E3CC0
:104F600008B52DED028B07EE900AF8EEE77A9FED7B
:104F7000127A67EE877ADFED116A87EEA68ADFED97
:104F8000107A80EE270A20EE070ADFED0E7A60EE37
:104F9000277A17EE900AFBF79FFA41EC100B00F00E
:104FA00087F851EC100BFBF7B1FD07EE900A28EEE5
:104FB000270ABDEC028B08BD0000484300000C43EB
:104FC00000007A4435FA8E3C10B52DED028B144B5F
:104FD0009C68144B93ED008AB0EE480A2046FFF718
:104FE0008BFF114BD3ED007AF8EEE77A37EE800AAB
:104FF000BDEEC00A83ED000AB0EE480A2046FFF776
:10500000AFFF0A4BD3ED007AF8EEE77A37EE800A6D
:10501000BDEEC00A83ED000ABDEC028B10BD00BFDF
:10502000B8020020D8070020580200205C020020AF
:1050300008B5074B9A89074B1B889A4204D3FFF7A0
:1050400007FFFFF7C1FF08BDFFF7A6FEF9E700BFA6
:10505000B80200203C000020DFF834D0002103E03B
:105060000C4B5B58435004310B480C4B42189A428E
:10507000F6D30B4A02E0002342F8043B094B9A4264
:10508000F9D3FFF7EFFD01F043FAFFF797FA704706
:10509000000002208C7B000800000020100200208D
:1050A00010020020E0070020FEE7000000000000E2
:1050B00000B551EC100B2C4A21F00043934285B00F
:1050C00020DD2A4A934209DD10EE102A0B46FBF739
:1050D000A3F841EC100B05B05DF804FB684600F046
:1050E000A7F800F00300012817D002282FD028B31A
:1050F00001209DED021B9DED000B01F015F851EC18
:10510000100BE6E79FED161B00F0BEFA51EC100BFA
:1051100041EC100B05B05DF804FB9DED021B9DED0D
:10512000000B01F001F853EC102B10EE100A03F104
:10513000004141EC100B05B05DF804FB9DED021B36
:105140009DED000B00F0A0FA51EC100BC1E79DEDB6
:10515000021B9DED000B00F097FAE4E7AFF300802F
:105160000000000000000000FB21E93FFFFFEF7F8F
:1051700000B551EC100B2C4A21F00043934285B04E
:1051800027DD2A4A934209DD10EE102A0B46FBF771
:1051900043F841EC100B05B05DF804FB684600F0E5
:1051A00047F800F0030001281FD0022830D028B3B0
:1051B0009DED021B9DED000B00F066FA53EC102BE9
:1051C00010EE100A03F1004141EC100B05B05DF840
:1051D00004FB00209FED121B00F0A6FF51EC100B0A
:1051E00041EC100B05B05DF804FB9DED021B9DED3D
:1051F000000B00F049FA51EC100BCAE701209DEDBD
:10520000021B9DED000B00F08FFF51EC100BC0E76F
:1052100001209DED021B9DED000B00F085FFCDE709
:105220000000000000000000FB21E93FFFFFEF7FCE
:105230002DE9F04753EC102BBF4923F000478F4274
:1052400090B040F39380BD498F421C46824629DCD2
:10525000002C194610EE100AADA3D3E9002340F349
:105260009080FAF7D9FFB64B9F4204460D4600F0F6
:105270007381A9A3D3E90023FAF7CEFF02460B46B8
:10528000CAE9002320462946FAF7C6FFA2A3D3E9BC
:105290000023FAF7C1FF0125CAE90201284610B030
:1052A000BDE8F087A7498F4240F38A80A6498F4224
:1052B00000F320813D15A5F2164510EE100AA7EB6C
:1052C000055116460F46FBF7F9FBFBF7F3F880464E
:1052D000894642464B4630463946CDE90A89FAF7B7
:1052E0009BFF0022994BFBF74FF989468046FBF75D
:1052F000E5FBFBF7DFF806460F4632463B464046E5
:105300004946CDE90C67FAF787FF00228F4BFBF780
:105310003BF900220023CDE90E01FBF79DFB00289D
:1053200000F065810023304639460022FBF794FBEC
:10533000002814BF01230223854A019202212A4634
:1053400000910AA8514600F0E3FA002C054614DA51
:10535000DAF80420DAF80C3002F1004203F10043DD
:105360004542CAF80420CAF80C3006E080ED000B74
:1053700000250024C0E902450025284610B0BDE8FC
:10538000F087FAF74BFF6E4B9F4204460D4600F044
:10539000108161A3D3E90023FAF740FF02460B46D0
:1053A000CAE9002329462046FAF736FF5AA3D3E973
:1053B0000023FAF733FF4FF0FF35CAE90201DCE7BB
:1053C00000F07CFF59EC108B10EE100A54A3D3E9C7
:1053D00000234946FBF7D8F800225E4BFAF71EFF80
:1053E000FBF76CFB0546FBF765F849A3D3E90023FF
:1053F000CDE90601FBF7C8F802460B464046494690
:10540000FAF70AFF44A3D3E9002380468946DDE981
:105410000601CDE90289FBF7B7F81F2D02460B46BE
:10542000CDE9042340F3B580DDE90423DDE9020181
:10543000FAF7F2FE804689463F15C9F30A53FB1A74
:10544000102B40F3B38038A3D3E90023DDE9060134
:10545000FBF79AF88046894602460B46DDE90201D1
:10546000FAF7DAFE02460B46DDE90201CDE9082330
:10547000FAF7D2FE42464B46FAF7CEFE2CA3D3E90A
:10548000002380468946DDE90601FBF77DF84246A8
:105490004B46FAF7C1FE0B46CDE904010246DDE9B1
:1054A0000801FAF7B9FEC1F30A53FF1A312F8046FB
:1054B000894600F39E809DED087BCAE900898DED49
:1054C000027B42464B46DDE90201FAF7A5FEDDE923
:1054D0000423FAF7A1FE002CCAE90201BFF64DAF82
:1054E00009F1004401F100436D42CAE90084CAE9B0
:1054F000020342E710EE100A1946FAF78DFE002566
:10550000CAE90201CAE9000137E700BFAFF3008032
:1055100000004054FB21F93F3163621A61B4D03D71
:1055200083C8C96D305FE43F0000601A61B4D03DAC
:105530007370032E8A19A33BFB21E93F7BD90240FC
:10554000FB21F93FFB213941FFFFEF7F0000704154
:10555000687800080000E03F41A3D3E90023FAF790
:105560005BFE41A3D3E900230D460446FAF754FE3F
:1055700002460B46CAE9002329462046FAF74CFEAC
:1055800039A3D3E90023FAF747FE0125CAE902014E
:10559000F3E640464946FAF73FFE394B6A1E80461D
:1055A00053F82230BB4289463FF446AFCAE900892E
:1055B00087E72BA3D3E90023FAF730FE2AA3D3E928
:1055C00000230D460446FAF729FE02460B46CAE9B7
:1055D000002329462046FAF71FFE23A3D3E9002320
:1055E000FAF71CFE4FF0FF35CAE90201C5E60323B6
:1055F000A2E61FA3D3E90023DDE90601FAF7C4FF01
:1056000006460F4602460B46DDE90801FAF704FE9E
:105610008046894602460B46DDE90801CDE902894C
:10562000FAF7FAFD32463B46FAF7F6FD12A3D3E944
:10563000002306460F46DDE90601FAF7A5FF3246CC
:105640003B46FAF7E9FD02460B4640464946CDE99E
:105650000423FAF7E1FD80468946A7E7AFF300800F
:105660000000601A61B4D03D7370032E8A19A33B09
:105670000000002E8A19A33BC14920259A837B395B
:10568000E8770008000000002DE9F04F57EC106BA0
:105690002DED028BB0EE418AF0EE618A27F00049D1
:1056A000B9F1795F83B072DA10EE100A3946FBF770
:1056B00005FA002800F0ED8032463B463046394678
:1056C000FAF762FF7CA3D3E9002304460D46FAF7FC
:1056D0005BFF7BA3D3E90023FAF7A0FD22462B460C
:1056E000FAF752FF78A3D3E90023FAF795FD224693
:1056F0002B46FAF749FF76A3D3E90023FAF78EFD8C
:1057000022462B46FAF740FF73A3D3E90023FAF7AA
:1057100083FD22462B46FAF737FF71A3D3E9002316
:10572000FAF77CFD22462B46FAF72EFF82468B467F
:105730000022714B20462946FAF726FF5246804642
:1057400089465B4620462946FAF71EFF53EC182B84
:1057500004460D4630463946FAF716FF02460B4618
:1057600020462946FAF758FD02460B464046494670
:10577000FAF752FD02460B4600206049FAF74CFD4D
:1057800041EC100B03B0BDEC028BBDE8F08F10EEC6
:10579000102A10EE100A3B463946FAF7F5FE46A3EA
:1057A000D3E9002304460D46FAF7EEFE44A3D3E9FD
:1057B0000023FAF733FD22462B46FAF7E5FE42A313
:1057C000D3E90023FAF728FD22462B46FAF7DCFE40
:1057D0003FA3D3E90023FAF721FD22462B46FAF72F
:1057E000D3FE3DA3D3E90023FAF716FD22462B464C
:1057F000FAF7CAFE3AA3D3E90023FAF70FFD2B46C6
:105800002246FAF7C1FE3E4B994582468B468FDD14
:105810003C4B994544DC0022A9F500130020374990
:1058200090469946FAF7F8FCCDE900010022324B88
:1058300020462946FAF7A8FE42464B46FAF7ECFC0A
:105840005246804689465B4620462946FAF79CFE2A
:1058500053EC182B04460D4630463946FAF794FEB1
:1058600002460B4620462946FAF7D6FC02460B466E
:1058700040464946FAF7D0FC02460B46DDE90001F6
:10588000FAF7CAFC41EC100B03B0BDEC028BBDE88B
:10589000F08F9FED150B03B0BDEC028BBDE8F08FD0
:1058A0009FED137B4FF000088DED007BDFF85890E3
:1058B000BCE700BFAFF30080D43888BEE9FAA8BDCA
:1058C000C4B1B4BD9EEE213EAD529C804F7E923E4F
:1058D0009015CB19A001FA3E7751C1166CC1563F05
:1058E0004C5555555555A53F000000000000F03FB0
:1058F000000000000000E73F0000E03F0000F03F34
:105900003233D33F0000E93F0000D23F00000000E7
:105910002DE9F04FADF5197DC14CA29EC14D54F853
:1059200026600793D41E85FB0475E417C4EBA50419
:1059300024EAE4741D46631CA3EB8303013D02EBE0
:10594000C3030593731904960994019503900B9171
:10595000A4EB05071AD43B44002400255E1C0DF17E
:105960008008DDF88C9208E059F82700FAF7A2FDCC
:105970000137B742E8E8020108D0002FF4DA013716
:1059800020462946B742E8E80201F6D1049B002BE5
:10599000079B4FEAC30302932ADB039A20A902EB79
:1059A000030801EB0309049B72AA02EBC30B0DF57C
:1059B000E07A019B002B4FF000064FF0000711DB4F
:1059C000039C4D4675E90223F4E80201FAF7DCFD79
:1059D00002460B4630463946FAF720FC4445064657
:1059E0000F46EFD1EAE80267DA4509F10809E0D18C
:1059F000DDE90204049920448B0082460BA8A3F140
:105A00000802C31808930CAB13440A938B4698AB57
:105A100003EBCB03BBF1000F53E9284529DD70AB45
:105A200003EBCB080DF1300900227F4B20462946BD
:105A3000FAF7AAFDFBF742F8FAF73CFD00227B4B90
:105A400006460F46FAF7A0FD02460B4620462946B9
:105A5000FAF7E2FBFBF732F878E9022349F8040B86
:105A600039463046FAF7DAFB70AB984504460D46E6
:105A7000DAD1DDF8149045EC104B484600F0B0FC4C
:105A800055EC104B00224FF07F5310EE100A2946C0
:105A9000FAF77AFD41EC100B00F01AFC002251ECF1
:105AA000100B634BFAF770FD02460B462046294661
:105AB000FAF7B2FB0D460446FBF700F88046FAF70A
:105AC000F9FC0B46024629462046FAF7A5FB4B4651
:105AD000002B06460F4640F3E0800BF1FF320CA985
